:020000040800F2
:100000006808002099010008FB1D0008B1160008CF
:10001000F91D000869080008D72800080000000042
:100020000000000000000000000000006124000843
:100030006B08000800000000FD1D000809250008ED
:10004000B3010008B3010008B3010008B3010008C0
:10005000B3010008B3010008B3010008B3010008B0
:10006000B3010008B3010008B3010008B3010008A0
:10007000B3010008B3010008B3010008B301000890
:10008000B3010008B3010008B3010008B301000880
:10009000B3010008B3010008B3010008B301000870
:1000A000B3010008B3010008B3010008B301000860
:1000B000B3010008B3010008B3010008B301000850
:1000C000B3010008B3010008B3010008B301000840
:1000D000B3010008B3010008B3010008B301000830
:1000E000B3010008B3010008B301000800F002F8F2
:1000F00000F043F80AA090E8000C82448344AAF17F
:100100000107DA4501D100F038F8AFF2090EBAE87C
:100110000F0013F0010F18BFFB1A43F0010318473B
:10012000B4440000D4440000103A24BF78C878C119
:10013000FAD8520724BF30C830C144BF04680C60ED
:10014000704700000023002400250026103A28BF35
:1001500078C1FBD8520728BF30C148BF0B60704739
:10016000642900F0CB80002070471FB59DE8030094
:1001700000F01CFA1FBD10B510BD00F0EBFA1146DF
:10018000FFF7F3FF02F0BAFC00F009FB03B4FFF73E
:10019000F2FF03BC00F03AFB0948804709480047DA
:1001A000FEE7FEE7FEE7FEE7FEE7FEE7FEE7FEE727
:1001B000FEE7FEE704480549054A064B7047000084
:1001C0006B250008ED000008680200206808002088
:1001D000680400206804002070B5064600F0CAF9E3
:1001E000056806F10B0020F00704B4429CBF002014
:1001F00070BD2B466A68BAB11068A04210D304F1F2
:10020000080188423CBF5068586007D351681019F4
:1002100041601168091B016058601460101D70BDB9
:1002200013465268002AE7D12146284600F0AAF971
:100230000028DED170BD70B50446051F00F09AF9A4
:100240000068002C14BF446870BD002C18BFAC427D
:100250003CBF20466468F8D301680A18AA4218BF58
:10026000456003D12A680546114401602868411998
:10027000A1421CBF6C6070BD616869602168084460
:10028000286070BD0FB41CB5074B06AA7B446946B5
:100290000090059800F01FFA0020694600F02EFA41
:1002A0001CBC5DF814FB00006D04000070B5044632
:1002B00085690068C10601D5302600E02026C00708
:1002C00007D070BDD4E9012130469047206A401C18
:1002D00020626D1EF6D570BD70B504468569007844
:1002E000C00707D170BDD4E9012120209047206AC2
:1002F000401C20626D1EF6D570BD00002DE9F04156
:100300000646002410687529314616A510D0AFF3B3
:100310000080002802DA404213A507E031688A070E
:1003200001D512A502E0490704D511A5012401E079
:10033000AFF3008000210A2206F1240709E0B0FB98
:10034000F2FCB0FBF2F302FB1C003030785418468C
:10035000491C0028F3D123462A463046BDE8F04127
:1003600000F05AB9000000002D0000002B00000032
:10037000200000002DE9F0474FF0000A89460446AE
:10038000C0F820A02046E1688847002876D02528BC
:1003900006D0D4E901219047206A401C2062F1E791
:1003A000E168204600258847C4F81CA006460027BF
:1003B000C4F818A02A2E09D0304602F007FB38B343
:1003C00004EB8708303EC8F8186019E059F8041BA0
:1003D000204604EB87029161E1688847012F0646B9
:1003E00018D1E069002820DA25F020051DE0D8F8B2
:1003F000180000EB800006EB40003038C8F8180009
:100400002046E1688847064602F0E0FA0028EED16F
:10041000012F0AD02E2E08D12046E16888477F1C84
:100420000646022F45F02005C4DBA069002803DA48
:10043000404245F00105A061E80701D025F0100514
:10044000B6B1A6F14100192802D8203645F400655E
:100450004A463146204625604D46FFF781FE58B199
:10046000012806D0ED1D25F0070000F1080989E7F5
:1004700004E005F1040985E730468AE7206ABDE813
:10048000F08740EA0103024630B59B0710D14FF0D8
:10049000013400E008C208C91D1B9D4315EAC41FB2
:1004A000F8D013F0FF0102F8011B0DD01B0AF8E78A
:1004B00011F8013B002B02F8013B05D011F8013B7C
:1004C000002B02F8013BF3D130BD10B5431C02E014
:1004D00010F8011B71B18107FAD14FF0013202C847
:1004E0008C1A8C4314EAC211F9D0C01A0A0603D040
:1004F000C01E10BDC01A10BD0A0401D0801E10BD60
:100500000902FCD0401E10BD421E12F8013F002B14
:10051000FBD111F8013B002B02F8013BF9D17047E8
:100520004FF0000200B5134694469646203922BF8C
:10053000A0E80C50A0E80C50B1F12001BFF4F7AFD7
:10054000090728BFA0E80C5048BF0CC05DF804EBB9
:10055000890028BF40F8042B08BF704748BF20F827
:10056000022B11F0804F18BF00F8012B7047704725
:1005700070477047004870470C0200207047704772
:100580007047704738B504460A4600206946AFF305
:100590000080002808BF38BD02460099204600F0C0
:1005A000B7F8012038BD012000F0CCB8F8B5AFF3A2
:1005B0000080054600200C46102000BF0646A81902
:1005C000A0420DD9324669460020AFF300800700F3
:1005D00008BF00F0B7F80098A04218BF0546C4193C
:1005E000FFF7C8FF05600746F01D20F00700461919
:1005F000284600F00AF8B44208BFF8BDA21B3146F5
:100600003868BDE8F84000F083B800210160C0E917
:1006100001107047102070472DE9F0470D469946AC
:100620009246044600F124080168880604D5E06972
:1006300021F01001216000E00120A84201DD471BEC
:1006400000E00027A1697A1902EB0900081AA061ED
:100650002078C00602D42046FFF728FE002608E0D6
:10066000D4E901211AF806009047206A401C761C44
:1006700020624E45F4DB2078C0060AD52046FFF7FD
:1006800015FE06E0D4E9012130209047206A401C85
:100690002062381EA7F10107F4DC07E0D4E901214C
:1006A00018F805009047206A401C2062281EA5F11A
:1006B0000105F3DC2046FFF70FFE2078000602D587
:1006C0000220BDE8F0870120FBE7000001694A1C19
:1006D00002610878704700B58FB0CDE90131002183
:1006E000059105497944CDE9031011466846FFF7A5
:1006F00041FE0FB000BD0000E5FFFFFF0A6802F8F1
:10070000010B0A6070470000004870470402002097
:10071000034640688C46002818BF88423CBF034609
:100720004068F8D318681844884207D00CF10300D9
:1007300020F00700001D411A521A0146081D0A60E8
:10074000FFF779BD10B500F039F8BDE8104000F0B2
:100750002FB870477546FFF7D7FFAE4605006946CC
:10076000534620F00700854618B020B5FFF722FD5C
:10077000BDE820404FF000064FF000074FF00008A2
:100780004FF0000B21F00701AC46ACE8C009ACE823
:10079000C009ACE8C009ACE8C0098D46704710B587
:1007A0000446AFF300802046BDE81040FFF7EEBCE2
:1007B000002801D000F02AB87047000010B50128C9
:1007C00005D0002103A000F027F8012010BD09A1E9
:1007D000F8E7000053494752544D454D3A204F75B4
:1007E00074206F662068656170206D656D6F727929
:1007F000000000003A2048656170206D656D6F72E1
:100800007920636F727275707465640001491820F5
:10081000ABBEFEE72600020070B505460C460A2076
:1008200000E06D1C00F011F835B128780028F8D1EF
:1008300002E0641C00F009F814B120780028F8D117
:10084000BDE870400A20AFF3008008B569468DF816
:1008500000000320ABBE08BD01228A40024201D045
:100860000120704700207047FEE7704770B50446CE
:1008700000F008F90546601C02D0044800780444E2
:1008800000F000F9401BA042FAD370BD0800002020
:100890002DE9F84FDFF8B8910024A9F1040B2346A5
:1008A0000F2709F1040AABF1040EC9E00125A540A8
:1008B0002A40AA427DD1674ED1F804C0ACEB0608AD
:1008C000B44532D014DCBCF1030F3AD009DCBCF1E2
:1008D000000F2AD0BCF1010F1CD0BCF1020F31D1A6
:1008E0001DE0BCF1110F17D0BCF1120F2AD119E095
:1008F000B8F5881F19D006DCB8F5803F15D0B8F5DB
:10090000801F1FD111E0B8F5001F0ED0B8F5041FED
:1009100018D10AE0CB6815E0CB681B1D12E0CB684C
:1009200008330FE0CB680C330CE08B682BB1012B44
:100930004FF0080303D0456104E0042302E00561A1
:1009400000E00023FF2A01D8064601E000F104067A
:100950004FEA840501D9A5F12005D6F8008007FAF1
:1009600005FC28EA0C0803FA05F548EA0508C6F86C
:1009700000804D68ED0062D5374DAE6946F0010646
:10098000AE61AD6924F0030605F001050095334D15
:1009900006EB050CDCF80850A607360F07FA06F838
:1009A00025EA0805DFF8B880404503D14FF000087C
:1009B00017E044E0DFF8AC80404502D14FF0010879
:1009C0000FE0DFF8A480404502D14FF0020808E0B4
:1009D000DFF89880404502D14FF0030801E04FF066
:1009E000040808FA06F848EA0508CCF808804D68BB
:1009F000D9F80060ED024D4601D5164300E096435C
:100A00002E604D68DAF80060AD02554601D51643F8
:100A100000E096432E604D68DBF80060AD035D4654
:100A200001D5164300E096432E604D68DEF8006065
:100A3000ED03754601D5164300E096432E60641C15
:100A40000D682A46E5407FF431AFBDE8F88F00001D
:100A50000804014000001110001002400000014095
:100A600000080140000C014000100140001401404A
:100A70008068084000D0012070470AB101617047CA
:100A80000904FBE701488068704700000800002067
:100A90000248816802781144816070470800002094
:100AA000074810B5016841F010010160032000F013
:100AB00067F80F2000F006F800F024F8002010BDC1
:100AC0000020024070B50D4D04464FF47A7128782D
:100AD000B1FBF0F00A490968B1FBF0F000F009FC45
:100AE00048B9102C07D200222146501E00F028F8E9
:100AF00000206C6070BD012070BD00000800002067
:100B0000140000200C4808B5816941F001018161A1
:100B1000816901F001010091C16941F08051C16119
:100B2000C06900F0805000900448416821F0E06105
:100B300041F00071416008BD00100240000001401A
:100B4000F0B40E4B1B680C46C3F30223C3F1070538
:100B5000042D00D90425191D072901D2002300E026
:100B6000DB1E012606FA05F1491E214099409E40F0
:100B7000761E16403143F0BC01F018BF0CED00E0CA
:100B8000064900F0070208684FF6FF03184040EAE4
:100B90000220034A10430860704700000CED00E09B
:100BA0000000FA052DE9F0470F46050061D0434EDD
:100BB000306800F00700B84209D2306820F0070022
:100BC00038433060306800F00700B84251D12868DF
:100BD0003B4C810712D5400703D5606840F4E060C4
:100BE00060602878000703D5606840F4605060605A
:100BF0006068A96820F0F000084360602878C007AA
:100C000028D06868012810D02168022810D08907F0
:100C100000292EDA616821F0030101436160FFF7CA
:100C200031FF804641F288390DE021688903EFE702
:100C30008901EDE7FFF726FFA0EB0801494502D93E
:100C40000320BDE8F0876068696800F00C00B0EB35
:100C5000810FEFD1306800F00700B8420BD930683F
:100C600020F0070038433060306800F00700B842D9
:100C700001D00120E5E72878400705D56068E968DC
:100C800020F4E060084360602878000706D56068BB
:100C9000296920F4605040EAC100606000F038F833
:100CA0006168084AC1F30311515CC84006490860F5
:100CB00006480068FFF706FF0020C2E70020024058
:100CC0000010024040440008140000200C000020E6
:100CD0000448054900684968044AC1F30221515C8F
:100CE000C840704714000020001002405044000823
:100CF0000448054900684968044AC1F3C221515CAF
:100D0000C840704714000020001002405044000802
:100D10000E4A51680E4801F00C03042B11D0082B29
:100D20000FD10C48C1F38343C903C05C0AD5516895
:100D3000084AC1F34041921E515C054A5043B0FB42
:100D4000F1F070470449484370470000001002402A
:100D500000127A003044000800093D002DE9F84FE8
:100D6000040070D02078C04DC00749D06868C0F337
:100D70008100012807D06868C0F38100022809D1EA
:100D80006868C00306D52868800339D560680028E4
:100D9000E7D035E06068B0F5803F0BD010B1B0F51A
:100DA000A02F11D0286820F480302860286820F413
:100DB000802002E0286840F480302860606890B1AC
:100DC000FFF760FE06460AE0286840F480202860AD
:100DD000F0E700BFFFF756FE801B642873D8286831
:100DE0008003F7D50CE0FFF74DFE064605E000BF97
:100DF000FFF748FE801B6428F0D828688003F7D4EA
:100E000020789A4E80074FF001094FF0000839D53D
:100E1000686810F00C0F07D06868C0F381000228E2
:100E200009D16868C00306D42868800714D52069F2
:100E3000012808D110E02069B0B1C6F80090FFF792
:100E400021FE074605E00AE1FFF71CFEC01B022851
:100E5000C4D828688007F7D52868616920F0F800B1
:100E600040EAC10028600DE0C6F80080FFF70AFEE6
:100E7000074604E0FFF706FEC01B022823D82868B7
:100E80008007F7D4207800072CD57948A169D9B11B
:100E9000C0F80090FFF7F6FD074604E0FFF7F2FD0B
:100EA000C01B02280FD8686A8007F7D571484FF435
:100EB000FA510068B0FBF1F0009000BF0098411EAD
:100EC0000091FAD20EE080E0C0F80080FFF7DAFD72
:100ED000074604E0FFF7D6FDC01B022875D8686AF4
:100EE0008007F7D42078400760D5E8690027C00064
:100EF00008D4E86940F08050E861E869012700F013
:100F0000805000905C480168C90513D4016883468D
:100F100041F480710160FFF7B5FD824606E000BF35
:100F2000FFF7B0FDA0EB0A0064284ED8DBF8000004
:100F3000C005F5D5E06801280AD008B1052813D00E
:100F4000286A20F001002862286A20F0040002E0EC
:100F5000286A40F001002862E06841F2883B98B1BD
:100F6000FFF790FD82460BE0286A40F004002862FB
:100F7000EEE700BFFFF786FDA0EB0A0159455AD8FE
:100F8000286A8007F6D50CE0FFF77CFD824605E075
:100F9000FFF778FDA0EB0A0159454CD8286A800775
:100FA000F6D41FB1E86920F08050E861E06988B3A9
:100FB0006968C1F38101022944D00228C6F8608023
:100FC00004D0FFF75FFD044638E034E0FFF75AFD38
:100FD000074604E0FFF756FDC01B02282BD82868FF
:100FE0008001F7D4206AB0F5803F05D16868A16818
:100FF00020F4003008436860D4E9080108436968B8
:1010000021F4741108436860C6F86090FFF73AFD58
:10101000044606E025E000BFFFF734FD001B022870
:1010200009D828688001F7D51BE000BFFFF72AFD2B
:10103000001B022802D90320BDE8F88F2868800130
:10104000F4D40EE00128F7D06868226A00F48031F9
:10105000914204D1616A00F47010884201D00120ED
:10106000EAE70020E8E700000010024000004242EA
:1010700080044242140000200070004070B504005B
:1010800009D0606A002540B125616561A56294F8C8
:10109000510040B10CE0012070BD6068B0F5827F66
:1010A000F4D0E561F2E784F85050204600F040F8B3
:1010B000022084F851002068016821F0400101609D
:1010C000A088218900F4827001F404410843A189B9
:1010D00001F400610843217C01F002010843217DF5
:1010E00001F001010843218B01F400710843217FC5
:1010F00001F03801084394F8201001F08001084302
:10110000218D01F40051084321680860A069042181
:1011100001EA1040216848602068C16921F400613B
:10112000C1616565012084F85100002070BD000098
:1011300000B585B0002100910191029103910068F2
:101140000F4988421AD10F48816941F48051816169
:10115000816901F480510491816941F00401816148
:101160008069694600F004000490A02000900220ED
:101170000190032003900448FFF78AFB05B000BDEF
:101180000030014000100240000801402DE9F84FF6
:10119000984616468A460446FFF774FC814694F842
:1011A000510001281ED1BAF1000F73D0002E71D06A
:1011B00094F85000012815D0012784F850700320BE
:1011C00084F8510000256565C4F830A0A686E6863F
:1011D000A563A587E58765642564A068B0F5004F21
:1011E00003D00CE00220BDE8F88F2068016821F0F0
:1011F000400101602068016841F48041016020687D
:101200000168490603D4016841F040010160E068CB
:10121000B0F5006F606803D048B3012E27D047E0D7
:1012200008B1012E1FD1206B21680088C86006E03C
:1012300020688168890709D5216B0988C160206B06
:10124000801C2063E08E401EE0860CE0FFF71AFC55
:10125000A0EB0901414503D3B8F1FF3F03D035E0CE
:10126000B8F1000F32D0E08E0028E1D123E0206BEE
:1012700021680078087306E02068816889070AD52C
:10128000216B09780173206B401C2063E08E401EA7
:10129000E0860DE02BE0FFF7F5FBA0EB09014145EF
:1012A00003D3B8F1FF3F03D010E0B8F1000F0DD029
:1012B000E08E0028E0D14A464146204601F05AF827
:1012C00008B120206065A06830B109E084F8517051
:1012D00084F85050032086E72068C1688068009039
:1012E00084F8517004F8505F60680028F3D0012042
:1012F00079E710B5401EB0F1807F01D3012010BD09
:101300004FF0E02460610F21601701F04FFB0020D7
:10131000A06107202061002010BD000070B590F88A
:101320003C20012A26D0012480F83C40022280F88B
:101330003D2003685A689D6822F070060A683243AF
:101340005A600D4B02689A4208D0B2F1804F05D026
:101350000A4B9A4202D00A4B9A4204D1496825F0BE
:1013600080031943916080F83D40002180F83C10D3
:10137000084670BD022070BD002C014000040040F2
:101380000008004010B5040003D094F83D0010B1EF
:1013900007E0012010BD002084F83C00204600F04A
:1013A0001FF8022084F83D00211D206801F0DEF8BE
:1013B000012084F8460084F83E0084F83F0084F859
:1013C000400084F8410084F8420084F8430084F827
:1013D000440084F8450084F83D00002010BD000062
:1013E00008B500680649884208D10648816941F479
:1013F00000618161806900F40060009008BD000018
:10140000002C01400010024090F83D10012901D04D
:1014100001207047022180F83D100168CA6842F03F
:101420000102CA6000680B49884208D0B0F1804FC1
:1014300005D00949884202D00849884204D1816810
:1014400001F00701062903D0016841F001010160A4
:1014500000207047002C01400004004000080040BC
:1014600070B5044690F83C000025012817D00126ED
:1014700084F83C60022084F83D002068826822F0F5
:10148000770222F47F4282600868502838D00DDC51
:1014900020284FD005DC90B3102811D14AE002205B
:1014A00070BD302846D040280AD13BE060282FD0BC
:1014B00070280DD0B0F5805F03D0B0F5005F12D07A
:1014C000012584F83D60002084F83C00284670BD6A
:1014D000CB68D1E90121206801F084F82068816897
:1014E00041F0770109E0CB68D1E90121206801F0E2
:1014F00079F82068816841F480418160E1E719E072
:10150000CA684968206801F07FF85021206806E029
:10151000CA684968206801F088F86021206801F0F5
:101520006BF8CEE7CA684968206801F06DF8402181
:101530002068F4E7226801461046F0E770B5040021
:1015400004D094F84100002510B106E0012070BDE0
:1015500084F84050204600F023F8242084F841000D
:101560002068C16821F40051C160204601F01EF9D5
:101570002068016921F4904101612068416921F0EE
:101580002A0141612068C16841F40051C16065646D
:10159000202084F8410084F842006563002070BD7B
:1015A00030B585B00024009401940294039400683F
:1015B0001449884224D11448816941F480418161F1
:1015C000816901F480410491816941F004018161E4
:1015D00080690E4D00F0040004904FF400700090FC
:1015E000022001900320039069462846FFF750F936
:1015F0002815CDE90004694628460294FFF748F90A
:1016000005B030BD00380140001002400008014024
:101610002DE9F843044690F84100984616460D46D9
:10162000202802D00220BDE8F88385B17EB10020D9
:101630006064212084F84100FFF724FAA6848146E3
:10164000E684A0682027B0F5805F02D003E0012087
:10165000E9E7206910B12E4600250EE000260CE0D7
:101660008021204601F0FEF8A8B9C6B116F8010B9A
:1016700021684860E08C401EE084E08C4B464FF0CF
:101680000002CDF800800028EAD14FF0400120464A
:1016900001F0E8F840B184F841700320C3E735F861
:1016A000020BC0F30800E3E784F841700020BAE7BA
:1016B000FEE700002DE9F04701EB410605463C2E10
:1016C00001D20C4600E03C24DFF88CA00122082166
:1016D00057465046FFF7D1F9002210213846FFF750
:1016E000CCF9F82000EA1529FC2000EAD508E80624
:1016F000070E2046FEF770FD0546002007E000BFFC
:1017000005F800902918C01C81F801808F70A04254
:10171000F6D3B6FBF4F0B6FBF4F704FB106857B150
:10172000002606E0A2B20A2329460C48FFF72EFD48
:10173000761CBE42F6D31FFA88F20A2329460748D0
:10174000FFF724FD012210215046FFF796F92846A5
:10175000BDE8F047FEF76FBD0008014054000020CF
:101760002DE9F041154C1646069FA2881D46904271
:1017700021D2628891421ED2A3888219521E9A42B7
:1017800002DBA288121A96B263884A19521E9A4244
:1017900002DB6288521A95B24A19521E93B282191C
:1017A000521E92B200F0D4F905FB06F13846BDE8AE
:1017B000F041FFF77FBFBDE8F08100004C00002042
:1017C000FEB5054652480C46164681888D427DD2AC
:1017D000408884427AD24F4F002208213846FFF7D2
:1017E0004CF9002210213846FFF747F92A2000F073
:1017F000A5F9012208213846FFF73FF901221021FF
:101800003846FFF73AF9002210213846FFF735F93C
:10181000280A8DF800008DF801506D1C280A8DF8FB
:1018200002008DF803500123042269463A48FFF76D
:10183000ADFC012210213846FFF71FF900220821D4
:101840003846FFF71AF9002210213846FFF715F93C
:101850002B2000F073F9012208213846FFF70DF91B
:10186000012210213846FFF708F9002210213846DE
:10187000FFF703F9200A8DF804008DF80540641C79
:10188000200A8DF806008DF807400123042201A9E3
:101890002148FFF77BFC012210213846FFF7EDF8C5
:1018A000002208213846FFF7E8F8002210213846C8
:1018B000FFF7E3F82C2000F041F901220821384617
:1018C000FFF7DBF801221021384600E01EE0FFF7A9
:1018D000D4F8002210213846FFF7CFF8F82000EAAC
:1018E00016208DF80800FC2000EAD6008DF80900CB
:1018F000F0008DF80A000123032202A90648FFF731
:1019000045FC012210213846FFF7B7F8FEBD000064
:101910004C000020000801405400002070B50A4C23
:1019200005466088401E83B2A0880021401E82B216
:10193000084600F00DF9A188608841432846BDE8BB
:101940007040FFF7B7BE00004C00002010B500F05B
:10195000D7F8012000F052F96420FEF787FFF72046
:1019600000F04CF9A92000F063F9512000F060F973
:101970002C2000F05DF9822000F05AF9C02000F020
:101980003DF9112000F054F9092000F051F9C1206F
:1019900000F034F9412000F04BF9C52000F02EF999
:1019A000002000F045F90A2000F042F9802000F004
:1019B0003FF9B12000F022F9B02000F039F91120F0
:1019C00000F036F9B42000F019F9022000F030F9E7
:1019D000B62000F013F9022000F02AF9422000F0AE
:1019E00027F9B72000F00AF9C62000F021F9BE203F
:1019F00000F004F9002000F01BF9042000F018F9B1
:101A0000E92000F0FBF8002000F012F9362000F089
:101A1000F5F8682000F00CF93A2000F0EFF86620A5
:101A200000F006F9E02000F0E9F8002000F000F9ED
:101A3000072000F0FDF80F2000F0FAF80D2000F06C
:101A4000F7F81B2000F0F4F80A2000F0F1F83C2031
:101A500000F0EEF8782000F0EBF84A2000F0E8F80B
:101A6000072000F0E5F80E2000F0E2F8092000F071
:101A7000DFF81B2000F0DCF81E2000F0D9F80F2062
:101A800000F0D6F8E12000F0B9F8002000F0D0F81E
:101A9000222000F0CDF8242000F0CAF8062000F043
:101AA000C7F8122000F0C4F8072000F0C1F8362073
:101AB00000F0BEF8472000F0BBF8472000F0B8F86F
:101AC000062000F0B5F80A2000F0B2F8072000F078
:101AD000AFF8302000F0ACF8372000F0A9F80F2064
:101AE00000F0A6F8112000F089F87820FEF7BEFE7D
:101AF000292000F083F8BDE81040012000F052B822
:101B000010B50D4C012204212046FEF7B6FF14202B
:101B1000FEF7ACFE002204212046FEF7AEFF642053
:101B2000FEF7A4FE012204212046FEF7A6FFBDE831
:101B300010406420FEF79ABE0008014001B5012361
:101B40001A4669460148FFF721FB08BD54000020F2
:101B50002DE9F04107461C4615460E462A2000F0A6
:101B60004DF8380A00F064F8F8B200F061F8280A7D
:101B700000F05EF8E8B200F05BF82B2000F03EF8D1
:101B8000300A00F055F8F0B200F052F8200A00F0E8
:101B90004FF8E0B200F04CF8BDE8F0412C2000F026
:101BA0002DB8000070B5134C134920700870362012
:101BB00000F024F80120FEF759FE20784FF4A075BC
:101BC0004FF4F07658B101280BD002280BD003282F
:101BD00004D1A82000F02CF8A680658070BD0820F4
:101BE00002E07820F6E7C82000F022F8A5806680A1
:101BF00070BD00004C0000201900002070B50B4C97
:101C00000546002210212046FEF737FF002208215A
:101C10002046FEF732FF2846FFF790FF2046BDE83A
:101C2000704001221021FEF728BF0000000801408B
:101C300070B50B4C0546012208212046FEF71DFF1A
:101C4000002210212046FEF718FF2846FFF776FFF6
:101C50002046BDE8704001221021FEF70EBF0000B3
:101C6000000801400849886282784A74C2788A7400
:101C7000427812028A8203781A448A8242798A73ED
:101C80008079C87370470000180000202DE9F043E8
:101C900085B000242948009401940294039481693A
:101CA00041F020018161816901F020010491816985
:101CB00041F004018161816901F0040104918169AD
:101CC00041F0080181618069DFF8749000F008003C
:101CD000049000221C214846FEF7CFFEDFF8648006
:101CE0004FF4E047002239464046FEF7C6FE1C206E
:101CF00001250226CDE90005CDE9024669464846A0
:101D0000FEF7C6FD00970396CDE9015469464046AB
:101D1000FEF7BEFDE803CDE90004694640460294A3
:101D2000FEF7B6FD2802CDE9000469464846029454
:101D3000FEF7AEFD05B0BDE8F083000000100240E4
:101D400000080140000C0140104810B50E49016028
:101D50004FF4827141604FF4004181600021C16005
:101D60004FF400720161C0E905120822C0E90721A1
:101D7000416281620A21C162FFF780F9002801D027
:101D800072B6FEE710BD0000003001405400002094
:101D900010B586B00024174800940194029403946F
:101DA00004941349059401604721C0E901144FF6DA
:101DB000FF71C0E9031444618461FFF7E3FA08B1DD
:101DC00072B6FEE74FF48050009069460948FFF76D
:101DD00047FB08B172B6FEE7049404A905480594D0
:101DE000FFF79CFA002801D072B6FEE706B010BDDE
:101DF000002C0140AC000020FEE7FEE77047000029
:101E00002DE9FE4F784C4FF0000A5146A27BA56A9F
:101E1000861A2E44534696F807C0264684F810C00A
:101E200096F8088096F812B0776AD6460BFB0877CA
:101E30000A2817D0904217D3E67BB146B04213D898
:101E4000A68A002E10D0BCF1000F0DD0264694F8C3
:101E50000580F679B8F1000F08D094F811C084F825
:101E600010C015E0C4E908E7BDE8FE8FA0F1D40872
:101E7000B8F1060F06D9A0F1E708B8F1050F01D9AE
:101E8000D12805D1D4F820800CFB168CC4F820C0D2
:101E9000A0F1300CBCF1090F05D8C2F1370C15F8D0
:101EA0000CC084F810C094F81080D4F820C008FB4F
:101EB00006C6D4F82CC0664501D9C4E908E7801AE3
:101EC00005E0EE185B1CF679DBB2314489B298422A
:101ED000F7DC01FB0BF1A9EB020001EBC00038308D
:101EE00080B2C10800F00709002002916EE00027CF
:101EF00066E000BFB9F1070F05D90AF101014FF003
:101F000000091FFA81FA029A02EB0A01A26A11443F
:101F100049780191E379226A08FB032189B2009193
:101F2000E1780029A1780BD029B1217A626AC01B1F
:101F300000FB01200FE0217A606A07FB01000AE044
:101F400029B1C11B227A606A01FB020003E0207AFA
:101F5000616A07FB00101FFA80FB002627E00025BE
:101F600020E049460198FEF777FC50B12078002820
:101F7000208B0CD082B20098304481B20BEB05006C
:101F80000BE0A07960B120780028A08BF2D182B25A
:101F90000BEB050081B20098304480B2FFF710FCD3
:101FA0006D1CEDB2207A8542DBD3761CF6B2E07967
:101FB0008642D4D309F101007F1C00F0FF09FFB273
:101FC000A07C874296D308F10100C0B2217C8046F4
:101FD00088428CD3617A206AE2790844217C01FB33
:101FE0000200206240E70000180000202DE9FE4FAB
:101FF00063494FF0000A52468D7B8C6A461BA64609
:102000003444534694F807C00C4681F810C094F845
:102010000880A67CD4F82C90676A0A282DD0A842A4
:1020200032D3CC7B0094A0422ED88C8A002C2BD0AB
:10203000BCF1000F28D04C790CB14C7C0C748B4651
:1020400091F810C00C6AC9790CFB1144002C07D51B
:1020500006FB0877CBF824700CFB1197CBF82070A7
:102060009BF809705C460CFB0171DBF82070791A53
:10207000CBF820107146401B0EE0C1F82090887A02
:10208000321802FB08704862BDE8FE8FCF185B1C57
:10209000FF79DBB23A4492B29842F7DC009872437F
:1020A000401B02EBC000383080B2C10800F00709C5
:1020B000002002915FE0002757E000BFB9F1070F51
:1020C00005D90AF101014FF000091FFA81FA0299BE
:1020D000A26A5144114449780191E279236A08FBCC
:1020E000023189B20091E178A17829B1217A626A3E
:1020F000C01B00FB012003E0217A606A07FB01009E
:102100001FFA80FB002527E0002620E049460198C1
:10211000FEF7A2FB50B120780028208B0CD082B2B1
:102120000098284481B20BEB06000BE0A07960B167
:1021300020780028A08BF2D182B20BEB060081B28E
:102140000098284480B2FFF73BFB761CF6B2207A59
:102150008642DBD36D1CEDB2E0798542D4D309F120
:1021600001007F1C00F0FF09FFB2A07C8742A5D3CD
:1021700008F10100C0B2217C804688429BD383E7EE
:102180001800002070B5054608480024C07A0128D0
:1021900007D12846BDE8704000F00AB8641CFFF77C
:1021A0002FFE285D0028F9D170BD00001800002026
:1021B0002DE9F04F6D4CA1B00026804694F80990AF
:1021C00037466D4609E000BF18F8060000F0B6FE7D
:1021D00008B1E8557F1C761CF6B24046FEF775F94B
:1021E000B042F1D84FF0000A05F807A0574656460E
:1021F000DFF87CB1A846AEE0761C8D2D18D00CDC43
:102200003B2D29D004DC2C2D28D02E2D29D127E0E0
:102210003F2D1FD0812D24D108E08E2D0AD0902D86
:102220000AD0982D0AD0E12D1BD109E0EA2518E04B
:10223000EB2516E0EE2514E0EF2512E0DF2510E097
:10224000815D761C6173C72902D0E125761E08E006
:10225000FB2506E0BF2504E01F2502E01D2500E068
:102260001C2518F806006073812812D008DC2C2881
:102270002BD02E282BD03B2825D03F280DD120E075
:102280008D2808D08E2816D0902816D0982804D1F2
:1022900015E0EA2000E0EB206073C02D3FD9207BE1
:1022A000C02816D900EB40010BEB4100A0F580508F
:1022B00090F87F1B0EE0EE20EEE7EF20ECE7DF204A
:1022C000EAE7BF20E8E71F20E6E71D20E4E71C203F
:1022D000E2E70021607BC02808D900EB40020BEB4D
:1022E0004200A0F5805090F87E0B00E0002040EA0C
:1022F0004100C0B2012802D984F809A001E084F8A5
:10230000099005EB45020BEB42010844A0F5805013
:1023100090F87A0BFFF76AFE84F809901AE0A5F1AD
:102320003000092813D87F1CFFB20DA8C555617B6A
:1023300030390A2908D20DE00DA8C05D2038C0B29E
:10234000FFF754FE7F1EFFB2002FF5D102E02846B2
:10235000FFF74CFE257318F806504046002D7FF419
:102360004BAFFF20207321B0BDE8F08F1800002094
:1023700058440008F8B515460E460B460092044630
:102380000122022100F010F840B9334600228021DA
:102390002046009500F008F8002804D0606D40F059
:1023A000200060650320F8BD2DE9F8431E469146E4
:1023B00088460446089DFEF765FB401B351AFEF76C
:1023C00061FB074625480068C0F3CB30684338E01E
:1023D000701C37D0FEF756FBC01BA84203D215B1C4
:1023E000009860B32CE02068416821F0E001416072
:1023F0006068B0F5827F0BD1A068B0F5004F02D0C5
:10240000B0F5806F04D12068016821F040010160BF
:10241000A06AB0F5005F09D12068016821F400517D
:1024200001602068016841F400510160012084F8D6
:102430005100002084F850000320BDE8F8830025F7
:10244000401E00902068816838EA010004D0002115
:102450004945BDD10020F0E70121F9E71400002033
:1024600070470000144A10B51146D072497840F206
:10247000DF1340F23F1401280BD00020012917D0B0
:10248000032915D009B1022902D11062C2E90B4318
:1024900010BD012908D0032906D009B10229F7D1BE
:1024A000C2E90B43146210BDC2E90B34136210BDC4
:1024B0001062C2E90B3410BD1800002070B5114A3B
:1024C0001446D57A637CE4796343012D09D04B43EC
:1024D0001362917C937A1944137A594341435162B0
:1024E00070BD084C5378E679E56A647C744304FB5C
:1024F0001151012B04D0032B02D00BB1022BE8D1D8
:102500001162E6E718000020FEF7C2BA30B58FB0BE
:1025100028216846FEF704F814210AA8FEF700F8FF
:1025200001210804CDE90010002402940225049141
:10253000CDE907504FF4E01009906846FEF70EFC15
:1025400008B172B6FEE70F20CDE90A054FF48060AE
:10255000CDE90C4002210AA80E94FEF723FB0028C7
:1025600001D072B6FEE70FB030BD7047F0B502681B
:10257000194B1A4C1A4D4FF08047984205D0B8427B
:1025800003D0A04201D0A84203D122F070064A68CD
:102590003243984205D0B84203D0A04201D0A842AD
:1025A00003D122F44074CA6822434C6922F08002AD
:1025B000224302608A68C2620A688262984201D13C
:1025C00009690163012141610169C90703D00169FA
:1025D00021F001010161F0BD002C01400004004028
:1025E0000008004010B5846842EA032224F47F44C6
:1025F0000A432243826010BD826822F070020A43BF
:1026000042F007018160704710B5036A046A24F044
:1026100001040462846924F0F00444EA021423F003
:102620000A020A438461026210BD10B5036A046A9B
:1026300024F010040462846923F0A00324F470449D
:1026400044EA023243EA01118261016210BD0000D6
:102650002DE9F04700252C4E80464FF480572C463C
:102660002A4639463046FEF708FA0022B9003046BD
:10267000FEF703FA4FF4005A002251463046FEF7A7
:10268000FCF9404600F042F8322000F0A7F90022A1
:1026900039463046FEF7F1F9142000F09FF9012287
:1026A00039463046FEF7E9F9142000F097F9002288
:1026B00039463046FEF7E1F94FF6FF784FF400490E
:1026C00008EA4404002239463046FEF7D6F91420C1
:1026D00000F084F9012239463046FEF7CEF949462A
:1026E0003046FEF7C5F908B1641CA4B26D1CEDB20A
:1026F000102DE5D32409012251463046FEF7BDF9DD
:102700002046BDE8F0870000000C01402DE9F041B3
:10271000114F002405464FF48048BE14280601D509
:10272000012200E0002241463846FEF7A6F968067D
:10273000050E002231463846FEF79FF9142000F0BE
:102740004DF9012231463846FEF797F9641CE4B290
:10275000082CE3D3BDE8F081000C014001680C3186
:1027600051E8002F22F4907241E80023002BF5D1AC
:102770000168143151E8002F22F0010241E80023E2
:10278000002BF5D1016B012909D101680C3151E809
:10279000002F22F0100241E80023002BF5D1202168
:1027A00080F84210002101637047000070B50446B4
:1027B00000680169E26821F4405111430161216917
:1027C000A0680843616908432168CA6841F20C6344
:1027D0009A430243CA6020684169A26921F44071AA
:1027E000114341611E492068884202D1FEF780FAF8
:1027F00001E0FEF76DFA00EBC00101EB001260682A
:1028000064218000B2FBF0F3B3FBF1F36FF0180624
:102810007343B2FBF0F5B2FBF0F605EB8305322310
:1028200003EB0515B5FBF1F5B6FBF1F605F0F00588
:1028300005EB0615B2FBF0F6B2FBF0F0B0FBF1F0E1
:102840006FF01802504306EB800003EB0010B0FB62
:10285000F1F0216800F00F002844886070BD00008E
:10286000003801402DE9F843984617460D460446C6
:10287000089E24E0701C22D0FEF704F9A0EB0800AB
:10288000B0421AD8CEB12068C168490717D5802D4B
:1028900015D0402D13D00168C94309070FD4016832
:1028A0000025406800902046FFF758FF082060642C
:1028B00084F840500120BDE8F8830320FBE720683E
:1028C000006835EA000004D00020B842D2D00020D1
:1028D000F1E70120F9E7FEE72DE9F05FDFF8ACB0A2
:1028E000884681464FF4005A002251465846FEF76A
:1028F000C4F800273E463D464FEA070400F048F87A
:1029000068B16D1CEDB29020FFF7A2FE0644D02006
:10291000FFF79EFE641CE4B20744102CEED30122A4
:1029200051465846FEF7A9F8102D02D20020BDE806
:10293000F09F390940F63A70DD2901D2DD2102E02D
:10294000814200D90146300940F65A728D2801D2E1
:102950008D2002E0904200D91046DD3901EB411292
:10296000C2EB412140F65D62B1FBF2F1A9F8001023
:102970008D38C0EB801101EB002040F6CD61B0FB3B
:10298000F1F0A8F800000120D1E70000000C0140A0
:1029900010B54FF480710448FEF76AF808B10020C2
:1029A00010BD012010BD0000000801400907090EFC
:1029B000002804DB00F1E02080F80014704700F0EC
:1029C0000F0000F1E02080F8141D704730380A280D
:1029D00001D2012070470020704700000449002206
:1029E0000B685A6209684A6A8242FCD37047000049
:1029F000AC0000202DE9F05F1F464FF4A073DDF816
:102A000028A01546984273D24FF4F074A1426FD2B9
:102A10004219521E9A4202DBC0F5A07295B2CA1941
:102A2000521EA24202DBC1F5F07297B2CA19521EC1
:102A300093B24219521E92B2FFF78AF82D4C01222E
:102A400008212046FEF719F8002210212046FEF743
:102A500014F805EB450B0BF10100FDF7BDFB064635
:102A60000024204637E00021084628E01AF8042018
:102A7000641C4FF03F081AF80430401C43EA02225D
:102A8000D30AC3EB032C1F23BCFBF3FC06F801C0E5
:102A9000C2F3451CCCEB0C2CBCFBF8FC02F01F0273
:102AA000491CC2EB022289B2B2FBF3F206F801C064
:102AB000491C89B280B27254491C89B2641CA84274
:102AC000D4D31FFA8BF2642331460B48FEF75EFB2A
:102AD00009F1010080B28146B842C4D3012210211D
:102AE0000448FDF7CAFF3046BDE8F05FFDF7A3BB21
:102AF000BDE8F09F000801405400002008B5FDF734
:102B0000CFFFFFF703FDFFF7C1F8FFF71DF9FFF750
:102B10003FF9C648C449002401604FF4E131C0E9DF
:102B200001140C21C460C0E904418461C461FEF752
:102B300005FD08B172B6FEE7BDA000F0E1F9BB48A3
:102B40004838FEF761FCBCA000F0DAF9FEF7FEFEA3
:102B5000BAA000F0D5F91F20FEF7E0FEB8A000F003
:102B6000CFF9B848FFF77EF80020FFF77BFCDFF8CD
:102B7000D882DFF8D892012188F8001089F8001077
:102B80000020FFF70FF8B2481E2300901A46E121FB
:102B90008C20FFF72FFF4FF4FA60FDF767FE02214C
:102BA00088F8001089F800101F20FEF7B7FE0120FA
:102BB000FFF758FC00210846FFF780FCA54FA64D03
:102BC0004FF6FF764FF4784A3E60A4A0C5F800A007
:102BD000FFF7D8FA00210120FFF770FC3E60A6A0A5
:102BE0002C60FFF7CFFA0020FFF73CFC0021032008
:102BF000FFF764FC3C60A6A02E60FFF7C3FA00213B
:102C00000420FFF75BFC4FF4F0403E602860A4A076
:102C1000FFF7B8FA00210520FFF750FC4FF61F0B15
:102C20003E60A3A0C5F800B0FFF7ACFA40F6B8309C
:102C3000FDF71CFE032088F8000089F80000002042
:102C4000FEF76CFE0120FFF70DFC00210846FFF7A0
:102C500035FC3E6099A02C60FFF794FA002101201A
:102C6000FFF72CFC3E609AA02C60FFF78BFA002047
:102C7000FFF7F8FB00210320FFF720FC3C6084A055
:102C80002E60FFF77FFA00210420FFF717FC4FF4B6
:102C9000F0403E60286082A0FFF774FA0021052012
:102CA000FFF70CFC3E6082A0C5F800B0FFF76AFA9F
:102CB0004FF47A70FDF7DAFD0020FEF773FF30461F
:102CC000FEF72CFE4FF01F081E233C224FF4D2715A
:102CD0000F20CDF80080FEF743FD6420FDF7C6FD10
:102CE0004FF4FC691E233C224FF4D2715520CDF8DD
:102CF0000090FEF735FD6420FDF7B8FD4FF6E07B50
:102D00001E233C224FF4D2719B20CDF800B0FEF779
:102D100027FD6420FDF7AAFD1E233C224FF4D2714B
:102D2000E120CDF800A0FEF71BFD6420FDF79EFD1D
:102D30006D4E4FF48E7700BFFFF72AFE00286FD04C
:102D40006949891C881EFFF7C7FD38487388328897
:102D500066A14830FDF796FA3B49022008703B49CE
:102D6000087000210846FFF7A9FB3A494FF6FF70AB
:102D700008602E482C604830FFF704FA3088A0F530
:102D8000B97055280FD87088B8420CD3B0F5967F2B
:102D900009D84FF4AA734FF48C7228210A20CDF879
:102DA0000080FEF7DDFC3088A0F5857056280FD82E
:102DB0007088B8420CD3B0F5967F09D84FF4AA7347
:102DC0004FF48C7228210A20CDF80090FEF7C8FC41
:102DD00030889E3856280FD87088B8420CD3B0F58A
:102DE000967F09D84FF4AA734FF48C7228210A20D9
:102DF000CDF800B0FEF7B4FC3088323853280FD835
:102E00007088B8420CD3B0F5967F09D84FF4AA73F6
:102E10004FF48C7228210A20CDF800A0FEF7A0FC08
:102E20003220FDF723FD87E700380140F400002041
:102E30007374617274000000310000003200000001
:102E400033000000E02F00081F00002020000020B9
:102E5000263D0008300000203400002020D985D80D
:102E6000ADD985D8AF20D981D8B1D8AC20D8A7D9D1
:102E700084D987DB8C20000020D981D988D986D8D5
:102E8000AA20D981D8A7D8B1D8B3DB8C2000000004
:102E900020706176616E746563682E69722000002F
:102EA0002054465420494C49393438382000000019
:102EB0002053544D333246313033200020D8B3D91B
:102EC00084D8A7D98520D8B3DB8CD986D8A7200091
:102ED00020D981D988D986D8AA20DA86D8B7D988C6
:102EE000D8B1D987D89F2000000000202020583A70
:102EF00025346420593A2534642020202000000025
:102F000010B501460A48FDF7BCFA0AA10848FDF7CA
:102F1000FBFA0748FDF7D9FA074982B24FF0FF33B1
:102F200048600349BDE81040A1F1AC00FEF770BB5A
:102F3000A00100200D0A0000000000202749802881
:102F400002D200220A7170470A790871D82A06D085
:102F5000D92A10D0DA2A2AD0DB2A3BD138E0A0F1D6
:102F6000A001162901D820301DE0A0F1B7010329E6
:102F700030D8213017E0A0F18001032901D85C305E
:102F800011E0842805D0A0F18501032903D85E3023
:102F900009E0E1207047892804D08A2802D0BE28A1
:102FA00003D017E06330C0B2704781207047862895
:102FB00006D0982806D0AF2806D0A92806D009E068
:102FC0008D2070478E20704790207047DF2070471B
:102FD0008C2801D000207047ED2070471800002099
:102FE0000D460C100100FE05000000040404080852
:102FF0000808080809090B04030607080807080859
:10300000060B06040404040202040908060902046B
:103010000408080507030A07080707070707070743
:1030200007030506070607090A0808080808090A29
:10303000060909080A0A08080809080A0A0A0A0A01
:103040000A08040904080A0308080708080708080A
:10305000060608060A08080808090808080A0A08EF
:103060000A08060205080605080605000000000714
:1030700000090605080604080606080908080908E4
:1030800000090608080808080404000007000000FA
:1030900009000800000900060900000008000405F6
:1030A00000040800000008040406040704090208DC
:1030B000060808080808050506060E0E0F0F080882
:1030C000080707030A08080007000608050608089D
:1030D00008000009090000060604040006060807A7
:1030E00000050000040900000000F80300040004CB
:1030F0000004000480240003000410048004100372
:10310000000410048404100300040004000580047B
:103110008024000500060004801C402240414041FC
:103120008048804080408020000400040005800426
:103130008004000500060004801C402240414041FC
:1031400080408040804080200004000400059004FE
:103150008004000500060004801C402248414041D4
:103160008040804080408020000400040003000470
:103170000004000300040004000300040004000332
:1031800000042004080320040004000300040004D9
:10319000000300040004000600058004800480048D
:1031A0000003000000018003000100003000C01F88
:1031B00000003000E000401F400030000000300000
:1031C000E000401F30004000300000002000F00010
:1031D000E01F60009000900040000000000E801191
:1031E0005010200C40108011000E0000C01020096B
:1031F000100510032001800000003000C000000313
:10320000001C0003C0003000000000180006800110
:10321000700080010006001800006000900090001F
:10322000E007001800040004000300040004000686
:10323000100580048004800400030004800540061B
:1032400040048004000200000000800180010000B2
:1032500000008003400300000000C002C001000025
:103260000000E004900400000000FE05000078006B
:103270000000780000000002401EC0037802401EDB
:10328000C003780240000000C011202220223062DA
:1032900020222022401C0000060680016000180049
:1032A00006060000000E7011881008110812100C9C
:1032B000000C0012000078000000C01F3060088081
:1032C000000008803060C01F00008000A002E00302
:1032D000C001E003A00280000000800080008000A8
:1032E000F0078000800080000000002000380018F7
:1032F00000080000000100010001000100010001C0
:10330000000000180018000000080004000200017E
:10331000800040002000100008000000F00F08109E
:10332000081008100810F00F000000001010101016
:10333000F81F0010001000000000101808140812F8
:1033400008118810701000001008081088108810EC
:103350008810700F00000003800260021012F81F36
:1033600000120000F8088810881088108810080FD4
:103370000000E00F1011881088108810000F000066
:103380001800081808068801680018000000700F6F
:103390008810881088108810700F0000F000081145
:1033A000081108118808F0070000C018C0180000B4
:1033B0000020C038C018000800000001800240044E
:1033C000200810100000800280028002800280022B
:1033D000800200001010200840048002000100005C
:1033E0001000080008160801880070000000E00FB7
:1033F0001010882348244824C8231024E003000028
:103400000010001C88136802180260028013001C60
:10341000001000000810F81F88108810881088100D
:10342000700F0000E00710080810081008101010B6
:10343000780800000810F81F08100810081010087D
:10344000E00700000810F81F88108810C811081045
:10345000181800000810F81F88108810C80108000C
:1034600018000000E00710080810081008111011DB
:10347000780F000100000810F81F881080008000FD
:1034800080008810F81F0810000008100810F81FAE
:10349000081008100000000C0010001008100810A0
:1034A000F80F0800080000000810F81F081180013C
:1034B000680218040818001000000810F81F08100F
:1034C000081000100010001800000810F81F60100D
:1034D0008001000680016010F81F0810000008102D
:1034E000F81F2010C010000108060808F81F080087
:1034F0000000E00710080810081008101008E00786
:1035000000000810F81F0811081108010801F00058
:103510000000E00710480850083008301048E04725
:1035200000000810F81F0811080108030805F0182A
:1035300000100000701C88088810881008111011F5
:10354000380E00001800080008100810F81F0810B6
:1035500008100800180000000800F80F0808001004
:10356000001000100808F80F0800000008003800DC
:10357000C801000600180006C80138000800000055
:1035800078008803001C800360008003001C88030F
:10359000780000000810181828144002800140022A
:1035A000281418180810000008001800681080106F
:1035B000001F801068101800080000001818081478
:1035C000081288114810281018180000FE3F022029
:1035D00002200000100020004000800000010002D6
:1035E00000040008000002200220FE3F000040000E
:1035F00020001000080010002000400000000040E3
:1036000000400040004000400040004000400040BA
:103610000000080010000000000E40114011401191
:103620004011800F001000000810F81F80084010A3
:10363000401080080007000000078008401040107C
:1036400040108008000000078008401040108808E3
:10365000F81F001000000007800A401240124012BC
:10366000800A000B00008010F01F881088100800EE
:103670001000000000638084408840888084C07F00
:10368000400000000810F81F801040004010801F0C
:103690000010000040104010C81F00100010000073
:1036A0000040008040804080C87F00000810F81F64
:1036B00008120803C0144018401000000810081039
:1036C000F81F0010001000004010C01F80104000C4
:1036D000C01F80104000C01F001000004010C01F1D
:1036E000801040004010801F00100000000780087C
:1036F0004010401040108008000700004080C0FFCC
:103700008088409040108008000700000007800873
:10371000401040908088C0FF408000004010401062
:10372000C01F801040104000400080000000800951
:1037300040124012401240124012800C0000400023
:103740004000F00F40104010401000080000400002
:10375000C00F001000104008C01F00100000400003
:10376000C0004003000C0010000C4003C0004000EB
:1037700000004000C00F40180007C00000074018BC
:10378000C007400000004010C0184015000240155E
:10379000C018401000004000C0804083004C003042
:1037A000000C4003C00040000000C010401840144E
:1037B00040124011C0104018000000020002F07DCD
:1037C000088008800000F8FF000008800880F07D75
:1037D0000002000030000800080010002000200057
:1037E00018000000001C802248414041C0420044B3
:1037F0000004800448054006800300038004001490
:103800000044001400040004000300000000002035
:1038100000380018000800048804400548068003AA
:103820000000000010000800040008001000000460
:10383000000400030004000400030004000400036B
:103840000000000000018002400420080004600421
:10385000500490040803801C4022404140458050A1
:1038600080448040802000200020001020100808A4
:10387000200700000000080010000003800400047E
:1038800000046404520492040903000000002000B4
:103890003000380008000000000020003800180048
:1038A00008002000300038000800200030003800F8
:1038B0000800000020003800180008002000380030
:1038C00018000800000400040004000F80144032B7
:1038D0008029000400000001000100010001000136
:1038E00000010001000000010001000100010001D1
:1038F00000010001000100038004000400046004D2
:103900005004900408030000801C402240414041C4
:10391000804080408040802000000000200840045B
:10392000800200010038004400400040004800547C
:103930000054003400040004001580448014000585
:1039400000060004801C40224041404580508044D5
:103950008040802000000800100420044002800104
:10396000F803000400380044004000C0004800D4C0
:1039700000540034000000008003400300041404DD
:103980008A040A03000008001000200C400A800985
:10399000F80E0000F0030804E409140A140A2409CC
:1039A0000804F00300004000A00010014802A0003D
:1039B000100108020000F0030804F40B94089408B6
:1039C000640B0804F0030000300048004800300099
:1039D00000000000801080108010F0178010801010
:1039E000801000000038804460405040504800542F
:1039F0000054003400000000000300030000000039
:103A0000008000A0004000000000E00490040000DE
:103A100008021001A00048021001A00040000000B0
:103A2000000070008800080108160800300000043B
:103A300000248004002300058006800200020000AC
:103A400004000200FA070200010000000A0005005D
:103A5000F5070000004050402823A8248014000FE0
:103A6000000000A0F8570050001E28211420142048
:103A7000002000260015800C80000000F8070003DD
:103A8000800400040024000400040004000300007B
:103A900088034004480480040003000380040004F9
:103AA0002004000420040004000300038004000438
:103AB00020040804200400040003801C402240412C
:103AC00040418048804080408020801C402240410E
:103AD00040418040804080408020801C40224841FE
:103AE000404180408040804080200000000440042D
:103AF0008004000300000004480480040003002048
:103B00000020001000100008000700200020001016
:103B1000001020080007001C002200400040004068
:103B200000400023001C0004000400030004000403
:103B30000003001C00220040004000400040002321
:103B4000001C000420040803200400040003001CDF
:103B5000002200400040004000400023001C000400
:103B6000000600058004800480040003001C00227D
:103B700000400040004000400023001C00040006FC
:103B80001005800480048004000300002008400425
:103B90008002000180024004200800040004F807AD
:103BA0000006000580048004000300040004F807F8
:103BB00000060005900480040003C01C202320415F
:103BC0000041804000400020C01C242320410041CF
:103BD0008040004000200004000400040003800432
:103BE000000400040004000480044805400680032B
:103BF000001C002200400040104380449024001F1D
:103C000000038004000400046004500490040803CE
:103C1000000E00110010001000100008F80700F856
:103C200000040007800480040003001C0022004000
:103C30004040004000400021001E8003400440043A
:103C40008004000300400040002380248014000F03
:103C50000000000180028002600280010002000476
:103C6000000014018A028A02680280010002000436
:103C7000000000018402800264028001000200044E
:103C8000001E002100A0002000A000260015800CCE
:103C90008000001E002100200020002000260015CA
:103CA000800C80000004000400058006800680056A
:103CB000001C802240414041C042004400040004F6
:103CC00090040003000400040004F80300048005CD
:103CD0004806400480040002000400040005800639
:103CE000900680050000400040004000480240006F
:103CF000400040000004000400020003800480042F
:103D00000003000464045204920409030004001434
:103D100080440013000400040004800550062003C2
:103D2000C00480040003FFFFFFFFFFFFFFFFFFFF52
:103D3000FFFFFFFFFFFFFFFFFFFFFFFFFFFFFFFF93
:103D4000FFFFFFFFFFFFFFFFFFFFFFFFFFFFFFFF83
:103D5000FFFFFFFFFFFFFFFFFFFFFFFFFFFFFFFF73
:103D6000FFFFFFFFFFFFFFFFFFFFFFFFFFFFFFFF63
:103D7000FFFFFFFFFFFFFFFFFFFFFFFFFFFFFFFF53
:103D8000FFFFFFFFFFFFFFFFFFFFFFFFFFFFFFFF43
:103D9000FFFFFFFFFFFFFFFFFFFFFFFFFFFFFFFF33
:103DA000FFFFFFFFFFFFFFFFFFFFFFFFFFFFFFFF23
:103DB000FFFFFFFFFFFFFFFFFFFFFFFFFFFFFFFF13
:103DC000FFFFFFFFFFFFFFFFFFFFFFFFFFFFFFFF03
:103DD000FFFFFFFFFFFFFFFFFFFFFF9EF390F411C8
:103DE000F411F411F411F411F411F411F3F1F432AB
:103DF000F515FEFCFFFFFFFFFFFFEF7D8C51528AA0
:103E0000318631864A498430EF7DFFFFFFFFFFFF97
:103E1000FFFFFFFFFFFFFF5DE8E7E9A9E9A9E9A9C7
:103E2000E9A9E9A9E9A9E9A9E9A9E9A9E989E928A3
:103E3000EA0BFE396C3010A229452965318631869E
:103E40002965294510A27BCFFFFFFFFFFFFFFFFF82
:103E5000FFFFFF5DE948EA0AEA0AEA0AEA0AEA0A13
:103E6000EA0AEA0AEA0AE9EAEA0AEA0AE9EAE96996
:103E7000E22B4228298631A631A631A631A631A6E9
:103E800031A6212431A6FFFFFFFFFFFFFFFFFF5DEB
:103E9000E948EA0AEA0AEA0AEA0AEA0AEA0AEA0A45
:103EA000EA0AEA0AEA0AEA0AEA0AEA0AF1EAFA4C39
:103EB0004228298631A631A631A631A631A631A6DF
:103EC00029652945FFFFFFFFFFFFFF5DE948EA0A7B
:103ED000EA0AEA0AEA0AEA0AEA0AEA0AEA0AEA0A42
:103EE000EA0AEA0AEA0AEA0AEA0AF1EAFA6C21A606
:103EF00031A631A631A631A631A631A631A6296553
:103F00004A49FFFFFFFFFF7DE928EA0AEA0AEA0AB9
:103F1000EA0AEA0AEA0AEA0AEA0AEA0AEA0AEA0A01
:103F2000EA0AEA0AEA0AEA0AF9EA8A6A298631A664
:103F300031A631A631A631A631A631A618E3AD755A
:103F4000FFFFFF7DE928EA0AEA0AEA0AEA0AEA0A22
:103F5000EA0AEA0AEA0AEA0AEA0AEA0AEA0AEA0AC1
:103F6000EA0AEA0AF1EAEA6C21A631A631A631A6EC
:103F700031A631A631A631A631862965FFFFFF7D26
:103F8000E928EA0AEA0AEA0AEA0AEA0AEA0AEA0A74
:103F9000E989E968E9EAEA0AEA0AEA0AEA0AEA0AC7
:103FA000E9EAFA0B39A61904318631A631A631A601
:103FB00031A631A631A618C3DEFBFF7DE928EA0A47
:103FC000EA0AEA0AEA0AEA0AEA0AE989FD97FEBB6E
:103FD000E989E9EAEA0AEA0AEA0AEA0AEA0AF1697E
:103FE000E639FFFF2965318631A631A631A631A613
:103FF00031A629459CF3FF7EE928EA0AEA0AEA0A83
:10400000EA0AEA0AEA0AE948FFFFFFFFEA8DE9EA5D
:10401000EA0AEA0AEA0AEA0AE9EAE989FFFFFFFF8F
:104020006B6D296531A631A631A631A631A6296569
:104030008410FF7EE928EA0AEA0AEA0AEA0AEA0A9A
:10404000EA0AE989FDB7FF1CE989E9EAEA0AEA0A0E
:10405000EA0AEA0AEA0AE989FD97F7DF210431A6AC
:1040600031A631A631A631A631A629657BEFFF7EA8
:10407000E928EA0AEA0AEA0AEA0AEA0AEA0AE9CAC4
:10408000F34FF4F5E9A9EA0AEA0AEA0AEA0AEA0AAF
:10409000EA0AE9CAFB2FC69A210431A631A631A645
:1040A00031A631A631A629657BEFFF7EE928EA0A11
:1040B000EA0AEA0AEA0AEA0AEA0AE9CAF390F536DB
:1040C000E9A9EA0AEA0AEA0AEA0AEA0AEA0AE9CAF3
:1040D000FB6FC6BA210431A631A631A631A631A69E
:1040E00031A629657BEFFF7EE928EA0AEA0AEA0A97
:1040F000EA0AEA0AEA0AE9CAF390F536E9A9EA0AFD
:10410000EA0AEA0AEA0AEA0AEA0AE9CAFB70C6BA4D
:10411000210431A631A631A631A631A631A62965E2
:104120007BCFFF7EE928EA0AEA0AEA0AEA0AEA0AF3
:10413000EA0AE9CAF390F536E9A9EA0AEA0AEA0ABC
:10414000EA0AEA0AEA0AE9CAFB90C6BA210431A6D9
:1041500031A631A631A631A631A629657BCFFF7ED7
:10416000E928EA0AEA0AEA0AEA0AEA0AEA0AE9CAD3
:10417000F390F536E9A9EA0AEA0AEA0AEA0AEA0A3B
:10418000EA0AE9CAFB90C6BA210431A631A631A6D3
:1041900031A631A631A629657BCFFF7EE928EA0A40
:1041A000EA0AEA0AEA0AEA0AEA0AE9CAF390F536EA
:1041B000E9A9EA0AEA0AEA0AEA0AEA0AEA0AE9CA02
:1041C000FB90C6BA210431A631A631A631A631A68C
:1041D00031A629657BCFFF7EE928EA0AEA0AEA0AC6
:1041E000EA0AEA0AEA0AE9CAF390F536E9A9EA0A0C
:1041F000EA0AEA0AEA0AEA0AEA0AE9CAFB90C6BA3D
:10420000210431A631A631A631A631A631A62965F1
:104210007BEFFF7EE928EA0AEA0AEA0AEA0AEA0AE2
:10422000EA0AE9CAF390F536E9A9EA0AEA0AEA0ACB
:10423000EA0AEA0AEA0AE9CAFB90C6BA210431A6E8
:1042400031A631A631A631A631A629657BEFFF7EC6
:10425000E928EA0AEA0AEA0AEA0AEA0AEA0AE9CAE2
:10426000F390F536E9A9EA0AEA0AEA0AEA0AEA0A4A
:10427000EA0AE9CAFB90C6BA210431A631A631A6E2
:1042800031A631A631A629657BEFFF7EE928EA0A2F
:10429000EA0AEA0AEA0AEA0AEA0AE9CAF390F536F9
:1042A000E9A9EA0AEA0AEA0AEA0AEA0AEA0AE9CA11
:1042B000FB70C6BA210431A631A631A631A631A6BB
:1042C00031A629657BEFFF7EE928EA0AEA0AEA0AB5
:1042D000EA0AEA0AEA0AE9CAF390F556E9A9EA0AFB
:1042E000EA0AEA0AEA0AEA0AEA0AE9CAFB70C6BA6C
:1042F000210431A631A631A631A631A631A6296501
:104300007BEFFF5DE8A6E989E969E968E968E968A2
:10431000E968E928F30EF4F5E907E968E968E9686E
:10432000E968E968E968E928F2EEBE79002018C377
:1043300018C318C318C318C318C310826B6DFFFFCE
:10434000F576FDB7FDD8FDD8FDF8FDF8FE19FE188D
:10435000FEBBFF3DFDF8FE19FE19FE19FE19FE1900
:10436000FE19FE19FEBBFFFFE73CEF5DEF5DEF5D61
:10437000EF5DEF5DEF5DEF5DF79EFFFFFFFFFFFF7E
:10438000FFFFFFFFFFFFFFFFFFFFFFFFFFFFFFFF3D
:10439000FFFFFFFFFFFFFFFFFFFFFFFFFFFFFFFF2D
:1043A000FFFFFFFFFFFFFFFFFFFFFFFFFFFFFFFF1D
:1043B000FFFFFFFFFFFFFFFFFFFFFFFFFFFFFFFF0D
:1043C000FFFFFFFFFFFFFFFFFFFFFFFFFFFFFFFFFD
:1043D000FFFFFFFFFFFFFFFFFFFFFFFFFFFFFFFFED
:1043E000FFFFFFFFFFFFFFFFFFFFFFFFFFFFFFFFDD
:1043F000FFFFFFFFFFFFFFFFFFFFFFFFFFFFFFFFCD
:10440000FFFFFFFFFFFFFFFFFFFFFFFFFFFFFFFFBC
:10441000FFFFFFFFFFFFFFFFFFFFFFFFFFFFFFFFAC
:10442000FFFFFFFFFFFFFFFFFFFFFFFFFFFF010297
:1044300002030405060708090A0B0C0D0E0F1010E5
:104440000000000000000000010203040607080944
:104450000000000001020304C1C1C1C10000C2C2CA
:1044600002020100C3C301010100C4C4C4C40000AE
:10447000C5C503030100C6C6C6C60000C7C7000005
:104480000100C804C8040101C9FEE9950101CA057B
:10449000CA050101CB06CB060101CC0708070101C3
:1044A000CD090A090101CE0B0C0B0101CFCFCFCFF3
:1044B0000100D0D0D0D00100D1D1D1D10100D2D2D1
:1044C000D2D20100D38AD38A0101D40ED40E0101C5
:1044D000D50FD50F0101D61AD61A0101D7D7D7D7D4
:1044E0000000D8D8D8D80101D9D9D9D90101DA1B0F
:1044F000F1F00101DBF57FF60101DCDCDCDC010120
:10450000DD80DD800101DE83DE830101DF8CDF8C55
:104510000101E0E0E0E00000E1F3E1F30101E2E2AB
:10452000E2E20000E3F8E3F80101E4F2E4F2010161
:10453000E5FEE7950101E6E6E6E60100E7E7E7E7E5
:104540000000E8E8E8E80000E9E9E9E9000081FDA9
:1045500081FD01018D9D9E9D0101ECC0A0C0010166
:10456000EDC09CC001018E8E8E8E010090FA90FAF3
:104570000101F0F0F0F00000F1F1F1F10000F2F2D1
:10458000F2F20000F3F3F3F30000F4F4F4F40000AB
:10459000F5F5F5F50000F6F6F6F60000F7F7F7F793
:1045A0000000F8F8F8F80000F9F9F9F90000FAFA53
:1045B000FAFA0000A5A59F9F0100FCFCFCFC00008E
:1045C000FDFDFDFD0000FEFEFEFE0000FFFFFFFF03
:1045D00000000000F4450008000000205400000026
:1045E0002801000848460008540000201408000074
:1045F000440100080000000000000000010000006D
:1046000010000000000000000024F4000000000181
:104610000000010101000000FFFF00000000000099
:104620000000000000000000FFFF0000000000008C
:10463000000000000000000000000000000000007A
:084640000000E0014001000050
:04000005080000ED02
:00000001FF
