:020000040800F2
:1000000050070020D50100085F19000825120008DC
:100010005D19000859050008D721000800000000FC
:10002000000000000000000000000000C51F0008E4
:100030005B05000800000000611900086D20000841
:10004000EF010008EF010008EF010008EF010008D0
:10005000EF010008EF010008EF010008EF010008C0
:10006000EF010008EF010008EF010008EF010008B0
:10007000EF010008EF010008EF010008EF010008A0
:10008000EF010008EF010008EF010008EF01000890
:10009000EF010008EF010008EF010008EF01000880
:1000A000EF010008EF010008EF010008EF01000870
:1000B000EF010008EF010008EF010008EF01000860
:1000C000EF010008EF010008EF010008EF01000850
:1000D000EF010008EF010008EF010008EF01000840
:1000E000EF010008EF010008EF010008EF01000830
:1000F000EF010008EF010008EF010008EF01000820
:10010000EF010008EF010008EF010008EF0100080F
:10011000EF010008EF010008EF010008EF010008FF
:10012000EF010008EF010008EF010008EF010008EF
:1001300000F002F800F03EF80AA090E8000C8244BB
:100140008344AAF10107DA4501D100F033F8AFF298
:10015000090EBAE80F0013F0010F18BFFB1A43F0A5
:1001600001031847342E0000542E0000103A24BF1B
:1001700078C878C1FAD8520724BF30C830C144BF0C
:1001800004680C607047000000230024002500264E
:10019000103A28BF78C1FBD8520728BF30C148BFEA
:1001A0000B6070471FB59DE8030000F0EFF81FBD1E
:1001B00010B510BD00F046F91146FFF7F3FF02F04D
:1001C0009FF800F064F903B4FFF7F2FF03BC00F0FE
:1001D00095F900000948804709480047FEE7FEE717
:1001E000FEE7FEE7FEE7FEE7FEE7FEE7FEE7FEE7E7
:1001F00004480549054A064B70470000CF20000817
:100200003101000850010020500700205003002059
:100210005003002070B5064600F09CF8056806F112
:100220000B0020F00704B4429CBF002070BD2B4699
:100230006A68BAB11068A04210D304F1080188427C
:100240003CBF5068586007D351681019416011686D
:10025000091B016058601460101D70BD1346526880
:10026000002AE7D12146284600F07CF80028DED19C
:1002700070BD70B50446051F00F06CF80068002CD6
:1002800014BF446870BD002C18BFAC423CBF204670
:100290006468F8D301680A18AA4218BF456003D100
:1002A0002A6805461144016028684119A1421CBF13
:1002B0006C6070BD6168696021680844286070BD29
:1002C00010B5431C02E010F8011B71B18107FAD18F
:1002D0004FF0013202C88C1A8C4314EAC211F9D0D3
:1002E000C01A0A0603D0C01E10BDC01A10BD0A04F1
:1002F00001D0801E10BD0902FCD0401E10BD4FF081
:10030000000200B5134694469646203922BFA0E865
:100310000C50A0E80C50B1F12001BFF4F7AF090771
:1003200028BFA0E80C5048BF0CC05DF804EB890062
:1003300028BF40F8042B08BF704748BF20F8022BA5
:1003400011F0804F18BF00F8012B704770477047BD
:100350007047000000487047F40000207047704765
:100360007047704738B504460A4600206946AFF327
:100370000080002808BF38BD02460099204600F0E2
:100380003FF8012038BD012000F054B8F8B5AFF3B4
:100390000080054600200C46102000BF0646A81924
:1003A000A0420DD9324669460020AFF30080070015
:1003B00008BF00F03FF80098A04218BF0546C419D6
:1003C000FFF7C8FF05600746F01D20F0070046193B
:1003D000284600F00AF8B44208BFF8BDA21B314617
:1003E0003868BDE8F84000F00BB800210160C0E9B2
:1003F000011070471020704700487047EC00002043
:10040000034640688C46002818BF88423CBF03461C
:100410004068F8D318681844884207D00CF10300EC
:1004200020F00700001D411A521A0146081D0A60FB
:10043000FFF71FBF10B500F039F8BDE8104000F01D
:100440002FB870477546FFF7D7FFAE4605006946DF
:10045000534620F00700854618B020B5FFF7C8FEC8
:10046000BDE820404FF000064FF000074FF00008B5
:100470004FF0000B21F00701AC46ACE8C009ACE836
:10048000C009ACE8C009ACE8C0098D46704710B59A
:100490000446AFF300802046BDE81040FFF793BE4E
:1004A000002801D000F02AB87047000010B50128DC
:1004B00005D0002103A000F027F8012010BD09A1FC
:1004C000F8E7000053494752544D454D3A204F75C7
:1004D00074206F662068656170206D656D6F72793C
:1004E000000000003A2048656170206D656D6F72F4
:1004F0007920636F72727570746564000149182009
:10050000ABBEFEE72600020070B505460C460A2089
:1005100000E06D1C00F011F835B128780028F8D102
:1005200002E0641C00F009F814B120780028F8D12A
:10053000BDE870400A20AFF3008008B569468DF829
:1005400000000320ABBE08BD01228A40024201D058
:100550000120704700207047FEE7704770B50446E1
:1005600000F010F90546601C02D0044800780444ED
:1005700000F008F9401BA042FAD370BD0000002033
:100580002DE9F84FDFF8C8910024A9F1040B2346A8
:100590000F2709F1040AABF1040ED1E00125A540B3
:1005A00006EA0502AA4276D1DFF8A8C14E68A6EB9A
:1005B0000C0866452BD00DDC032E34D005DC36B399
:1005C000012E19D0022E2FD11BE0112E16D0122E83
:1005D0002AD119E0B8F5881F19D006DCB8F5803F9C
:1005E00015D0B8F5801F1FD111E0B8F5001F0ED04F
:1005F000B8F5041F18D10AE0CB6815E0CB681B1DC5
:1006000012E0CB6808330FE0CB680C330CE08B684A
:100610002BB1012B4FF0080303D0456104E0042304
:1006200002E0056100E00023FF2A01D8064601E050
:1006300000F104064FEA840501D9A5F12005D6F89A
:10064000008007FA05FC28EA0C0803FA05F548EAD9
:100650000508C6F800804D68ED0070D53E4DAE69C6
:1006600046F00106AE61AD6924F0030605F0010510
:1006700000953A4D06EB050CDCF80850A607360F3E
:1006800007FA06F825EA0805DFF8D480404503D1CB
:100690004FF0000825E052E0DFF8C880404502D165
:1006A0004FF001081DE0DFF8C080404502D14FF057
:1006B000020816E0DFF8B480404502D14FF003088D
:1006C0000FE0DFF8AC80404502D14FF0040808E0AD
:1006D000DFF8A080404502D14FF0050801E04FF05F
:1006E000060808FA06F848EA0508CCF808804D68BC
:1006F000D9F80060ED024D4601D5164300E096435F
:100700002E604D68DAF80060AD02554601D51643FB
:1007100000E096432E604D68DBF80060AD035D4657
:1007200001D5164300E096432E604D68DEF8006068
:10073000ED03754601D5164300E096432E60641C18
:100740000A681646E2407FF429AFBDE8F88F000042
:100750000804014000001110001002400000014098
:1007600000080140000C014000100140001401404D
:1007700000180140001C01400AB1016170470904E2
:10078000FBE700000148806870470000000000207F
:10079000024881680278114481607047000000209F
:1007A000074810B5016841F010010160032000F016
:1007B00067F80F2000F006F800F024F8002010BDC4
:1007C0000020024070B50D4D04464FF47A71287830
:1007D000B1FBF0F00A490968B1FBF0F000F0E9FB69
:1007E00048B9102C07D200222146501E00F028F8EC
:1007F00000206C6070BD012070BD00000000002072
:100800000C0000200C4808B5816941F001018161AC
:10081000816901F001010091C16941F08051C1611C
:10082000C06900F0805000900448416821F0E06108
:1008300041F00071416008BD00100240000001401D
:10084000F0B40E4B1B680C46C3F30223C3F107053B
:10085000042D00D90425191D072901D2002300E029
:10086000DB1E012606FA05F1491E214099409E40F3
:10087000761E16403143F0BC01F0AEBC0CED00E03A
:10088000064900F0070208684FF6FF03184040EAE7
:100890000220034A10430860704700000CED00E09E
:1008A0000000FA052DE9F0470F46050061D0434EE0
:1008B000306800F00700B84209D2306820F0070025
:1008C00038433060306800F00700B84251D12868E2
:1008D0003B4C810712D5400703D5606840F4E060C7
:1008E00060602878000703D5606840F4605060605D
:1008F0006068A96820F0F000084360602878C007AD
:1009000028D06868012810D02168022810D08907F3
:1009100000292EDA616821F0030101436160FFF7CD
:1009200031FF804641F288390DE021688903EFE705
:100930008901EDE7FFF726FFA0EB0801494502D941
:100940000320BDE8F0876068696800F00C00B0EB38
:10095000810FEFD1306800F00700B8420BD9306842
:1009600020F0070038433060306800F00700B842DC
:1009700001D00120E5E72878400705D56068E968DF
:1009800020F4E060084360602878000706D56068BE
:10099000296920F4605040EAC100606000F018F856
:1009A0006168084AC1F30311515CC84006490860F8
:1009B00006480068FFF706FF0020C2E7002002405B
:1009C000001002400E2E00080C0000200400002041
:1009D0000E4A51680E4801F00C03042B11D0082B6D
:1009E0000FD10C48C1F38343C903C05C0AD55168D9
:1009F000084AC1F34041921E515C054A5043B0FB86
:100A0000F1F070470449484370470000001002406D
:100A100000127A00FE2D000800093D002DE9F84F74
:100A2000040070D02078C04DC00749D06868C0F37A
:100A30008100012807D06868C0F38100022809D12D
:100A40006868C00306D52868800339D56068002827
:100A5000E7D035E06068B0F5803F0BD010B1B0F55D
:100A6000A02F11D0286820F480302860286820F456
:100A7000802002E0286840F480302860606890B1EF
:100A8000FFF780FE06460AE0286840F480202860D0
:100A9000F0E700BFFFF776FE801B642873D8286854
:100AA0008003F7D50CE0FFF76DFE064605E000BFBA
:100AB000FFF768FE801B6428F0D828688003F7D40D
:100AC00020789A4E80074FF001094FF0000839D581
:100AD000686810F00C0F07D06868C0F38100022826
:100AE00009D16868C00306D42868800714D5206936
:100AF000012808D110E02069B0B1C6F80090FFF7D6
:100B000041FE074605E00AE1FFF73CFEC01B022854
:100B1000C4D828688007F7D52868616920F0F800F4
:100B200040EAC10028600DE0C6F80080FFF72AFE09
:100B3000074604E0FFF726FEC01B022823D82868DA
:100B40008007F7D4207800072CD57948A169D9B15E
:100B5000C0F80090FFF716FE074604E0FFF712FE0C
:100B6000C01B02280FD8686A8007F7D571484FF478
:100B7000FA510068B0FBF1F0009000BF0098411EF0
:100B80000091FAD20EE080E0C0F80080FFF7FAFD95
:100B9000074604E0FFF7F6FDC01B022875D8686A17
:100BA0008007F7D42078400760D5E8690027C000A7
:100BB00008D4E86940F08050E861E869012700F056
:100BC000805000905C480168C90513D401688346D1
:100BD00041F480710160FFF7D5FD824606E000BF59
:100BE000FFF7D0FDA0EB0A0064284ED8DBF8000028
:100BF000C005F5D5E06801280AD008B1052813D052
:100C0000286A20F001002862286A20F0040002E02F
:100C1000286A40F001002862E06841F2883B98B100
:100C2000FFF7B0FD82460BE0286A40F0040028621E
:100C3000EEE700BFFFF7A6FDA0EB0A0159455AD821
:100C4000286A8007F6D50CE0FFF79CFD824605E098
:100C5000FFF798FDA0EB0A0159454CD8286A800798
:100C6000F6D41FB1E86920F08050E861E06988B3EC
:100C70006968C1F38101022944D00228C6F8608066
:100C800004D0FFF77FFD044638E034E0FFF77AFD3B
:100C9000074604E0FFF776FDC01B02282BD8286822
:100CA0008001F7D4206AB0F5803F05D16868A1685B
:100CB00020F4003008436860D4E9080108436968FB
:100CC00021F4741108436860C6F86090FFF75AFD7C
:100CD000044606E025E000BFFFF754FD001B022894
:100CE00009D828688001F7D51BE000BFFFF74AFD4F
:100CF000001B022802D90320BDE8F88F2868800174
:100D0000F4D40EE00128F7D06868226A00F480313C
:100D1000914204D1616A00F47010884201D0012030
:100D2000EAE70020E8E7000000100240000042422D
:100D3000800442420C0000200070004070B50400A6
:100D400009D0606A002540B125616561A56294F80B
:100D5000510040B10CE0012070BD6068B0F5827FA9
:100D6000F4D0E561F2E784F85050204600F040F8F6
:100D7000022084F851002068016821F040010160E0
:100D8000A088218900F4827001F404410843A189FC
:100D900001F400610843217C01F002010843217D38
:100DA00001F001010843218B01F400710843217F08
:100DB00001F03801084394F8201001F08001084345
:100DC000218D01F40051084321680860A0690421C5
:100DD00001EA1040216848602068C16921F400617F
:100DE000C1616565012084F85100002070BD0000DC
:100DF00000B585B000210091019102910391006836
:100E00000F4988421AD10F48816941F480518161AC
:100E1000816901F480510491816941F0040181618B
:100E20008069694600F004000490A0200090022030
:100E30000190032003900448FFF7A2FB05B000BD1A
:100E40000030014000100240000801402DE9F84F39
:100E5000984616468A460446FFF794FC814694F865
:100E6000510001281ED1BAF1000F73D0002E71D0AD
:100E700094F85000012815D0012784F85070032001
:100E800084F8510000256565C4F830A0A686E68682
:100E9000A563A587E58765642564A068B0F5004F64
:100EA00003D00CE00220BDE8F88F2068016821F033
:100EB000400101602068016841F4804101602068C0
:100EC0000168490603D4016841F040010160E0680F
:100ED000B0F5006F606803D048B3012E27D047E01B
:100EE00008B1012E1FD1206B21680088C86006E080
:100EF00020688168890709D5216B0988C160206B4A
:100F0000801C2063E08E401EE0860CE0FFF73AFC78
:100F1000A0EB0901414503D3B8F1FF3F03D035E011
:100F2000B8F1000F32D0E08E0028E1D123E0206B31
:100F300021680078087306E02068816889070AD56F
:100F4000216B09780173206B401C2063E08E401EEA
:100F5000E0860DE02BE0FFF715FCA0EB0901414511
:100F600003D3B8F1FF3F03D010E0B8F1000F0DD06C
:100F7000E08E0028E0D14A464146204600F0ACFF12
:100F800008B120206065A06830B109E084F8517094
:100F900084F85050032086E72068C168806800907C
:100FA00084F8517004F8505F60680028F3D0012085
:100FB00079E710B5401EB0F1807F01D3012010BD4C
:100FC0004FF0E02460610F21601701F005F9002067
:100FD000A06107202061002010BD000070B590F8CE
:100FE0003C20012A2CD0012480F83C40022280F8C9
:100FF0003D2003685A689D6822F070060A683243F3
:101000005A60104B02689A420ED00F4B9A420BD096
:10101000B2F1804F08D00D4B9A4205D00C4B9A424A
:1010200002D00C4B9A4204D1496825F08003194341
:10103000916080F83D40002180F83C10084670BD6A
:10104000022070BD002C014000340140000400402B
:1010500000080040000C004010B5040003D094F8D4
:101060003D0010B107E0012010BD002084F83C00D5
:10107000204600F01FF8022084F83D00211D206862
:1010800001F026F8012084F8460084F83E0084F838
:101090003F0084F8400084F8410084F8420084F85E
:1010A000430084F8440084F8450084F83D000020A3
:1010B00010BD000008B500680649884208D10648FE
:1010C000816941F400618161806900F400600090F1
:1010D00008BD0000002C01400010024090F83D10B7
:1010E000012901D001207047022180F83D100168DC
:1010F000CA6842F00102CA6000680E4988420ED0F8
:101100000D4988420BD0B0F1804F08D00B4988427E
:1011100005D00B49884202D00A49884204D181682F
:1011200001F00701062903D0016841F001010160C7
:1011300000207047002C01400034014000040040B2
:1011400000080040000C004070B5044690F83C00D8
:101150000025012817D0012684F83C60022084F87D
:101160003D002068826822F0770222F47F4282608C
:101170000868502838D00DDC20284FD005DC90B30B
:10118000102811D14AE0022070BD302846D04028F6
:101190000AD13BE060282FD070280DD0B0F5805FD9
:1011A00003D0B0F5005F12D0012584F83D60002027
:1011B00084F83C00284670BDCB68D1E90121206845
:1011C00000F0D4FF2068816841F0770109E0CB6826
:1011D000D1E90121206800F0C9FF2068816841F44D
:1011E00080418160E1E719E0CA684968206800F041
:1011F000CFFF5021206806E0CA684968206800F0E7
:10120000D8FF6021206800F0BBFFCEE7CA684968BC
:10121000206800F0BDFF40212068F4E72268014605
:101220001046F0E7FEE700002DE9F04701EB41062C
:101230004FF416740546A64200D20C46DFF88CA087
:101240000122042157465046FFF796FA0022082152
:101250003846FFF791FAF82000EA1529FC2000EA49
:10126000D508E806070E2046FEF7D4FF0546002005
:1012700007E000BF05F800902918C01C81F8018024
:101280008F70A042F6D3B6FBF4F0B6FBF4F704FB84
:10129000106857B1002606E0A2B20A2329460C487E
:1012A000FFF7D4FD761CBE42F6D31FFA88F20A235C
:1012B00029460748FFF7CAFD012208215046FFF7DB
:1012C0005BFA2846BDE8F047FEF7D3BF00080140AF
:1012D0004C0000202DE9F041154C1646069FA288CF
:1012E0001D46904221D2628891421ED2A388821963
:1012F000521E9A4202DBA288121A96B263884A19D9
:10130000521E9A4202DB6288521A95B24A19521E44
:1013100093B28219521E92B200F0D6F905FB06F183
:101320003846BDE8F041FFF77FBFBDE8F08100001F
:1013300044000020FEB5054652480C4616468188FA
:101340008D427DD2408884427AD24F4F00220421C0
:101350003846FFF711FA002208213846FFF70CFA49
:101360002A2000F0A7F9012204213846FFF704FAE9
:10137000012208213846FFF7FFF9002208213846EC
:10138000FFF7FAF9280A8DF800008DF801506D1C5E
:10139000280A8DF802008DF80350012304226946C3
:1013A0003A48FFF753FD012208213846FFF7E4F9D8
:1013B000002204213846FFF7DFF9002208213846D1
:1013C000FFF7DAF92B2000F075F9012204213846E5
:1013D000FFF7D2F9012208213846FFF7CDF90022A4
:1013E00008213846FFF7C8F9200A8DF804008DF867
:1013F0000540641C200A8DF806008DF80740012383
:10140000042201A92148FFF721FD012208213846C5
:10141000FFF7B2F9002204213846FFF7ADF90022A8
:1014200008213846FFF7A8F92C2000F043F90122E3
:1014300004213846FFF7A0F901220821384600E0D0
:101440001EE0FFF799F9002208213846FFF794F9CA
:10145000F82000EA16208DF80800FC2000EAD600EB
:101460008DF80900F0008DF80A000123032202A97B
:101470000648FFF7EBFC012208213846FFF77CF90C
:10148000FEBD000044000020000801404C00002088
:1014900070B50A4C05466088401E83B2A0880021C2
:1014A000401E82B2084600F00FF9A18860884143CF
:1014B0002846BDE87040FFF7B7BE0000440000209A
:1014C00010B500F0D7F8012000F054F96420FFF7C0
:1014D00045F8F72000F04EF9A92000F065F95120F9
:1014E00000F062F92C2000F05FF9822000F05CF936
:1014F000C02000F03FF9112000F056F9092000F05B
:1015000053F9C12000F036F9412000F04DF9C52013
:1015100000F030F9002000F047F90A2000F044F90B
:10152000802000F041F9B12000F024F9B02000F053
:101530003BF9112000F038F9B42000F01BF902202B
:1015400000F032F9B62000F015F9022000F02CF975
:10155000422000F029F9B72000F00CF9C62000F075
:1015600023F9BE2000F006F9002000F01DF9042048
:1015700000F01AF9E92000F0FDF8002000F014F95D
:10158000362000F0F7F8682000F00EF93A2000F05D
:10159000F1F8662000F008F9E02000F0EBF80020F8
:1015A00000F002F9072000F0FFF80F2000F0FCF82F
:1015B0000D2000F0F9F81B2000F0F6F80A2000F0EA
:1015C000F3F83C2000F0F0F8782000F0EDF84A2025
:1015D00000F0EAF8072000F0E7F80E2000F0E4F849
:1015E000092000F0E1F81B2000F0DEF81E2000F0DA
:1015F000DBF80F2000F0D8F8E12000F0BBF8002065
:1016000000F0D2F8222000F0CFF8242000F0CCF82F
:10161000062000F0C9F8122000F0C6F8072000F0FC
:10162000C3F8362000F0C0F8472000F0BDF847208E
:1016300000F0BAF8062000F0B7F80A2000F0B4F87D
:10164000072000F0B1F8302000F0AEF8372000F0AD
:10165000ABF80F2000F0A8F8112000F08BF87820EC
:10166000FEF77CFF292000F085F8BDE8104001203E
:1016700000F054B870B501220D4D140221462846E1
:10168000FFF77AF81420FEF769FF0022214628466A
:10169000FFF772F86420FEF761FF01222146284619
:1016A000FFF76AF8BDE870406420FEF757BF0000FE
:1016B0000008014001B501231A4669460148FFF7B9
:1016C000C5FB08BD4C0000202DE9F04107461C4633
:1016D00015460E462A2000F04DF8380A00F064F84E
:1016E000F8B200F061F8280A00F05EF8E8B200F005
:1016F0005BF82B2000F03EF8300A00F055F8F0B20D
:1017000000F052F8200A00F04FF8E0B200F04CF878
:10171000BDE8F0412C2000F02DB8000070B5134C4E
:10172000134920700870362000F024F80120FEF7DD
:1017300015FF20784FF4A0754FF4F07658B10128CA
:101740000BD002280BD0032804D1A82000F02CF8DD
:10175000A680658070BD082002E07820F6E7C820EA
:1017600000F022F8A580668070BD000044000020D3
:101770001100002070B50B4C0546002208212046C0
:10178000FEF7FAFF002204212046FEF7F5FF284667
:10179000FFF790FF2046BDE8704001220821FEF7C8
:1017A000EBBF00000008014070B50B4C054601225C
:1017B00004212046FEF7E0FF002208212046FEF724
:1017C000DBFF2846FFF776FF2046BDE87040012288
:1017D0000821FEF7D1BF0000000801402DE9F047C5
:1017E00086B000242D4800940194029403948169EA
:1017F00041F020018161816901F02001049181693A
:1018000041F004018161816901F004010491816961
:1018100041F008018161816901F008010491816949
:1018200041F0100181618069DFF8748000F01000E0
:101830004FF486750490002229464046FEF79CFF2F
:10184000DFF860904FF20107002239464846FEF764
:1018500093FFDFF854A0002240215046FEF78CFF92
:101860000095022601250396CDE9015469464046BC
:10187000FEF786FE00970396CDE901546946484677
:10188000FEF77EFE4020CDE90005CDE9024669461F
:101890005046FEF775FE06B0BDE8F0870010024026
:1018A00000080140000C014000100140104810B534
:1018B0000E4901604FF4827141604FF40041816034
:1018C0000021C1604FF400720161C0E905120822D5
:1018D000C0E90721416281620A21C162FFF72EFA45
:1018E000002801D072B6FEE710BD000000300140B4
:1018F0004C00002010B586B00024174800940194D5
:101900000294039404941349059401604721C0E9AB
:1019100001144FF6FF71C0E9031444618461FFF7BD
:101920009BFB08B172B6FEE74FF480500090694609
:101930000948FFF709FC08B172B6FEE7049404A950
:1019400005480594FFF74AFB002801D072B6FEE770
:1019500006B010BD002C0140A4000020FEE7FEE709
:10196000704700002DE9FE4F784C4FF0000A5146B9
:10197000A27BA56A861A2E44534696F807C02646CF
:1019800084F810C096F8088096F812B0776AD646A8
:101990000BFB08770A2817D0904217D3E67BB14695
:1019A000B04213D8A68A002E10D0BCF1000F0DD083
:1019B000264694F80580F679B8F1000F08D094F81F
:1019C00011C084F810C015E0C4E908E7BDE8FE8F37
:1019D000A0F1D408B8F1060F06D9A0F1E708B8F1D4
:1019E000050F01D9D12805D1D4F820800CFB168C25
:1019F000C4F820C0A0F1300CBCF1090F05D8C2F129
:101A0000370C15F80CC084F810C094F81080D4F886
:101A100020C008FB06C6D4F82CC0664501D9C4E92D
:101A200008E7801A05E0EE185B1CF679DBB231445A
:101A300089B29842F7DC01FB0BF1A9EB020001EB44
:101A4000C000383080B2C10800F0070900200291C0
:101A50006EE0002766E000BFB9F1070F05D90AF173
:101A600001014FF000091FFA81FA029A02EB0A0104
:101A7000A26A114449780191E379226A08FB0321A3
:101A800089B20091E1780029A1780BD029B1217A9F
:101A9000626AC01B00FB01200FE0217A606A07FB2D
:101AA00001000AE029B1C11B227A606A01FB020031
:101AB00003E0207A616A07FB00101FFA80FB002612
:101AC00027E0002520E049460198FEF73DFD50B192
:101AD00020780028208B0CD082B20098304481B24C
:101AE0000BEB05000BE0A07960B120780028A08BFB
:101AF000F2D182B20BEB050081B20098304480B283
:101B0000FFF718FC6D1CEDB2207A8542DBD3761C02
:101B1000F6B2E0798642D4D309F101007F1C00F0CF
:101B2000FF09FFB2A07C874296D308F10100C0B242
:101B3000217C804688428CD3617A206AE27908440D
:101B4000217C01FB0200206240E700001000002021
:101B50002DE9FE4F63494FF0000A52468D7B8C6A97
:101B6000461BA6463444534694F807C00C4681F8F9
:101B700010C094F80880A67CD4F82C90676A0A28D4
:101B80002DD0A84232D3CC7B0094A0422ED88C8A90
:101B9000002C2BD0BCF1000F28D04C790CB14C7C20
:101BA0000C748B4691F810C00C6AC9790CFB114477
:101BB000002C07D506FB0877CBF824700CFB119797
:101BC000CBF820709BF809705C460CFB0171DBF8C8
:101BD0002070791ACBF820107146401B0EE0C1F836
:101BE0002090887A321802FB08704862BDE8FE8FA8
:101BF000CF185B1CFF79DBB23A4492B29842F7DC13
:101C000000987243401B02EBC000383080B2C1081C
:101C100000F00709002002915FE0002757E000BFB5
:101C2000B9F1070F05D90AF101014FF000091FFAB8
:101C300081FA0299A26A5144114449780191E279EA
:101C4000236A08FB023189B20091E178A17829B1B9
:101C5000217A626AC01B00FB012003E0217A606ADE
:101C600007FB01001FFA80FB002527E0002620E08B
:101C700049460198FEF768FC50B120780028208B77
:101C80000CD082B20098284481B20BEB06000BE026
:101C9000A07960B120780028A08BF2D182B20BEB42
:101CA000060081B20098284480B2FFF743FB761CFF
:101CB000F6B2207A8642DBD36D1CEDB2E079854224
:101CC000D4D309F101007F1C00F0FF09FFB2A07C12
:101CD0008742A5D308F10100C0B2217C804688422A
:101CE0009BD383E71000002070B505460848002408
:101CF000C07A012807D12846BDE8704000F00AB834
:101D0000641CFFF72FFE285D0028F9D170BD00008C
:101D1000100000202DE9F04F6D4CA1B00026804648
:101D200094F8099037466D4609E000BF18F80600A0
:101D300000F08EFC08B1E8557F1C761CF6B24046D8
:101D4000FEF7BEFAB042F1D84FF0000A05F807A03E
:101D500057465646DFF87CB1A846AEE0761C8D2D7E
:101D600018D00CDC3B2D29D004DC2C2D28D02E2DB6
:101D700029D127E03F2D1FD0812D24D108E08E2DC1
:101D80000AD0902D0AD0982D0AD0E12D1BD109E060
:101D9000EA2518E0EB2516E0EE2514E0EF2512E029
:101DA000DF2510E0815D761C6173C72902D0E12533
:101DB000761E08E0FB2506E0BF2504E01F2502E0B3
:101DC0001D2500E01C2518F806006073812812D03C
:101DD00008DC2C282BD02E282BD03B2825D03F28C0
:101DE0000DD120E08D2808D08E2816D0902816D04E
:101DF000982804D115E0EA2000E0EB206073C02DA4
:101E00003FD9207BC02816D900EB40010BEB4100E5
:101E1000A0F5805090F87F1B0EE0EE20EEE7EF205B
:101E2000ECE7DF20EAE7BF20E8E71F20E6E71D2018
:101E3000E4E71C20E2E70021607BC02808D900EB22
:101E400040020BEB4200A0F5805090F87E0B00E0C2
:101E5000002040EA4100C0B2012802D984F809A05C
:101E600001E084F8099005EB45020BEB42010844C0
:101E7000A0F5805090F87A0BFFF76AFE84F809907D
:101E80001AE0A5F13000092813D87F1CFFB20DA875
:101E9000C555617B30390A2908D20DE00DA8C05D17
:101EA0002038C0B2FFF754FE7F1EFFB2002FF5D1DD
:101EB00002E02846FFF74CFE257318F8065040460E
:101EC000002D7FF44BAFFF20207321B0BDE8F08FD1
:101ED000100000201E2E0008F8B515460E460B46D1
:101EE000009204460122022100F010F840B9334666
:101EF000002280212046009500F008F8002804D038
:101F0000606D40F0200060650320F8BD2DE9F843C6
:101F10001E46914688460446089DFEF733FC401B4A
:101F2000351AFEF72FFC074625480068C0F3CB3072
:101F3000684338E0701C37D0FEF724FCC01BA84271
:101F400003D215B1009860B32CE02068416821F0FD
:101F5000E00141606068B0F5827F0BD1A068B0F508
:101F6000004F02D0B0F5806F04D12068016821F0E5
:101F700040010160A06AB0F5005F09D120680168E6
:101F800021F4005101602068016841F400510160B2
:101F9000012084F85100002084F850000320BDE89F
:101FA000F8830025401E00902068816838EA01000F
:101FB00004D000214945BDD10020F0E70121F9E717
:101FC0000C00002070470000144A10B51146D07272
:101FD000497840F2DF1340F23F1401280BD0002073
:101FE000012917D0032915D009B1022902D11062A5
:101FF000C2E90B4310BD012908D0032906D009B15D
:102000000229F7D1C2E90B43146210BDC2E90B34B7
:10201000136210BD1062C2E90B3410BD1000002025
:1020200070B5114A1446D57A637CE4796343012D77
:1020300009D04B431362917C937A1944137A594324
:102040004143516270BD084C5378E679E56A647C7F
:10205000744304FB1151012B04D0032B02D00BB1AC
:10206000022BE8D11162E6E710000020FEF790BBDA
:1020700030B58FB028216846FEF741F914210AA82F
:10208000FEF73DF901210804CDE900100024029477
:1020900002250491CDE907504FF4E01009906846FD
:1020A000FEF7BCFC08B172B6FEE70F20CDE90A05C9
:1020B0004FF48060CDE90C4002210AA80E94FEF78F
:1020C000F1FB002801D072B6FEE70FB030BD7047BB
:1020D000F0B50268204C214D214E224F224B4FF08B
:1020E000804CA04209D0984207D0604505D0A84254
:1020F00003D0B04201D0B84204D122F0700E4A6839
:1021000042EA0E02A04209D0984207D0604505D0AD
:10211000A84203D0B04201D0B84203D122F44075A6
:10212000CA682A434D6922F080022A4302608A6805
:10213000C2620A688262A04201D0984201D1096954
:102140000163012141610169C90703D0016921F0DF
:1021500001010161F0BD0000002C014000040040BD
:1021600000080040000C00400034014010B58468B5
:1021700042EA032224F47F440A432243826010BDD2
:10218000826822F070020A4342F0070181607047C2
:1021900010B5036A046A24F001040462846924F01F
:1021A000F00444EA021423F00A020A438461026242
:1021B00010BD10B5036A046A24F010040462846937
:1021C00023F0A00324F4704444EA023243EA0111EC
:1021D0008261016210BDFEE70907090E002804DBD9
:1021E00000F1E02080F80014704700F00F0000F1CB
:1021F000E02080F8141D70472DE9F05F1F464FF472
:10220000A073DDF828A01546984273D24FF4F074FD
:10221000A1426FD24219521E9A4202DBC0F5A0724F
:1022200095B2CA19521EA24202DBC1F5F07297B2F2
:10223000CA19521E93B24219521E92B2FFF744FAC3
:102240002D4C012204212046FEF796FA0022082197
:102250002046FEF791FA05EB450B0BF10100FDF767
:10226000D9FF06460024204637E00021084628E032
:102270001AF80420641C4FF03F081AF80430401C80
:1022800043EA0222D30AC3EB032C1F23BCFBF3FC5B
:1022900006F801C0C2F3451CCCEB0C2CBCFBF8FCCF
:1022A00002F01F02491CC2EB022289B2B2FBF3F218
:1022B00006F801C0491C89B280B27254491C89B227
:1022C000641CA842D4D31FFA8BF2642331460B4816
:1022D000FEF7BCFD09F1010080B28146B842C4D3CB
:1022E000012208210448FEF747FA3046BDE8F05FB6
:1022F000FDF7BFBFBDE8F09F000801404C00002083
:1023000008B5FEF74DFAFFF7B3FEFFF767FAFFF7E0
:10231000CDFAFFF7EFFAB448FEF7E0FEFFF7D0F88A
:102320001F20FFF7B5F801221146B048FEF724FA46
:102330004FF4FA70FEF712F900220121AB48FEF7C4
:102340001BFAAB481E2300901A46E1218C20FFF7B0
:1023500053FF4FF4FA60FEF701F9A6490320087015
:10236000A54908700020FFF7D9F91F20FFF790F862
:102370000120FFF729FE00210846FFF751FE9F4D7F
:102380009F4E4FF6FF744FF478482C609DA0C6F81E
:102390000080FFF7A9FC00210120FFF741FE002784
:1023A0002C609CA03760FFF79FFC0020FFF70CFE1D
:1023B00000210320FFF734FE2F609AA03460FFF75E
:1023C00093FC00210420FFF72BFE4FF4F0492C6012
:1023D00098A0C6F80090FFF787FC00210520FFF7C2
:1023E0001FFE4FF61F0A2C6096A0C6F800A0FFF74C
:1023F0007BFC4FF47A7B5846FEF7B0F80120FFF7DC
:102400008DF91F20FFF744F80120FFF7DDFD0021C3
:102410000846FFF705FE2C607AA0C6F80080FFF79B
:1024200063FC00210120FFF7FBFD2C6079A03760E1
:10243000FFF75AFC0020FFF7C7FD00210320FFF73C
:10244000EFFD2F6077A03460FFF74EFC00210420E1
:10245000FFF7E6FD2C6077A0C6F80090FFF744FC7C
:1024600000210520FFF7DCFD2C6076A0C6F800A057
:10247000FFF73AFC5846FEF771F80220FFF74EF9D5
:102480001F20FFF705F80120FFF79EFD00210846F9
:10249000FFF7C6FD2C605BA0C6F80080FFF724FCA8
:1024A00000210120FFF7BCFD2C605AA03760FFF728
:1024B0001BFC0020FFF788FD00210320FFF7B0FD83
:1024C0002F6058A03460FFF70FFC00210420FFF7B5
:1024D000A7FD2C6057A0C6F80090FFF705FC00216F
:1024E0000520FFF79DFD2C6056A0C6F800A0FFF761
:1024F000FBFB5846FEF732F80320FFF70FF91F20C9
:10250000FEF7C6FF0120FFF75FFD00210846FFF739
:1025100087FD2C603BA0C6F80080FFF7E5FB00219B
:102520000120FFF77DFD2C603AA03760FFF7DCFB50
:102530000020FFF749FD00210320FFF771FD2F6008
:1025400038A03460FFF7D0FB00210420FFF768FDBE
:102550002C6038A0C6F80090FFF7C6FB00210520CC
:10256000FFF75EFD2C6037A0C6F800A0FFF7BCFBAC
:102570005846FDF7F3FF0020FFF7D0F82046FEF79E
:1025800087FF1F204FF4D27400901E233C22214667
:102590000F20FEF79FFE4FF4FC6000901E233C22AC
:1025A00021465520FEF796FE4FF6E07000901E2360
:1025B0003C2221469B20FEF78DFE1E233C22214615
:1025C000E120CDF80080FEF785FE01221146074884
:1025D000FEF7D2F84FF4FA70FDF7C0FF0022012198
:1025E0000248FEF7C9F8FEE7A4000020000C0140F5
:1025F000F426000817000020180000202800002002
:102600002C000020203F3F203F3F3F203F3F3F2006
:1026100000000000203F3F3F3F203F3F3F3F3F2023
:1026200000000000206D6963726F6E696B2E697225
:10263000200000002054465420494C493934383891
:10264000200000002053544D3332463130332000F7
:102650002749802802D200220A7170470A7908713E
:10266000D82A06D0D92A10D0DA2A2AD0DB2A3BD1A0
:1026700038E0A0F1A001162901D820301DE0A0F11A
:10268000B701032930D8213017E0A0F180010329D8
:1026900001D85C3011E0842805D0A0F18501032920
:1026A00003D85E3009E0E1207047892804D08A28E9
:1026B00002D0BE2803D017E06330C0B2704781203B
:1026C0007047862806D0982806D0AF2806D0A928BB
:1026D00006D009E08D2070478E207047902070470B
:1026E000DF2070478C2801D000207047ED20704714
:1026F00010000020FFFFFFFFFFFFFFFFFFFFFFFFB6
:10270000FFFFFFFFFFFFFFFFFFFFFFFFFFFFFFFFD9
:10271000FFFFFFFFFFFFFFFFFFFFFFFFFFFFFFFFC9
:10272000FFFFFFFFFFFFFFFFFFFFFFFFFFFFFFFFB9
:10273000FFFFFFFFFFFFFFFFFFFFFFFFFFFFFFFFA9
:10274000FFFFFFFFFFFFFFFFFFFFFFFFFFFFFFFF99
:10275000FFFFFFFFFFFFFFFFFFFFFFFFFFFFFFFF89
:10276000FFFFFFFFFFFFFFFFFFFFFFFFFFFFFFFF79
:10277000FFFFFFFFFFFFFFFFFFFFFFFFFFFFFFFF69
:10278000FFFFFFFFFFFFFFFFFFFFFFFFFFFFFFFF59
:10279000FFFFFFFFFFFFFFFFFFFFFFFFFFFFFFFF49
:1027A000FFFFFFFFFFFFFFFFFF9EF390F411F41107
:1027B000F411F411F411F411F411F3F1F432F515EC
:1027C000FEFCFFFFFFFFFFFFEF7D8C51528A318639
:1027D00031864A498430EF7DFFFFFFFFFFFFFFFF97
:1027E000FFFFFFFFFF5DE8E7E9A9E9A9E9A9E9A97A
:1027F000E9A9E9A9E9A9E9A9E9A9E989E928EA0B87
:10280000FE396C3010A2294529653186318629654B
:10281000294510A27BCFFFFFFFFFFFFFFFFFFFFF58
:10282000FF5DE948EA0AEA0AEA0AEA0AEA0AEA0A63
:10283000EA0AEA0AE9EAEA0AEA0AE9EAE969E22BC3
:102840004228298631A631A631A631A631A631A665
:10285000212431A6FFFFFFFFFFFFFFFFFF5DE948D7
:10286000EA0AEA0AEA0AEA0AEA0AEA0AEA0AEA0AC8
:10287000EA0AEA0AEA0AEA0AEA0AF1EAFA4C422809
:10288000298631A631A631A631A631A631A6296501
:102890002945FFFFFFFFFFFFFF5DE948EA0AEA0A5B
:1028A000EA0AEA0AEA0AEA0AEA0AEA0AEA0AEA0A88
:1028B000EA0AEA0AEA0AEA0AF1EAFA6C21A631A669
:1028C00031A631A631A631A631A631A629654A49DD
:1028D000FFFFFFFFFF7DE928EA0AEA0AEA0AEA0A9F
:1028E000EA0AEA0AEA0AEA0AEA0AEA0AEA0AEA0A48
:1028F000EA0AEA0AEA0AF9EA8A6A298631A631A6C8
:1029000031A631A631A631A631A618E3AD75FFFF79
:10291000FF7DE928EA0AEA0AEA0AEA0AEA0AEA0A72
:10292000EA0AEA0AEA0AEA0AEA0AEA0AEA0AEA0A07
:10293000EA0AF1EAEA6C21A631A631A631A631A64F
:1029400031A631A631A631862965FFFFFF7DE92832
:10295000EA0AEA0AEA0AEA0AEA0AEA0AEA0AE98959
:10296000E968E9EAEA0AEA0AEA0AEA0AEA0AE9EAAC
:10297000FA0B39A61904318631A631A631A631A643
:1029800031A631A618C3DEFBFF7DE928EA0AEA0A70
:10299000EA0AEA0AEA0AEA0AE989FD97FEBBE98936
:1029A000E9EAEA0AEA0AEA0AEA0AEA0AF169E63917
:1029B000FFFF2965318631A631A631A631A631A6A1
:1029C00029459CF3FF7EE928EA0AEA0AEA0AEA0AAC
:1029D000EA0AEA0AE948FFFFFFFFEA8DE9EAEA0AA4
:1029E000EA0AEA0AEA0AE9EAE989FFFFFFFF6B6DF2
:1029F000296531A631A631A631A631A629658410F4
:102A0000FF7EE928EA0AEA0AEA0AEA0AEA0AEA0A80
:102A1000E989FDB7FF1CE989E9EAEA0AEA0AEA0A54
:102A2000EA0AEA0AE989FD97F7DF210431A631A60F
:102A300031A631A631A631A629657BEFFF7EE928B4
:102A4000EA0AEA0AEA0AEA0AEA0AEA0AE9CAF34FD9
:102A5000F4F5E9A9EA0AEA0AEA0AEA0AEA0AEA0A43
:102A6000E9CAFB2FC69A210431A631A631A631A6A8
:102A700031A631A629657BEFFF7EE928EA0AEA0A3A
:102A8000EA0AEA0AEA0AEA0AE9CAF390F536E9A983
:102A9000EA0AEA0AEA0AEA0AEA0AEA0AE9CAFB6F61
:102AA000C6BA210431A631A631A631A631A631A677
:102AB00029657BEFFF7EE928EA0AEA0AEA0AEA0AC0
:102AC000EA0AEA0AE9CAF390F536E9A9EA0AEA0A43
:102AD000EA0AEA0AEA0AEA0AE9CAFB70C6BA210463
:102AE00031A631A631A631A631A631A629657BCF04
:102AF000FF7EE928EA0AEA0AEA0AEA0AEA0AEA0A90
:102B0000E9CAF390F536E9A9EA0AEA0AEA0AEA0A02
:102B1000EA0AEA0AE9CAFB90C6BA210431A631A63C
:102B200031A631A631A631A629657BCFFF7EE928E3
:102B3000EA0AEA0AEA0AEA0AEA0AEA0AE9CAF390A7
:102B4000F536E9A9EA0AEA0AEA0AEA0AEA0AEA0A10
:102B5000E9CAFB90C6BA210431A631A631A631A636
:102B600031A631A629657BCFFF7EE928EA0AEA0A69
:102B7000EA0AEA0AEA0AEA0AE9CAF390F536E9A992
:102B8000EA0AEA0AEA0AEA0AEA0AEA0AE9CAFB904F
:102B9000C6BA210431A631A631A631A631A631A686
:102BA00029657BCFFF7EE928EA0AEA0AEA0AEA0AEF
:102BB000EA0AEA0AE9CAF390F536E9A9EA0AEA0A52
:102BC000EA0AEA0AEA0AEA0AE9CAFB90C6BA210452
:102BD00031A631A631A631A631A631A629657BEFF3
:102BE000FF7EE928EA0AEA0AEA0AEA0AEA0AEA0A9F
:102BF000E9CAF390F536E9A9EA0AEA0AEA0AEA0A12
:102C0000EA0AEA0AE9CAFB90C6BA210431A631A64B
:102C100031A631A631A631A629657BEFFF7EE928D2
:102C2000EA0AEA0AEA0AEA0AEA0AEA0AE9CAF390B6
:102C3000F536E9A9EA0AEA0AEA0AEA0AEA0AEA0A1F
:102C4000E9CAFB90C6BA210431A631A631A631A645
:102C500031A631A629657BEFFF7EE928EA0AEA0A58
:102C6000EA0AEA0AEA0AEA0AE9CAF390F536E9A9A1
:102C7000EA0AEA0AEA0AEA0AEA0AEA0AE9CAFB707E
:102C8000C6BA210431A631A631A631A631A631A695
:102C900029657BEFFF7EE928EA0AEA0AEA0AEA0ADE
:102CA000EA0AEA0AE9CAF390F556E9A9EA0AEA0A41
:102CB000EA0AEA0AEA0AEA0AE9CAFB70C6BA210481
:102CC00031A631A631A631A631A631A629657BEF02
:102CD000FF5DE8A6E989E969E968E968E968E96802
:102CE000E928F30EF4F5E907E968E968E968E968B5
:102CF000E968E968E928F2EEBE79002018C318C334
:102D000018C318C318C318C310826B6DFFFFF57684
:102D1000FDB7FDD8FDD8FDF8FDF8FE19FE18FEBB85
:102D2000FF3DFDF8FE19FE19FE19FE19FE19FE19E8
:102D3000FE19FEBBFFFFE73CEF5DEF5DEF5DEF5D72
:102D4000EF5DEF5DEF5DF79EFFFFFFFFFFFFFFFF12
:102D5000FFFFFFFFFFFFFFFFFFFFFFFFFFFFFFFF83
:102D6000FFFFFFFFFFFFFFFFFFFFFFFFFFFFFFFF73
:102D7000FFFFFFFFFFFFFFFFFFFFFFFFFFFFFFFF63
:102D8000FFFFFFFFFFFFFFFFFFFFFFFFFFFFFFFF53
:102D9000FFFFFFFFFFFFFFFFFFFFFFFFFFFFFFFF43
:102DA000FFFFFFFFFFFFFFFFFFFFFFFFFFFFFFFF33
:102DB000FFFFFFFFFFFFFFFFFFFFFFFFFFFFFFFF23
:102DC000FFFFFFFFFFFFFFFFFFFFFFFFFFFFFFFF13
:102DD000FFFFFFFFFFFFFFFFFFFFFFFFFFFFFFFF03
:102DE000FFFFFFFFFFFFFFFFFFFFFFFFFFFFFFFFF3
:102DF000FFFFFFFFFFFFFFFFFFFFFFFF01020203D7
:102E00000405060708090A0B0C0D0E0F1010000030
:102E10000000000000000102030406070809C1C108
:102E2000C1C10000C2C202020100C3C3010101000E
:102E3000C4C4C4C40000C5C503030100C6C6C6C6D9
:102E40000000C7C700000100C804C8040101C9FE92
:102E5000E9950101CA05CA050101CB06CB060101AE
:102E6000CC0708070101CD090A090101CE0B0C0BA3
:102E70000101CFCFCFCF0100D0D0D0D00100D1D130
:102E8000D1D10100D2D2D2D20100D38AD38A01019A
:102E9000D40ED40E0101D50FD50F0101D61AD61AC2
:102EA0000101D7D7D7D70000D8D8D8D80101D9D9B0
:102EB000D9D90101DA1BF1F00101DBF57FF601013F
:102EC000DCDCDCDC0101DD80DD800101DE83DE8312
:102ED0000101DF8CDF8C0101E0E0E0E00000E1F3C4
:102EE000E1F30101E2E2E2E20000E3F8E3F80101CC
:102EF000E4F2E4F20101E5FEE7950101E6E6E6E62B
:102F00000100E7E7E7E70000E8E8E8E80000E9E9B2
:102F1000E9E9000081FD81FD01018D9D9E9D01017A
:102F2000ECC0A0C00101EDC09CC001018E8E8E8E50
:102F3000010090FA90FA0101F0F0F0F00000F1F1D8
:102F4000F1F10000F2F2F2F20000F3F3F3F300000B
:102F5000F4F4F4F40000F5F5F5F50000F6F6F6F6F5
:102F60000000F7F7F7F70000F8F8F8F80000F9F9B3
:102F7000F9F90000FAFAFAFA0000A5A59F9F0100EE
:102F8000FCFCFCFC0000FDFDFDFD0000FEFEFEFE65
:102F90000000FFFFFFFF0000B82F00080000002026
:102FA0004C0000006C010008043000084C000020B8
:102FB0000407000088010008010000001000000064
:102FC0000000000000127A00000000010000010172
:102FD00001000000FFFF00000000000000000000F2
:102FE00000000000FFFF00000000000000000000E3
:102FF0000000000000000000000000000000E001F0
:04300000400100008B
:0400000508000131BD
:00000001FF
