:020000040800F2
:10000000E818002069020008A733000879310008C9
:10001000A53300083F080008013F00080000000069
:10002000000000000000000000000000D9350008BA
:10003000F108000800000000A9330008DB350008C3
:10004000830200088302000883020008830200087C
:10005000830200088302000883020008830200086C
:100060006F19000883020008830200088302000859
:10007000830200088302000883020008830200084C
:10008000830200088302000883020008830200083C
:10009000830200088302000883020008830200082C
:1000A000830200088302000883020008830200081C
:1000B000830200088302000883020008830200080C
:1000C000830200088302000883020008AD330008A1
:1000D00083020008830200088302000883020008EC
:1000E00083020008830200088302000883020008DC
:1000F00083020008830200088302000883020008CC
:1001000083020008830200088302000883020008BB
:1001100083020008830200088302000883020008AB
:1001200083020008830200088302000841080008D7
:10013000830200088302000883020008830200088B
:10014000830200088302000883020008830200087B
:10015000830200088302000883020008830200086B
:10016000830200088302000883020008830200085B
:1001700083020008830200088302000800000000D8
:10018000830200088302000800F002F800F043F840
:100190000AA090E8000C82448344AAF10107DA45E2
:1001A00001D100F038F8AFF2090EBAE80F0013F0F1
:1001B000010F18BFFB1A43F001031847807F0000AE
:1001C000A07F0000103A24BF78C878C1FAD852073F
:1001D00024BF30C830C144BF04680C6070470000C1
:1001E0000023002400250026103A28BF78C1FBD840
:1001F000520728BF30C148BF0B607047642900F028
:100200000781002070471FB504F088FA00F015FA46
:100210001FBD10B510BD00F0DDFA1146FFF7F3FF6A
:1002200003F068FF00F0FBFA03B4FFF7F2FF03BC32
:1002300000F0FEFA0B49D1F800C04A685CF8043BB4
:100240001068184442F8040B8C4528BFA1F1DC0C5F
:100250008A4228BFA1F1DC02C1F800C04A6020F048
:100260000040704780120020094880470948004735
:10027000FEE7FEE7FEE7FEE7FEE7FEE7FEE7FEE756
:10028000FEE7FEE704480549054A064B70470000B3
:100290007536000889010008E8120020E8180020DF
:1002A000E8140020E814002053EA020C00F06980F2
:1002B0002DE9F04B4FF00006002B1FBFB3FA83F57A
:1002C00003FA05F424FA05F65E4012BF1643B2FAAB
:1002D00082F502FA05F4C5F120051EBF22FA05FCDD
:1002E00044EA0C04203556EA044C4FEA144418BF83
:1002F000641C4FF000084FF00009904271EB030CB2
:1003000039D3002919BFB1FA81F701FA07F6B0FA1B
:1003100080F700FA07F6C7F120071EBF20FA07FC96
:1003200046EA0C062037B6FBF4FCA7EB0507103FA6
:1003300007F01F0BCBF120060CFA0BFB2CFA06F68C
:1003400044BFB3460026202FA4BF5E464FF0000BEB
:100350005BEA060C08BF4FF0010B19EB0B09ABFB76
:10036000027C48EB0608C01B06FB02CC0BFB03CC4F
:1003700071EB0C01C1E70B46024641464846BDE819
:10038000F08B13B54FF000004FF00001AFF3008089
:10039000BDE81C40704700000FB41CB5074B06AA0F
:1003A0007B4469460090059800F0F7F90020694603
:1003B00000F006FA1CBC5DF814FB00001D040000F0
:1003C00070B5044685690068C10601D5302600E095
:1003D0002026C00707D070BDD4E9012130469047E0
:1003E000206A401C20626D1EF6D570BD70B50446B3
:1003F00085690078C00707D170BDD4E901212020AC
:100400009047206A401C20626D1EF6D570BD00002A
:100410002DE9F0410646002410687529314616A5DD
:1004200010D0AFF30080002802DA404213A507E0A5
:1004300031688A0701D512A502E0490704D511A544
:10044000012401E0AFF3008000210A2206F1240715
:1004500009E0B0FBF2FCB0FBF2F302FB1C00303011
:1004600078541846491C0028F3D123462A463046C2
:10047000BDE8F04100F033B9000000002D0000009D
:100480002B000000200000002DE9F05F89460446A3
:100490004FF0000ADFF874B1FB44C0F820A02046FA
:1004A000E1688847002874D0252806D0D4E90121C6
:1004B0009047206A401C2062F1E700265F462046F4
:1004C000E16888472028054607DB312D05D27819D9
:1004D00010F8200C08B10643F1E7B00701D526F06B
:1004E0000406C4F81CA00027C4F818A02A2D09D0BF
:1004F000284603F016FD38B304EB8708303DC8F8F2
:10050000185019E059F8041B204604EB870291614A
:10051000E1688847012F054618D1E069002820DAF4
:1005200026F020061DE0D8F8180000EB800005EB4F
:1005300040003038C8F818002046E1688847054672
:1005400003F0EFFC0028EED1012F0AD02E2D08D1A8
:100550002046E16888477F1C0546022F46F02006AA
:10056000C4DBA069002803DA404246F00106A0611E
:10057000F00701D026F010066C2D0BD0682D09D0A5
:100580004C2D39D06A2D35D0742D35D07A2D33D0FD
:1005900016E038E0E1682F4620468847B842054615
:1005A00009D16C2F26D04FF48060E16806432046C5
:1005B0008847054604E06C2F1AD04FF4807006433C
:1005C0000DB3A5F14100192802D8203546F4006684
:1005D0004A462946204626604E46FFF70FFE80B168
:1005E00001280BD0F61D26F0070000F1080956E798
:1005F0004020E4E78020D8E70020D6E706F1040990
:100600004DE7284652E7206ABDE8F09F8E7C000047
:100610000B4910B5A1F17C020A4CC2E9371237210F
:1006200006E000EB104342F82130074B00FB03408B
:100630000B1EA1F10101F4DC10BD0120E8E7000070
:1006400020120020E119D666CD0D010010B5431C23
:1006500002E010F8011B71B18107FAD14FF00132AD
:1006600002C88C1A8C4314EAC211F9D0C01A0A06C7
:1006700003D0C01E10BDC01A10BD0A0401D0801ED8
:1006800010BD0902FCD0401E10BD4FF0000200B5A5
:10069000134694469646203922BFA0E80C50A0E8A5
:1006A0000C50B1F12001BFF4F7AF090728BFA0E853
:1006B0000C5048BF0CC05DF804EB890028BF40F81F
:1006C000042B08BF704748BF20F8022B11F0804F61
:1006D00018BF00F8012B70477047704770472DE92D
:1006E000F0470D4699469246044600F124080168F9
:1006F000880604D5E06921F01001216000E00120A6
:10070000A84201DD471B00E00027A1697A1902EB2E
:100710000900081AA0612078C00602D42046FFF71D
:100720004FFE002608E0D4E901211AF806009047A0
:10073000206A401C761C20624E45F4DB2078C006FF
:100740000AD52046FFF73CFE06E0D4E9012130201F
:100750009047206A401C2062381EA7F10107F4DC94
:1007600007E0D4E9012118F805009047206A401CF1
:100770002062281EA5F10105F3DC2046FFF736FEB6
:100780002078000602D50220BDE8F0870120FBE7B3
:1007900001694A1C02610878704700B58FB0CDE945
:1007A00001310021059105497944CDE90310114635
:1007B0006846FFF769FE0FB000BD0000E5FFFFFFD0
:1007C0000A6802F8010B0A60704700000048704791
:1007D000881200207546FFF7F9FFAE46050069460E
:1007E000534620F00700854618B020B5FFF74AFDB4
:1007F000BDE820404FF000064FF000074FF0000822
:100800004FF0000B21F00701AC46ACE8C009ACE8A2
:10081000C009ACE8C009ACE8C0098D46704710B506
:100820000446AFF300802046BDE81040FFF7FCBC53
:1008300001491820ABBEFEE7260002007047FEE724
:10084000014801F0ABB80000440100200168182302
:10085000CAB2103AB2FBF3F2054B6FF30901032A57
:100860009B5CC36500D9091D81650846704700007F
:100870002647000810B5014600208B698A6A4FF0B0
:10088000C07453B1B3F5005F15D072B1012A0CD01A
:10089000022A0AD0032A09D104E01AB1012A06D09B
:1008A000022A03D1C96AC90100D5012010BDC96A55
:1008B000A142FAD010BD002AF7D0012AF2D0022AB4
:1008C000F3D0032AF3D010BD30B50468256825F4B1
:1008D00080252560046863608368402B036803D02B
:1008E00099600068C26030BD9A600068C16030BD28
:1008F0007047000010B51E4C1D490834462816D01C
:1009000009DC2B281ED000222D2822D0302826D00A
:10091000312825D10BE0492824D0512805D015498C
:10092000532808D057281BD103E000BF18E00868FF
:1009300013E0888811E020688880206832280FD36F
:1009400032200AE0086822689042F0D92068401CF2
:1009500003E0206818B12068401E206000E022609B
:10096000206810BD0021044802F03AFB6420F4E73F
:100970002C04004040000020B40000202DE9F84382
:100980009846DDE9084791460D460646A3B292B265
:1009900089B280B2009700F0CBF805EB0800001B8D
:1009A00081B2A3B21FFA89F2B0B2009700F0C0F88A
:1009B0001FFA88F3A2B2A9B2B0B2009700F0B8F85B
:1009C00006EB0900001B1FFA88F3A2B2A9B280B29D
:1009D000009700F0ADF8BDE8F883000008B500907E
:1009E00004480189C0888BB282B20021084600F019
:1009F0009FF808BD400000202DE9F04F85B0044667
:100A00001098DDF850901FFA80F812989A46934695
:100A10000D46012803D94FF6FF7101EA48080E98E8
:100A2000FFF714FE00FB08F1ABEB0400401C019043
:100A3000814201D9274609E00E98FFF707FE0BEB2C
:100A4000040200FB1820401CC0F34F071098010C53
:100A5000AAEB0500401CCDE90210814201DD2E46C3
:100A600006E002980AEB0501081A401CC0F34F0685
:100A7000A7420AD90398CDF8009083B2381B82B2FE
:100A80002946204600F054F800E027460E98FFF76C
:100A9000DDFD00FB084159450ED20398CDF80090CA
:100AA00083B2381B401C82B2ABEB07002044401ECF
:100AB00080B2294600F03CF8AE420AD9701B83B2DE
:100AC0000198CDF8009082B22946204600F030F817
:100AD00000E02E460298411951450DD8701B401C6C
:100AE00083B20198CDF8009082B2AAEB06002844A8
:100AF00081B2204600F01CF80C48817899B10021A1
:100B00008170DDE9121202AB83E80602DDE9100113
:100B1000CDE90001DDE90E233146384600F0D0FC76
:100B200005B0BDE8F08F0121EAE700004000002099
:100B30002DE9F05F334E0A9D0F46B6F90640A042FC
:100B40005DDAB6F908108F4259DA002A57D0002B27
:100B500055D000EB020CACF1010CA44500D9A44621
:100B6000FC18641E8C4200D90C46F82101EA152AB3
:100B7000FC2101EAD509E9064FEA1168E11BACEB5B
:100B80000002491C521C514301EB4105F16840F23F
:100B9000FD730A469D4200D22B46B34606E000BFD5
:100BA00002F801AB02F8019B02F8018B561A9E4233
:100BB000F6D9561AD846A3B21FFA8CF2394600F07D
:100BC0000FFBB5FBF6F7002406E000223146D8F80B
:100BD0000C0000F0A9FC641CBC42F6D307FB1651C4
:100BE00000224446D8F80C0000F09EFC0649E0685C
:100BF000884202D101F5006000E00348E060BDE8F2
:100C0000F09F000040000020A401002010B5044621
:100C100001221021074801F054F9012280210648E1
:100C200001F04FF902F0AAFA2046BDE8104000F0AA
:100C300099B8000000080240001002402DE9FC5F56
:100C40000C461546C91A0C9FA3EB040CA84210D100
:100C5000A342009706DD0CF1010C1FFA8CF3A1B240
:100C600080B204E0491C8AB299B280B213460122D4
:100C70000EE0461B2A1A9C420ED18542009702DDE7
:100C8000521C92B26BE0761CB2B299B2A8B20123A8
:100C9000FFF74EFFBDE8FC9FA34200DD61468542A1
:100CA00000DC3246914208DD014620460C462946CA
:100CB0001D464FF001090B4601E04FF00009A84224
:100CC00005DD014628460D4621461C460B46291ADD
:100CD00009B24FEA610801919C4204DA191B0FFA2C
:100CE00081FA012104E0E11A0FFA81FA4FF0FF3195
:100CF0008B460021064623E0491CA8EB0A0212B2EB
:100D000009B25FEA020819D5B9F1000F009704D0C3
:100D10008BB281B2A0B2012203E08AB2A1B280B24A
:100D20000123FFF705FF04EB0B00019B04B2002138
:100D3000701C08EB030200B20FFA82F8761C36B280
:100D4000AE42D9DD0029A5D0B9F1000FA1F1010112
:100D5000009703D08BB281B2A0B288E78AB2A1B269
:100D600080B294E770B5050012484FF4F0714FF46B
:100D7000A072A0F1010406D0012D06D0022D06D0EC
:100D8000032D0DD108E0882302E0E82305E0482385
:100D900003702181E28003E0282303702281E18037
:100DA000362000F0B9FB00220121024800F0BCFB14
:100DB000E57070BD410000202DE9F04788B0274C58
:100DC00000268046009620889246894682B24FF6D9
:100DD000FF75482315213046FFF7AAFE01271F2083
:100DE0000497CDE905501E4801AB07C8CDF8008037
:100DF00083E8070020882D23401E82B21521384643
:100E0000FFF7FAFD0497DFF85C80CDE90556D8E9D5
:100E10000012D8F80800CDE90091CDE90220208821
:100E20004E23401E82B236210120FFF7E5FD0497D4
:100E3000CDE90556D8E90012D8F80800CDE900A19F
:100E4000CDE9022020886523401E82B24D21012079
:100E5000FFF7D2FD08B0BDE8F08700004600002093
:100E600034000020280000202DE9F04F93B000202E
:100E7000DFF84CB2119007E030B1012805D002280C
:100E800003D0032803D100E00020FFF76BFF01F03F
:100E90001DF8044600F0D0F901F018F8061B3246A0
:100EA00088A107A8FFF778FA002307AA87A18AA0DC
:100EB000FFF782FF40F6B835284600F0E1FE01F06A
:100EC00005F807460024002002F082FD641CE4B20D
:100ED0000A2CF8D300F0FAFFC21B904679A107A8AC
:100EE000FFF75AFA002307AA7DA180A0FFF764FF4D
:100EF000284600F0C5FE00F0E9FF044602F09EFD22
:100F000000F0E4FF021B91466EA107A8FFF744FA28
:100F1000002307AA77A17AA0FFF74EFF284600F02A
:100F2000AFFE0020FFF75AFD00F0D0FF044602F0AC
:100F3000E5FC00F0CBFF021B924662A107A8FFF779
:100F40002BFA002307AA70A172A0FFF735FF2846ED
:100F500000F096FE0020FFF741FD002000906F4852
:100F600000215C46008883B2BBF8000082B20846CC
:100F7000FFF7DEFD6A4804AB1F27C5884FF6FF72F6
:100F8000012183E8860007C801AB83E8070065A05C
:100F900000902088002182B22B460846FFF72CFDE6
:100FA000012405F10A0706E0052C0CD2DFE804F065
:100FB0000B030640430032465CA101E042465FA1BC
:100FC00007A8FFF7E9F9012000214FF6FF7204900E
:100FD000CDE905215D490DF1040E00EB440091E8D7
:100FE0000C108EE80C1007AA0092C98801FB007053
:100FF00083B2BBF80000614382B205EB41000A30C6
:1010000081B20020FFF7F8FC641CE4B2052CCBD3BE
:101010005120FFF76FFC07464620FFF76BFC0446A4
:1010200000EB44004FF47A61B1FBF0F636B106E014
:101030004A4647A1C4E7524649A1C1E701263020EC
:10104000FFF758FC002506E02B20FFF753FC304645
:1010500000F016FE6D1CA542F6D9642000F010FECB
:10106000002506E02D20FFF745FC304600F008FE85
:101070006D1CA542F6D9642000F002FE002506E0B2
:101080002B20FFF737FC304600F0FAFD6D1CA5421F
:10109000F6D94FF47A7000F0F3FD3020FFF72AFC08
:1010A0002B20FFF727FCB842FAD31198401CC0B29E
:1010B00011900428FFF4E0AE13B0BDE8F08F0000FB
:1010C00046000020256C64206D7300005465737425
:1010D000416C6C3A0000000054455354203100002C
:1010E00035302073637265656E733A00544553540E
:1010F0002032000033306B206C696E65733A00005B
:10110000544553542033000035303030206368613B
:1011100072733A00544553542034000048000020B4
:1011200034000020524553554C545300535444202E
:101130005445535420202025346C6400353020530E
:10114000435245454E532025346C6400280000204E
:1011500033306B204C494E4553202025346C6400BD
:10116000356B20434841525320202025346C6400C5
:1011700038B5074BB3F90640A04208DAB3F9083096
:10118000994204DA012300921A46FFF7D1FC38BDD8
:101190004000002010B50F4C1021204600F08CFEBE
:1011A000002815D0012280210B4800F08AFE0B494F
:1011B00008684FF6C77210400860086840F00800E1
:1011C000086020460022BDE81040102100F079BEE2
:1011D00010BD000000080240001002400030014035
:1011E00070B50C4651BA0904C2B2124E41EA02214E
:1011F00041EA102030601D462A2000F08DF90022BF
:101200000421304600F090F968BA0004E1B240EAE7
:10121000012040EA142030602B2000F07DF90022EC
:101220000421304600F080F9BDE870402C2000F029
:1012300073B900005000002010B502F0F5FF40F235
:10124000FF7003F00DF91F21C80202F0BBFF4FF43D
:10125000FC6003F0A5F94FF61F0421464FF6E0703D
:1012600003F020F821460A2002F0F4FF4FF6FF7148
:101270000A2002F07FFF03F00DFA03F0A1F803F05B
:10128000C3F9BDE8104003F04DB800002DE9F0416E
:10129000234D1F4616460C46804628780028FCD071
:1012A000FFF778FF424601211E4800F00AFE17B3FF
:1012B0001D48A219F8260146FC2740F2FD7311E0F3
:1012C000B4F800C006EA1C2C00F801CBB4F800C04A
:1012D00007EADC0C00F801CB14F802CB4FEACC0C87
:1012E00000F801CB944203D2A0EB010C9C45E7DB54
:1012F0000D4C401A86B20020142E287009D2431ECD
:1013000032462146094801F01FFB01202870BDE844
:10131000F08132462146BDE8F041044801F0C0BCEE
:101320004000002000040240A40100205C000020D6
:101330000FB42DE9F04F87B014ACDDE917C094E885
:1013400002098FB2FEB2BBF1020F01D17406260E64
:101350000D0C08F0FF090595203A05FB09F500245E
:1013600002FB053EB9F1020F1ED0B9F1030F18D0F0
:101370008023F82101EA1C224FF0FC08049208EABD
:10138000DC0203924FEACC6201EA102C08EAD00199
:10139000120EC006000E8DE8070047480021C06805
:1013A00066E04FF40003E4E74FF40043E1E700BFD9
:1013B000B9F1020F10D01EF80120B9F1030F0FD1BF
:1013C0000EEB010A12049AF8018042EA08229AF808
:1013D000028042EA080203E00EEB0102128852BAD0
:1013E0009246002241E000BF0AFA02F818EA030F11
:1013F0001DD0DDF8108000F80480641CDDF80C803E
:1014000000F80480641CDDF8088000F80480641C87
:10141000BBF1020F28D1DDF8108000F80480641CB5
:10142000DDF80C8000F80480DDF8088018E000F892
:1014300004C0641CDDF8048000F80480641CDDF83E
:10144000008000F80480641CBBF1020F0CD100F88E
:1014500004C0641CDDF8048000F80480DDF800801E
:10146000641C00F80480641C521C9742BCD8494498
:10147000A9429DD311980599401E084483B2109843
:101480003044401E82B2DDE91001FFF7A9FE21467B
:10149000094C0022E06800F047F80849E0688842FB
:1014A00002D101F5006000E00448E06007B0BDE84B
:1014B000F00F5DF814FB000040000020A4010020A4
:1014C0000FB42DE9F04F85B01546DDE9147ADDE95A
:1014D000128BDDF8589006461FFA88F4012F13D9B5
:1014E0004FF6FF7000EA44040EE000BFCDE9027A37
:1014F000CDE9008BCDF810903046119B0F99FFF786
:1015000017FF301986B26D1C2A78002AEED105B07B
:10151000BDE8F00F5DF814FB01B500230122694618
:101520001846FFF7B3FE08BD002906D089B213465E
:101530000A4601460120FFF7A9BE70472DE9FF4F7B
:101540000746C2F1010014460FFA80F8C2EBC4301E
:1015500040000FFA80FA83B00E46081981B24FF0AE
:1015600001090025B8B2069AFFF702FE301B81B2CE
:10157000B8B2069AFFF7FCFD3819B1B280B2069AEC
:10158000FFF7F6FDB1B2381B57E000BFB8F1000F0E
:1015900009DB0AF102000FFA80FA641E08EB0A0068
:1015A00024B20FFA80F809F102000FFA80F96D1CDD
:1015B00008EB09002DB20FFA80F87819019006EBBC
:1015C000040B1FFA8BF180B2069AFFF7D1FD781B4E
:1015D00000901FFA8BF180B2069AFFF7C9FD0198BF
:1015E000A6EB040B1FFA8BF180B2069AFFF7C0FD41
:1015F00000981FFA8BF180B2069AFFF7B9FD3819EF
:10160000019006EB050B1FFA8BF180B2069AFFF7EB
:10161000AFFD381B00901FFA8BF180B2069AFFF7DE
:10162000A7FD0198A6EB050B1FFA8BF180B2069A75
:10163000FFF79EFD00981FFA8BF180B2069AFFF724
:1016400097FDA542A2DB07B0BDE8F08F2DE9F84F6A
:101650001D46DDE90A4788468246AA4201DA10465D
:1016600000E0184600EBD0704010844200DD0446D4
:101670000AEB020BABEB0400401E06B20AEB0400BF
:1016800000B281460B4632460097FFF7D7FA454431
:10169000681E01B20B46324648460097FFF7CEFA65
:1016A000281B401E05B208EB040001B252468846D2
:1016B0002B4610460097FFF7C1FAABF1010000B2CC
:1016C0002B46024641460097FFF7B8FA4146484686
:1016D00001232246009702F02BFC414630460223AC
:1016E0002246009702F024FC294630460423224675
:1016F000009702F01DFC2946484608232246009721
:1017000002F016FCBDE8F88F2DE9F84F9946DDE9A7
:101710000B540A9E92460F4680460094FFF78EFABD
:101720002B463246494650460094FFF787FA3B461F
:101730004246294630460094FFF780FABDE8F88F0C
:101740002DE9FC41144607461E460819009303B2D2
:101750000D46081B01B23A461046FFF76FFA00200B
:10176000CDE90006032322462946384602F053FC01
:10177000BDE8FC812DE9FC5F1D46DDE90C471646FE
:1017800089468246AA4201DA104600E0184600EB7C
:10179000D0704010844200DD0446C4F1000806EB1E
:1017A000480082B20AEB040BABB21FFA89F11FFAB0
:1017B0008BF00097FFF7BCF905EB4800401E0FFACD
:1017C00080F809EB040001B20AEB0600001BCDE92A
:1017D0000087401E0D4600B20123224602F01BFC8A
:1017E000CDE9008729460FFA8BF00223224602F04A
:1017F00012FCBDE8FC9F2DE9F04F89B08046DDE981
:1018000012091E4614460D46B14203DD44461D46EC
:101810000E4690464E4505DD4946B1460E46014608
:1018200020460C46B54205DD294635460E46414662
:10183000A0460C464D4518D146464246B44201DA10
:10184000264601E000DD2246B04201DA064602E00B
:10185000904200DD024614982B460090194630460F
:10186000FFF7ECF909B0BDE8F08FA4EB080109B26D
:101870000791711B09B20691A0EB080109B2019111
:10188000001BA9EB050109B200B2CDE90201A9EBE9
:10189000060000B24FF0000BDA4604904E4501D12D
:1018A000059602E0701E00B205902F461CE00699D6
:1018B000039A9BFBF1F19AFBF2F2079B01EB080004
:1018C0009B4402EB0801019B00B20AB29A44904289
:1018D00002DD014610460A4614993B46009119461E
:1018E000FFF7ACF97F1C3FB205988742DFDD029914
:1018F000B81B00FB01F601987D1B45431BE00499D2
:10190000029B96FBF1F00399204495FBF1F202EB68
:1019100008010AB2019900B21E440D44904202DD52
:10192000014610460A4614993B4600911946FFF7B6
:1019300085F97F1C3FB24F45E1DD93E7F8B50546D9
:1019400016460A30009202B20C46A5F10A000BB20C
:1019500000B21946FFF772F904F10A0003B20A3C1B
:101960002AB221B210460096FFF768F9F8BD0420AC
:1019700000F09EB972B6FEE790F83510022903D048
:101980008021416501207047052180F835100068ED
:10199000016821F001010160002070472DE9F84342
:1019A00004464FF00009CDF8009063484FF41651FB
:1019B000A56D0068B0FBF1F72E6894F85C10082064
:1019C00000FA01F131420FD021680A6852070BD5A5
:1019D0000A6822F004020A6094F85C108840A8604B
:1019E000606D40F00100606594F85C104FF00108F4
:1019F00008FA01F0304208D021684969090604D587
:101A0000A860606D40F00200606594F85C100420EE
:101A10008840304208D021680968890704D5A86049
:101A2000606D40F00400606594F85C101020884000
:101A3000304218D021680968090714D5A8602068C9
:101A40000168490304D50068000308D5A16C07E0CC
:101A50000168C90503D4016821F008010160216C07
:101A600009B12046884794F85C1020208840304215
:101A700031D021680968C9062DD5A86094F83500D1
:101A800005282068016806D0490347D5006800038F
:101A90001DD4616C1CE021F01601016020684169D1
:101AA00021F080014161206C08B9A06C20B1206850
:101AB000016821F00801016094F85C103F20884023
:101AC000A86084F8358084F83490216D1FE0E16BC4
:101AD00009B120468847606D00282BD0606DC00793
:101AE00014D0052084F835002068016821F0010138
:101AF00001600098401C0090B84203D8206800683C
:101B0000C007F6D184F8358084F83490E16C002960
:101B100010D001B02046BDE8F04308470168C90570
:101B2000D5D4016821F01001016084F8358084F873
:101B30003490CCE7BDE8F8830C0000202DE9F0419B
:101B4000044600F0C3F906465CB1022084F8350073
:101B5000002584F834502068016821F001010160FB
:101B60000DE00120BDE8F08100F0B0F9801B0528F0
:101B700005D920206065032084F83500F2E720684D
:101B80000068C007F0D12268116820480140D4E9FC
:101B900001031843D4E903363343184363691843F8
:101BA000A3691843E3691843236A18430843616A29
:101BB000042903D1D4E90B131943084310602068AA
:101BC0004069666A20F0070130460E430127042869
:101BD0000CD1A06A0643E06A40B12046FEF74AFEF7
:101BE00020B14020606584F83570BAE7206846610E
:101BF0002046FEF72BFE94F85C203F219140816047
:101C0000656584F835700020ACE700003F8010F077
:101C10002DE9F0410446866D90F834000025012836
:101C20000DD0012084F8340094F835700020012F85
:101C300007D084F8340002252846BDE8F081022050
:101C4000FBE7022784F8357060652046FEF73CFE0E
:101C500094F85C103F208840B0602068016841F033
:101C600016010160206C20B12068016841F0080174
:101C700001602068016841F001010160DCE70000BB
:101C800070B5044600F022F90546601C02D00448F5
:101C90000078044400F01AF9401BA042FAD370BD4A
:101CA00000000020042801D101F0AEBF7047000001
:101CB000044910B50A68024202D00860FFF7F2FF3B
:101CC00010BD0000143C01402DE9F84FDFF8BCA125
:101CD0000022012503264FF00F090AF1040BAAF197
:101CE000040E00BF0B6805FA02F42340A34270D132
:101CF0000F7907F00307012F01D0022F16D1876853
:101D00004FEA420806FA08FC27EA0C07D1F80CC093
:101D10000CFA08FC4CEA070CC0F808C04768A74357
:101D20000C79C4F3001494403C4344600C79E443C0
:101D3000A4070AD0C4684FEA420C06FA0CF7BC4369
:101D40008F6807FA0CF72743C7600C7904F0030487
:101D5000022C12D1D40800EB840CDCF82040570789
:101D6000FF0E09FA07F824EA0804D1F8108008FAEF
:101D700007F848EA0408CCF8208004684FEA420CCF
:101D800006FA0CF7BC430F7907F0030707FA0CF7C4
:101D9000274307604C6814F4403F70D03C4C2768E0
:101DA00047F480472760246822F0030704F4804446
:101DB0000094384C07EB040CDCF8084897074FEA0E
:101DC000177809FA08F7BC43334FB84202D100270D
:101DD00024E054E0314FB84201D101271EE0304FDA
:101DE000B84201D1022719E02E4FB84201D1032792
:101DF00014E02D4FB84201D104270FE02B4FB84219
:101E000001D105270AE02A4FB84201D1062705E093
:101E1000284FB84201D1072700E0082707FA08F742
:101E20002743CCF80878DAF800405746D1F804C0C8
:101E30009C435FEACC2C00D51C433C60DBF800409F
:101E40005F46D1F804C09C435FEA8C2C00D51C434C
:101E50003C60DEF800407746D1F804C09C435FEA5E
:101E60008C3C00D51C433C60084F083F3C68D1F8CF
:101E700004C09C435FEACC3C00D51C433C60521C30
:101E8000102AFFF42FAFBDE8F88F0000083C014096
:101E9000443802400030014000000240000402408B
:101EA00000080240000C02400010024000140240F2
:101EB00000180240001C02400069084000D00120C8
:101EC00070470AB1816170470904FBE701488068E7
:101ED0007047000000000020024881680278114429
:101EE00081607047000000200B4810B5016841F484
:101EF00000710160016841F480610160016841F492
:101F000080710160032000F08DF80F2000F006F8CA
:101F100000F024F8002010BD003C024070B50D4DCB
:101F200004464FF47A712878B1FBF0F00A49096849
:101F3000B1FBF0F000F027FF48B9102C07D20022C7
:101F40002146501E00F04EF800206C6070BD01204C
:101F500070BD0000000000200C0000200A4808B5F9
:101F6000016841F480410160006800F48040009005
:101F70000548001F016841F080510160006800F0D1
:101F80008050009008BD000044380240002809DB62
:101F900000F01F02012191404009800000F1E02083
:101FA000C0F88012704700280DDB00F01F020121ED
:101FB00091404009800000F1E020C0F88011BFF39B
:101FC0004F8FBFF36F8F7047002809DB00F01F02AF
:101FD000012191404009800000F1E020C0F800118B
:101FE00070470000F0B40E4B1B680C46C3F302238D
:101FF000C3F10705042D00D90425191D072901D2B5
:10200000002300E0DB1E012606FA05F1491E2140EF
:1020100099409E40761E16403143F0BC01F071BFDE
:102020000CED00E0064900F0070208684FF6FF03D8
:10203000184040EA0220034A10430860704700003D
:102040000CED00E00000FA052DE9F0470E46050012
:1020500065D0DFF81481D8F80000F7B200F007006F
:10206000B04207D288F80070D8F8000000F00700EE
:10207000B04254D128683D4C810712D5400703D5A2
:10208000206840F4E05020602878000703D52068DD
:1020900040F4604020602068A96820F0F000084308
:1020A00020602878C0072DD0304968680839012899
:1020B00012D0022813D0032811D0096889070029FB
:1020C0002DDA216821F0030101432160FFF7FEFEB4
:1020D000814641F2883A0EE009688903EFE7096812
:1020E0008901ECE7FFF7F2FEA0EB0901514502D9A7
:1020F0000320BDE8F0872068696800F00C00B0EBB1
:10210000810FEFD1D8F80010404601F00701B1422D
:1021100007D90770006800F00700B04201D0012025
:10212000E7E72878400705D52068E96820F4E05003
:10213000084320602878000706D52068296920F424
:10214000604040EAC100206000F038F82168084A89
:10215000C1F30311515CC840064908600648006895
:10216000FFF7DCFE0020C4E7003C024008380240D4
:102170002E4700080C0000200400002004480549F8
:1021800000680968044AC1F38221515CC840704765
:102190000C000020083802403E470008044805496A
:1021A00000680968044AC1F34231515CC840704775
:1021B0000C000020083802403E470008104810B5C7
:1021C000006810F00C010F4818D0042916D0082917
:1021D00014D10B4C241F216801F03F0221682168B3
:1021E0000023C1F38811A1FB0001FEF75DF821680F
:1021F000C1F30141491C4900B0FBF1F010BD0000E2
:10220000083802400024F4002DE9F84F04006ED095
:102210002078DFF84C93C007A9F104054AD009F1F2
:1022200004000168C1F38101012908D00068C0F3EE
:10223000810002280AD1D9F80000400206D528689A
:10224000800337D560680028E1D033E06068B0F5DE
:10225000803F10D0B0F5A02F286810D020F4803037
:102260002860286820F4802028606068A8B1FFF703
:102270002DFE06460DE0286840F48030F4E740F477
:1022800080202860F7E700BFFFF720FE801B64284E
:1022900073D828688003F7D50CE0FFF717FE0646D1
:1022A00005E000BFFFF712FE801B6428F0D8286805
:1022B0008003F7D42078DFF8AC8280074FF0000A63
:1022C0003ED5A748001D016811F00C0F08D000682A
:1022D000C0F3810002280BD1D9F80000400207D4D6
:1022E0002868800716D5E068012800D112E033E1A4
:1022F000E068B8B10120C8F80000FFF7E7FD064626
:1023000005E000BFFFF7E2FD801B0228C0D8286867
:102310008007F7D52868216920F0F80040EAC1005D
:1023200028600DE0C8F800A0FFF7D0FD064604E0E5
:10233000FFF7CCFD801B02281FD828688007F7D440
:102340002078000722D5864F87486169703771B1C0
:1023500001210160FFF7BAFD064604E0FFF7B6FD74
:10236000801B022809D838688007F7D50EE0C0F82E
:1023700000A0FFF7ABFD064605E082E0FFF7A6FDF3
:10238000801B02287DD838688007F7D42078400762
:1023900068D5DFF8CCB100270BF13C0BDBF800006F
:1023A000C0000BD4DBF8001041F08051CBF80010D6
:1023B000DBF80000012700F0805000906B4E306881
:1023C000C00510D4306840F480703060FFF77EFDA7
:1023D000009005E0FFF77AFD0099401A022850D8D6
:1023E0003068C005F6D55E4EA0686C3601280FD067
:1023F0000528306810D020F001003060306820F0EF
:1024000004003060A068B8B1FFF760FD00900FE0F5
:10241000306840F00100F4E740F004003060F7E776
:10242000FFF754FD0099411A41F28830814266D885
:1024300030688007F4D50EE0FFF748FD009007E014
:10244000FFF744FD0099411A41F28830814256D885
:1024500030688007F4D42FB1DBF8001021F08051F0
:10246000CBF80010A069C8B33D49091D0968C1F344
:10247000810102294AD00228504607D0C8F86000DE
:1024800000E03CE0FFF722FD04463BE04746C8F889
:102490006000FFF71BFD064605E000BFFFF716FDD5
:1024A000801B02282BD828688001F7D4D4E90701C3
:1024B0000843A16A2E4A490802EB0141626A41EAD7
:1024C0008211084394F82C1040EA0161C9F8001009
:1024D00001203866FFF7FAFC044606E03EE000BF44
:1024E000FFF7F4FC001B022809D828688001F7D503
:1024F00034E000BFFFF7EAFC001B022802D90320EA
:10250000BDE8F88F28688001F4D427E00128F7D0CF
:10251000D9F80000E26900F4800191421CD1226ADE
:1025200000F03F01914217D147F6C071626A014045
:10253000B1EB821F10D1A26A4FF0FF3300F440319B
:1025400003EB5202B1EB024F06D194F82C1000F0CD
:102550007060B0EB016F01D00120D1E70020CFE720
:102560000438024000004742800E4742007000409D
:102570000000FFFF00680349884202D102490120A0
:1025800008707047003001404000002038B50168F5
:1025900004464A688868C043430606D5C30704D189
:1025A000D3435B0601D4216C05E0830708D4D343F1
:1025B0001B0605D4616C01B02046BDE830400847D9
:1025C000830603D5430601D5C30551D4D3439B06E7
:1025D0004ED443060AD494F85130032B49D0636D8E
:1025E00043F004036365CB688B680093830609D4CA
:1025F000636D43F0010363658B6800930B6823F000
:1026000040030B60C00506D4606D40F008006065B3
:10261000206880680090606D002829D0206841689B
:1026200021F0E0014160012084F85100900701D4BD
:10263000D00722D02068416821F003014160114D8C
:10264000E06C40B10565E06CFFF796F918B1606D7C
:1026500040F040006065A06C002809D00565A06CC2
:10266000FFF78AF9002803D0606D40F040006065F4
:1026700038BDC8688868009038BD2046FFF77AFFEB
:1026800038BD0000B933000870B5040009D0606A95
:10269000002540B125616561A56294F8510040B103
:1026A0000CE0012070BD6068B0F5827FF4D0E56178
:1026B000F2E784F85050204600F044F8022084F8F5
:1026C00051002068016821F040010160A088218943
:1026D00000F4827001F404410843A18901F400610F
:1026E0000843217C01F002010843217D01F0010132
:1026F0000843218B01F400710843217F01F0380168
:10270000084394F8201001F080010843218D01F462
:102710000051084321680860A069042101EA1040C3
:1027200094F8241001F010010843216848602068E3
:10273000C16921F40061C1616565012084F851001F
:10274000002070BD70B586B0064614216846FDF7BE
:102750009CFF23493068884240D122480025016807
:1027600041F480510160006800F4805005901D48DC
:102770001438016841F0010101600068694600F009
:1027800001000590E02000900220CDE90105032022
:102790000390052004901448FFF796FA144C134850
:1027A00020604FF0C06060604020C4E90205000175
:1027B000C4E90405A561E561256220466562FFF76D
:1027C000BDF908B1FFF7D6F8B46400221146232002
:1027D000A663FFF707FC2320FFF7F6FB06B070BDEA
:1027E000003001404438024000000240586402407A
:1027F000440100202DE9F84F044690F851001D4691
:1028000016460F46012838D160684FF00408B0F52D
:10281000827F01D1A06830B3FFF758FB8246002FBA
:1028200075D0002E73D094F85000012825D04FF0B9
:10283000010984F8509084F851804FF00008C4F8E2
:102840005480A763A687E687C4F83080A4F8348054
:10285000A4F83680C4F84080C4F84480A068B0F57D
:10286000004F0CD015E084F85180009313460A46BF
:10287000204600F01CF9BDE8F88F0220FBE7206835
:10288000016821F0400101602068016821F4804165
:10289000016020680168490603D4016841F04001E5
:1028A0000160E068C0B134E020688168C90709D0E0
:1028B000007BA16B0870A06B401CA063E08F401EE2
:1028C000E08709E0FFF702FBA0EB0A00A84202D371
:1028D000681C01D032E085B3E08F0028E4D11BE012
:1028E00020688168C90709D0C068A16B0880A06B07
:1028F000801CA063E08F401EE0870AE0FFF7E6FA45
:10290000A0EB0A00A84203D3681C02D016E012E034
:102910009DB1E08F0028E3D152462946204600F0C1
:102920009BFD08B12020606584F8519084F85080A8
:10293000606D00289FD001209DE7FFE784F851904B
:1029400084F85080032096E72DE9F84F9846164604
:102950008A460446FFF7BAFA814694F851000128E6
:102960001ED1BAF1000F73D0002E71D094F8500030
:10297000012815D0012784F85070032084F85100F5
:1029800000256565C4F830A0A686E686A563A58700
:10299000E58765642564A068B0F5004F03D00CE0BE
:1029A0000220BDE8F88F2068016821F04001016035
:1029B0002068016841F4804101602068016849068F
:1029C00003D4016841F040010160E068B0F5006F98
:1029D000606803D048B3012E27D047E008B1012E2C
:1029E0001FD1206B21680088C86006E020688168DC
:1029F000890709D5216B0988C160206B801C206381
:102A0000E08E401EE0860CE0FFF760FAA0EB0901C3
:102A1000414503D3B8F1FF3F03D035E0B8F1000FD3
:102A200032D0E08E0028E1D123E0206B21680078CD
:102A3000087306E02068816889070AD5216B097848
:102A40000173206B401C2063E08E401EE0860DE089
:102A50002BE0FFF73BFAA0EB0901414503D3B8F1A6
:102A6000FF3F03D010E0B8F1000F0DD0E08E00283A
:102A7000E0D14A464146204600F01CFD08B1202026
:102A80006065A06830B109E084F8517084F8505056
:102A9000032086E72068C1688068009084F8517040
:102AA00004F8505F60680028F3D0012079E72DE931
:102AB000FF4F81B01D46934604464FF001090E9E1C
:102AC000FFF704FA074694F851006168012806D020
:102AD000B1F5827F3CD1A168C9BB042838D10298E6
:102AE000002871D0BBF1000FFBD0002DF9D094F875
:102AF000500001282CD04FF0010A84F850A094F81F
:102B00005100042802D0052084F851004FF000083D
:102B1000C4F85480C4F838B0E587A58702992163CA
:102B2000E586A586C4F84080C4F844802068016822
:102B3000490603D4016841F040010160E068B0F546
:102B4000006F606808D0F0B3012D49D081E0FFE745
:102B5000022005B0BDE8F08F08B1012D39D1206BFE
:102B600021680088C860206B801C2063E08E401EB6
:102B7000E0862EE02068816889070FD5E18E69B173
:102B8000B9F1010F0AD1216B0988C160206B801C4B
:102B90002063E08E401EE0864FF0000920688168C7
:102BA000C9070CD0E18F51B1C068A16B0880A06B40
:102BB000801CA063E08F401EE0874FF00109FFF703
:102BC00085F9C01B01E00BE067E0B04201D3701C47
:102BD00050D1E08E0028CDD1E08F0028CAD13EE050
:102BE000206B216800780873206B401C2063E08E06
:102BF000401EE0862DE02068816889070FD5E18EB0
:102C000069B1B9F1010F0AD1216B09780173206B09
:102C1000401C2063E08E401EE0864FF000092068D3
:102C20008168C9070CD0E18F51B1C068A16B0870F1
:102C3000A06B401CA063E08F401EE0874FF00109AD
:102C4000FFF744F9C01BB04202D3701C01D011E061
:102C500086B1E08E0028CED1E08F0028CBD13A4655
:102C60003146204600F026FC50B12020606584F8F3
:102C7000508012E084F851A084F85080032068E767
:102C8000A06818B92068C1688068009084F851A0D5
:102C900084F85080606D0028F1D0012059E70000D1
:102CA00070B5044690F8510001281CD1C9B1C2B1D9
:102CB00094F85000012816D0012084F85000032019
:102CC00084F85100002565652163A286E286A5632C
:102CD00065642564A587E587A068B0F5004F04D03A
:102CE0000DE0012070BD022070BD2068016821F058
:102CF000400101602068016841F480410160A16CDD
:102D000017480864A16C1748C863A16C1648C864CA
:102D1000A06C0565E38E2268216B0C32A06CFEF777
:102D200077FF30B1606D40F01000606584F850505E
:102D3000D7E720680168490603D4016841F04001E3
:102D4000016084F850502068416841F020014160E2
:102D50002068416841F002014160002070BD000020
:102D6000EB330008F5330008C93300080068034955
:102D7000884202D1024901200870704700300140AA
:102D800040000020704710B5401EB0F1807F01D395
:102D9000012010BD4FF0E02460610F21601701F0A9
:102DA000B0F80020A06107202061002010BD0000C5
:102DB00070B590F83C20012A32D0012480F83C40C4
:102DC000022280F83D2003685A689D6822F0700650
:102DD0000A6832435A60134B02689A4214D0B2F127
:102DE000804F11D0104B9A420ED0104B9A420BD00C
:102DF0000F4B9A4208D00F4B9A4205D00E4B9A4285
:102E000002D00E4B9A4204D1496825F08003194341
:102E1000916080F83D40002180F83C10084670BD6C
:102E2000022070BD00000140000400400008004086
:102E3000000C004000040140004001400018004028
:102E400010B586B0044614216846FDF71EFC0D49F6
:102E50002068884214D10C480021026842F0040224
:102E60000260006800F004000590802000900220BD
:102E7000CDE90101CDE9031069460448FEF724FFBE
:102E800006B010BD00040040303802400008024087
:102E900070B5044690F83C0000260D4601280FD07E
:102EA000012084F83C006AB1042A1DD0082A2FD0E2
:102EB0000C2A3FD00126002084F83C00304670BD2B
:102EC000022070BD206800F057FC2068816941F045
:102ED000080181612068816921F004018161206815
:102EE00081692A69114311E0206800F075FC2068AF
:102EF000816941F4006181612068816921F4806108
:102F00008161206881692A6941EA02218161D2E7F1
:102F1000206800F097FC2068C16941F00801C16198
:102F20002068C16921F00401C1612068C1692A6972
:102F3000114311E0206800F0B9FC2068C16941F438
:102F40000061C1612068C16921F48061C1612068AC
:102F5000C1692A6941EA0221C161ACE710B50400E8
:102F600003D094F83D0010B107E0012010BD00200F
:102F700084F83C00204600F01FF8022084F83D0051
:102F8000211D206800F07EFB012084F8460084F8B3
:102F90003E0084F83F0084F8400084F8410084F843
:102FA000420084F8430084F8440084F8450084F823
:102FB0003D00002010BD000008B5006806498842A9
:102FC00008D10648016841F002010160006800F084
:102FD0000200009008BD000000040040403802409C
:102FE00010B50446022249B104290ED0082913D095
:102FF00094F84100012816D0012010BD94F83E003D
:103000000128F9D184F83E200FE094F83F00012810
:10301000F2D184F83F2008E094F840000128EBD179
:1030200084F8402001E084F841200122206800F06B
:1030300095FB16492068164A884201D0904203D178
:10304000436C43F4004343642068884213D0B0F1DA
:10305000804F10D00F4988420DD00F4988420AD0C6
:103060000E49884207D0904205D00D49884202D0CF
:103070000C49884204D1816801F00701062903D078
:10308000016841F001010160002010BD0000014015
:10309000000401400004004000080040000C004013
:1030A000004001400018004070B5040004D094F8BE
:1030B0004100002510B106E0012070BD84F84050A9
:1030C000204600F023F8242084F841002068C168DD
:1030D00021F40051C160204600F08CFE2068016997
:1030E00021F4904101612068416921F02A01416188
:1030F0002068C16841F40051C1606564202084F8F3
:10310000410084F842006563002070BD10B586B0B0
:10311000044614216846FDF7B8FA1449206888422D
:1031200021D113480021026842F0100202600068B9
:1031300000F0100005900E481438026842F00102B9
:103140000260006800F0010005904FF4C06000903C
:103150000220CDE901010320039007200490694675
:103160000448FEF7B1FD06B010BD0000001001409C
:103170004438024000000240FEE7000010B5FEF7B0
:1031800009F81B4C002220212046FEF79AFE012060
:10319000FEF776FD012220212046FEF792FE9620C2
:1031A000FEF76EFD3A20FEF7B7F90022012111A0CB
:1031B000FEF7BAF9B020FEF7AFF9002201210EA008
:1031C000FEF7B2F9B020FEF7A7F9002201210AA00C
:1031D000FEF7AAF91120FEF79FF97820FEF750FDBF
:1031E0002920FEF799F9BDE810400520FEF748BDFB
:1031F0000008024066000000800000002DE9F04158
:1032000086B014216846FDF740FA3648002401686C
:1032100041F080010160016801F0800105910168C1
:1032200041F001010160016801F0010105910168AF
:1032300041F004010160016801F004010591016899
:1032400041F002010160016801F00201059101688D
:1032500041F0100101600068234E00F0100005905D
:10326000002230213046FEF72CFE204F00220121A3
:103270003846FEF726FEDFF878800022802140469F
:10328000FEF71FFE302000900125CDE9015469466C
:1032900030460394FEF718FD0095CDE901546946C8
:1032A00038460394FEF710FD042000904FF4881078
:1032B000CDE9010469463846FEF706FD80200090FE
:1032C000CDE90154694640460394FEF7FDFC002217
:1032D00011460820FEF786FE0820FEF775FE06B0B0
:1032E000BDE8F0813038024000080240000402408E
:1032F000001002400E4810B50C4901604FF4827175
:10330000416000218160C1604FF400720161C0E939
:103310000512C1610162416281620A21C162FFF747
:10332000B3F9002801D072B6FEE710BD00300140AD
:103330005C00002010B58AB0002407941C21684668
:103340000894FDF7A2F916481449016042F2107181
:10335000C0E901146421C0E903148461FFF7FEFD94
:1033600008B172B6FEE7079407A90D480894FFF765
:103370001FFD08B172B6FEE76020CDE9000402949B
:103380000422694606480494FFF782FD08B172B62C
:10339000FEE70348FFF754FD0AB010BD00040040EB
:1033A000B4000020FEE7FEE7704700000148FFF789
:1033B000EDB800005C00002010B5806B0021C187D3
:1033C000C186FFF7D7F810BD10B5806B01684A6859
:1033D00022F003024A60416D41F010014165012174
:1033E00080F85110FFF7C6F810BD10B5806BFFF7DD
:1033F000C9FC10BD38B50546846BFEF767FD024673
:1034000028680068C00523D42068416821F02001A5
:1034100041602068416821F002014160642120463A
:1034200000F048F818B1606D40F020006065A068B9
:10343000002118B92068C26880680090E1860120E8
:1034400084F85100606D18B12046FFF793F838BD3D
:103450002046FFF78BFC38BDF8B5044640684FF4B2
:103460008273984221D1A0684FF48065B0F5004F77
:1034700001D0A8420AD12068066826F040060660FE
:103480006068984211D1A068A8420ED000920B4605
:1034900000228021204600F043F8002804D0606D0F
:1034A00040F0200060650320F8BD00920B4600222A
:1034B0000121EFE7F8B515460E460B46009204468B
:1034C0000122022100F02CF8A0B91348134900682A
:1034D000B0FBF1F04FF47A71484300906068B0F5AA
:1034E000827F0DD13346002280212046009500F0D6
:1034F00017F870B1606D40F0200060650320F8BDE2
:10350000009830B1401E009020688068C0430006DB
:10351000F6D50020F8BD00000C00002000366E013A
:103520002DE9F8431E46914688460446089DFEF75D
:10353000CDFC401B351AFEF7C9FC0746254800683C
:10354000C0F3CB30684338E0701C37D0FEF7BEFCC8
:10355000C01BA84203D215B1009860B32CE02068CC
:10356000416821F0E00141606068B0F5827F0BD1D5
:10357000A068B0F5004F02D0B0F5806F04D120688C
:10358000016821F040010160A06AB0F5005F09D137
:103590002068016821F4005101602068016841F44D
:1035A00000510160012084F85100002084F850008F
:1035B0000320BDE8F8830025401E00902068816844
:1035C00038EA010004D000214945BDD10020F0E7D0
:1035D0000121F9E70C0000207047FEF77DBC0000D8
:1035E00030B593B030216846FDF74FF814210CA890
:1035F000FDF74BF81D480025016841F0805101603E
:10360000006800F0805011901948016841F4804131
:1036100001600068022400F48040119001200090B5
:10362000000401908001CDE9064008200890A82000
:10363000CDE9090404200B906846FEF7E5FD08B1CA
:1036400072B6FEE70CA90F2081E831004FF4A050BC
:103650000F904FF48050109005210CA8FEF7F4FC59
:10366000002801D072B6FEE713B030BD40380240EA
:10367000007000400248016841F470010160704729
:1036800088ED00E0F0B50268294C2A4D2A4E2B4FF8
:103690002B4B4FF0804CA04209D0604507D0A84288
:1036A00005D0B04203D0B84201D0984204D122F0F4
:1036B000700E4A6842EA0E02A0421BD0604519D043
:1036C000A84217D0B04215D0B84213D0984211D0BA
:1036D0001C4DA8420ED01C4DA8420BD01B4DA84239
:1036E00008D01B4DA84205D01A4DA84202D01A4D51
:1036F000A84203D122F44075CA682A434D6922F0DA
:1037000080022A4302608A68C2620A688262A0421A
:1037100001D0984201D10969016301214161016928
:10372000C90703D0016921F001010161F0BD00006A
:10373000000001400004004000080040000C004070
:1037400000040140004001400044014000480140A5
:1037500000180040001C00400020004010B501F09F
:103760001F030121046A99408C430462016A9A4054
:103770001143016210BD0000F0B5036A026A22F035
:103780000102026242688469124E24F073050C68DB
:103790002C4323F002058B682B430D4DA84201D02A
:1037A000B04205D123F00807CB683B4323F0040364
:1037B000A84201D0B04205D14D6922F440721543B0
:1037C0008A692A4342608461496841630362F0BDAB
:1037D0000000014000040140F0B5026A036A23F0D2
:1037E00010030362436884690D6824F4E64444EAE4
:1037F00005248D6822F0200242EA05120F4D104E7A
:10380000A84201D0B04206D1CF6822F0800242EA3D
:10381000071222F04002A84201D0B04207D14D6900
:1038200023F4406343EA85038D6943EA85034360DB
:103830008461496881630262F0BD000000000140BC
:1038400000040140F0B5026A036A23F48073036246
:103850004368C46922F4007224F073050C68124EA8
:103860002C438D6842EA05220E4DA84201D0B04299
:1038700006D1CF6822F4006242EA072222F4806275
:10388000A84201D0B04207D14D6923F4405343EA26
:1038900005138D6943EA05134360C4614968C16338
:1038A0000262F0BD000001400004014030B5046A2E
:1038B000026A22F4805202624268C3690D6823F4EE
:1038C000E64343EA05238D6824F4005444EA0534B2
:1038D000084DA84202D0084DA84204D14D6922F4F7
:1038E000804242EA85124260C36149680164046211
:1038F00030BD000000000140000401402DE9F04F00
:1039000085B00024DFF8BCB0DFF8BC904FF01A0A95
:103910004FF6E078FCF78EFC87B2FCF78BFC86B2A2
:10392000BBF90000B7FBFAF30B3897FBF0F100FB93
:103930001170B9F900104FF0010C123996FBF1F239
:1039400001FB12610AFB13724FF47843CDF808C0F3
:103950001E4DCDE90383D5E9013CCDE9003C80B2A1
:1039600089B241322B68FDF7E3FCBBF90000B6FBDE
:10397000FAF30B3896FBF0F100FB1160B9F9001077
:10398000CDF81080123997FBF1F201FB12710AFB9E
:1039900013624FF478460127CDE90276D5E9013666
:1039A000CDE9003680B289B241322B68FDF7C0FC08
:1039B000641CA4B240F6C4108442ABD305B0BDE889
:1039C000F08F000046000020480000201C0000206E
:1039D00070B504464FF47840FDF700F84FF4FC65ED
:1039E0004FF6E076E4B1204600F088FE2846FCF76A
:1039F000F5FF204600F082FE1F20FCF7EFFF204677
:103A000000F07CFE3046FCF7E9FF204600F076FE31
:103A10000020FCF7E3FF2046BDE8704000F06EBEDA
:103A20002846FCF7DBFF1F20FCF7D8FF3046FCF7E9
:103A3000D5FFBDE870400020FCF7D0BF2DE9F84F5E
:103A40000020FCF7CBFF244FDFF8908000244FF0DC
:103A50001F0940F2FF7A43F6982B00BFFCF7EAFB00
:103A600086B2FCF7E7FB85B2B7F90020B8F9001081
:103A700096FBF2F095FBF1F302FB106001FB135192
:103A800080B2121A96FBF2F302FB136289B292B271
:103A90000123CDF80090FDF74BF8B7F90010B8F905
:103AA000002095FBF1F001FB105096FBF2F102FBB8
:103AB000116189B2521A95FBF2F302FB135293B2D1
:103AC00080B20122CDF800A0FDF732F8641CA4B248
:103AD0005C45C3D3BDE8F88F4600002048000020B5
:103AE0002DE9F04700269146884605463446B02029
:103AF00000F094F8641CE4B20644102CF7D33009AB
:103B00004FF4A06A002750450CD900263446D02037
:103B100000F084F8641CE4B20644102CF7D330099A
:103B2000504506D889F80070BDE8F0470820FEF738
:103B30002DBA00EE100A9FED241A0027F8EE400A75
:103B4000BBEE040A3E4600EE810ABCEEC00A10EE4F
:103B5000104A902000F062F8761CF6B20744102E4E
:103B6000F7D3380900EE100A9FED181A1848F8EE3E
:103B7000400ABAEE0E0A007800EE810ABCEEC00AD6
:103B800010EE101A48B101280BD0022811D00328DA
:103B900014D12C80A8F8001010E02980C4F5F07032
:103BA00004E0C4F5F0702880C1F5A070A8F800000A
:103BB00004E0C1F5A0702880A8F80040012189F830
:103BC0000010BDE8F08700006F12833C5839343C88
:103BD0004300002070B50B4D2C78022802D001283C
:103BE0000CD00DE0FEF772F96968401A3C2803D347
:103BF000FEF76CF9686003E0002401E00020287003
:103C0000204670BD5400002003484178002901D0AF
:103C100001210170704700005400002031B582B0CE
:103C20000024009400F02AF8124D6C700820FEF772
:103C3000BAF90A23012202A90F48FEF785FE0A23DA
:103C4000022269460C48FEF7D5FD58B10820FEF760
:103C50009DF90820FEF7B8F90120687000F0ACF873
:103C6000A0B23EBD9DF801009DF8001000EB0124BC
:103C7000ECE70000540000205C00002010B5104C60
:103C800010212046FEF718F940B90E4801780029A6
:103C9000FCD0012210212046FEF713F90A480168E2
:103CA0004FF6C77211400160016841F038010160B0
:103CB0000022BDE8104080210448FEF702B9000050
:103CC0000008024040000020003001400010024087
:103CD0002DE9F04F00252F4FDFF8BCA08BB02C460C
:103CE0004FF001084FF010094FF6FF7634B1012C68
:103CF00006D0022C42D0032C05D141E0002000E088
:103D00000120FDF72FF81020FCF768FECDE90486AE
:103D1000CDF8189097E8070001AB83E807001FA0D3
:103D20000090F8880A210A3083B2BAF8000082B203
:103D30000020FCF761FE0120FFF74CFF002000F09F
:103D400043F809AA08A907A8FFF7CAFE9DF82400AE
:103D5000C0B125B1102259462846FDF7EFFD324685
:103D6000BDF82010BDF81C00FDF7E8FDBDF81C50A3
:103D7000BDF820B01E20FDF783FFE2E70220C0E778
:103D80000320BEE7641CE4B2042CAFD30BB0BDE843
:103D9000F08F00001000002046000020546F756373
:103DA0006820616E642064726167206F766572209E
:103DB000646973706C617900012280210148FEF70B
:103DC00080B800000010024070B50446FEF77EF88F
:103DD00085B2074E07E034B1FEF778F8401BA042E9
:103DE00001D9002070BD30780028F4D0012070BDCA
:103DF0005400002070B5044600680169E26821F4AF
:103E00004051114301612169A068E2690843616979
:103E1000114308432168CA6849F20C639A4302437C
:103E2000CA6020684169A26921F44071114341616F
:103E300031492068884202D03049884202D1FEF7D9
:103E4000ADF901E0FEF79AF9E26900231921642532
:103E50003226B2F5004F626828D0A0FB0101930F13
:103E60009200FCF721FA0146B0FBF5F06FF0180262
:103E7000504301EB800006EB0010B0FBF5F000F0C2
:103E8000F002B1FBF5F002EB0012B1FBF5F06FF0C0
:103E90001803584301EB800006EB0010B0FBF5F06F
:103EA00000F00F0021681044886070BDA0FB010184
:103EB00092185B41FCF7F8F90146B0FBF5F00201FE
:103EC000B1FBF5F06FF01803584301EB800006EBEF
:103ED000C000B0FBF5F000F0F80002EB4002B1FBCF
:103EE000F5F0584301EB800006EBC000B0FBF5F0A5
:103EF00000F00700D6E70000001001400014014068
:103F0000FEE70907090E002804DB00F1E02080F835
:103F10000014704700F00F0000F1E02080F8141D3D
:103F2000704730380A2801D20120704700207047BE
:103F30002DE9F05F0746C2F101000FFA80F8C2EBED
:103F4000C23040009A460E464FF001090FFA80FB3E
:103F5000002514465BE000BFB8F1000F09DB0BF150
:103F600002000FFA80FB641E08EB0B0024B20FFA6C
:103F700080F809F102000FFA80F96D1C08EB0900C6
:103F80000FFA80F82DB25FEA4A700DD5301981B270
:103F9000781980B20A9AFDF7EBF8701981B23819D6
:103FA00080B20A9AFDF7E4F85FEA8A700DD5301BFB
:103FB00081B2781980B20A9AFDF7DAF8701B81B2E3
:103FC000381980B20A9AFDF7D3F85FEA0A700DD566
:103FD000701981B2381B80B20A9AFDF7C9F83019FE
:103FE00081B2781B80B20A9AFDF7C2F85FEACA7004
:103FF0000DD0701B81B2381B80B20A9AFDF7B8F859
:10400000301B81B2781B80B20A9AFDF7B1F8A54245
:10401000A2DBBDE8F09F2DE9FF4F8146C2F1010010
:1040200083B007B2C2EBC230DDE910BA400000B283
:104030000E464FF0010800251446019054E0002F71
:1040400007DB641E019824B2801C00B20190384442
:1040500007B208F102000FFA80F807EB080007B278
:104060006D1C06982DB2C0071DD0311901EB0B0055
:10407000401C03B209EB050000B2311B024609B235
:10408000CDF800A0FCF7DAFD711901EB0B00401C24
:1040900003B209EB040000B2711B024609B2CDF86D
:1040A00000A0FCF7CBFD069880071DD5311901EB68
:1040B0000B00401C03B2A9EB050000B2311B024605
:1040C00009B2CDF800A0FCF7B9FD711901EB0B00A6
:1040D000401C03B2A9EB040000B2711B024609B2F6
:1040E000CDF800A0FCF7AAFDA542A8DB07B0BDE80B
:1040F000F08F000008B5FDF7F7FEFFF771FAFFF744
:104100007DF819480024016841F4800101600068CD
:10411000224600F48000009021463B20FDF762FF1C
:104120003B20FDF751FFFFF7E5F8FFF703F91048D3
:104130000E4901604FF4E131C0E901140C21C46063
:10414000C0E904418461C461FEF7AEFF08B172B6F4
:10415000FEE70320FCF75AFD0020FCF73FFCFFF7C9
:10416000B7FDFCF781FEFEE7303802400010014049
:10417000FC0000202DE9F05F06464FEA40080F489A
:104180008B46B0F9000000EB06090D48B0F90000BD
:10419000871900250DE000240FFA85FA06E05B463A
:1041A000324621B25046FDF7C9F94444BC42F6DB21
:1041B00045444D45EFDBBDE8F09F00004600002080
:1041C000480000202DE9F843804615488946B0F99B
:1041D00000501448B0F900400020FCF7FFFB002617
:1041E000681E07B208E033B219463A460020CDF8FF
:1041F0000080FCF723FD761DA642F4DB0026641E3A
:1042000024B208E032B2234610460021CDF80090D7
:10421000FCF714FD761DAE42F4DBBDE8F883000028
:10422000460000204800002010B54FF47840FCF70D
:10423000D5FB4FF4FC60FCF7D1FB1F20FCF7CEFB55
:104240004FF6E070FCF7CAFBBDE810400020FCF719
:10425000C5BB00002DE9F05F044610488B464FEACD
:104260004408B0F900900E48B0F900700020FCF747
:10427000B5FB26460DE025460FFA86FA06E05B46BA
:10428000224629B25046FDF75BFA4544BD42F6DBB3
:1042900046444E45EFDBBDE8F09F0000460000209D
:1042A000480000202DE9FC471C4C82468946B4F9A1
:1042B00000001B4E00EBD0704FF0FF3101EB6008A7
:1042C000B6F9000000EBD07001EB60050020FCF7B0
:1042D00085FBB4F90040B6F9000084421ADB0446BD
:1042E00018E000BF04EBD47040102E1AA8EB0007B2
:1042F000A3B2A2B2B1B2B8B2CDF800A0FCF718FCDC
:104300000121CDE9001923B231B238B21A46FCF7C7
:1043100035FBA41F002CE5DCBDE8FC87460000202F
:10432000480000202DE9FC41234C244EB4F9000044
:1043300000EBD0714FF0FF3000EB6108B6F90010D0
:1043400001EBD17100EB61070020FCF747FBB4F9EA
:104350000040B6F900004FF48075844201DA21462E
:1043600000E001464FF4C06292FBF1F61FDB044609
:104370001DE000BFA5EB06054FEAE47205F0FC0165
:1043800004EB52724FEAC10142F3CF02CDE90021A2
:1043900004EBD4704FEA6000A7EB0001A8EB00002B
:1043A00023B209B200B21A46FDF7E4F9A41F142C97
:1043B000E0DCBDE8FC810000460000204800002051
:1043C0002DE9FF5F2448B0F9000000EBD0714FF0F9
:1043D000FF3000EB61062149B1F9001001EBD1710A
:1043E00000EB61070020FCF7F9FABE4201DA34461F
:1043F0002EE03C462CE000BF04F0FC00C4F3C401F6
:1044000041EAC0010390381905B230190FFA80FA59
:10441000301BCDF800A002B2CDE90151381B01B22A
:1044200030B22B46914688468346FDF7E4F904F006
:10443000F80001020398CDF800A041EAC001CDE9DF
:1044400001512B464A4641465846FDF75DF9641F27
:104450000A2CD1DCBDE8FF9F460000204800002068
:104460002DE9F84F06464C48B0F900504B48B0F9DA
:1044700000400020FCF7B2FA0020611E07460FFA48
:1044800081F9804607E041464B463AB2084600961D
:10449000FCF7D4FBBF1DAF42F5DB681E00270FFA07
:1044A00080F907E041463BB24A4608460096FCF7D1
:1044B000C5FBBF1DA742F5DB0020FCF78FFA0020EB
:1044C0006A1E611E07460FFA81FA80460FFA82F9CA
:1044D00007E053463AB2414648460096FCF7AEFB29
:1044E000BF1DAF42F5DB00200746824607E03BB226
:1044F0005246414648460096FCF7A0FBBF1DA74226
:10450000F5DB0020FCF76AFA0020621E07468246AF
:104510000FFA82F9804607E053463AB249464046D0
:104520000096FCF78BFBBF1DAF42F5DB681E002732
:104530000FFA80FA07E03BB25246494640460096E1
:10454000FCF77CFBBF1DA742F5DB0020FCF746FA19
:10455000691E621E0020074682460FFA82F80FFA93
:1045600081F907E053463AB2414648460096FCF7C7
:1045700065FBBF1DAF42F5DB00252F4607E03BB2D0
:104580002A46414648460096FCF758FBBF1DA74205
:10459000F5DBBDE8F88F0000460000204800002051
:1045A0002DE9FC47164D8146164CB5F9000000EB8D
:1045B000D0704710B4F9000000EBD0704610002016
:1045C000FCF70CFAB5F90050B4F90000854200DBA5
:1045D000054602244FF001080EE000BF04EBD47042
:1045E0004010311A381A23B209B200B21A46CDE986
:1045F0000089FCF7C3F9A41DAC42EFDBBDE8FC87E2
:1046000046000020480000202DE9FC471F4D204CAB
:10461000B5F9000000EBD0714FF0FF3000EB6109FD
:10462000B4F9001001EBD17100EB61080020FCF738
:10463000D5F9B5F90050B4F90000854200DB054614
:104640004FF4C06090FBF5F70026344619E000BF38
:104650003E44E21706F0F80104EB5272090242F3FD
:10466000CF02CDE9002104EBD4704010A8EB00018B
:10467000A9EB000023B209B200B21A46FCF7E6FF2C
:10468000A41DAC42E4DBBDE8FC870000460000202E
:1046900048000020FEB51748B0F9000000EBD071CB
:1046A0004FF0FF3000EB61051349B1F9001001EB49
:1046B000D17100EB61060020FCF790F9B54201DAF8
:1046C0002F4600E03746002411E000BF31190BB23D
:1046D000291909B2C4F3C4000091CDE90130281BA7
:1046E00002B2301B01B228B2FDF70EF8641DBC42C5
:1046F000ECDBFEBD46000020480000207CB50546EE
:10470000FDF7E4FB84B20020009001E000980190E6
:10471000FDF7DCFB001BA842F8D37CBD4FF04070D6
:10472000E1EE100A70470006101600061016000091
:104730000000000000000102030406070809000051
:10474000000001020304000000000000000000005F
:104750000000001010101010000010000000006C8D
:1047600048480000000000000000001414287C28C5
:104770007C2850500000001038404038487010101D
:104780000000002050200C700814080000000000F9
:1047900000182020544834000000001010101000B1
:1047A0000000000000000008081010101010100891
:1047B0000800002020101010101010202000001001
:1047C0007C1028280000000000000000101010FEDF
:1047D0001010100000000000000000000018103051
:1047E000200000000000007C00000000000000002D
:1047F0000000000000303000000000040408081031
:104800001020204000000038444444444444380010
:10481000000000301010101010107C000000003854
:104820004404081020447C000000003844041804AC
:10483000044438000000000C141424447E040E00CC
:104840000000003C20203804044438000000001C14
:1048500020407844444438000000007C44040808A8
:104860000810100000000038444438444444380024
:10487000000000384444443C04087000000000007C
:104880000030300000303000000000000018180038
:1048900000183020000000000C10608060100C0038
:1048A0000000000000007C007C0000000000000010
:1048B000C02018041820C0000000000018240408BC
:1048C0001000300000003844444C54544C404438EC
:1048D00000000030102828287C44EE00000000F87A
:1048E000444478444444F8000000003C44404040C4
:1048F00040443800000000F0484444444448F0007C
:10490000000000FC445070504044FC000000007E59
:1049100022283828202070000000003C4440404EEF
:1049200044443800000000EE44447C444444EE001B
:104930000000007C1010101010107C000000003CE3
:104940000808084848483000000000EE444850700D
:104950004844E600000000702020202024247C0031
:10496000000000EE6C6C54544444EE00000000EE75
:1049700064645454544CEC000000003844444444F3
:10498000444438000000007824242438202070009B
:1049900000000038444444444444381C000000F8FB
:1049A000444444784844E200000000344C40380459
:1049B00004645800000000FE92101010101038001F
:1049C000000000EE4444444444443800000000EE3B
:1049D0004444282828101000000000EE4444545499
:1049E00054542800000000C6442810102844C60073
:1049F000000000EE44282810101038000000007C51
:104A00004408101020447C000000003820202020A2
:104A10002020202038000040202020101008080806
:104A200000000038080808080808080838000010C6
:104A300010284400000000000000000000000000FA
:104A40000000000000FE0010080000000000000050
:104A5000000000000038443C44443E00000000C018
:104A6000405864444444F80000000000003C4440C6
:104A7000404438000000000C04344C4444443E00E0
:104A8000000000000038447C40403C000000001C56
:104A9000207C202020207C000000000000364C44B8
:104AA00044443C04380000C0405864444444EE0090
:104AB000000000100070101010107C0000000010AA
:104AC0000078080808080808700000C0405C4870BA
:104AD0005048DC00000000301010101010107C0056
:104AE0000000000000E854545454FE000000000090
:104AF00000D864444444EE00000000000038444400
:104B0000444438000000000000D864444444784025
:104B1000E000000000364C4444443C040E00000019
:104B2000006C302020207C0000000000003C443855
:104B30000444780000000000207C202020221C007B
:104B40000000000000CC4444444C3600000000004B
:104B500000EE4444282810000000000000EE4454F9
:104B6000545428000000000000CC48303048CC00ED
:104B70000000000000EE4424281810107800000007
:104B8000007C481020447C00000000081010101029
:104B9000201010100800001010101010101010102D
:104BA000000000201010101008101010200000004D
:104BB0000000002458000000000000000000000079
:104BC00000000000000000000000000000000000E5
:104BD0000000000000000000000000000C000C00BD
:104BE0000C000C000C000C000C000C0000000C0071
:104BF00000000000000000000000000000001DC0D8
:104C00001DC008800880088000000000000000002F
:104C10000000000000000000000000000D800D807A
:104C20000D800D803FC01B003FC01B001B001B0000
:104C30001B00000000000000000004001F80318005
:104C4000318038001E000F000380318031803F002A
:104C50000400040000000000000000001800240010
:104C6000240018C007801E003180024002400180ED
:104C700000000000000000000000000000000F0025
:104C80001800180018000C001D80370033001D802C
:104C9000000000000000000000000000000007000D
:104CA00007000200020002000000000000000000F7
:104CB00000000000000000000000000003000300EE
:104CC00006000E000C000C000C000C000E0006008C
:104CD000030003000000000000000000180018009E
:104CE0000C000600060006000600060006000C0088
:104CF0001C00180000000000000000000600060074
:104D00003FC03FC00F001F8019800000000000005E
:104D10000000000000000000000000000000000093
:104D20000400040004003F800400040004000000AC
:104D30000000000000000000000000000000000073
:104D40000000000000000000000000000600040059
:104D50000C00080008000000000000000000000037
:104D60000000000000003F80000000000000000084
:104D70000000000000000000000000000000000033
:104D80000000000000000000000000000C000C000B
:104D90000000000000000000000000C000C0018012
:104DA00001800300030006000C000C00180018002E
:104DB0003000300000000000000000000E001B006A
:104DC0003180318031803180318031801B000E0094
:104DD00000000000000000000000000006003E008F
:104DE00006000600060006000600060006003FC09A
:104DF0000000000000000000000000000F0019800B
:104E000031803180030006000C00180030003F8024
:104E10000000000000000000000000003F00618072
:104E2000018003001F0003800180018061803F003A
:104E30000000000000000000000000000700070064
:104E40000F000B001B00130033003F8003000F8096
:104E50000000000000000000000000001F8018009B
:104E6000180018001F0011800180018021801F00A0
:104E700000000000000000000000000007801C008F
:104E800018003000370039803180318019800F00E0
:104E90000000000000000000000000007F00430050
:104EA000030006000600060006000C000C000C00C3
:104EB0000000000000000000000000001F00318022
:104EC000318031801F0031803180318031801F007E
:104ED0000000000000000000000000001E00330081
:104EE0003180318033801D800180030007003C0049
:104EF00000000000000000000000000000000000B2
:104F000000000C000C000000000000000C000C0071
:104F10000000000000000000000000000000000091
:104F20000000030003000000000000000600040071
:104F3000080008000000000000000000000000C0A1
:104F4000030004001800600018000400030000C003
:104F50000000000000000000000000000000000051
:104F6000000000007FC000007FC0000000000000C3
:104F700000000000000000000000000000006000D1
:104F800018000400030000C00300040018006000C3
:104F900000000000000000000000000000001F00F2
:104FA00031803180018007000C000C0000000C00F3
:104FB0000000000000000000000000000E001100D2
:104FC00021002100270029002900270020001100CE
:104FD0000E000000000000000000000000003F0084
:104FE0000F000900198019801F8030C030C079E09F
:104FF00000000000000000000000000000007F0032
:105000003180318031803F003180318031807F00BC
:1050100000000000000000000000000000001F4031
:1050200030C06040600060006000604030801F0061
:1050300000000000000000000000000000007F00F1
:10504000318030C030C030C030C030C031807F00CF
:1050500000000000000000000000000000007F8051
:105060003080308032003E003200308030807F80DF
:1050700000000000000000000000000000007FC0F1
:105080003040304032003E003200300030007C00C2
:1050900000000000000000000000000000001E8072
:1050A000318060806000600067C0618031801F00D7
:1050B00000000000000000000000000000007BC0B5
:1050C0003180318031803F803180318031807BC0C0
:1050D00000000000000000000000000000003FC0D1
:1050E00006000600060006000600060006003FC097
:1050F00000000000000000000000000000001FC0D1
:1051000003000300030003006300630063003E002C
:1051100000000000000000000000000000007BC054
:105120003180330036003C003E003300318079C0CE
:1051300000000000000000000000000000007E00F1
:1051400018001800180018001840184018407FC0B8
:105150000000000000000000000000000000E0E08F
:1051600060C071C07BC06AC06EC064C060C0FBE03C
:10517000000000000000000000000000000073C0FC
:10518000318039803D80358037803380318079802F
:1051900000000000000000000000000000001F00F0
:1051A000318060C060C060C060C060C031801F00DE
:1051B00000000000000000000000000000007F0070
:1051C00031803180318031803F00300030007E00FE
:1051D00000000000000000000000000000001F00B0
:1051E000318060C060C060C060C060C031801F009E
:1051F0000CC01F80000000000000000000007F00C5
:105200003180318031803E003300318031807CE05C
:1052100000000000000000000000000000001F80EF
:105220003180318038001F000380318031803F00A1
:1052300000000000000000000000000000007F806F
:105240004C804C804C800C000C000C000C003F008B
:1052500000000000000000000000000000007BC013
:1052600031803180318031803180318031801F0048
:1052700000000000000000000000000000007BC0F3
:10528000318031801B001B001B000A000E000E0045
:105290000000000000000000000000000000FBE033
:1052A00060C064C06EC06EC02A803B803B8031808D
:1052B00000000000000000000000000000007BC0B3
:1052C00031801B000E000E000E001B0031807BC0E1
:1052D000000000000000000000000000000079E075
:1052E00030C019800F0006000600060006001F806F
:1052F00000000000000000000000000000003F80EF
:1053000021802300060004000C00188030803F80BC
:105310000000000000000000000000000780060000
:10532000060006000600060006000600060006004D
:105330000600078000000000000030003000180068
:1053400018000C000C00060003000300018001801F
:1053500000C000C000000000000000001E000600A9
:10536000060006000600060006000600060006000D
:1053700006001E0000000000000004000A000A00F1
:1053800011002080208000000000000000000000CC
:10539000000000000000000000000000000000000D
:1053A00000000000000000000000000000000000FD
:1053B0000000000000000000FFE008000400020000
:1053C00000000000000000000000000000000000DD
:1053D00000000000000000000000000000000000CD
:1053E00000001F00018001801F80318033801DC0BC
:1053F000000000000000000000000000700030000D
:1054000030003700398030C030C030C0398077007C
:10541000000000000000000000000000000000008C
:1054200000001E80318060806000608031801F003D
:105430000000000000000000000000000380018068
:1054400001801D80338061806180618033801DC058
:10545000000000000000000000000000000000004C
:1054600000001F00318060C07FC0600030C01F801E
:1054700000000000000000000000000007E00C0039
:105480000C003F800C000C000C000C000C003F8056
:10549000000000000000000000000000000000000C
:1054A00000001DC0338061806180618033801D8079
:1054B000018001801F00000000000000700030002B
:1054C00030003700398031803180318031807BC0BD
:1054D00000000000000000000000000006000600C0
:1054E00000001E00060006000600060006003FC081
:1054F00000000000000000000000000006000600A0
:1055000000003F000300030003000300030003004A
:10551000030003003E0000000000000070003000A7
:105520003000378036003C003C003600330077C046
:105530000000000000000000000000001E00060047
:1055400006000600060006000600060006003FC032
:10555000000000000000000000000000000000004B
:1055600000007F8036C036C036C036C036C076E018
:10557000000000000000000000000000000000002B
:1055800000007700398031803180318031807BC0EC
:10559000000000000000000000000000000000000B
:1055A00000001F00318060C060C060C031801F00FB
:1055B00000000000000000000000000000000000EB
:1055C00000007700398030C030C030C039803700EB
:1055D000300030007C0000000000000000000000EF
:1055E00000001DC0338061806180618033801D8038
:1055F0000180018007C000000000000000000000E2
:1056000000007B801CC018001800180018007F00E4
:10561000000000000000000000000000000000008A
:1056200000001F8031803C001F00038031803F005C
:10563000000000000000000000000000180018003A
:1056400018007F00180018001800180018800F00BC
:10565000000000000000000000000000000000004A
:1056600000007380318031803180318033801DC0F3
:10567000000000000000000000000000000000002A
:1056800000007BC0318031801B001B000E000E002B
:10569000000000000000000000000000000000000A
:1056A0000000F1E060C064C06EC03B803B80318090
:1056B00000000000000000000000000000000000EA
:1056C00000007BC01B000E000E000E001B007BC004
:1056D00000000000000000000000000000000000CA
:1056E000000079E030C0198019800B000F0006001F
:1056F00006000C003E00000000000000000000005A
:1057000000003F80218003000E00180030803F80A1
:1057100000000000000000000000000006000C0077
:105720000C000C000C000C0018000C000C000C000D
:105730000C0006000000000000000000060006004B
:105740000600060006000600060006000600060029
:105750000600060000000000000000000C0006002B
:10576000060006000600060003000600060006000C
:1057700006000C0000000000000000000000000017
:10578000000000001800248003000000000000005A
:105790000000000000000000000000000000000009
:1057A00000000000000000000000000000000000F9
:1057B00000000000000000000000000000000000E9
:1057C00000000000070007000700070007000700AF
:1057D00007000200020000000000070007000000B0
:1057E00000000000000000000000000000001CE0BD
:1057F0001CE01CE0084008400840000000000000D9
:105800000000000000000000000000000000000098
:1058100000000CC00CC00CC00CC00CC03FF03FF02E
:105820000CC00CC03FF03FF00CC00CC00CC00CC052
:105830000CC000000000000000000300030007E0AF
:105840000FE0186018001F000FC000E0186018601B
:105850001FC01F80030003000300000000000000C1
:10586000000000001C002200220022001C6001E059
:105870000F803C0031C002200220022001C0000045
:105880000000000000000000000000000000000018
:1058900003E00FE00C000C0006000F301FF019E0D1
:1058A00018C01FF007B0000000000000000000005A
:1058B000000000000000038003800380010001005D
:1058C00001000000000000000000000000000000D7
:1058D00000000000000000000000000000C000C048
:1058E0000180018001800300030003000300030026
:1058F000030001800180018000C000C000000000A2
:10590000000000000C000C0006000600060003006A
:105910000300030003000300030006000600060066
:105920000C000C0000000000000000000300030059
:1059300003001B601FE0078007800FC00CC0000041
:105940000000000000000000000000000000000057
:10595000000000000000000003000300030003003B
:105960003FF03FF0030003000300030000000000CD
:105970000000000000000000000000000000000027
:105980000000000000000000000000000000000017
:10599000038003000300060006000400000000006E
:1059A00000000000000000000000000000000000F7
:1059B0003FE03FE0000000000000000000000000A9
:1059C00000000000000000000000000000000000D7
:1059D00000000000000000000000000000000000C7
:1059E000038003800380000000000000000000002E
:1059F00000000060006000C000C000C001800180A5
:105A000003000300060006000C000C000C00180048
:105A10001800000000000000000000000F801FC000
:105A200018C03060306030603060306030603060AE
:105A300018C01FC00F800000000000000000000020
:105A40000000000003001F001F000300030003000C
:105A5000030003000300030003001FE01FE0000039
:105A60000000000000000000000000000F801FC0C8
:105A700038E03060006000C00180030006000C00C8
:105A800018003FE03FE000000000000000000000C0
:105A9000000000000F803FC030E0006000E007C061
:105AA00007C000E00060006060E07FC03F80000051
:105AB00000000000000000000000000001C003C062
:105AC00003C006C00CC00CC018C030C03FE03FE0AF
:105AD00000C003E003E00000000000000000000040
