:020000040800F2
:1000000050060020415B0008095B00080B5B0008FC
:100010000D5B00080F5B0008115B0008000000008A
:10002000000000000000000000000000135B00085A
:10003000155B000800000000175B0008195B000852
:10004000595B00085D5B0008615B0008655B0008A8
:10005000695B00086D5B0008715B0008755B000858
:10006000795B00087D5B0008815B0008855B000808
:10007000895B00088D5B0008915B0008955B0008B8
:10008000995B00089D5B0008A15B0008A55B000868
:10009000A95B0008AD5B0008B15B0008B55B000818
:1000A000B95B0008BD5B0008C15B0008C55B0008C8
:1000B000C95B0008CD5B0008D15B0008D55B000878
:1000C000D95B0008DD5B0008E15B0008E55B000828
:1000D000E95B0008ED5B0008F15B0008F55B0008D8
:1000E000F95B0008FD5B0008015C00080D460C1080
:1000F0000100FE05000000040404080808080808C0
:1001000009090B040306070808070808060B06047C
:10011000040404020204090806090204040808058C
:1001200007030A0708070707070707070703050666
:10013000070607090A0808080808090A060909083D
:100140000A0A08080809080A0A0A0A0A0A08040921
:1001500004080A030808070808070808060608062E
:100160000A08080808090808080A0A080A0806020E
:100170000508060508060500000000070009060539
:100180000806040806060809080809080009060800
:10019000080808080404000007000000090008001F
:1001A000000900060900000008000405000408001A
:1001B00000000804040604070409020806080808E9
:1001C0000808050506060E0E0F0F080808070703A6
:1001D0000A080800070006080506080808000009C4
:1001E00009000006060404000606080700050000D2
:1001F000040900000000F8030004000400040004E7
:100200008024000300041004800410030004100480
:100210008404100300040004000580048024000509
:1002200000060004801C402240414041804880403C
:100230008040802000040004000580048004000544
:1002400000060004801C4022404140418040804024
:100250008040802000040004000590048004000514
:1002600000060004801C40224841404180408040FC
:100270008040802000040004000300040004000308
:100280000004000400030004000400030004200430
:100290000803200400040003000400040003000419
:1002A00000040006000580048004800400030000B0
:1002B00000018003000100003000C01F000030007A
:1002C000E000401F4000300000003000E000401F10
:1002D00030004000300000002000F000E01F60000F
:1002E0009000900040000000000E80115010200C83
:1002F00040108011000E0000C010200910051003EE
:100300002001800000003000C0000003001C00033A
:10031000C00030000000001800068001700080015D
:10032000000600180000600090009000E007001830
:10033000000400040003000400040006100580040B
:10034000800480040003000480054006400480040B
:100350000002000000008001800100000000800316
:10036000400300000000C002C00100000000E004E3
:10037000900400000000FE050000780000007800F6
:1003800000000002401EC0037802401EC003780235
:1003900040000000C01120222022306220222022B2
:1003A000401C0000060680016000180006060000E0
:1003B000000E7011881008110812100C000C0012A9
:1003C000000078000000C01F306008800000088036
:1003D0003060C01F00008000A002E003C001E00305
:1003E000A00280000000800080008000F0078000F4
:1003F0008000800000000020003800180008000085
:1004000000010001000100010001000100000018CE
:1004100000180000000800040002000180004000F5
:100420002000100008000000F00F0810081008104D
:100430000810F00F0000000010101010F81F00103E
:10044000001000000000101808140812081188108D
:100450007010000010080810881088108810700FA5
:1004600000000003800260021012F81F001200005A
:10047000F8088810881088108810080F0000E00F16
:100480001011881088108810000F0000180008183C
:1004900008068801680018000000700F8810881096
:1004A00088108810700F0000F00008110811081162
:1004B0008808F0070000C018C01800000020C038ED
:1004C000C01800080000000180024004200810103D
:1004D0000000800280028002800280028002000010
:1004E00010102008400480020001000010000800E5
:1004F00008160801880070000000E00F1010882323
:1005000048244824C8231024E00300000010001CE5
:1005100088136802180260028013001C001000009B
:100520000810F81F8810881088108810700F0000BD
:10053000E0071008081008100810101078080000D4
:100540000810F81F0810081008101008E007000035
:100550000810F81F88108810C8110810181800001B
:100560000810F81F88108810C80108001800000043
:10057000E00710080810081008111011780F00018A
:1005800000000810F81F881080008000800088108C
:10059000F81F0810000008100810F81F08100810B5
:1005A0000000000C0010001008100810F80F0800E0
:1005B000080000000810F81F0811800168021804E4
:1005C0000818001000000810F81F0810081000108C
:1005D0000010001800000810F81F601080010006CD
:1005E00080016010F81F081000000810F81F20108C
:1005F000C010000108060808F81F08000000E00706
:1006000010080810081008101008E0070000081073
:10061000F81F0811081108010801F0000000E007A8
:1006200010480850083008301048E0470000081013
:10063000F81F0811080108030805F0180010000051
:10064000701C88088810881008111011380E0000DE
:100650001800080008100810F81F081008100800FB
:10066000180000000800F80F080800100010001023
:100670000808F80F0800000008003800C80100064C
:1006800000180006C8013800080000007800880340
:10069000001C800360008003001C880378000000B9
:1006A0000810181828144002800140022814181855
:1006B000081000000800180068108010001F80104B
:1006C0006810180008000000181808140812881193
:1006D0004810281018180000FE3F022002200000D9
:1006E000100020004000800000010002000400080B
:1006F000000002200220FE3F000040002000100009
:1007000008001000200040000000004000400040B1
:100710000040004000400040004000400000080051
:1007200010000000000E4011401140114011800FD8
:10073000001000000810F81F8008401040108008CA
:10074000000700000007800840104010401080089B
:10075000000000078008401040108808F81F0010B3
:1007600000000007800A401240124012800A000B6D
:1007700000008010F01F8810881008001000000092
:1007800000638084408840888084C07F40000000EF
:100790000810F81F801040004010801F001000005B
:1007A00040104010C81F00100010000000400080E2
:1007B00040804080C87F00000810F81F081208031E
:1007C000C01440184010000008100810F81F001056
:1007D000001000004010C01F80104000C01F80109B
:1007E0004000C01F001000004010C01F80104000DB
:1007F0004010801F001000000007800840104010CB
:1008000040108008000700004080C0FF80884090B2
:10081000401080080007000000078008401040904A
:100820008088C0FF4080000040104010C01F801032
:10083000401040004000800000008009401240123B
:10084000401240124012800C000040004000F00FA7
:10085000401040104010000800004000C00F001081
:1008600000104008C01F001000004000C0004003FE
:10087000000C0010000C4003C000400000004000CD
:10088000C00F40180007C00000074018C007400014
:1008900000004010C018401500024015C01840105C
:1008A00000004000C0804083004C0030000C40033A
:1008B000C00040000000C010401840144012401119
:1008C000C0104018000000020002F07D088008807F
:1008D0000000F8FF000008800880F07D00020000A2
:1008E0003000080008001000200020001800000060
:1008F000001C802248414041C04200440004800462
:1009000048054006800300038004001400440014DE
:10091000000400040003000000000020003800185C
:100920000008000488044005480680030000000019
:100930001000080004000800100000040004000378
:100940000004000400030004000400030000000091
:100950000001800240042008000460045004900458
:100960000803801C40224041404580508044804024
:100970008020002000200010201008082007000020
:100980000000080010000003800400040004640458
:1009900052049204090300000000200030003800D7
:1009A00008000000000020003800180008002000A7
:1009B0003000380008002000300038000800000037
:1009C0002000380018000800200038001800080037
:1009D000000400040004000F801440328029000449
:1009E0000000000100010001000100010001000100
:1009F00000000001000100010001000100010001F0
:100A0000000100038004000400046004500490040A
:100A100008030000801C402240414041804080404B
:100A20008040802000000000200840048002000177
:100A30000038004400400040004800540054003496
:100A40000004000400158044801400050006000422
:100A5000801C40224041404580508044804080209E
:100A6000000008001004200440028001F803000484
:100A700000380044004000C0004800D40054003456
:100A80000000000080034003000414048A040A03E9
:100A9000000008001000200C400A8009F80E000039
:100AA000F0030804E409140A140A24090804F003F2
:100AB00000004000A00010014802A0001001080240
:100AC0000000F0030804F40B94089408640B080475
:100AD000F003000030004800480030000000000033
:100AE000801080108010F01780108010801000009F
:100AF0000038804460405040504800540054003456
:100B0000000000000003000300000000008000A0BF
:100B1000004000000000E004900400000802100102
:100B2000A00048021001A00040000000000070007A
:100B30008800080108160800300000040024800422
:100B4000002300058006800200020000040002006D
:100B5000FA070200010000000A000500F507000086
:100B6000004050402823A8248014000F000000A05B
:100B7000F8570050001E28211420142000200026C1
:100B80000015800C80000000F807000380040004BA
:100B90000024000400040004000300008803400453
:100BA00048048004000300038004000420040004BF
:100BB000200400040003000380040004200408044F
:100BC000200400040003801C402240414041804832
:100BD000804080408020801C402240414041804035
:100BE000804080408020801C40224841404180401D
:100BF0008040804080200000000440048004000306
:100C000000000004480480040003002000200010BD
:100C1000001000080007002000200010001020082D
:100C20000007001C0022004000400040004000235C
:100C3000001C000400040003000400040003001C66
:100C4000002200400040004000400023001C00043F
:100C500020040803200400040003001C00220040BC
:100C60000040004000400023001C00040006000576
:100C70008004800480040003001C00220040004027
:100C8000004000400023001C000400061005800402
:100C9000800480040003000020084004800200015A
:100CA00080024004200800040004F8070006000544
:100CB00080048004000300040004F8070006000517
:100CC000900480040003C01C202320410041804088
:100CD00000400020C01C24232041004180400040EF
:100CE0000020000400040004000380040004000449
:100CF000000400048004480540068003001C002214
:100D000000400040104380449024001F00038004F2
:100D1000000400046004500490040803000E001155
:100D20000010001000100008F80700F80004000789
:100D3000800480040003001C00220040404000406A
:100D400000400021001E8003400440048004000392
:100D500000400040002380248014000F00000001A8
:100D60008002800260028001000200040000140181
:100D70008A028A0268028001000200040000000169
:100D8000840280026402800100020004001E00212F
:100D900000A0002000A000260015800C8000001E8E
:100DA000002100200020002000260015800C80007B
:100DB000000400040005800680068005001C8022D7
:100DC00040414041C042004400040004900400033C
:100DD000000400040004F8030004800548064004F1
:100DE00080040002000400040005800690068005CF
:100DF0000000400040004000480240004000400029
:100E000000040004000200038004800400030004C6
:100E10006404520492040903000400148044001383
:100E2000000400040004800550062003C004800470
:100E300000030000FFFFFFFFFFFFFFFFFFFFFFFFBB
:100E4000FFFFFFFFFFFFFFFFFFFFFFFFFFFFFFFFB2
:100E5000FFFFFFFFFFFFFFFFFFFFFFFFFFFFFFFFA2
:100E6000FFFFFFFFFFFFFFFFFFFFFFFFFFFFFFFF92
:100E7000FFFFFFFFFFFFFFFFFFFFFFFFFFFFFFFF82
:100E8000FFFFFFFFFFFFFFFFFFFFFFFFFFFFFFFF72
:100E9000FFFFFFFFFFFFFFFFFFFFFFFFFFFFFFFF62
:100EA000FFFFFFFFFFFFFFFFFFFFFFFFFFFFFFFF52
:100EB000FFFFFFFFFFFFFFFFFFFFFFFFFFFFFFFF42
:100EC000FFFFFFFFFFFFFFFFFFFFFFFFFFFFFFFF32
:100ED000FFFFFFFFFFFFFFFFFFFFFFFFFFFFFFFF22
:100EE000FFFFFFFFFFFFFFFFFF9EF390F411F411E0
:100EF000F411F411F411F411F411F3F1F432F515C5
:100F0000FEFCFFFFFFFFFFFFEF7D8C51528A318611
:100F100031864A498430EF7DFFFFFFFFFFFFFFFF6F
:100F2000FFFFFFFFFF5DE8E7E9A9E9A9E9A9E9A952
:100F3000E9A9E9A9E9A9E9A9E9A9E989E928EA0B5F
:100F4000FE396C3010A22945296531863186296524
:100F5000294510A27BCFFFFFFFFFFFFFFFFFFFFF31
:100F6000FF5DE948EA0AEA0AEA0AEA0AEA0AEA0A3C
:100F7000EA0AEA0AE9EAEA0AEA0AE9EAE969E22B9C
:100F80004228298631A631A631A631A631A631A63E
:100F9000212431A6FFFFFFFFFFFFFFFFFF5DE948B0
:100FA000EA0AEA0AEA0AEA0AEA0AEA0AEA0AEA0AA1
:100FB000EA0AEA0AEA0AEA0AEA0AF1EAFA4C4228E2
:100FC000298631A631A631A631A631A631A62965DA
:100FD0002945FFFFFFFFFFFFFF5DE948EA0AEA0A34
:100FE000EA0AEA0AEA0AEA0AEA0AEA0AEA0AEA0A61
:100FF000EA0AEA0AEA0AEA0AF1EAFA6C21A631A642
:1010000031A631A631A631A631A631A629654A49B5
:10101000FFFFFFFFFF7DE928EA0AEA0AEA0AEA0A77
:10102000EA0AEA0AEA0AEA0AEA0AEA0AEA0AEA0A20
:10103000EA0AEA0AEA0AF9EA8A6A298631A631A6A0
:1010400031A631A631A631A631A618E3AD75FFFF52
:10105000FF7DE928EA0AEA0AEA0AEA0AEA0AEA0A4B
:10106000EA0AEA0AEA0AEA0AEA0AEA0AEA0AEA0AE0
:10107000EA0AF1EAEA6C21A631A631A631A631A628
:1010800031A631A631A631862965FFFFFF7DE9280B
:10109000EA0AEA0AEA0AEA0AEA0AEA0AEA0AE98932
:1010A000E968E9EAEA0AEA0AEA0AEA0AEA0AE9EA85
:1010B000FA0B39A61904318631A631A631A631A61C
:1010C00031A631A618C3DEFBFF7DE928EA0AEA0A49
:1010D000EA0AEA0AEA0AEA0AE989FD97FEBBE9890F
:1010E000E9EAEA0AEA0AEA0AEA0AEA0AF169E639F0
:1010F000FFFF2965318631A631A631A631A631A67A
:1011000029459CF3FF7EE928EA0AEA0AEA0AEA0A84
:10111000EA0AEA0AE948FFFFFFFFEA8DE9EAEA0A7C
:10112000EA0AEA0AEA0AE9EAE989FFFFFFFF6B6DCA
:10113000296531A631A631A631A631A629658410CC
:10114000FF7EE928EA0AEA0AEA0AEA0AEA0AEA0A59
:10115000E989FDB7FF1CE989E9EAEA0AEA0AEA0A2D
:10116000EA0AEA0AE989FD97F7DF210431A631A6E8
:1011700031A631A631A631A629657BEFFF7EE9288D
:10118000EA0AEA0AEA0AEA0AEA0AEA0AE9CAF34FB2
:10119000F4F5E9A9EA0AEA0AEA0AEA0AEA0AEA0A1C
:1011A000E9CAFB2FC69A210431A631A631A631A681
:1011B00031A631A629657BEFFF7EE928EA0AEA0A13
:1011C000EA0AEA0AEA0AEA0AE9CAF390F536E9A95C
:1011D000EA0AEA0AEA0AEA0AEA0AEA0AE9CAFB6F3A
:1011E000C6BA210431A631A631A631A631A631A650
:1011F00029657BEFFF7EE928EA0AEA0AEA0AEA0A99
:10120000EA0AEA0AE9CAF390F536E9A9EA0AEA0A1B
:10121000EA0AEA0AEA0AEA0AE9CAFB70C6BA21043B
:1012200031A631A631A631A631A631A629657BCFDC
:10123000FF7EE928EA0AEA0AEA0AEA0AEA0AEA0A68
:10124000E9CAF390F536E9A9EA0AEA0AEA0AEA0ADB
:10125000EA0AEA0AE9CAFB90C6BA210431A631A615
:1012600031A631A631A631A629657BCFFF7EE928BC
:10127000EA0AEA0AEA0AEA0AEA0AEA0AE9CAF39080
:10128000F536E9A9EA0AEA0AEA0AEA0AEA0AEA0AE9
:10129000E9CAFB90C6BA210431A631A631A631A60F
:1012A00031A631A629657BCFFF7EE928EA0AEA0A42
:1012B000EA0AEA0AEA0AEA0AE9CAF390F536E9A96B
:1012C000EA0AEA0AEA0AEA0AEA0AEA0AE9CAFB9028
:1012D000C6BA210431A631A631A631A631A631A65F
:1012E00029657BCFFF7EE928EA0AEA0AEA0AEA0AC8
:1012F000EA0AEA0AE9CAF390F536E9A9EA0AEA0A2B
:10130000EA0AEA0AEA0AEA0AE9CAFB90C6BA21042A
:1013100031A631A631A631A631A631A629657BEFCB
:10132000FF7EE928EA0AEA0AEA0AEA0AEA0AEA0A77
:10133000E9CAF390F536E9A9EA0AEA0AEA0AEA0AEA
:10134000EA0AEA0AE9CAFB90C6BA210431A631A624
:1013500031A631A631A631A629657BEFFF7EE928AB
:10136000EA0AEA0AEA0AEA0AEA0AEA0AE9CAF3908F
:10137000F536E9A9EA0AEA0AEA0AEA0AEA0AEA0AF8
:10138000E9CAFB90C6BA210431A631A631A631A61E
:1013900031A631A629657BEFFF7EE928EA0AEA0A31
:1013A000EA0AEA0AEA0AEA0AE9CAF390F536E9A97A
:1013B000EA0AEA0AEA0AEA0AEA0AEA0AE9CAFB7057
:1013C000C6BA210431A631A631A631A631A631A66E
:1013D00029657BEFFF7EE928EA0AEA0AEA0AEA0AB7
:1013E000EA0AEA0AE9CAF390F556E9A9EA0AEA0A1A
:1013F000EA0AEA0AEA0AEA0AE9CAFB70C6BA21045A
:1014000031A631A631A631A631A631A629657BEFDA
:10141000FF5DE8A6E989E969E968E968E968E968DA
:10142000E928F30EF4F5E907E968E968E968E9688D
:10143000E968E968E928F2EEBE79002018C318C30C
:1014400018C318C318C318C310826B6DFFFFF5765D
:10145000FDB7FDD8FDD8FDF8FDF8FE19FE18FEBB5E
:10146000FF3DFDF8FE19FE19FE19FE19FE19FE19C1
:10147000FE19FEBBFFFFE73CEF5DEF5DEF5DEF5D4B
:10148000EF5DEF5DEF5DF79EFFFFFFFFFFFFFFFFEB
:10149000FFFFFFFFFFFFFFFFFFFFFFFFFFFFFFFF5C
:1014A000FFFFFFFFFFFFFFFFFFFFFFFFFFFFFFFF4C
:1014B000FFFFFFFFFFFFFFFFFFFFFFFFFFFFFFFF3C
:1014C000FFFFFFFFFFFFFFFFFFFFFFFFFFFFFFFF2C
:1014D000FFFFFFFFFFFFFFFFFFFFFFFFFFFFFFFF1C
:1014E000FFFFFFFFFFFFFFFFFFFFFFFFFFFFFFFF0C
:1014F000FFFFFFFFFFFFFFFFFFFFFFFFFFFFFFFFFC
:10150000FFFFFFFFFFFFFFFFFFFFFFFFFFFFFFFFEB
:10151000FFFFFFFFFFFFFFFFFFFFFFFFFFFFFFFFDB
:10152000FFFFFFFFFFFFFFFFFFFFFFFFFFFFFFFFCB
:10153000FFFFFFFFFFFFFFFFFFFFFFFF40F0200067
:1015400070472DE9F14FB0B0924604910DF1420180
:101550003A9A2B9199464A7000200AE01AF8011B2A
:101560000498309A90470028049000F044860D9823
:10157000401C0D909AF8000058B12528EED10020AB
:10158000002100220790089109920A910B920C9178
:1015900004E00D9800F031BE41F001011AF8010F8E
:1015A0002028F9D023280CD02B2804D02D2805D0B2
:1015B000302809D00BE041F00201EFE741F00401CF
:1015C000ECE741F00801E9E741F01001E6E72A28DD
:1015D0000FD1D9F8002052F8040BC9F800200028D8
:1015E0000F9003D540420F9041F004010AF1010A27
:1015F00014E00F92DFF8082C0AE00F9B934205DA03
:1016000003EB830400EB440030380F900AF1010A29
:101610009AF80000A0F130030A2BEED39AF80020CC
:101620002E2A03D04FF0FF300E9029E01AF8010F58
:101630002A2809D1D9F8002052F8040BC9F8002053
:101640000E900AF1010A1BE02D280CBF0AF1010AD5
:10165000002000220E92DFF8A84B0BE040B90E9B51
:10166000A34205DA03EB830502EB4502303A0E9202
:101670000AF1010A9AF80020A2F130030A2BEDD3F7
:10168000ADF840100FF67C309AF8001000F0DAFE4A
:1016900008B11AF8010B8DF842009DF84200682845
:1016A00005D19AF8001068290CD1622006E06C2858
:1016B00004BF9AF800106C2904D171208DF8420003
:1016C0000AF1010A12AA06921AF801BBBBF1250021
:1016D0002CD01C3800F09781001F022840F2938123
:1016E000133800F0BA84093800F08D81801E00F0B4
:1016F0004F85401E00F0FC84401E022840F283818A
:10170000001F00F0F584401F00F0F280401E00F042
:10171000A484401E00F0DA80C01E0ED0801E00F0AF
:101720009C84C01E00F0998400F03DBD012225215B
:1017300007928DF8481000F042BDD9F8000050F82B
:10174000044BC9F80000002C059440F0AB802B99A5
:101750004878002800F0A1804FF0FF340FF6AC204D
:1017600000F080FE241A40F0468500F028BD0123D9
:101770006A4602A9304600F00DFE002840F03B8585
:10178000641EF4D13096079C12AF74B1309E17F8E6
:10179000011B0498B0470028049000F02C850D9898
:1017A000401C641E0D90F2D130960A9C3021002C12
:1017B0008DF800100CDD309E01236A4602A93046E8
:1017C00000F0E8FD002840F01685641EF4D1309644
:1017D000059F089C74B1309E17F8011B0498B04710
:1017E0000028049000F007850D98401C641E0D90A1
:1017F000F2D130960B9C3021002C8DF800100CDDBE
:10180000309E01236A4602A9304600F0C3FD00283D
:1018100040F0F184641EF4D1309605980899099C33
:10182000471874B1309E17F8011B0498B047002880
:10183000049000F0E0840D98401C641E0D90F2D1DD
:1018400030960C9C3021002C8DF800100CDD309E61
:1018500001236A4602A9304600F09CFD002840F0B2
:10186000CA84641EF4D130969DF8400041077FF58C
:1018700081AE2020002D8DF800007FF77BAE309CDC
:1018800001236A4602A9204600F084FD002840F0AA
:10189000B2846D1EF4D130946CE60FF6583005908A
:1018A00000F08DBC0E9D002D04D5204600F0FAFD01
:1018B000044608E02A460021204600F0FDFD0028ED
:1018C00014BF041B2C46089400F079BCD9F8001012
:1018D00051F8040BC9F8001020F00002002121F09B
:1018E000FF33CDE9022312AC0594782100F04CBC03
:1018F0002B99487820B14FF0FF340FF6C8202FE71E
:101900009DF84200622860D0682817D06A283FD02E
:101910006C2806D0712847D074282CD07A281DD086
:1019200062E0D9F8001051F8040BC9F80010002843
:1019300066D14FF0FF340FF6A42011E7D9F800105C
:1019400051F8040BC9F8001020B94FF0FF340FF61E
:101950008C2005E70D99018000F031BCD9F800100A
:1019600051F8040BC9F80010002849D14FF0FF349A
:101970000FF66820F4E6D9F8001051F8040BC9F806
:10198000001000283CD14FF0FF340FF65020E7E65E
:10199000D9F8001051F8040BC9F8001080B94FF0C5
:1019A000FF340FF63820DBE6D9F8001051F8040BAD
:1019B000C9F8001020B94FF0FF340FF62020CFE611
:1019C0000D9AD317C0E90023F9E3D9F8001051F8B4
:1019D000040BC9F8001020B94FF0FF340FF6FC10CB
:1019E000BEE60D990170EAE3D9F8001051F8040B36
:1019F000C9F8001020B94FF0FF340FF6E010AFE641
:101A00000D990160DBE39DF842004C2807BFD9F82F
:101A10000010CA1DD9F80000C21D22F00702C9F843
:101A20000020D2E900010832C9F80020CDE9020106
:101A3000C80F02D007982D210AE0BDF840008107A9
:101A400002D507982B2103E0C00705D50798202170
:101A500012AA1154401C079012A807994BF02003BA
:101A600000EB010CDDE90201CDE92C01612BCDF881
:101A700014C021AC0BD00E98002848BF062105D415
:101A800004BF4BF02000672801D101210E91DDE950
:101A900002014F0047EAD0777E15FF174FF0FF3263
:101AA000974208BF964210D1090341EA1051000342
:101AB000002908BF002808D0ABF1610503211A2DC9
:101AC000089118D30FF6341110E0DDE902014A0045
:101AD000521512F1010F11D108030FD1ABF16105BD
:101AE00003211A2D08911FD30FF618110322604607
:101AF00000F00EFD63E30FF60011F7E7DDE90201E8
:101B00006A4600F059FDCDE902014BF02000612842
:101B100011D1059830220270811C0591BBF1610F33
:101B20000CBF7821582102E00FF6D401DEE74170A6
:101B30000798801C0790DDE9020120F0000231F0D7
:101B4000004308BF002A02D10026002542E14BF0E5
:101B50002008B8F1610F40F092800E99002947BF2C
:101B600021200190491C0191019FDDE92C017F1C7E
:101B700000220023DDE9024500F056FD38BF85F064
:101B8000004500988DF88420001F002F00900DF173
:101B9000850632DD204629460022002300F05EFD46
:101BA0002BD21C2200F074FD04460D4600F00EFE00
:101BB000FF1F002F804609DD00F024FE02460B4681
:101BC0002046294600F0E6FE04460D46F01D07219A
:101BD000B8F1000F0CDD491E5EBF08F00F0200F8DF
:101BE000012D4FEA2818F3D502E0002200F8012D5C
:101BF000491EFAD5C61D002FCCDC0DF18500361A22
:101C000001980DF185048642D8BF304600282FD4B4
:101C1000B04206DA0DF185010A5C082AA8BF0F213F
:101C200000DA0021024621AB134400E0401E13F805
:101C30000159521E8D42F9D00F2904D10DF18501B1
:101C40008B5C5B1C8B54002A04D50099091D21ACC8
:101C5000401C0091411E0BD4621813783033DDB262
:101C60003A2DA4BF5B443A3B491E02F80139F4D532
:101C70000E9A002A40F1AC80411E0E91A8E0009916
:101C8000DFF8002747F29750414391FBF2F20092B0
:101C9000DDE92C45C2F10702002A25F0004504DDEC
:101CA0002046294600F04AFB0BE052420020DFF8B4
:101CB000D81600F043FB02460B462046294600F0AA
:101CC000DBFE04460D46B8F1660F06BF009F0A37DB
:101CD00006270E983F18142FC8BF142730208DF800
:101CE00084000DF18506002F34DD2046294600F0E2
:101CF000E7FF01460A4606F1080304200A26B2FB64
:101D0000F6F606EB860EA2EB4E02303203F8012CFB
:101D10000A22B6FBF2F202EB820EA6EB4E0630363A
:101D2000401E03F8026DE9D1083F002F03F10806B9
:101D3000D9DD084600F0D6FF02460B46204629466C
:101D400000F028FE0022DFF8443600F0D9FF0446F8
:101D50000D46CAE70DF18500361A0DF1850404E041
:101D60000098401E761E0090641C20783028F7D022
:101D7000B8F1660F02D10098401C04E0B8F1650F7D
:101D80000CBF012000200E9940188642B8BF701E7B
:101D900000281DD4B04204DA215C3429C8BF39219F
:101DA00000DC30210246631E9D1800E0401E15F83D
:101DB0000169521E8E42F9D0392902D1A15C491C19
:101DC000A154002A04D50099491C1C46401C0091CE
:101DD0000646009D01F06AF8406A0778DDF8388011
:101DE00030B2002802DC01260FF21C644BF0200008
:101DF000662808BF6D1C16D0672845D128B210F19F
:101E0000040F47DB404545DA9DF840006D1C010793
:101E100003D430B24045D8BF804628B2B8EB0008A2
:101E200048BF4FF000080FFA85FBBBF1000F00F32D
:101E3000B3800898411C0891302205990A54B8F1E2
:101E4000000F03DC9DF84000010704D50898411CF1
:101E5000089105990F5418EB0B0FB8BFC8F1000596
:101E60002DB26842454432B20B909542B8BF2E461F
:101E7000059B089836B2099632462146184400F070
:101E800047FBAD1B0C95D1E0BBF1610F17D14FF0B3
:101E9000700B19E030B2404504DA9DF840100A0793
:101EA00058BF8046B8F1010848BF4FF00008BBF1A9
:101EB000670F14BF4FF0450B4FF0650B04E0BBF10B
:101EC000410F08BF4FF0500B0898411C0891B8F122
:101ED000000F059914F8012B0A5403DC9DF840000B
:101EE00001071AD50898411C0891B8F1000F05990F
:101EF0000F5412DD761E30B28045B8BF46460598B5
:101F0000089B32B22146184400F002FB089836B212
:101F100030180890A8EB06000B900598089901442A
:101F200028B2002881F800B003D42B204870891C07
:101F300004E02D224A700546891C6D4200202CAA1F
:101F40000AE02B460A2593FBF5F505EB8504A3EB88
:101F5000440302F8013B401C2DB2002DF1DC0128A6
:101F600006DC4BF02002652A04BF302201F8012B69
:101F700000282CAA08D1302001F8010B06E0401EF1
:101F8000135C303301F8013B0028F8DC059A08980F
:101F90001044091A099149E030B229B288421CDA8A
:101FA0000598089B32B22146184400F0B1FA08990E
:101FB00036B271180891ABEB0600B8F1000F0B9028
:101FC00003DC9DF84000020704D5059847540999A1
:101FD000491C0991CDF8308028E00598089B2AB269
:101FE0002146184400F094FA0898761B5844B8F13A
:101FF000000F089003DC9DF840100A0703D5411C30
:10200000089105990F5430B28045B8BF46460598EF
:10201000089B32B204EB0B01184400F079FA0898DF
:1020200036B230180890A8EB06000B909DF84000DF
:1020300000F01400102840F0C280079A08980B990D
:10204000821809988A1882180C980F99801888426B
:1020500080F2B580081A0A90B1E09DF8420062282B
:1020600008D068280ED06A2814D06C281FD0712898
:1020700010D01CE0D9F8001051F8040BC9F800107A
:10208000C0B21AE0D9F8001051F8040BC9F80010DA
:1020900080B212E0D9F80000C21D22F00702C9F890
:1020A0000020D2E900010832C9F8002006E0D9F882
:1020B000001051F8040BC9F800100021CDE902010D
:1020C0009DF8400002075AD5DDE90201002908BF4A
:1020D000002854D04BF02002782A50D1079812A93A
:1020E00030230B54401C421C079201F800B046E01C
:1020F0009DF84200622808D068280ED06A2814D0C3
:102100006C281FD0712810D01CE0D9F8001051F8AD
:10211000040BC9F8001040B21AE0D9F8001051F8C9
:10212000040BC9F8001000B212E0D9F80000C21D7B
:1021300022F00702C9F80020D2E900010832C9F8EC
:10214000002006E0D9F8001051F8040BC9F800107F
:10215000C117CDE90201002902D507982D210AE017
:10216000BDF84000810702D507982B2103E0C00786
:1021700005D50798202112AA1154401C079012A8D7
:10218000079901440591594602A800F04DF816E060
:1021900001200790D9F8001051F8040BC9F800107D
:1021A0008DF848000BE001202521BBF1000F0790BE
:1021B0008DF8481003D0022107918DF849B00F9D8A
:1021C00007980A992D1A08986D1A0B992D1A0998D3
:1021D0006D1A0C992D1A9DF840006D1A41073FF5B4
:1021E000D2AA2020002D8DF800007FF7CCAA309EC7
:1021F0002C46FFF7BCBA4FF0FF3031B0BDE8F08F8E
:10220000CBCCCC0C686A6C747A4C00007072696E2E
:1022100074665F733A20626164202573206172677F
:10222000756D656E740000002DE9FC4D064688460C
:10223000376940466F2808BF082405D0FFF77EF9AC
:10224000782814BF0A241024D6E900013C258246D0
:102250008B46B8F1640F18BFB8F1690F05D100299A
:1022600003D5DAF1000A6BEB4B0BBBF1000F08BF93
:10227000BAF1000F0CD1306B50B9082C3AD196F856
:102280003800010736D530223B2587F83B2031E066
:102290008DF80080504659462246002300F00AFE81
:1022A0003032D0B26D1E3A2801950EDA7A5550467A
:1022B00059462246002300F0FDFD82465FEA010BED
:1022C00008BFBAF1000F05D108E09DF80000121810
:1022D000513AEBE7F06879198842DBD3082C09D131
:1022E00096F83800010705D5785D302802D06D1EBC
:1022F00030207855C5F13C02306BB26179198242C9
:10230000F16008DA318F821A4FF6EF7001403187A1
:102310003262BDE8F38D00280ED596F8380000F043
:102320001400102808D1736B7069316A1B1A5B1A8C
:102330009B1A002BC8BF3362BDE8F38D2DE9D04353
:1023400006460F4614464FF00008DFF8449012E0AE
:10235000E00707D542464B463046394600F0D0FCF0
:1023600006460F464046494642464B4600F0C8FCEA
:10237000641080468946002CEAD130463946BDE8D3
:10238000D0830000A08601000000F03F84D7974171
:1023900000002440F8B505460E4617461C460020AE
:1023A0005CB117F8011BB068A847B06030B1F06AA3
:1023B000401CF0620020641EF3D1F2BD4FF0FF30EC
:1023C000F2BD00007072696E74665F733A20256E0C
:1023D00020646973616C6C6F776564007072696EFC
:1023E00074663A2062616420256E20617267756DA3
:1023F000656E7400000000006E616E004E414E007C
:10240000696E6600494E4600300030B50168846848
:102410004218416802EB5103C90703D54C4401E05F
:10242000491C08D19A4218BF12F9011B01D10C3086
:1024300030BD12F8015B002904F8015BF0D4491E9D
:10244000F7D5EFE7C9B202788A421AB11CBF10F87B
:10245000012FF9E718BF002070470268531C036082
:102460001170704780B500B906A005490B681BB113
:1024700022220021984701E000F034FE222002BD14
:1024800044020020636F6E73747261696E74206819
:10249000616E646C65723A20626164206D6573736D
:1024A0006167650000F1010310F8011B11B110F81C
:1024B000011BFBE7C01A7047C9B2830706D0521E42
:1024C00022D310F8013B9942F7D11FE0083A13D309
:1024D00002F1040241EA012141EA014150F8043BC2
:1024E000121F21BF4B40A3F1013C2CEA030C1CF04E
:1024F000803FF3D0C9B2001F0832521E24BF10F82B
:10250000013B91EA030FF8D818BF0120401E704725
:1025100062B38B0708D0521E11F8013B00F8013B53
:1025200000F024808B07F6D1830740F0208000BFA5
:10253000103A07D330B4B1E83810103AA0E8381098
:10254000F9D230BC530724BFB1E80810A0E8081046
:1025500044BF51F8043B40F8043BD20724BF31F894
:10256000022B20F8022B44BF0B7803707047121F18
:1025700017D35B0009D151F8043B20F8023B1B0C38
:10258000121F20F8023BF6D20BE051F8043B00F892
:10259000013B1B0A20F8023B1B0C121F00F8013BF9
:1025A000F3D238BF121D521E24BF11F8013B00F8B0
:1025B000013BF8D870472E0010B5144600F002F821
:1025C000226010BDC1F30A5343B14A0012F5001F47
:1025D00028D2A3F2FE32A1EB0251704750EA410C1F
:1025E00020D001F0004C31EA0C01B1FA81F204BFB5
:1025F000B0FA80F3D2180B3AB2F120032CBF00FAE4
:1026000003F1914041EA0C013EBFC2F1200C20FAD7
:102610000CF319439040524240F2FD33D21A01EBC1
:10262000035170470022704741EA030C50EA4C0CFA
:1026300052EA0C0C4FF4001C09D307D01CEB410FDD
:102640009CBF1CEB430F8B4208BF824270471CEBC0
:10265000430FFBD8994208BF9042704741EA030CF0
:1026600050EA4C0C52EA0C0C4FF4001C09D307D072
:102670001CEB410F9CBF1CEB430F994208BF9042DB
:1026800070471CEB410FFBD88B4208BF824270475A
:10269000124254D440F2FF7C1CEA11530FD0634520
:1026A00031D09B1863453CBF01EB0251704701F0EC
:1026B000004141EA0C510020AFF30080704750EA1E
:1026C000410320D001F0004C91EA0C011CD0B1FA7A
:1026D00081F30B3B9A420DD9D21A994051EA0C0171
:1026E000C3F1200C20FA0CFC61449840531C40F2CA
:1026F000FF7CD7E7914041EA0C01C2F1200C20FA9F
:102700000CF3194390407047B0FA80F31533202B37
:10271000E0D3202AEED3203A203B9A4209D9D21A9C
:1027200000FA03F141EA0C010020531C40F2FF7C47
:10273000B8E700FA02F141EA0C010020704752426A
:1027400040F2FF7C1CEA11530DD06345DBD0B2EBA5
:10275000030C3CBFA1EB025170470CF1010221EACE
:10276000035141F4801150EA410CCCD001F0004CEF
:10277000352A27DC30B481EA0C01B2F1200309DAF2
:10278000C2F12003044601FA03F5D0402843D140AA
:102790009C400CE0C3F12002450020FA03F418BF6E
:1027A00044F0010421FA03F091400C43002174F13C
:1027B000004550F1000051EB0C01244230BC7FF485
:1027C0007BAF70476146002076E70000C1F30A53F3
:1027D00040F21E42D31A0CDDCA0283F3070342EA19
:1027E000505242F00042DA4002EBE17282EAE170BC
:1027F00070476FEAE17203F2E13008B182F0004005
:102800007047000010F0004160B148BF4042B0FA8C
:1028100080F29040D21CC2F5846241EA025202EB7F
:10282000D021400570470000841A71EB030604D2E2
:102830006E40001BB141121973414FF4001C1CEB98
:10284000410F34BF7CEB430683E00C0DA4EB135621
:10285000362E00F37C80012E45EAC32341DC43EA97
:10286000525312BFD20292025B08240545EAC121ED
:1028700041EA5051D2EBC020994125D407D1B0FA9A
:1028800080F610FA06F162D00020203608E0B1FA96
:1028900081F6B140C6F1200220FA02F21143B040A5
:1028A0004FEAF474B4EB465434F001064FEA740472
:1028B0000AD8D6F50016760D04F00044F04061FA0F
:1028C00006F25040F1404840C00A40EA415021F031
:1028D000004128BF5FEA500550F1000044EBD121D0
:1028E00035E0DB0A45EAC121C90AB6F120050EDD53
:1028F00042EA0242120CC5F1200603FA06F6EB404A
:1029000042EA06056D42984161F100010DE062FA6C
:1029100006F5F240554063FA06FC82EA0C02F340E9
:102920005A406D42904161EB030111F4801F05D1C3
:10293000641E620502D06D004041494121F48011BE
:10294000430875F1004350F1000041EB045170BCA5
:1029500070471CEB410F15D223F0004352EA4306A7
:102960000BD04FEA4C0CBCEB410F04D80C0D661E8B
:10297000342EB7DDEBE7801A994150EA410608BFD3
:102980000021E4E708BF1CEB430F28BF6FF00001F4
:10299000DDE7000070B491EA030F4FF000457FF5CA
:1029A00043AF6B40841A71EB030603D2001BB141A5
:1029B000121973414FF4001C1CEB410F34BF7CEB28
:1029C000430442E00C0DA4EB1356352E4FDC45EAD0
:1029D000C323DB0A45EAC121C912B6F120050DDD8A
:1029E00063FA05F6EB4086EA0305124218BF45F08C
:1029F0000105C01851F100010CD213E062FA06F58E
:102A0000F2405540F3415A40B340F3405A408018D9
:102A1000594107D349085FEA30005FEA350528BF0E
:102A200045F0010501F58011420875F1004250F1B1
:102A3000000041EB04514E0016F5001F70BC38BF7A
:102A400070470020090D090570471CEB410F10D29B
:102A500052EA43060BD0BCEB410F05D80C0DAB433B
:102A6000661E342EB6DD02E0AB438018594170BCBF
:102A7000704770BC70470000F0B540F2FF7581EA06
:102A8000030C0CF0004C15EA11541DBF15EA135746
:102A9000AC42AF42E5E0BC41C1F31301C3F3130301
:102AA000801A994143F4801304D2641E00184941EE
:102AB00080185941C90241EA5051B1FBF3F603FBBA
:102AC0001611A2FB0675D7EBC020A94102D2761ED3
:102AD00080185941C90241EA5051B1FBF3FE03FB92
:102AE0001E11A2FB0E75D7EBC020A94103D2AEF197
:102AF000010E80185941890241EA9051760546EA53
:102B00008E2EB1FBF3F603FB1611A2FB0675D7EB75
:102B10008020A94102D2761E80185941C90241EA9B
:102B200050514EEA060EB1FBF3F603FB1611A2FB61
:102B30000675D7EBC020A94102D2761E80185941F4
:102B4000C90241EA5051B1FBF3F703FB1711A2FB95
:102B50000735D3EBC020A94167F100070CBF004245
:102B600047F0010766F3D5274FEA1E31B80814F580
:102B7000806412DDBD0775F1004250EB0E5051EB41
:102B8000045111F5801F5CBF41EA0C01F0BD4CF00F
:102B90007F6141F0E0410020F0BDBD076D0840EAD3
:102BA0000E5041F48011D4F10104B4F120060ADA88
:102BB000C4F120060200E04001FA06F3E1401843A8
:102BC000B24015430EE0342C13DCC6F1200445EA74
:102BD00040056D0820FA06F2154321FA06F0A140DF
:102BE0000D43002175F1004250F1000051EB0C0142
:102BF000F0BD00205FEA0C01F0BDCFB992185B4137
:102C0000B3FA83F704BFB2FA82F6BF190B3FB7F1EC
:102C100020062FBF02FA06F3BB40C7F1200622FAB6
:102C200006F638BF3343BA401CB1E419641E33E7DB
:102C30007F4231F00041B1FA81F404BFB0FA80F66E
:102C4000A4190B3CB4F120062FBF00FA06F1A140F5
:102C5000C4F1200620FA06F638BF3143A0403C1BE1
:102C60001AE7AC421ABF05EA1357AF4212E050EA26
:102C700041061CBF52EA4306BFE750EA410730460F
:102C800061461CBF41EA0551F0BD52EA430C08BF42
:102C9000C143F0BD00204FF4001616EB410F98BF62
:102CA00016EB430F08BF16EB410F24BFC14305E0ED
:102CB00016EB430F0CBF61464CEA0551F0BD000016
:102CC000400D40F21E4C40EAC120BCEB115C40F0CC
:102CD000004003D48CF30701C84070476FEAE170ED
:102CE0007047000050B1B0FA80F18840C91CC1F5AE
:102CF0008461090501EBD02140057047014670470A
:102D000030B540F2FF7C1CEA11541DBF1CEA13557C
:102D1000644565453FE0641981EA030C6FF35F5336
:102D20000CF0004C43F48013C90241F0004141EA29
:102D3000505EC5021100A5FB020200284FF0000002
:102D4000EEFB01204FF00001E3FB052118BF42F02C
:102D50000102401800214941E3FB0E01A4F5806403
:102D60000D0302D292184041494154F1010470DD33
:102D7000450872F1004250F1000051EB0451A1F5F9
:102D8000801102D441EA0C0130BD40F2FF7E4CEAD2
:102D90000E51002030BD0CEA1355644518BF65453F
:102DA00081EA030C0CF0004C41D050EA410E1CBFEC
:102DB00052EA430E02E06146002030BD24422C441A
:102DC0001BD15FEA050EF6D0090302BF01460020C1
:102DD000AEF1140EB1FA81F5AEEB050401FA05FE71
:102DE0000C35C5F1200100FA05F5C8404EEA000E89
:102DF0006FF35F5343F480139CE733F00043B3FA5F
:102E000083F504BFB2FA82FE75440B3D641BB5F135
:102E1000200E2FBF02FA0EF3AB40C5F1200E22FAAE
:102E20000EFE38BF43EA0E03AA40641C7CE750EA5A
:102E3000410E14BF52EA430E6FF000014FF400152B
:102E400015EB430F8EBF194615EB410F9DE7B4D824
:102E500030BDD4F10104B4F120050FDAC4F120052E
:102E6000520828BF42F0010210FA05FE01FA05F5EA
:102E70007244E2BFE0402843E1400FE0352C9ADC89
:102E8000C5F1200452EA400220FA05F218BF42F0D0
:102E9000010231FA05F0A1400A43002172F100421B
:102EA00050F1000051EB0C0130BD000000487047AC
:102EB00040000020BBBBE1B1B2F5803F80F07E80D6
:102EC000022A1ED98C46B1FBF2F102FB11C31B048E
:102ED00043EA1043B3FBF2FC02FB1C3380B240EA2E
:102EE0000343B3FBF2F002FB103240EA0C40002334
:102EF0007047022A05D98446B0FBF2F002FB10C2EB
:102F000070474AB105D100F0010249085FEA30007C
:102F1000704700220023704700F0E8B80B00020061
:102F2000002100207047904271EB030CF6D3B3F5FB
:102F3000803F2FD2F0B5B3FA83F7B1FA81F4A7F14D
:102F40000F0E3D1B5340CEF1200602FA0EF2F34164
:102F50005340B5F10F0746D80F3C2C444140C4F113
:102F60002006A040F1414140B1FBF3F603FB1611EE
:102F7000A2FB0645001BA94102D2761E80185941CA
:102F800080EA010221FA0EF362FA0EF200215A40A1
:102F90003046F0BD30B4B1FBF3FC03FB1C11A2FBC7
:102FA0000C45001BA94103D2ACF1010C801859411A
:102FB00030BC02460B46604600217047B2F1807F6C
:102FC00065D3F0B5B2FA82F7B1FA81F4C7F10F0612
:102FD0003D1B22FA06F307F1110EF24120355A404B
:102FE000B5F10F07B8D94140C4F12006A040F14126
:102FF0004140B1FBF3FC03FB1C11A2FB0C45001B81
:10300000A94103D2BCF1010C801859410F2F12D3F2
:103010000F3FC90341EA5041B1FBF3F603FB161120
:10302000A2FB0645D4EBC030A94102D2761E80181F
:10303000594146EACC3C07B34140C7F12006B840AD
:10304000F1414140B1FBF3F603FB1611A2FB06452B
:10305000001BA94102D2761E8018594180EA010264
:1030600021FA0EF3C7F1200462FA0EF20CFA07F00F
:103070005A402CFA04F13043F0BD80EA010221FAF3
:103080000EF3002162FA0EF260465A40F0BD8C4603
:10309000B1FBF2F102FB11C31B0243EA1063B3FB65
:1030A000F2FC02FB1C331B024CEA002043EA1063D3
:1030B000B3FBF2FC02FB1C331B024CEA002043EA88
:1030C0001063B3FBF2FC02FB1C331B024CEA002032
:1030D00043EA1063B3FBF2FC02FB1C324CEA002013
:1030E00000237047012000F003B800007047000083
:1030F00080B5AFF30080024A11001820ABBEFBE799
:10310000260002002DE9F84F84B0DFF8544694F809
:10311000058094F809E00021019147466169C21DCC
:10312000D21B00258A5CE17AE2710023666A0A28D4
:1031300001FB0E6602D1236266629DE0404524BF1A
:1031400094F806908145F8D3618A002918BF002AB7
:10315000F3D094F80AA0E17811B1227AE2710DE07F
:10316000A0F1D401072924BFA0F1E701062901D36A
:10317000D12803D1216A0AFB12122262A0F1300287
:1031800061690A2A04D27F42CA1992F83720E27193
:10319000276A94F807C0A26A0AFB0C7A524506D245
:1031A0006662236203E0CF1D5B1CBA5C5519DAB27C
:1031B000A0EB0806B242F6DBA9EB0800C01DC00078
:1031C0000EFB050500F028F902E00098401CC0B293
:1031D0000090E2790098904247DA4FF0000B01E04E
:1031E00000F0FAF8677ABB45EFDA00F008F990F8DA
:1031F000018000F0F8F819BFA7EB0B0701FB0727C8
:10320000174601FB0B77002601E0761CF6B2A07A88
:103210008642E5DADDF808A04FF00009B2440CE080
:1032200099B21FFA8AF002E01FFA8AF198B200F010
:103230006CFC09F101005FFA80F9E07A8145E4DA7B
:103240000122AA40217818EA020F09EB070304D0F3
:10325000A269002992B2E7D1E2E720790028E8D0FC
:10326000E269002992B2DBD0DEE7216AA07A00FB96
:103270000212217B8A182262ABE02DE9F84F84B05C
:1032800002460020DFF8D84494F80590616994F86C
:103290000BE094F809C0D4F8248001900025D01DDB
:1032A000A0EB09060023885DE0710A2AA66A07D10F
:1032B0002662607B60440EFB008EC4F824E088E048
:1032C0004A4524BF94F806A09245F8D3618A0029A4
:1032D0001CBF216A00287CD0E07808B1207AE07118
:1032E00094F807B0A07A00FB0BF70097A07A276A42
:1032F00000FB1B7BBBF1000F05D500980EFB0C8E6D
:10330000C4F824E0311A0098091A207B091A2162B6
:1033100004E06169C91D5B1C085C4519D8B2A2EBC9
:1033200009018842F5DBAAEB0900C01DC0000CFBB7
:10333000050500F071F802E00098401CC0B2009052
:10334000E1790098884244DA4FF0000B01E000F088
:1033500043F8667AB345EFDA00F051F890F801903F
:1033600000F041F819BFA6EB0B0A01FB0A2A9246AE
:1033700001FB0BAA4FF0000803E008F101005FFA1F
:1033800080F8A07A8045E2DA029F0026474408E0F0
:1033900099B2B8B201E0B9B298B200F0B6FB761CAF
:1033A000F6B2E07A8642E8DA0122AA40217819EAE8
:1033B000020F06EB0A0304D0A269002992B2EAD1F7
:1033C000E6E720790028EAD0E269002992B2DFD04E
:1033D000E1E705B0BDE8F08F6D1C0BF10100EDB227
:1033E0005FFA80FB7047BDF80010A27A206A02FBEA
:1033F00001010291A078E17A626A00287047072DE6
:1034000003DD0198401C0025019001AB039A188848
:103410006169821888187047ADB2A80805EB507032
:10342000C0080390A5EBC005EDB2A80805EB5071EC
:10343000C908A5EBC105EDB2002070478028DFF870
:10344000281302DA00230B7070470A780870D82A14
:1034500006D03ED3DA2A28D00ED3DB2A35D038E086
:10346000A0F1A002172A38BF203018D3A0F1B7016D
:1034700004292ED2213012E0A0F18002042A38BFA4
:103480005C300CD301D1E1207047A0F18501042903
:1034900038BF5E3003D318BF8A2802D16330C0B270
:1034A0007047BE2815D181207047862801D18D2014
:1034B0007047982801D18E207047AF2801D1902005
:1034C0007047A92805D1DF2070478C2801D1ED2055
:1034D0007047002070472DE9F04FA14904469BB08A
:1034E000087B8DF80000002500260DF1040B09E093
:1034F000E8B2205CFFF7A2FF01001CBF0BF806003A
:10350000761C6D1C2046FEF7CDFFE9B28142EFD359
:1035100000200BF80600002500264FF00608DFF813
:1035200044928F4C0DF1380A0FE03846FFF7A5FEA4
:103530000AE01AF800002038C0B2FFF79EFE6D1EA8
:10354000E8B20028F5D10025E7731BF80600002833
:1035500000F08F80761C2C28074628D02E2828D0F3
:103560003B2822D03F281ED081280AD08D280AD09F
:103570008E280AD090280AD098280AD0E1280AD0AC
:1035800018E0EA2716E0EB2714E0EE2712E0EF2719
:1035900010E0DF270EE01BF80600761CC72814BFDA
:1035A000761EFB2706E0BF2704E01F2702E01D2749
:1035B00000E01C271BF806002C281DD02E281DD04B
:1035C0003B2817D03F2813D0812809D08D2809D057
:1035D0008E2809D0902809D0982808BFDF200EE057
:1035E000EA200CE0EB200AE0EE2008E0EF2006E005
:1035F000BF2004E01F2002E01D2000E01C20C12F9E
:10360000207429DBE27BC12A07DB08FB02F24A4473
:10361000A2F281421278520000E00022C12806DBAB
:1036200008FB00F04844A0F2824318780243D2B26B
:10363000022AACBF00209DF80000207308FB07F1B0
:1036400009EB01001044A0F286410878FFF715FE4F
:103650009DF80000207377E7A7F130010A29BFF435
:1036600064AF6D1CE9B230380AF801700A28F2D351
:1036700066E7FF20E0731BB0BDE8F08F3849486172
:10368000024690780872D3784B7253781B024B82B3
:103690001078C3184B8253794B71907988717047B9
:1036A000F0B52F4A936AD46A156A5178907301284D
:1036B00040F2DF1640F23F170FD1012918BF03294E
:1036C00003D133463C46354615E0002918BF022990
:1036D00011D13B4634463D460DE0012918BF032970
:1036E00002D133463C4605E0002918BF022902D129
:1036F0003B46344600251562D4629362F0BD10B596
:10370000174B1C7A9A7A544361439C7B012C0AD153
:103710005A78012A18BF032A03D0002A18BF022AA8
:1037200002D19A6A511A19625C7A597BDA7A0C19B9
:1037300054436043586210BD38B504460848817B45
:103740000025012906D12046BDE83240C3E6FFF737
:10375000D9FC6D1C605D0028F9D131BD000000006E
:1037600000000020BC5800084802002001B50123D9
:10377000012200F001F801BD6946DFF8EC0500F018
:1037800054BB38B50446DFF8E45500F0F3FA0022E4
:10379000082105E038B5044600F00FF8002210219A
:1037A000284600F06AFD2046FFF7E0FF2846BDE806
:1037B00038400122102100F060BDDFF8B055012231
:1037C0000821284600F059BDF8B504460D461646B6
:1037D0001F462A20FFF7D5FF200AFFF7DBFFE0B2E4
:1037E000FFF7D8FF300AFFF7D5FFF0B2FFF7D2FF9F
:1037F0002B20FFF7C6FF280AFFF7CCFFE8B2FFF740
:10380000C9FF380AFFF7C6FFF8B2FFF7C3FFBDE8EC
:10381000F2402C20B5E710B5DFF8504500F011F864
:10382000142000F049FD0022042100F00CF964206E
:1038300000F042FD00F005F8BDE81040642000F003
:103840003BBD01220421204600F017BD70B5DFF812
:103850001445DFF81C15207008704FF4A075362051
:10386000FFF78FFF012000F027FD207803284FF499
:10387000F07612D8DFE800F00204060C082002E01F
:10388000782006E0C820FFF785FFA580668070BD20
:10389000A820FFF77FFFA680658070BD80B5FFF789
:1038A000BAFF0120FFF76DFF642000F005FDF7204F
:1038B000FFF767FFA920FFF76DFF5120FFF76AFFB1
:1038C0002C20FFF767FF8220FFF764FFC020FFF77F
:1038D00058FF1120FFF75EFF0920FFF75BFFC120B3
:1038E000FFF74FFF4120FFF755FFC520FFF749FFC6
:1038F00000F0A6F80A20FFF74DFF8020FFF74AFFEF
:10390000B120FFF73EFFB020FFF744FF1120FFF783
:1039100041FFB420FFF735FF0220FFF73BFFB62041
:10392000FFF72FFF0220FFF735FF4220FFF732FF9E
:10393000B720FFF726FFC620FFF72CFFBE20FFF7BA
:1039400020FF00F07DF80420FFF724FFE920FFF7B7
:1039500018FF00F075F83620FFF713FF6820FFF717
:1039600019FF3A20FFF70DFF6620FFF713FFE02055
:10397000FFF707FF00F064F800F060F80F20FFF792
:1039800009FF0D20FFF706FF1B20FFF703FF0A20AA
:10399000FFF700FF3C20FFF7FDFE7820FFF7FAFE5F
:1039A0004A20FFF7F7FE00F049F80E20FFF7F2FE7D
:1039B0000920FFF7EFFE1B20FFF7ECFE1E20FFF7AC
:1039C000E9FE0F20FFF7E6FEE120FFF7DAFE00F048
:1039D00037F82220FFF7DEFE2420FFF7DBFE06206B
:1039E000FFF7D8FE1220FFF7D5FE00F027F83620AB
:1039F000FFF7D0FE4720FFF7CDFE4720FFF7CAFEB6
:103A00000620FFF7C7FE0A20FFF7C4FE00F016F8F5
:103A10003020FFF7BFFE3720FFF7BCFE0F20FFF777
:103A2000B9FE1120FFF7ADFE782000F045FC2920FB
:103A3000FFF7A7FEBDE80240012007E70720A9E63F
:103A40000020A7E61021204600F017BC2DE9F8431E
:103A50000E4606EB460407463C2C28BF3C26DFF802
:103A60000C830122082100F038F8002200F034F81D
:103A7000F80800F0FC093D0A304605F0F80500F0B2
:103A80002FFC2946FF000022054605E0A81801701A
:103A900080F801908770D21CB242F7D32746B7FB5B
:103AA000F6F406FB1477DFF8C0923CB10A23B2B2F9
:103AB0002946484600F0B9F9641EF7D10A23BAB284
:103AC0002946484600F0B1F9012200F005F82846E1
:103AD000BDE8F24300F0A2BC1021404600F0CDBB8F
:103AE00070B5DFF8805204466888AE88431E721EA7
:103AF0009BB292B200210020FFF766FEA988688879
:103B000041432046BDE87040A0E7FEB50746DFF818
:103B10005402144682880E4697423CBF4088864233
:103B200069D2DFF8485200F067F800F023F92A2044
:103B3000FFF71CFEFFF743FE012200F01CF900F026
:103B400019F9380A8DF80800791C02A8090A47708B
:103B500081707F1CC7700123DFF80C72042202A958
:103B6000384600F062F9012200F005F900F044F84F
:103B700000F000F92B20FFF7F9FDFFF720FE0122EE
:103B800000F0F9F800F0F6F8300A8DF80400711C26
:103B900001A8090A46708170761CC67001230422B0
:103BA00001A9384600F041F9012200F0E4F800F0E4
:103BB00023F800F0DFF82C20FFF7D8FDFFF7FFFD1A
:103BC000012200F0D8F800F0D5F8200AE10800F052
:103BD000F80001F0FC01E2008DF800008DF8011002
:103BE0008DF80220012303226946384600F01DF9B2
:103BF000012200F0C0F8F7BD00220821284600F09D
:103C00003CBBF8B51E46DFF85C319C881546A042E7
:103C10003CBF5F88B9421CD22C189A88641E94421B
:103C2000A4BF9D882D1A74185A88641E9442A4BF9C
:103C30005E88761A72182F18069C531E7A1E9BB245
:103C400092B2FFF7C1FDB6B2ADB205FB06F1A0B26C
:103C500000E0F1BDBDE8F440F8E6B0F5A07F00DB80
:103C600070472DE9F84FB1F5F07F78DA1418641E2B
:103C70001746B4F5A07FA8BFC0F5A0771C4665180D
:103C80006D1EB5F5F07FA8BFC1F5F07462183D1840
:103C9000531E6A1E9BB292B2FFF796FDFFF78DFD91
:103CA00000F068F8B8B200EB4000401C00F018FBD0
:103CB000DDF82890DFF8B08082464FF0000B002638
:103CC0003DE04FF01F0E19F80030401C521C19F84F
:103CD00000C04CEA032CCCF3C423C3EB032393FBB7
:103CE000FEF31FFA81FE491C0AF80E304FF03F0E1A
:103CF000CCF34513C3EB032393FBFEF31FFA81FEC2
:103D00000CF01F0C0AF80E30CCEB0C2C1F23491CB6
:103D10009CFBF3F31FFA81FC401C0AF80C30491C91
:103D200093B21FFA87FC6345CBD3834607EB470268
:103D3000642392B25146404600F077F8761CB0B248
:103D4000A1B2884203D2002100225846E8E70122AE
:103D500000F011F85046BDE8F24F00F05FBBBDE83F
:103D6000F18F00007800002084000020000801404E
:103D70000100002000221021284600F07EBA000039
:103D800038B5040001D1012032BD606A28B900F0C5
:103D90001CF905D00021E16102E000202061606192
:103DA0000020A06204F15005687820B90021297034
:103DB000204600F051FB0220687000F00AF96068AC
:103DC000A168E26800F4827001F404410843217C98
:103DD00002F400621043227D01F002010843A16950
:103DE00002F001021043227F01F40071084394F8AD
:103DF000201002F038021043A26A01F0800108434B
:103E0000216802F4005210430860A0692168000C88
:103E100000F0040048602068C16921F40061C161BC
:103E2000002068600121697032BD2DE9FC41064621
:103E30000C461546984600F08BFB06F15007797842
:103E4000012907D1002C14BF002D012077D039782B
:103E5000012901D1022072E00121397003237B7016
:103E60004FF0000CC7F804C03463B586F586002116
:103E7000B163B187F18771643164B368B3F5004F02
:103E800009D131680B6823F040030B6031680C687E
:103E900044F480440C6031680B685C0600F062F802
:103EA0004446F168B1F5006F71681FD1002918BF51
:103EB000012D00F06AF804E0316B0A88C26000F05E
:103EC0004AF8F08E002830D0306881688A07F3D431
:103ED00000F03EFB00F035F805D314F1010FF0D0EF
:103EE00000F033F82BE0002CEBD1F9E7002918BFE4
:103EF000012D00F03DF806E0316B0A780273306B5B
:103F0000411C00F02AF8F08E78B1306881688A0789
:103F1000F2D400F01DFB00F014F803D314F1010FEC
:103F2000F1D0DDE7002CEED1DAE7424621463046FB
:103F300000F0B0F808B12020786000F033F8BDE858
:103F4000F681A0EB0800A0427047012078700021A4
:103F5000397003207047306B811C3163F08E411E35
:103F6000F186704703D40B6843F040030B60704741
:103F700009D1336B326819781173316B4A1C326383
:103F8000F18E4A1EF2868046704709D1336B326843
:103F90001988D160316B8A1C3263F18E4A1EF28619
:103FA00080467047B06838B9002100913068C16818
:103FB0000091826800920099012078700021397088
:103FC000786800B10120C0B270476068B0F5827FA8
:103FD00070472068016821F04001016070472DE9B9
:103FE000F843089C06460F469046994600F0B0FA02
:103FF000A9EB0000241800F0ABFA344A116849011B
:10400000090D61430091054605E0009800B90024C0
:104010000098401E0090306881683940B9420CBF5A
:1040200001200020404532D019F1010FF3D000F0FB
:104030008FFA401BA04201D2002CE6D130684168C3
:1040400021F0E00141607068B0F5827F09D1B0686D
:10405000B0F5004F18BFB0F5806F02D13068FFF7A0
:10406000B9FFB06AB0F5005F09D13068016821F48A
:10407000005101603068026842F40052026006F1AB
:1040800050000121417000220270032000E0002056
:10409000BDE8F2837CB50D461646044600962B46D5
:1040A00001220221FFF79BFF38B900962B46002220
:1040B00080212046FFF793FF08B100F001F876BD9C
:1040C000606D40F020006065032070473C000020D8
:1040D0002DE9F84F00239E466A4CDFF8AC816B4E09
:1040E000DFF8ACB14FF00F0902460CE0256828401C
:1040F000206007E0C4F804C04F68FF03F6D52068CD
:10410000054325605B1C0D6835FA03F000F0AD80B7
:10411000012000FA03FC0CEA05056545F2D1486868
:1041200058B301281AD002281FD0032833D01128F1
:1041300017D012281DD0574FB8421CBF564FB84257
:104140001BD0564FB8421CBF554FB84215D0554FE3
:10415000B8421CBF544FB8420FD01EE0D1F80CE05B
:104160001BE0C86800F1040E17E0C86800F1080EF3
:1041700013E0C86800F10C0E0FE0886810B94FF02A
:10418000040E0AE001284FF0080E14BFC2F814C054
:10419000C2F810C001E04FF0000EB5F5807F03D2E9
:1041A00010464FEA830C04E0A3F10807101D4FEA04
:1041B000870CD0F800A009FA0CF72AEA07070EFAD4
:1041C0000CFC4CEA070CC0F800C04868C00099D548
:1041D000376847F0010737609F00306800F0010042
:1041E000009007F00C0C0098980858F820A009FAE5
:1041F0000CF72AEA070A5A4508BF00270ED02B4FB2
:10420000BA4208BF012709D0294FBA4208BF022786
:1042100004D0284FBA420CBF0327042707FA0CF733
:1042200047EA0A0C48F820C0E8434F68D4F808C0B1
:10423000FF024CBF45EA0C0C00EA0C0CC4F808C0A5
:104240004F68D4F80CC0BF024CBF45EA0C0C00EA22
:104250000C0CC4F80CC04F68D4F804C0BF034CBFAA
:1042600045EA0C0C00EA0C0C44E7BDE8F18F8068CD
:10427000084018BF0120C0B2704702B909040161AB
:10428000704700000004014008000140181002407F
:104290000008014000001110000012100000211061
:1042A000000022100000311000003210000C01400C
:1042B000001001400014014038B5044600F048F9F0
:1042C00014F1010F054602D004490878041900F0E2
:1042D0003FF9401BA042FAD331BD00BF300000209F
:1042E00010B50446AFF30080204600F005F8044600
:1042F000AFF30080204610BDF8B500F10F04E408CC
:10430000E400A0422BD2082C04D2082402E008309A
:1043100000F047F8DFF800211368190005D10020EC
:1043200007E00568A5420DD2011D08680028F8D1F4
:104330001868111D00E0191D0B6883420BD01D6821
:10434000A542F8D359B10B6818680838A04208D2C2
:10435000586808600FE000F001F90028D7D100206C
:10436000F2BD181908601D1D586828511E680F6895
:10437000361B3E601C60086800281DBF416800298C
:10438000001D0020106003F10800F2BD10B504000C
:1043900006D0AFF30080204600F003F8AFF30080B2
:1043A00010BD002800D1704770B4A0F10802146855
:1043B000072C2ED914F0070F2BD1DFF85C30596889
:1043C00009B18A4203D251605A6015E0014648683B
:1043D00008B19042FAD308680E18B24219D3964237
:1043E00003D124180C600A4606E0486810B1144452
:1043F000A0420ED350604A60506850B1146815193D
:10440000854206D100261E6001680C1914604068C0
:10441000506070BC7047000038020020FFF7B6BF44
:10442000454881B0026842F001020260016801F073
:10443000010100910099426842F0805242600222DC
:10444000406800F08050009000983C48016862F39A
:104450001A61016001B0704718B585B0044610219B
:10446000002201A800F090F82168354A914216D147
:104470003148036843F480530360016801F48051BC
:104480000091009900F04FF80090A020009A019050
:1044900002910322049201A92A48FFF719FE06B0EF
:1044A00010BD81B000682849884209D122480268BD
:1044B00042F400620260006800F40060009000981E
:1044C00001B0704718B585B0044610210022684637
:1044D00000F05AF821681D4A914222D11648194C21
:1044E000036843F480430360016801F48041049150
:1044F000049900F018F804904FF40070049A0090AA
:1045000001910322039269462046FFF7E1FD4FF433
:104510008060002100900191029120466946FFF7DA
:10452000D7FD06B010BD026842F00402026002210D
:10453000006800F0040070471810024004000140B9
:104540000030014000080140002C014000380140CB
:1045500001484068704700BF3000002007490868E4
:1045600008B1002070470648C008C000086005492F
:10457000C908C900091A0160704700BF4002002045
:1045800057060020500800204018491C1CBFB1F1FC
:10459000010100F8012DF9D17047000010B5014666
:1045A000DFF82C4404F14C0000F0E6FA08A100F01A
:1045B000EFFA04F14C00FDF775FFA06482B204F13C
:1045C0004C012046BDE810404FF0FF3300F02CBBFB
:1045D0000D0A00002DE9F84F86B000F02DFC00F028
:1045E00044FA6846002100220023002480E81E00CF
:1045F000DFF8E003DFF8E0430268DFF8E05342F061
:10460000200202604FF40046016801F0200104918D
:10461000049A036843F004030360016801F0040195
:1046200004910499026842F00802026000220068C6
:1046300000F0080004901C2104982046FFF71DFE9E
:1046400000224FF4E0412846FFF717FE01210191B7
:104650001C2000F0F0F92046FFF73AFD01210191FE
:104660004FF4E04000F0E7F92846FFF731FD002164
:1046700001910291009669462846FFF729FD4FF403
:104680008070002100900191029120466946FFF759
:104690001FFDD34CD34860604FF48271002020612D
:1046A0006061A061A16008204FF400712062E161A7
:1046B0000A20002120636162A162E162E660201DA0
:1046C000FFF75EFB08B100F001FA02A8002100220A
:1046D0000023002580E82E00CDE900124720C249C2
:1046E0002066E16562664FF6FF75E26622676267E3
:1046F000A56604F15C0000F0B1FB08B100F0E6F93A
:104700004FF48050029002A904F15C0000F000FC1C
:1047100008B100F0DBF9002000900190694604F137
:104720005C0000F0CBFC08B100F0D0F9A848AF491C
:1047300001604FF4E13200230C2142608360C360CA
:10474000036141618361C36100F032FA08B100F096
:10475000BDF90FF27C30DFF89882A64EA64FDFF845
:104760009C92FFF71BFF04F15C0000F084FB95A016
:10477000FFF714FFFFF792F893A0FFF70FFF1F203A
:10478000FFF7AEF991A0FFF709FF4046FEF776FF6D
:104790000020FEF785FF0121317039700020FFF7FE
:1047A00055F808F6485000901E231E22E1218C2067
:1047B000FFF753FA4FF4FA60FFF77EFD02203070E6
:1047C00038701F20FFF78CF95FF00100FEF768FFDB
:1047D00000F038F9DFF82882C8F800504FF478402C
:1047E000C9F800004FF4F04ABBA0FEF7A5FF002176
:1047F0005FF00100FEF783FF00F00EF94FF61F0B8C
:10480000BCA0FEF799FF0020FEF74AFF002103201D
:10481000FEF775FF00F006F900210420FEF76FFF98
:1048200000F0F0F800210520FEF769FFC8F80050FD
:10483000C9F800B0BDA0FEF77FFF40F6B830FFF723
:104840003BFD0320307038700020FFF749F901204C
:10485000FEF726FF00F0F6F800F0DEF8B6A0FEF74F
:104860006BFF00210120FEF74AFF00F0D5F800BFE2
:10487000B6A0FEF761FF0020FEF712FF0021032023
:10488000FEF73DFF00F0CEF800210420FEF737FFD1
:1048900000F0B8F800210520FEF731FFC8F80050FD
:1048A000C9F800B04FF6E07AA0A00FF2B82BFEF7DF
:1048B00043FF4FF47A70FFF7FFFC0020FEF7C6FFBE
:1048C0002846FFF70DF91F2000F0C0F80F20FFF772
:1048D00098F900F09EF84FF4FC6000F0B7F855200E
:1048E000FFF78FF900F095F8CDF800A01E233C22C9
:1048F0004FF4D2719B20FFF784F900F08AF84FF44F
:10490000784000F0A3F8E120FFF77BF900F081F890
:1049100004F1A400019000F06DFC00284ED0A11C11
:10492000204600F071FC638822880198594600F007
:10493000C5FC02203070387000F084F800F06CF88C
:104940000198FEF7F9FE2088A0F5B970562807D225
:104950006088A0F58E70102802D81F2000F07CF827
:104960002088A0F5857056289EBF6088A0F58E70BF
:10497000102803D84FF4FC6000F06EF820889E38B1
:1049800056289EBF6088A0F58E70102809D8CDF8F3
:1049900000A04FF4AA734FF48C7228210A20FFF76D
:1049A00030F920883238542808D26088A0F58E70FB
:1049B000102803D84FF4784000F04EF83220FFF76B
:1049C0007BFCA8E73100000032000000330000004B
:1049D000880100201810024000080140000C01402E
:1049E0008000002000300140002C014000380140D0
:1049F000EC0000080A0000200B0000201C00002032
:104A000018000020C8F80050C9F800A043A0FEF725
:104A100093BE6420FFF750BCC8F800500020C9F8CE
:104A2000000070470020C8F80000C9F8005000BF1F
:104A300036A0FEF781BE022100900022039102926F
:104A40006946704700210020FEF759BE00901E23E2
:104A50003C224FF4D271704700904FF4AA734FF488
:104A60008C7228210A20FFF7CCB800B58FB028211E
:104A700005A800F043FC1421684600F03FFC4FF409
:104A800080310022069107920D9101200590099036
:104A900002224FF4E0110C920E9105A800F032FCB6
:104AA00008B100F013F8022101910F204FF480614A
:104AB000009000220391029204920221684600F0C5
:104AC000A0FD08B100F002F80FB000BD72B6FEE71D
:104AD000737461727400000020D985D8ADD985D86F
:104AE000AF20D981D8B1D8AC20D8A7D984D987DB59
:104AF0008C20000020D981D988D986D8AA20D981D4
:104B0000D8A7D8B1D8B3DB8C200000002070617624
:104B1000616E746563682E697220000020544654EB
:104B200020494C4939343838200000002053544D76
:104B3000333246313033200020D8B3D984D8A7D9B6
:104B40008520D8B3DB8CD986D8A7200020D981D97D
:104B500088D986D8AA20DA86D8B7D988D8B1D98793
:104B6000D89F20002020583A25346420593A253413
:104B700064202020200000005FEA000C11F8012BC7
:104B800000F8012B12B111F8012BF9E760467047CC
:104B9000034600E05B1C1A78002AFBD111F801CB18
:104BA00083F800C013F8012B002AF7D170470000EA
:104BB00038B5040001D1012032BD04F14005687808
:104BC00008B900F011F800F014F800F023F8FFE73E
:104BD000416100F018F86860202169702020A870F9
:104BE00000216163002032BD002129702046FFF7BB
:104BF00069BC242068702068C16821F40051C1603C
:104C0000204600F0D9B82068C16841F40051C16065
:104C1000002070472068016921F4904101612068FB
:104C2000416921F02A0170472DE9FC4106460D46F5
:104C300096F84100202814461F4640D10DB12000AF
:104C400001D101203CE000207064212186F8411050
:104C5000FFF77EFCB4848046F48400F033F804BF90
:104C6000306900281ABF2C460025002412E00022DB
:104C70008021304600F047F8E0B93068002C12BFC0
:104C800014F8011B35F8021BC1F308014160F08CD8
:104C9000411EF1844346F08C00970028E7D10022A2
:104CA0004021304600F02FF820B9202086F841003E
:104CB000002005E0202086F84100032000E00220CB
:104CC000BDE8F681B068B0F5805F7047026802F118
:104CD0000C0454E8002F016801F10C03704742F006
:104CE000010243E8002100297047026802F1140420
:104CF00054E8002F0168520801F11403520043E800
:104D00000021002970472DE9FC41089C05460E460C
:104D100090461F46286801683140B1420CBF01200F
:104D2000002040452AD114F1010FF3D0FFF710FC09
:104D3000C01B844200D314B90320BDE8F681296862
:104D4000C8684207E6D5802E18BF402EE2D008463C
:104D500002681307DED5002000902B681A680092C5
:104D6000496800910098284600F00AF805F14000D3
:104D700008214160002202700120DEE70020DCE70C
:104D800010B5FFF7A3FF22F49072FFF7AAFFF8D146
:104D9000FFF7ABFFFCD1016B012906D1FFF796FFAE
:104DA00022F01002FFF79DFFF8D1202180F8421079
:104DB0000022026310BD000010B50446226811698C
:104DC000E06821F4405101431161D3681848A1689B
:104DD000034020690B43616903430B43D3601549CA
:104DE0005369A06923F4407303438A42536102D19B
:104DF00000F0AEFC01E000F0A3FC6268192148431A
:104E00009200B0FBF2F16423B1FBF3F26FF06300A8
:104E100000FB021109013231B1FBF3F000F0F001A7
:104E200001EB0211226800F00F004018906010BDE5
:104E3000F3E9FFFF0038014080B50748016841F001
:104E400010010160032000F0BCFC0F2000F0FCFC0E
:104E5000FFF7E6FA002002BD0020024038B504004A
:104E600001D1012032BD00F049F818B900F042F834
:104E7000FFF717FB2AE090F83D10012901D001202F
:104E80007047022180F83D100168CA6842F00102B3
:104E9000CA600168DFF86C20914218BFB1F1804F01
:104EA00007D0DFF8642091421CBFDFF860309942E0
:104EB00005D1896801F00701062905D001680A6853
:104EC000084642F00102026000207047022068702C
:104ED000211D206800F07BF80120A8720121A97033
:104EE000E87029716871A971E87129726872697036
:104EF000002032BD002129702046704704F13C0596
:104F000068787047002C0140000400400008004011
:104F100070B5044604F13C0600253078012801D123
:104F2000022070BD0120307002227270DFF80C0187
:104F300022689368034093600868020018BF102835
:104F400030D0202818BF30282CD0402826D0502818
:104F500019D060281BD0702806D0B0F5805F27D00C
:104F6000B0F5005F07D022E000F02CF820688168DF
:104F700041F0770105E000F025F82068816841F4F0
:104F80008041816014E000F019F850210BE0CA68FC
:104F90004968206800F06BF8602104E000F00EF82A
:104FA000402100E00146206800F073F800E0012590
:104FB0000120707000213170284670BDCA684968B0
:104FC000206845E0CB684A688968206869E070B568
:104FD00003681B4C1B4A1C4DA04218BFB0F1804F08
:104FE00003D0A84218BF904209D123F070064B6845
:104FF0003343A0421CBFB0F1804FA84201D0904281
:1050000003D123F44072CB6813434A6923F0800331
:1050100013430360A0428B68C3620A68826202D1B4
:1050200009690A4A1160012343610169CA0703D56E
:10503000016949084900016170BD00008800FFFF57
:10504000002C01400008004000040040302C0140CA
:1050500010B5036A046A64086400046223F00A035A
:10506000846924F0F00444EA0214846123E010B55A
:10507000036A046A24F01004046223F0A003846924
:1050800024F4704444EA0234846143EA0113036265
:1050900010BD826822F07002114341F00701816067
:1050A000704710B5846824F47F442143114341EADA
:1050B0000321816010BD1943016210BD70B500F17C
:1050C0003C031A78012A01D1022070BD01221A7016
:1050D00002245C7005686E68AC680A6826F0700689
:1050E00016436E6002680B48824218BFB2F1804FCF
:1050F00005D0094882421CBF084DAA4204D1486825
:1051000024F0800404439460012159700020187039
:1051100070BD0000002C0140000400400008004069
:1051200070B505460824604E2B064CBF01220022B4
:1051300000F055F800F058F85A48006800F005F8FB
:1051400000F053F8641EEFD170BD00216D00416284
:10515000416A1429FCD301227047F8B50446524E27
:1051600000F042F8002200F03AF8002200F032F895
:105170002046FFF7D5FF4B4F3868002100254162DC
:10518000416A3229FCD300F02FF838680021FFF77C
:10519000DEFF00F02AF8386800214162416A1429D4
:1051A000FCD300F021F8102400F01EF83868FFF757
:1051B000CCFF00F01AF84FF400413046FFF757F8E3
:1051C00000B16D1C641EEFD1012200F003F82D0424
:1051D000280DF2BD4FF400513046FFF74EB84FF4A2
:1051E00080413046FFF749B800224FF480513046E5
:1051F000FFF743B880B54FF480712C48FFF737F8BC
:10520000401E8041C00F02BD2DE9F047824688460E
:10521000DFF89490002200F04BF8002500260027CC
:105220001024FFF7E7FF50B19020FFF796FF861993
:10523000D020FFF792FF7F1C4519641EF1D1012297
:1052400000F036F8FFB2102FB8BF002028DB2D0980
:10525000DD2D38BFDD2504D340F63A70854288BF86
:10526000054636098D2E38BF8D2604D340F65A7078
:10527000864288BF0646DD3D40F2DF10454340F6DA
:105280005D628D3E40F23F11B5FBF2F24E4340F6B7
:10529000CD60AAF80020B6FBF0F0A8F800000120CD
:1052A000BDE8F087DC000020000C01400008014050
:1052B0004FF400514846FEF7E0BF00000CB430B593
:1052C00083B00A4606A90291044600250194009580
:1052D00002AB01A9084878441E30FCF732F9019A64
:1052E000157000284EBF04460198041B204603B0E9
:1052F00030BC5DF80CFB00BF63D1FFFF002200F063
:10530000C3BA00002DE9F843040016D02078DFF876
:105310005464C10713D5706800F00C00042807D04E
:10532000706800F00C00082840D17068C1033DD5BA
:105330003068810303D56068002800F05881207828
:10534000DFF83094810719D5706810F00C0F07D082
:10535000706800F00C00082860D17068C1035DD44B
:105360003068810703D52269012A40F04081306806
:10537000616920F0F80040EAC10030602078010740
:105380007BD5A069DFF8F013002800F09D80012292
:105390000A60FFF7DDF80546706A81075ED4FFF703
:1053A000D7F8401B0228F7D9032023E16068B0F545
:1053B000803F04D1306840F48030306014E008B998
:1053C00030680AE0B0F5A02F306806D140F48020A4
:1053D0003060316841F4803105E020F48030306085
:1053E000316821F480213160606858B1FFF7B0F86E
:1053F000054630688103A2D4FFF7AAF8401B652850
:10540000F7D3D1E7FFF7A4F805463068810396D5B6
:10541000FFF79EF8401B6528F7D3C5E7206970B1F8
:105420000121C9F80010FFF793F80546306881079D
:105430009DD4FFF78DF8401B0228F7D9B4E700226E
:10544000C9F80020FFF784F805463068810795D534
:10545000FFF77EF8401B0228F7D9A5E7DFF80823FD
:105460001068C0084FF47A71B0FBF1F1009100BFF1
:105470000098411E00280091F9D12078410768D595
:10548000F0690025C10009D4F06940F08050F06156
:105490000125F06900F0805000900098DFF8DC7280
:1054A0003868C1051DD4386840F480703860FFF753
:1054B0004FF880463868C10513D4FFF749F8A0EBD0
:1054C00008006528F6D36FE70860FFF741F8054646
:1054D000706A8107D1D5FFF73BF8401B0228F7D946
:1054E00062E7E068012808D008B9306A09E00528B9
:1054F000306A06D140F004003062306A40F00100AA
:1055000005E0400840003062306A20F0040030625C
:1055100041F28938E06858B1FFF71AF80746306A57
:10552000810711D4FFF714F8C01B4045F7D33BE7C0
:10553000FFF70EF80746306A810705D5FFF708F830
:10554000C01B4045F7D32FE71DB1F06920F0805014
:10555000F061E06900284CD0716801F00C01082965
:1055600038D002282AD100F047F80546306881017A
:1055700005D5FEF7EDFF401B0228F7D914E7206A96
:10558000B0F5803F05D17168A06821F40031014376
:1055900071607268206A616A22F4741202430A43DD
:1055A0007260012000F029F804463068810120D49F
:1055B000FEF7CEFF001B0228F7D9F5E600F01CF835
:1055C00004463068810114D5FEF7C2FF001B022893
:1055D000F7D9E9E601280AD07068226A00F4803120
:1055E000914202BF00F47010616A884201D001202C
:1055F00000E00020BDE8F2830020C9F86000FEF75B
:10560000A7BF2DE9F041040088464ED05C4F00F062
:1056100077F802D200F06FF847D12068514D81072A
:1056200012D5400703D5696841F4E06169602078CC
:10563000010703D5686840F4605068606968A06835
:1056400021F0F001014369602178C80725D5606821
:10565000012802D129688A0303E00228296802D1BF
:105660008A0102D421E08A071FD56968890840EAC7
:1056700081006860FEF76CFF06466868616800F0AC
:105680000C00B0EB810F08D0FEF762FF801B41F2E7
:1056900089318842F1D303202BE0386800F00700FD
:1056A000804504D200F027F801D0012021E02078C5
:1056B000420705D56968E06821F4E061014369604B
:1056C0002178080706D56968206921F4605141EA0C
:1056D000C001696000F01AF86A682A49224BC2F3D7
:1056E0000312895CC84018602148006800F0ACF8DB
:1056F0000020BDE8F0813968C90848EAC101396075
:10570000386800F0070040457047000010B51E499A
:1057100016480A6802F00C04082C10D11DA3C2F32D
:105720008344D2031B5D08D5096858431DA3C1F308
:105730004041595CB0FBF1F010BD1448584310BD16
:105740000948114A006813681149C3F3022206E0B0
:1057500005480D4A006813680D49C3F3C222895CED
:10576000C8407047001002403C00002000127A0040
:105770003800002000004242800442420070004095
:1057800000200240305B00080410024000093D0088
:10579000505B000802030405060708090A0B0C0DFC
:1057A0000E0F1010010200000901020002D421486E
:1057B00081547047204B02F00F021A4402F8041C77
:1057C00070471E490A6860F30A2240F2FA5060F3FB
:1057D0001F420A60704770B5184B1C68C4F302235F
:1057E0000124C3F10705052D2EBF0F2504FA05F589
:1057F0006D1E1E1D072E34BF0023DB1E294099405D
:1058000004FA03F3BDE870405B1E1A401143CBE776
:10581000401EB0F1807F01D3012070470849094A3A
:1058200048600023F02010708B6007200860002083
:105830007047000000E400E018ED00E00CED00E02F
:1058400010E000E023ED00E038B50D4D0D4B2A7857
:1058500004464FF47A711868B1FBF2F2B0FBF2F033
:10586000FFF7D6FF50B9102C08D2002221464FF086
:10587000FF30FFF7B0FFAC60002032BD012032BD29
:10588000300000203C00002000B500BF1300964609
:105890009446103928BFA0E80C50FAD85FEA417C42
:1058A00028BF0CC048BF40F8042BC90728BF20F808
:1058B000022B48BF00F8012B00BD0000C1C1C1C1CF
:1058C0000000C2C202020100C3C301010100C4C43E
:1058D000C4C40000C5C503030100C6C6C6C6000097
:1058E000C7C700000100C804C8040101C9FEE9954A
:1058F0000101CA05CA050101CB06CB060101CC078F
:1059000008070101CD090A090101CE0B0C0B0101A9
:10591000CFCFCFCF0100D0D0D0D00100D1D1D1D1C5
:105920000100D2D2D2D20100D38AD38A0101D40E8F
:10593000D40E0101D50FD50F0101D61AD61A0101D7
:10594000D7D7D7D70000D8D8D8D80101D9D9D9D935
:105950000101DA1BF1F00101DBF57FF60101DCDC6E
:10596000DCDC0101DD80DD800101DE83DE830101FD
:10597000DF8CDF8C0101E0E0E0E00000E1F3E1F327
:105980000101E2E2E2E20000E3F8E3F80101E4F2FF
:10599000E4F20101E5FEE7950101E6E6E6E6010035
:1059A000E7E7E7E70000E8E8E8E80000E9E9E9E917
:1059B000000081FD81FD01018D9D9E9D0101ECC0D6
:1059C000A0C00101EDC09CC001018E8E8E8E010031
:1059D00090FA90FA0101F0F0F0F00000F1F1F1F12D
:1059E0000000F2F2F2F20000F3F3F3F30000F4F43B
:1059F000F4F40000F5F5F5F50000F6F6F6F6000013
:105A0000F7F7F7F70000F8F8F8F80000F9F9F9F9F6
:105A10000000FAFAFAFA0000A5A59F9F0100FCFC1D
:105A2000FCFC0000FDFDFDFD0000FEFEFEFE000092
:105A3000FFFFFFFF0000000030B4002512E050F827
:105A4000042BD30744BF4A44521E091F042942F8BD
:105A5000045BFAD213468C0744BF15809B1CC90710
:105A600048BF1D7050F8041B0029E8D130BC7047B6
:105A700010B5074979441831064C7C44163404E0CB
:105A80000A68081D114488470146A142F8D110BD9B
:105A90000800000024000000A1FFFFFFCC0100006F
:105AA000800000200000000063C9FFFF58010000D3
:105AB000A40000000000002000F00DF8002801D034
:105AC000FFF7D6FFAFF300800020AFF30080FEF7B2
:105AD00081FD00F002F80120704700F001B80000DD
