:020000040800F2
:10000000F8040020556800081D6800081F680008F3
:100010002168000823680008256800080000000027
:100020000000000000000000000000002768000839
:1000300029680008000000002B6800082D680008EF
:1000400065680008696800086D6800087168000844
:1000500075680008796800087D68000881680008F4
:1000600085680008896800088D68000891680008A4
:1000700095680008996800089D680008A168000854
:10008000A5680008A9680008AD680008B168000804
:10009000B5680008B9680008BD680008C1680008B4
:1000A000C5680008C9680008CD680008D168000864
:1000B000D5680008D9680008DD680008E168000814
:1000C000E5680008E9680008ED680008F1680008C4
:1000D000F5680008F9680008FD6800080169000873
:1000E00005690008096900080D6900081169000820
:1000F00015690008196900081D69000821690008D0
:1001000025690008296900082D690008316900087F
:1001100035690008396900083D690008416900082F
:1001200045690008496900084D69000851690008DF
:100130000D460C100100FE05000000040404080830
:100140000808080809090B04030607080807080837
:10015000060B06040404040202040908060902044A
:100160000408080507030A07080707070707070722
:1001700007030506070607090A0808080808090A08
:10018000060909080A0A08080809080A0A0A0A0AE0
:100190000A08040904080A030808070808070808E9
:1001A000060608060A08080808090808080A0A08CE
:1001B0000A080602050806050806050000000007F3
:1001C00000090605080604080606080908080908C3
:1001D00000090608080808080404000007000000D9
:1001E00009000800000900060900000008000405D5
:1001F00000040800000008040406040704090208BB
:10020000060808080808050506060E0E0F0F080860
:10021000080707030A08080007000608050608087B
:100220000800000909000006060404000606080785
:1002300000050000040900000000F80300040004A9
:100240000004000480240003000410048004100350
:10025000000410048404100300040004000580045A
:100260008024000500060004801C402240414041DB
:100270008048804080408020000400040005800405
:100280008004000500060004801C402240414041DB
:1002900080408040804080200004000400059004DD
:1002A0008004000500060004801C402248414041B3
:1002B000804080408040802000040004000300044F
:1002C0000004000300040004000300040004000311
:1002D00000042004080320040004000300040004B8
:1002E000000300040004000600058004800480046C
:1002F0000003000000018003000100003000C01F67
:1003000000003000E000401F4000300000003000DE
:10031000E000401F30004000300000002000F000EE
:10032000E01F60009000900040000000000E80116F
:100330005010200C40108011000E0000C010200949
:10034000100510032001800000003000C0000003F1
:10035000001C0003C00030000000001800068001EF
:1003600070008001000600180000600090009000FE
:10037000E007001800040004000300040004000665
:1003800010058004800480040003000480054006FA
:100390004004800400020000000080018001000091
:1003A00000008003400300000000C002C001000004
:1003B0000000E004900400000000FE05000078004A
:1003C0000000780000000002401EC0037802401EBA
:1003D000C003780240000000C011202220223062B9
:1003E00020222022401C0000060680016000180028
:1003F00006060000000E7011881008110812100C7B
:10040000000C0012000078000000C01F306008805F
:10041000000008803060C01F00008000A002E003E0
:10042000C001E003A0028000000080008000800086
:10043000F0078000800080000000002000380018D5
:10044000000800000001000100010001000100019E
:10045000000000180018000000080004000200015D
:10046000800040002000100008000000F00F08107D
:10047000081008100810F00F0000000010101010F5
:10048000F81F0010001000000000101808140812D7
:1004900008118810701000001008081088108810CB
:1004A0008810700F00000003800260021012F81F15
:1004B00000120000F8088810881088108810080FB3
:1004C0000000E00F1011881088108810000F000045
:1004D0001800081808068801680018000000700F4E
:1004E0008810881088108810700F0000F000081124
:1004F000081108118808F0070000C018C018000093
:100500000020C038C018000800000001800240042C
:100510002008101000008002800280028002800209
:10052000800200001010200840048002000100003A
:100530001000080008160801880070000000E00F95
:100540001010882348244824C8231024E003000006
:100550000010001C88136802180260028013001C3F
:10056000001000000810F81F8810881088108810EC
:10057000700F0000E0071008081008100810101095
:10058000780800000810F81F08100810081010085C
:10059000E00700000810F81F88108810C811081024
:1005A000181800000810F81F88108810C8010800EB
:1005B00018000000E00710080810081008111011BA
:1005C000780F000100000810F81F881080008000DC
:1005D00080008810F81F0810000008100810F81F8D
:1005E000081008100000000C00100010081008107F
:1005F000F80F0800080000000810F81F081180011B
:10060000680218040818001000000810F81F0810ED
:10061000081000100010001800000810F81F6010EB
:100620008001000680016010F81F0810000008100B
:10063000F81F2010C010000108060808F81F080065
:100640000000E00710080810081008101008E00764
:1006500000000810F81F0811081108010801F00037
:100660000000E00710480850083008301048E04704
:1006700000000810F81F0811080108030805F01809
:1006800000100000701C88088810881008111011D4
:10069000380E00001800080008100810F81F081095
:1006A00008100800180000000800F80F08080010E3
:1006B000001000100808F80F0800000008003800BB
:1006C000C801000600180006C80138000800000034
:1006D00078008803001C800360008003001C8803EE
:1006E0007800000008101818281440028001400209
:1006F000281418180810000008001800681080104E
:10070000001F801068101800080000001818081456
:10071000081288114810281018180000FE3F022007
:1007200002200000100020004000800000010002B4
:1007300000040008000002200220FE3F00004000EC
:1007400020001000080010002000400000000040C1
:100750000040004000400040004000400040004099
:100760000000080010000000000E40114011401170
:100770004011800F001000000810F81F8008401082
:10078000401080080007000000078008401040105B
:1007900040108008000000078008401040108808C2
:1007A000F81F001000000007800A4012401240129B
:1007B000800A000B00008010F01F881088100800CD
:1007C0001000000000638084408840888084C07FDF
:1007D000400000000810F81F801040004010801FEB
:1007E0000010000040104010C81F00100010000052
:1007F0000040008040804080C87F00000810F81F43
:1008000008120803C0144018401000000810081017
:10081000F81F0010001000004010C01F80104000A2
:10082000C01F80104000C01F001000004010C01FFB
:10083000801040004010801F00100000000780085A
:100840004010401040108008000700004080C0FFAA
:100850008088409040108008000700000007800852
:10086000401040908088C0FF408000004010401041
:10087000C01F801040104000400080000000800930
:1008800040124012401240124012800C0000400002
:100890004000F00F401040104010000800004000E1
:1008A000C00F001000104008C01F001000004000E2
:1008B000C0004003000C0010000C4003C0004000CA
:1008C00000004000C00F40180007C000000740189B
:1008D000C007400000004010C0184015000240153D
:1008E000C018401000004000C0804083004C003021
:1008F000000C4003C00040000000C010401840142D
:1009000040124011C0104018000000020002F07DAB
:10091000088008800000F8FF000008800880F07D53
:100920000002000030000800080010002000200035
:1009300018000000001C802248414041C042004491
:10094000000480044805400680030003800400146E
:100950000044001400040004000300000000002014
:100960000038001800080004880440054806800389
:10097000000000001000080004000800100000043F
:10098000000400030004000400030004000400034A
:100990000000000000018002400420080004600400
:1009A000500490040803801C402240414045805080
:1009B0008044804080200020002000102010080883
:1009C000200700000000080010000003800400045D
:1009D0000004640452049204090300000000200093
:1009E0003000380008000000000020003800180027
:1009F00008002000300038000800200030003800D7
:100A0000080000002000380018000800200038000E
:100A100018000800000400040004000F8014403295
:100A20008029000400000001000100010001000114
:100A300000010001000000010001000100010001AF
:100A400000010001000100038004000400046004B0
:100A50005004900408030000801C402240414041A3
:100A6000804080408040802000000000200840043A
:100A7000800200010038004400400040004800545B
:100A80000054003400040004001580448014000564
:100A900000060004801C40224041404580508044B4
:100AA00080408020000008001004200440028001E3
:100AB000F803000400380044004000C0004800D49F
:100AC00000540034000000008003400300041404BC
:100AD0008A040A03000008001000200C400A800964
:100AE000F80E0000F0030804E409140A140A2409AB
:100AF0000804F00300004000A00010014802A0001C
:100B0000100108020000F0030804F40B9408940894
:100B1000640B0804F0030000300048004800300077
:100B200000000000801080108010F01780108010EE
:100B3000801000000038804460405040504800540D
:100B40000054003400000000000300030000000017
:100B5000008000A0004000000000E00490040000BD
:100B600008021001A00048021001A000400000008F
:100B7000000070008800080108160800300000041A
:100B8000002480040023000580068002000200008B
:100B900004000200FA070200010000000A0005003C
:100BA000F5070000004050402823A8248014000FBF
:100BB000000000A0F8570050001E28211420142027
:100BC000002000260015800C80000000F8070003BC
:100BD000800400040024000400040004000300005A
:100BE00088034004480480040003000380040004D8
:100BF0002004000420040004000300038004000417
:100C000020040804200400040003801C402240410A
:100C100040418048804080408020801C40224041EC
:100C200040418040804080408020801C40224841DC
:100C3000404180408040804080200000000440040B
:100C40008004000300000004480480040003002026
:100C500000200010001000080007002000200010F5
:100C6000001020080007001C002200400040004047
:100C700000400023001C00040004000300040004E2
:100C80000003001C00220040004000400040002300
:100C9000001C000420040803200400040003001CBE
:100CA000002200400040004000400023001C0004DF
:100CB000000600058004800480040003001C00225C
:100CC00000400040004000400023001C00040006DB
:100CD0001005800480048004000300002008400404
:100CE0008002000180024004200800040004F8078C
:100CF0000006000580048004000300040004F807D7
:100D000000060005900480040003C01C202320413D
:100D10000041804000400020C01C242320410041AD
:100D20008040004000200004000400040003800410
:100D30000004000400040004800448054006800309
:100D4000001C002200400040104380449024001FFB
:100D500000038004000400046004500490040803AD
:100D6000000E00110010001000100008F80700F835
:100D700000040007800480040003001C00220040DF
:100D80004040004000400021001E80034004400419
:100D90008004000300400040002380248014000FE2
:100DA0000000000180028002600280010002000455
:100DB000000014018A028A02680280010002000415
:100DC000000000018402800264028001000200042D
:100DD000001E002100A0002000A000260015800CAD
:100DE0008000001E002100200020002000260015A9
:100DF000800C800000040004000580068006800549
:100E0000001C802240414041C042004400040004D4
:100E100090040003000400040004F80300048005AB
:100E20004806400480040002000400040005800617
:100E3000900680050000400040004000480240004D
:100E4000400040000004000400020003800480040D
:100E50000003000464045204920409030004001413
:100E600080440013000400040004800550062003A1
:100E7000C004800400030000000000000000000027
:100E80000000000000000000000000000000000062
:100E90000000000000000000000000000000000052
:100EA0000000000000000000000000000000000042
:100EB0000000000000000000000000000000000032
:1023000000000000000052AA52AA52AA00000000D9
:1023100000000000000000000000000000000000BD
:1023200052AA52AA00005ACB52AA52AA0000000098
:10233000000000000000000000000000000000009D
:1023400052AA52AA00005ACB52AA52AA0000000078
:10235000000000000000000000000000000000007D
:1023600052AA52AA00000000000000000000000075
:10237000000000000000000052AA52AA5ACB5ACB1B
:102380000000000000000000000052AA52AA52AA59
:1023900052AA52AA52AA52AA52AA52AA000052AA59
:1023A0005ACB52AA52AA52AA52AA52AA52AA000020
:1023B00000000000000052AA52AA52AA5ACB5ACBDF
:1023C0000000000000000000000052AA5ACB52AAF0
:1023D00000000000000000005ACB52AA52AA0000E0
:1023E00000000000000052AA52AA52AA00000000F9
:1023F00000000000000000000000000000000000DD
:10240000000052AA5ACB5ACB5ACB52AA52AA000069
:1024100000000000000000000000000052AA52AAC4
:102420005ACB5ACB52AA52AA00000000000000006A
:10243000000000005ACB5ACB52AA52AA000000005A
:1024400000000000000052AA5ACB5ACB52AA00004A
:10245000000000000000000000000000000000007C
:102460000000000052AA5ACB52AA0000000000004F
:102470005ACB52AA52AA52AA0000000052AA52AA4B
:1024800052AA000052AA52AA52AA0000000000005C
:102490005ACB52AA52AA52AA0000000052AA52AA2B
:1024A00052AA000052AA52AA52AA0000000000003C
:1024B0005ACB52AA52AA52AA000000005ACB52AAE2
:1024C0005ACB0000000000000000000000000000E7
:1024D00000000000000052AA5ACB52AA52AA52AAE7
:1024E000000000000000000052AA52AA52AA52AAFC
:1024F0005ACB52AA52AA52AA52AA00005ACB52AAA6
:1025000052AA52AA5ACB52AA52AA5ACB0000000091
:10251000000052AA52AA5ACB52AA52AA52AA5ACB85
:1025200000000000000052AA5ACB5ACB52AA000069
:10253000000000005ACB52AA5ACB52AA0000000059
:10254000000052AA52AA5ACB52AA00000000000072
:1025500000000000000000000000000052AA52AA83
:1025600052AA52AA5ACB52AA5ACB52AA52AA000035
:10257000000000000000000052AA52AA52AA52AA6B
:1025800052AA52AA52AA52AA52AA0000000000005F
:10259000000052AA5ACB52AA52AA52AA0000000026
:1025A000000052AA52AA5ACB52AA52AA0000000016
:1025B000000000000000000000000000000000001B
:1025C0000000000052AA5ACB0000000000005ACBC5
:1025D0005ACB5ACB52AA000000005ACB52AA5ACB6F
:1025E0000000000052AA5ACB0000000000005ACBA5
:1025F0005ACB5ACB52AA000000005ACB52AA5ACB4F
:102600000000000052AA5ACB0000000000005ACB84
:102610005ACB5ACB52AA0000000052AA5ACB52AA57
:1026200000000000000000000000000000000000AA
:102630000000000052AA52AA52AA5ACB52AA000085
:102640000000000000000000000000005ACB52AA69
:1026500052AA000000000000000052AA52AA52AA8A
:1026600000000000000000000000000000005ACB45
:1026700052AA52AA0000000052AA52AA52AA00006E
:1026800052AA52AA52AA52AA52AA52AA000052AA66
:102690005ACB52AA5ACB52AA52AA000052AA52AA04
:1026A0005ACB52AA52AA52AA000000000000000011
:1026B0000000000000000000000052AA52AA52AA26
:1026C0005ACB0000000052AA5ACB52AA52AA0000CC
:1026D000000000005ACB52AA52AA5ACB00000000B8
:1026E0005ACB52AA52AA52AA52AA000000000000D5
:1026F0005ACB5ACB52AA52AA52AA0000000000009C
:1027000052AA5ACB52AA52AA52AA000000000000B4
:1027100000000000000000000000000000000000B9
:1027200000005ACB52AA52AA000052AA5ACB52AA6F
:1027300052AA5ACB0000000052AA52AA52AA000084
:10274000000052AA52AA52AA000052AA5ACB52AA78
:1027500052AA5ACB0000000052AA52AA52AA000064
:10276000000052AA52AA52AA000052AA5ACB52AA58
:1027700052AA5ACB0000000052AA52AA52AA000044
:102780000000000000000000000000000000000049
:1027900052AA5ACB5ACB5ACB52AA5ACB00000000AD
:1027A0000000000000000000000052AA52AA5ACB0C
:1027B000000000000000000052AA5ACB5ACB0000D3
:1027C00000000000000000000000000052AA52AA11
:1027D0005ACB00000000000052AA52AA52AA0000E0
:1027E00052AA5ACB5ACB52AA52AA000000005ACB86
:1027F0005ACB52AA52AA5ACB000000005ACB52AA76
:102800005ACB52AA52AA00000000000000000000AB
:1028100000000000000052AA52AA5ACB000000009B
:10282000000000000000000052AA52AA00000000B0
:1028300052AA5ACB52AA000000000000000000007B
:10284000000052AA52AA5ACB00000000000052AA6F
:1028500052AA5ACB52AA52AA00000000000052AA63
:1028600052AA5ACB52AA52AA00000000000000004F
:102870000000000000000000000000000000000058
:1028800052AA52AA52AA00005ACB52AA5ACB52AA12
:102890005ACB52AA000052AA52AA5ACB00000000FA
:1028A00052AA52AA52AA00005ACB52AA5ACB52AAF2
:1028B0005ACB52AA000052AA52AA5ACB00000000DA
:1028C00052AA52AA52AA00005ACB52AA5ACB52AAD2
:1028D0005ACB52AA000052AA5ACB5ACB0000000091
:1028E000000000000000000000000000000052AAEC
:1028F00052AA52AA00005ACB52AA5ACB000000009A
:10290000000000000000000052AA52AA52AA0000D3
:102910000000000000005ACB52AA52AA52AA5ACB79
:1029200052AA52AA0000000052AA52AA5ACB000092
:1029300000000000000052AA52AA5ACB000000007A
:10294000000052AA52AA52AA000000000000000093
:1029500052AA52AA52AA000000000000000052AA87
:1029600052AA52AA0000000000000000000000006F
:102970000000000052AA52AA52AA00000000000063
:1029800000000000000000000000000000005ACB22
:1029900052AA52AA0000000000000000000000003F
:1029A00052AA5ACB52AA0000000000005ACB52AAE9
:1029B00052AA5ACB52AA52AA000052AA5ACB52AAE1
:1029C00052AA52AA52AA0000000000000000000013
:1029D00000000000000000000000000000005ACBD2
:1029E00052AA52AA00005ACB52AA00005ACB52AAAD
:1029F00052AA00005ACB52AA52AA0000000052AAC2
:102A000052AA52AA00005ACB52AA00005ACB52AA8C
:102A100052AA00005ACB52AA52AA0000000052AAA1
:102A200052AA52AA00005ACB52AA00005ACB52AA6C
:102A300052AA000052AA52AA52AA000000000000A6
:102A40000000000000000000000052AA5ACB52AA69
:102A50000000000052AA52AA52AA00000000000082
:102A600000000000000052AA5ACB52AA0000000049
:102A70000000000052AA5ACB52AA5ACB52AA5ACBF3
:102A80005ACB000000005ACB5ACB52AA00000000DB
:102A9000000000005ACB52AA52AA00000000000019
:102AA0005ACB52AA52AA000000000000000052AA0D
:102AB00052AA52AA000000000000000052AA5ACBFD
:102AC00052AA00000000000000000000000000000A
:102AD000000052AA52AA52AA000000000000000002
:102AE00000000000000000000000000052AA5ACBC5
:102AF0005ACB0000000000000000000000005ACB8C
:102B000052AA52AA00000000000052AA52AA52AAD9
:102B100052AA52AA52AA00005ACB52AA52AA5ACB7F
:102B200052AA52AA000000000000000000000000AD
:102B300000000000000000000000000052AA52AA9D
:102B40005ACB000052AA5ACB000000005ACB52AA1E
:102B5000000052AA52AA00000000000052AA52AA85
:102B60005ACB000052AA5ACB000000005ACB52AAFE
:102B7000000052AA52AA00000000000052AA52AA65
:102B80005ACB000052AA5ACB000000005ACB52AADE
:102B900000005ACB52AA0000000000000000000014
:102BA00000000000000000005ACB52AA5ACB0000DF
:102BB00000005ACB5ACB52AA5ACB000000000000AA
:102BC0000000000052AA52AA52AA00000000000011
:102BD000000052AA52AA52AA5ACB52AA52AA52AAE8
:102BE0000000000052AA5ACB52AA000000000000C8
:102BF000000052AA5ACB52AA00000000000052AABC
:102C000052AA52AA000000000000000052AA52AAD4
:102C100052AA00000000000000005ACB52AA5ACB72
:102C200000000000000000000000000000000000A4
:102C30005ACB5ACB52AA000000000000000000004E
:102C40000000000000000000000052AA52AA52AA90
:102C500000000000000000000000000052AA52AA7C
:102C60005ACB0000000000005ACB52AA52AA000022
:102C70005ACB52AA000052AA5ACB000052AA52AA1A
:102C800052AA000000000000000000000000000048
:102C900000000000000000000000000052AA52AA3C
:102CA00052AA5ACB5ACB0000000052AA52AA0000E6
:102CB00052AA5ACB000000000000000052AA52AAFB
:102CC00052AA5ACB5ACB0000000052AA52AA0000C6
:102CD00052AA5ACB000000000000000052AA52AADB
:102CE00052AA5ACB5ACB0000000052AA52AA0000A6
:102CF00052AA52AA000000000000000000000000DC
:102D000000000000000052AA5ACB52AA52AA52AAAE
:102D100052AA52AA5ACB52AA00000000000000009A
:102D200000005ACB52AA52AA000000000000000086
:102D300052AA5ACB52AA0000000000000000000076
:102D40000000000052AA5ACB52AA00000000000066
:102D500052AA52AA52AA00000000000052AA5ACB5E
:102D600052AA000000000000000052AA5ACB52AA4A
:102D7000000000000000000052AA52AA52AA00005F
:102D8000000000000000000000000000000052AA47
:102D90005ACB52AA00000000000000000000000012
:102DA0005ACB52AA0000000052AA52AA52AA00000E
:102DB0000000000000000000000052AA52AA52AA1F
:102DC00000000000000052AA5ACB52AA000052AAEA
:102DD0005ACB52AA52AA52AA000052AA52AA52AAE6
:102DE00000000000000000000000000000000000E3
:102DF000000000000000000000005ACB52AA5ACB8D
:102E000052AA52AA000000005ACB52AA52AA52AAB1
:102E10005ACB00000000000000005ACB52AA5ACB47
:102E200052AA52AA000000005ACB52AA52AA52AA91
:102E30005ACB00000000000000005ACB52AA5ACB27
:102E400052AA52AA000000005ACB5ACB52AA5ACB1F
:102E500052AA000000000000000052AA52AA00007E
:102E6000000052AA52AA52AA5ACB5ACB52AA52AA2C
:102E700052AA52AA5ACB0000000000000000000035
:102E800052AA52AA5ACB00000000000000005ACB00
:102E900052AA5ACB00000000000000000000000011
:102EA000000052AA52AA52AA0000000052AA52AA36
:102EB0005ACB000000000000000052AA52AA5ACBD0
:102EC00000000000000000005ACB52AA52AA0000E5
:102ED0000000000000005ACB52AA52AA00000000D5
:102EE000000052AA52AA000000000000000052AAEE
:102EF0005ACB52AA52AA0000000052AA52AA52AAC1
:102F000052AA00000000000052AA52AA52AA5ACBAC
:102F1000000000005ACB52AA52AA52AA52AA00009C
:102F20000000000052AA52AA52AA00005ACB52AA8C
:102F300052AA5ACB000000005ACB52AA52AA000053
:102F40000000000000000000000000000000000081
:102F5000000000000000000052AA5ACB52AA52AA58
:102F600052AA000000005ACB5ACB52AA52AA52AA27
:102F7000000000000000000052AA5ACB52AA52AA38
:102F800052AA000000005ACB5ACB52AA52AA52AA07
:102F9000000000000000000052AA5ACB52AA52AA18
:102FA00052AA000000005ACB52AA52AA52AA52AA10
:102FB00000000000000052AA52AA52AA000000001D
:102FC0005ACB52AA5ACB00000000000000000000BB
:102FD00052AA52AA52AA000000000000000052AA01
:102FE00052AA52AA000000000000000052AA52AAF1
:102FF00052AA0000000000000000000000000000D5
:10300000000052AA52AA52AA5ACB52AA52AA52AAB3
:10301000000000000000000052AA52AA52AA0000BC
:1030200000000000000052AA52AA52AA00000000AC
:103030000000000052AA52AA52AA0000000052AAA0
:1030400052AA52AA000000000000000052AA52AA90
:1030500052AA52AA52AA52AA52AA52AA52AA00008C
:1030600000000000000000005ACB5ACB52AA52AA1E
:1030700052AA52AA5ACB5ACB52AA00000000000012
:10308000000052AA5ACB52AA0000000052AA52AA2B
:1030900052AA000000005ACB52AA52AA0000000017
:1030A0000000000000000000000000000000000020
:1030B00000000000000052AA52AA52AA52AA000020
:1030C0000000000052AA52AA5ACB52AA52AA0000EB
:1030D00000000000000052AA52AA52AA52AA000000
:1030E0000000000052AA52AA5ACB52AA52AA0000CB
:1030F00000000000000052AA52AA52AA52AA0000E0
:103100000000000052AA52AA52AA52AA52AA0000D3
:103110000000000052AA52AA52AA000052AA52AAC3
:103120005ACB00000000000000000000000052AA7E
:103130005ACB5ACB000000000000000052AA5ACB24
:1031400052AA000000000000000052AA5ACB52AA66
:10315000000000000000000000000000000000006F
:10316000000052AA5ACB52AA5ACB52AA0000000021
:1031700000000000000052AA52AA5ACB0000000032
:10318000000000005ACB52AA52AA00000000000022
:10319000000052AA52AA52AA0000000052AA52AA43
:1031A00052AA0000000000000000000000005ACBFE
:1031B00052AA52AA5ACB5ACB52AA000000000000D1
:1031C000000000000000000052AA52AA5ACB5ACBBD
:1031D00052AA52AA000000000000000000000000F7
:1031E00052AA5ACB52AA00000000000000000000C2
:1031F0000000000052AA5ACB52AA000000000000B2
:1032000000000000000000000000000000000000BE
:1032100000000000000000000000000000000000AE
:10322000000000000000000000000000000000009E
:10323000000000000000000000000000000000008E
:1046800000000000000000002DE9F84F84B0DFF8C2
:10469000544694F8058094F809E0002101914746BA
:1046A0006169C21DD21B00258A5CE17AE271002398
:1046B000666A0A2801FB0E6602D1236266629DE0EB
:1046C000404524BF94F806908145F8D3618A0029BB
:1046D00018BF002AF3D094F80AA0E17811B1227A29
:1046E000E2710DE0A0F1D401072924BFA0F1E70198
:1046F000062901D3D12803D1216A0AFB12122262B2
:10470000A0F1300261690A2A04D27F42CA1992F8E4
:104710003720E271276A94F807C0A26A0AFB0C7A74
:10472000524506D26662236203E0CF1D5B1CBA5C71
:104730005519DAB2A0EB0806B242F6DBA9EB080085
:10474000C01DC0000EFB050500F028F902E000982E
:10475000401CC0B20090E2790098904247DA4FF0D6
:10476000000B01E000F0FAF8677ABB45EFDA00F0E1
:1047700008F990F8018000F0F8F819BFA7EB0B07D3
:1047800001FB0727174601FB0B77002601E0761C8B
:10479000F6B2A07A8642E5DADDF808A04FF000090B
:1047A000B2440CE099B21FFA8AF002E01FFA8AF1D3
:1047B00098B200F04CFC09F101005FFA80F9E07A50
:1047C0008145E4DA0122AA40217818EA020F09EBB8
:1047D000070304D0A269002992B2E7D1E2E7207969
:1047E0000028E8D0E269002992B2DBD0DEE7216A36
:1047F000A07A00FB0212217B8A182262ABE02DE92D
:10480000F84F84B002460020DFF8D84494F80590B1
:10481000616994F80BE094F809C0D4F82480019001
:104820000025D01DA0EB09060023885DE0710A2A4F
:10483000A66A07D12662607B60440EFB008EC4F836
:1048400024E088E04A4524BF94F806A09245F8D3B6
:10485000618A00291CBF216A00287CD0E07808B159
:10486000207AE07194F807B0A07A00FB0BF700976C
:10487000A07A276A00FB1B7BBBF1000F05D50098CF
:104880000EFB0C8EC4F824E0311A0098091A207B24
:10489000091A216204E06169C91D5B1C085C4519A5
:1048A000D8B2A2EB09018842F5DBAAEB0900C01DD2
:1048B000C0000CFB050500F071F802E00098401CF8
:1048C000C0B20090E1790098884244DA4FF0000BC2
:1048D00001E000F043F8667AB345EFDA00F051F8F2
:1048E00090F8019000F041F819BFA6EB0B0A01FB0C
:1048F0000A2A924601FB0BAA4FF0000803E008F1D8
:1049000001005FFA80F8A07A8045E2DA029F002673
:10491000474408E099B2B8B201E0B9B298B200F0E9
:1049200096FB761CF6B2E07A8642E8DA0122AA40CB
:10493000217819EA020F06EB0A0304D0A2690029C4
:1049400092B2EAD1E6E720790028EAD0E2690029AC
:1049500092B2DFD0E1E705B0BDE8F08F6D1C0BF13E
:104960000100EDB25FFA80FB7047BDF80010A27A3B
:10497000206A02FB01010291A078E17A626A0028B4
:104980007047072D03DD0198401C0025019001AB05
:10499000039A18886169821888187047ADB2A80810
:1049A00005EB5070C0080390A5EBC005EDB2A80858
:1049B00005EB5071C908A5EBC105EDB200207047A9
:1049C0008028DFF8281302DA00230B7070470A787A
:1049D0000870D82A06D03ED3DA2A28D00ED3DB2A94
:1049E00035D038E0A0F1A002172A38BF203018D304
:1049F000A0F1B70104292ED2213012E0A0F18002EB
:104A0000042A38BF5C300CD301D1E1207047A0F1FB
:104A10008501042938BF5E3003D318BF8A2802D12C
:104A20006330C0B27047BE2815D1812070478628F8
:104A300001D18D207047982801D18E207047AF2872
:104A400001D190207047A92805D1DF2070478C281C
:104A500001D1ED207047002070472DE9F04FA149AA
:104A600004469BB0087B8DF80000002500260DF160
:104A7000040B09E0E8B2205CFFF7A2FF01001CBFB5
:104A80000BF80600761C6D1C204600F00BFCE9B20A
:104A90008142EFD300200BF80600002500264FF0DE
:104AA0000608DFF844928F4C0DF1380A0FE03846C3
:104AB000FFF7A5FE0AE01AF800002038C0B2FFF7A1
:104AC0009EFE6D1EE8B20028F5D10025E7731BF8A5
:104AD0000600002800F08F80761C2C28074628D07E
:104AE0002E2828D03B2822D03F281ED081280AD04B
:104AF0008D280AD08E280AD090280AD098280AD06B
:104B0000E1280AD018E0EA2716E0EB2714E0EE27A8
:104B100012E0EF2710E0DF270EE01BF80600761CFE
:104B2000C72814BF761EFB2706E0BF2704E01F2717
:104B300002E01D2700E01C271BF806002C281DD0D2
:104B40002E281DD03B2817D03F2813D0812809D00C
:104B50008D2809D08E2809D0902809D0982808BF20
:104B6000DF200EE0EA200CE0EB200AE0EE2008E077
:104B7000EF2006E0BF2004E01F2002E01D2000E03F
:104B80001C20C12F207429DBE27BC12A07DB08FB34
:104B900002F24A44A2F281421278520000E000225E
:104BA000C12806DB08FB00F04844A0F282431878D5
:104BB0000243D2B2022AACBF00209DF8000020734D
:104BC00008FB07F109EB01001044A0F286410878C8
:104BD000FFF715FE9DF80000207377E7A7F130017D
:104BE0000A29BFF464AF6D1CE9B230380AF80170CD
:104BF0000A28F2D366E7FF20E0731BB0BDE8F08F10
:104C000038494861024690780872D3784B725378DD
:104C10001B024B821078C3184B8253794B719079E9
:104C200088717047F0B52F4A936AD46A156A517833
:104C30009073012840F2DF1640F23F170FD101298F
:104C400018BF032903D133463C46354615E00029F9
:104C500018BF022911D13B4634463D460DE00129DB
:104C600018BF032902D133463C4605E0002918BF8E
:104C7000022902D13B46344600251562D462936274
:104C8000F0BD10B5174B1C7A9A7A544361439C7B54
:104C9000012C0AD15A78012A18BF032A03D0002A0E
:104CA00018BF022A02D19A6A511A19625C7A597B9A
:104CB000DA7A0C1954436043586210BD38B5044683
:104CC0000848817B0025012906D12046BDE83240F5
:104CD000C3E6FFF7D9FC6D1C605D0028F9D131BD3A
:104CE0000000000000000020BC650008F400002067
:104CF00001B50123012200F001F801BD6946DFF88A
:104D0000540500F02EBB38B50446DFF84C5500F0D2
:104D1000A7FA0022042105E038B5044600F00FF898
:104D200000220821284600F048FD2046FFF7E0FF5A
:104D30002846BDE838400122082100F03EBDDFF8DA
:104D4000185501220421284600F037BDF8B5044665
:104D50000D4616461F462A20FFF7D5FF200AFFF70B
:104D6000DBFFE0B2FFF7D8FF300AFFF7D5FFF0B264
:104D7000FFF7D2FF2B20FFF7C6FF280AFFF7CCFF73
:104D8000E8B2FFF7C9FF380AFFF7C6FFF8B2FFF72E
:104D9000C3FFBDE8F2402C20B5E7000070B5DFF896
:104DA000B044DFF8B814207008704FF4A0753620B6
:104DB000FFF7A9FF012000F023FD207803284FF41E
:104DC000F07612D8DFE800F00204060C082002E0BA
:104DD000782006E0C820FFF79FFFA580668070BDA1
:104DE000A820FFF799FFA680658070BD80B50120DF
:104DF000FFF789FF642000F003FDF720FFF783FF32
:104E0000A920FFF789FF5120FFF786FF2C20FFF72D
:104E100083FF8220FFF780FFC020FFF774FF11207F
:104E2000FFF77AFF0920FFF777FFC120FFF76BFF3D
:104E30004120FFF771FFC520FFF765FF00F0A6F8DE
:104E40000A20FFF769FF8020FFF766FFB120FFF718
:104E50005AFFB020FFF760FF1120FFF75DFFB4207D
:104E6000FFF751FF0220FFF757FFB620FFF74BFF78
:104E70000220FFF751FF4220FFF74EFFB720FFF758
:104E800042FFC620FFF748FFBE20FFF73CFF00F0BF
:104E90007DF80420FFF740FFE920FFF734FF00F022
:104EA00075F83620FFF72FFF6820FFF735FF3A200F
:104EB000FFF729FF6620FFF72FFFE020FFF723FF12
:104EC00000F064F800F060F80F20FFF725FF0D20D8
:104ED000FFF722FF1B20FFF71FFF0A20FFF71CFF31
:104EE0003C20FFF719FF7820FFF716FF4A20FFF755
:104EF00013FF00F049F80E20FFF70EFF0920FFF71F
:104F00000BFF1B20FFF708FF1E20FFF705FF0F20F8
:104F1000FFF702FFE120FFF7F6FE00F037F822204E
:104F2000FFF7FAFE2420FFF7F7FE0620FFF7F4FE56
:104F30001220FFF7F1FE00F027F83620FFF7ECFE15
:104F40004720FFF7E9FE4720FFF7E6FE0620FFF7C0
:104F5000E3FE0A20FFF7E0FE00F016F83020FFF72E
:104F6000DBFE3720FFF7D8FE0F20FFF7D5FE11201C
:104F7000FFF7C9FE782000F043FC2920FFF7C3FEAD
:104F8000BDE80240012009E70720C5E60020C3E68E
:104F90002DE9F8430E4606EB460407463C2C28BF95
:104FA0003C26DFF8B4820122042100F038F8002208
:104FB00000F034F8F80800F0FC093D0A304605F02E
:104FC000F80500F031FC2946FF000022054605E007
:104FD000A818017080F801908770D21CB242F7D3F4
:104FE0002746B7FBF6F406FB1477DFF868923CB16E
:104FF0000A23B2B22946484600F0B3F9641EF7D13D
:105000000A23BAB22946484600F0ABF9012200F063
:1050100005F82846BDE8F24300F0A4BC082140464C
:1050200000F0CBBB70B5DFF8285204466888AE8824
:10503000431E721E9BB292B200210020FFF786FE33
:10504000A988688841432046BDE87040A0E7FEB5C6
:105050000746DFF8FC01144682880E4697423CBFA3
:105060004088864269D2DFF8F05100F067F800F01E
:10507000F7F82A20FFF73CFEFFF763FE012200F05D
:10508000F0F800F0EDF8380A8DF80800791C02A855
:10509000090A477081707F1CC7700123DFF8B47163
:1050A000042202A9384600F05CF9012200F0D9F888
:1050B00000F044F800F0D4F82B20FFF719FEFFF7BA
:1050C00040FE012200F0CDF800F0CAF8300A8DF859
:1050D0000400711C01A8090A46708170761CC67014
:1050E0000123042201A9384600F03BF9012200F017
:1050F000B8F800F023F800F0B3F82C20FFF7F8FD23
:10510000FFF71FFE012200F0ACF800F0A9F8200A1A
:10511000E10800F0F80001F0FC01E2008DF8000069
:105120008DF801108DF802200123032269463846CC
:1051300000F017F9012200F094F8F7BD00220421D5
:10514000284600F03ABBB0F5A07F00DB70472DE9A0
:10515000F84FB1F5F07F78DA1418641E1746B4F5ED
:10516000A07FA8BFC0F5A0771C4665186D1EB5F5D9
:10517000F07FA8BFC1F5F07462183D18531E6A1E77
:105180009BB292B2FFF7E2FDFFF7D9FD00F068F89D
:10519000B8B200EB4000401C00F046FBDDF8289060
:1051A000DFF8B08082464FF0000B00263DE04FF064
:1051B0001F0E19F80030401C521C19F800C04CEAB0
:1051C000032CCCF3C423C3EB032393FBFEF31FFA9E
:1051D00081FE491C0AF80E304FF03F0ECCF3451308
:1051E000C3EB032393FBFEF31FFA81FE0CF01F0CAD
:1051F0000AF80E30CCEB0C2C1F23491C9CFBF3F35C
:105200001FFA81FC401C0AF80C30491C93B21FFAAB
:1052100087FC6345CBD3834607EB4702642392B2F6
:105220005146404600F09DF8761CB0B2A1B28842CB
:1052300003D2002100225846E8E7012200F011F8CD
:105240005046BDE8F24F00F08DBBBDE8F18F000085
:10525000400000204800002000080140010000201C
:1052600000220821284600F0A8BA30B501688468F9
:105270004218416802EB5103C90703D54C4401E0D1
:10528000491C08D19A4218BF12F9011B01D10C30F8
:1052900030BD12F8015B002904F8015BF0D4491E0F
:1052A000F7D5EFE700F1010310F8011B11B110F879
:1052B000011BFBE7C01A704738B5040001D101207B
:1052C00032BD606A28B900F01CF905D00021E16107
:1052D00002E00020206160610020A06204F150051E
:1052E000687820B900212970204600F059FB02207F
:1052F000687000F00AF96068A168E26800F48270E2
:1053000001F404410843217C02F400621043227D31
:1053100001F002010843A16902F001021043227F5B
:1053200001F40071084394F8201002F03802104391
:10533000A26A01F080010843216802F40052104380
:105340000860A0692168000C00F004004860206833
:10535000C16921F40061C1610020686001216970A8
:1053600032BD2DE9FC4106460C461546984600F034
:105370005DFB06F150077978012907D1002C14BF95
:10538000002D012077D03978012901D1022072E067
:105390000121397003237B704FF0000CC7F804C063
:1053A0003463B586F5860021B163B187F1877164F6
:1053B0003164B368B3F5004F09D131680B6823F04D
:1053C00040030B6031680C6844F480440C60316821
:1053D0000B685C0600F062F84446F168B1F5006FB6
:1053E00071681FD1002918BF012D00F06AF804E090
:1053F000316B0A88C26000F04AF8F08E002830D085
:10540000306881688A07F3D400F010FB00F035F8AB
:1054100005D314F1010FF0D000F033F82BE0002C8D
:10542000EBD1F9E7002918BF012D00F03DF806E0A7
:10543000316B0A780273306B411C00F02AF8F08E51
:1054400078B1306881688A07F2D400F0EFFA00F092
:1054500014F803D314F1010FF1D0DDE7002CEED1E5
:10546000DAE742462146304600F0B0F808B1202085
:10547000786000F033F8BDE8F681A0EB0800A042A8
:105480007047012078700021397003207047306B1D
:10549000811C3163F08E411EF186704703D40B6886
:1054A00043F040030B60704709D1336B32681978C1
:1054B0001173316B4A1C3263F18E4A1EF2868046AC
:1054C000704709D1336B32681988D160316B8A1CFF
:1054D0003263F18E4A1EF28680467047B06838B952
:1054E000002100913068C1680091826800920099A3
:1054F0000120787000213970786800B10120C0B2B5
:1055000070476068B0F5827F70472068016821F0BD
:105510004001016070472DE9F843089C06460F469C
:105520009046994600F082FAA9EB0000241800F09A
:105530007DFA344A11684901090D6143009105461D
:1055400005E0009800B900240098401E00903068E3
:1055500081683940B9420CBF01200020404532D05B
:1055600019F1010FF3D000F061FA401BA04201D203
:10557000002CE6D13068416821F0E001416070689C
:10558000B0F5827F09D1B068B0F5004F18BFB0F513
:10559000806F02D13068FFF7B9FFB06AB0F5005FE5
:1055A00009D13068016821F4005101603068026857
:1055B00042F40052026006F15000012141700022C5
:1055C0000270032000E00020BDE8F2837CB50D46A8
:1055D0001646044600962B4601220221FFF79BFF48
:1055E00038B900962B46002280212046FFF793FF12
:1055F00008B100F001F876BD606D40F020006065F4
:10560000032070473C0000202DE9F84F00239E4600
:105610006C4CDFF8B4816D4EDFF8B4B14FF00F0978
:1056200002460CE025682840206007E0C4F804C06A
:105630004F68FF03F6D52068054325605B1C0D68A5
:1056400035FA03F000F0B780012000FA03FC0CEA01
:1056500005056545F2D1486858B301281AD00228DB
:105660001FD0032833D0112817D012281DD0594F2E
:10567000B8421CBF584FB8421BD0584FB8421CBF4D
:10568000574FB84215D0574FB8421CBF564FB8427B
:105690000FD01EE0D1F80CE01BE0C86800F1040E4A
:1056A00017E0C86800F1080E13E0C86800F10C0E9E
:1056B0000FE0886810B94FF0040E0AE001284FF09F
:1056C000080E14BFC2F814C0C2F810C001E04FF0B9
:1056D000000EB5F5807F03D210464FEA830C04E03C
:1056E000A3F10807101D4FEA870CD0F800A009FAB3
:1056F0000CF72AEA07070EFA0CFC4CEA070CC0F874
:1057000000C04868C00099D5376847F00107376086
:105710009F00306800F00100009007F00C0C00982A
:10572000980858F820A009FA0CF72AEA070A5A45FF
:1057300008BF002718D02D4FBA4208BF012713D049
:105740002B4FBA4208BF02270ED02A4FBA4208BFD9
:10575000032709D0284FBA4208BF042704D0274F97
:10576000BA420CBF0527062707FA0CF747EA0A0CCE
:1057700048F820C0E8434F68D4F808C0FF024CBF87
:1057800045EA0C0C00EA0C0CC4F808C04F68D4F8C9
:105790000CC0BF024CBF45EA0C0C00EA0C0CC4F86C
:1057A0000CC04F68D4F804C0BF034CBF45EA0C0CD2
:1057B00000EA0C0C3AE7BDE8F18F02B90904016177
:1057C000704700000004014008000140181002402A
:1057D000000801400000111000001210000021100C
:1057E000000022100000311000003210000C0140B7
:1057F000001001400014014000180140001C01404D
:1058000038B5044600F012F914F1010F054602D034
:1058100004490878041900F009F9401BA042FAD3A2
:1058200031BD00BF3000002010B50446AFF300804A
:10583000204600F005F80446AFF30080204610BD76
:10584000F8B500F10F04E408E400A0422BD2082CC4
:1058500004D2082402E0083000F047F8DFF8002105
:105860001368190005D1002007E00568A5420DD294
:10587000011D08680028F8D11868111D00E0191DE5
:105880000B6883420BD01D68A542F8D359B10B6851
:1058900018680838A04208D2586808600FE000F085
:1058A000CBF80028D7D10020F2BD181908601D1DC3
:1058B000586828511E680F68361B3E601C600868D7
:1058C00000281DBF41680029001D0020106003F161
:1058D0000800F2BD10B5040006D0AFF300802046EA
:1058E00000F003F8AFF3008010BD002800D170472E
:1058F00070B4A0F108021468072C2ED914F0070F19
:105900002BD1DFF85C30596809B18A4203D251606B
:105910005A6015E00146486808B19042FAD3086819
:105920000E18B24219D3964203D124180C600A46CD
:1059300006E0486810B11444A0420ED350604A609B
:10594000506850B114681519854206D100261E60B2
:1059500001680C1914604068506070BC704700000A
:10596000E8000020FFF7B6BF2B4881B0026842F084
:1059700001020260016801F0010100910099426892
:1059800042F0805242600222406800F08050009055
:1059900000982248016862F31A61016001B0704703
:1059A00018B585B004461021002201A800F05AF86D
:1059B00021681B4A91421CD11748036843F4805365
:1059C0000360016801F4805100910099026842F07F
:1059D000040202600221006800F004000090A02090
:1059E000009A019002910322049201A90D48FFF749
:1059F0000BFE06B010BD81B000680B49884209D18A
:105A00000548026842F400620260006800F4006029
:105A10000090009801B07047181002400400014047
:105A20000030014000080140002C0140014840685E
:105A3000704700BF300000200749086808B1002007
:105A400070470648C008C00008600549C908C90079
:105A5000091A0160704700BFF0000020FF04002019
:105A6000F80600204018491C1CBFB1F1010100F8E4
:105A7000012DF9D1704700002DE9F843040016D03C
:105A80002078DFF83064C10713D5706800F00C008F
:105A9000042807D0706800F00C00082840D1706816
:105AA000C1033DD53068810303D56068002800F04C
:105AB00058812078DFF80C94810719D5706810F0B0
:105AC0000C0F07D0706800F00C00082860D17068D7
:105AD000C1035DD43068810703D52269012A40F0F3
:105AE00040813068616920F0F80040EAC100306010
:105AF000207801077BD5A069DFF8CC13002800F0DF
:105B00009D8001220A60FFF791FF0546706A8107B8
:105B10005ED4FFF78BFF401B0228F7D9032023E157
:105B20006068B0F5803F04D1306840F48030306068
:105B300014E008B930680AE0B0F5A02F306806D14B
:105B400040F480203060316841F4803105E020F479
:105B500080303060316821F480213160606858B154
:105B6000FFF764FF054630688103A2D4FFF75EFFAC
:105B7000401B6528F7D3D1E7FFF758FF054630688B
:105B8000810396D5FFF752FF401B6528F7D3C5E781
:105B9000206970B10121C9F80010FFF747FF0546E1
:105BA000306881079DD4FFF741FF401B0228F7D9D9
:105BB000B4E70022C9F80020FFF738FF0546306837
:105BC000810795D5FFF732FF401B0228F7D9A5E7DB
:105BD000DFF8E4221068C0084FF47A71B0FBF1F1ED
:105BE000009100BF0098411E00280091F9D1207853
:105BF000410768D5F0690025C10009D4F06940F07B
:105C00008050F0610125F06900F08050009000980C
:105C1000DFF8B8723868C1051DD4386840F4807068
:105C20003860FFF703FF80463868C10513D4FFF7DB
:105C3000FDFEA0EB08006528F6D36FE70860FFF7CC
:105C4000F5FE0546706A8107D1D5FFF7EFFE401BD0
:105C50000228F7D962E7E068012808D008B9306A5D
:105C600009E00528306A06D140F004003062306A4D
:105C700040F0010005E0400840003062306A20F04A
:105C80000400306241F28938E06858B1FFF7CEFE77
:105C90000746306A810711D4FFF7C8FEC01B404594
:105CA000F7D33BE7FFF7C2FE0746306A810705D509
:105CB000FFF7BCFEC01B4045F7D32FE71DB1F069CD
:105CC00020F08050F061E06900284CD0716801F04C
:105CD0000C01082938D002282AD100F047F80546DF
:105CE0003068810105D5FFF7A1FE401B0228F7D9D6
:105CF00014E7206AB0F5803F05D17168A06821F4EF
:105D00000031014371607268206A616A22F4741282
:105D100002430A437260012000F029F8044630680B
:105D2000810120D4FFF782FE001B0228F7D9F5E697
:105D300000F01CF804463068810114D5FFF776FEA8
:105D4000001B0228F7D9E9E601280AD07068226A08
:105D500000F48031914202BF00F47010616A884201
:105D600001D0012000E00020BDE8F2830020C9F846
:105D70006000FFF75BBE2DE9F041040088464ED07D
:105D8000534F00F077F802D200F06FF847D1206847
:105D9000484D810712D5400703D5696841F4E06199
:105DA00069602078010703D5686840F46050686036
:105DB0006968A06821F0F001014369602178C80793
:105DC00025D56068012802D129688A0303E00228EA
:105DD000296802D18A0102D421E08A071FD56968A7
:105DE000890840EA81006860FFF720FE064668687F
:105DF000616800F00C00B0EB810F08D0FFF716FED1
:105E0000801B41F289318842F1D303202BE03868AE
:105E100000F00700804504D200F027F801D00120EF
:105E200021E02078420705D56968E06821F4E06147
:105E3000014369602178080706D56968206921F463
:105E4000605141EAC001696000F01AF86A682149AE
:105E5000194BC2F30312895CC840186018480068E7
:105E600000F048F80020BDE8F0813968C90848EA28
:105E7000C1013960386800F00700404570470000F4
:105E800010B515490D480A6802F00C04082C10D111
:105E900013A3C2F38344D2031B5D08D5096858439A
:105EA00013A3C1F34041595CB0FBF1F010BD0B48A6
:105EB000584310BD001002403C00002000127A0040
:105EC000380000200000424280044242007000403E
:105ED00000200240446800080410024000093D0010
:105EE00002030405060708090A0B0C0D0E0F10101B
:105EF0000102000038B50D4D0D4B2A7804464FF4D1
:105F00007A711868B1FBF2F2B0FBF2F000F046F8DB
:105F100050B9102C08D2002221464FF0FF3000F07B
:105F200020F8AC60002032BD012032BD30000020DE
:105F30003C0000200901020002D42148815470472E
:105F4000204B02F00F021A4402F8041C70471E494D
:105F50000A6860F30A2240F2FA5060F31F420A60B6
:105F6000704770B5184B1C68C4F302230124C3F1B9
:105F70000705052D2EBF0F2504FA05F56D1E1E1D04
:105F8000072E34BF0023DB1E2940994004FA03F397
:105F9000BDE870405B1E1A401143CBE7401EB0F1D4
:105FA000807F01D3012070470849094A48600023D7
:105FB000F02010708B600720086000207047000000
:105FC00000E400E018ED00E00CED00E010E000E07F
:105FD00023ED00E038B5040001D1012032BD00F00E
:105FE00051F818B900F04AF8FFF705FD32E090F8D3
:105FF0003D10012901D001207047022180F83D1099
:106000000168CA6842F00102CA600168DFF87C20BA
:1060100091421CBFDFF8783099420ED0B1F1804F29
:106020001CBFDFF87020914207D0DFF86C30994236
:106030001CBFDFF86820914205D1896801F0070193
:10604000062905D001680A68084642F0010202608C
:106050000020704702206870211D206800F07FF842
:106060000120A8720121A970E87029716871A971D5
:10607000E871297268726970002032BD00212970B0
:106080002046704704F13C0568787047002C0140B9
:10609000003401400004004000080040000C0040B3
:1060A00070B5044604F13C0600253078012801D182
:1060B000022070BD0120307002227270DFF82001D2
:1060C00022689368034093600868020018BF102894
:1060D00030D0202818BF30282CD0402826D0502877
:1060E00019D060281BD0702806D0B0F5805F27D06B
:1060F000B0F5005F07D022E000F02CF8206881683E
:1061000041F0770105E000F025F82068816841F44E
:106110008041816014E000F019F850210BE0CA685A
:106120004968206800F077F8602104E000F00EF87C
:10613000402100E00146206800F07FF800E00125E2
:106140000120707000213170284670BDCA6849680E
:10615000206851E0CB684A688968206875E0F0B52E
:106160000368204D204A214E214F224CA84218BFDF
:10617000A04208D0B0F1804F18BFB84203D0B0425F
:1061800018BF90420ED123F0700C4B6843EA0C0309
:10619000A84218BFA04207D0B0F1804F1CBFB84240
:1061A000B04201D0904203D123F44072CB68134334
:1061B0004A6923F0800313430360A8428B68C362DB
:1061C0000A68826212BFA04209690163012242612A
:1061D0000169CA0703D50169490849000161F0BD99
:1061E0008800FFFF002C0140000C00400008004028
:1061F000000400400034014010B5036A046A6408DA
:106200006400046223F00A03846924F0F00444EA81
:106210000214846123E010B5036A046A24F01004B8
:10622000046223F0A003846924F4704444EA023435
:10623000846143EA0113036210BD826822F0700298
:10624000114341F007018160704710B5846824F460
:106250007F442143114341EA0321816010BD19436A
:10626000016210BDF8B586B000F03CF900F0EAF824
:1062700001A8002100220023002480E81E006748B6
:10628000674C026842F020020260016801F02001C0
:1062900000910099026842F0040202600022006846
:1062A00000F0040000900C2100982046FFF785FACA
:1062B000012102910C2002210190002204910392FD
:1062C00001A92046FFF7A0F9564C574820604FF42B
:1062D00082710020E06020616061616008204FF4FD
:1062E0000071E061A1610A204FF400420021E062E8
:1062F000A26021626162A1622046FEF7DDFF08B163
:1063000000F0D1F802A8002100220023002580E837
:106310002E00CDE9001247204449E065A1652266C0
:106320004FF6FF75A266E2662267656604F15800C3
:10633000FFF750FE08B100F0B6F84FF4805002901D
:1063400002A904F15800FFF7ABFE08B100F0ABF86A
:10635000002000900190694604F1580000F0D4F844
:1063600008B100F0A0F804F15800FFF740FEFEF776
:106370003DFD2F4C2F4E304F2046FEF741FC0020B4
:10638000FEF750FC0121317039700420FEF706FD44
:106390000020FEF747FE04F648500090AF23292264
:1063A00000210020FEF7CFFE4FF47A70FFF728FAA5
:1063B0000220307038702846FEF734FE0120FEF7C8
:1063C00031FC02203070387000210020FEF759FCAB
:1063D0001A4C1B4E00202060356000BF33A0FEF732
:1063E0006DFC00210120FEF74CFC25600020306090
:1063F00031A0FEF763FC00210220FEF742FC25607D
:106400000020306031A0FEF759FC4FF47A70FFF79E
:10641000F7F90420FEF7C2FCFEE700001810024066
:10642000000801404800002000300140002C0140DD
:10643000300100080A0000200B0000201800002096
:106440001C00002000B58FB0282105A800F098F8A6
:106450001421684600F094F84FF480310022069130
:1064600007920D9101200590099002224FF4E0114E
:106470000C920E9105A8FFF7FFFA08B100F013F88F
:10648000022101910F204FF48061009000220391BE
:106490000292049202216846FFF76DFC08B100F0F9
:1064A00002F80FB000BD72B6FEE70000D8B3D98481
:1064B000D8A7D98500000000D8AED988D8B420D894
:1064C000A7D988D985D8AFDB8C000000D8B9D98589
:1064D000D98820D987D988D8A7DB8C20D8B3D8B160
:1064E0000000000080B50748016841F0100101601C
:1064F0000320FFF72CFD0F20FFF7FCFCFFF734FA19
:10650000002002BD0020024070B500F13C031A7863
:10651000012A01D1022070BD01221A7002245C7090
:1065200005686E68AC680A6826F0700616436E60EF
:1065300002680E4882421CBF0E4DAA420BD0B2F137
:10654000804F1CBF0C48824205D0094DAA421CBF97
:106550000A48824204D1486824F0800404439460CD
:10656000012159700020187070BD0000002C0140FE
:10657000000800400034014000040040000C0040CE
:10658000002200F001B8000000B500BF13009646DD
:106590009446103928BFA0E80C50FAD85FEA417C35
:1065A00028BF0CC048BF40F8042BC90728BF20F8FB
:1065B000022B48BF00F8012B00BD0000C1C1C1C1C2
:1065C0000000C2C202020100C3C301010100C4C431
:1065D000C4C40000C5C503030100C6C6C6C600008A
:1065E000C7C700000100C804C8040101C9FEE9953D
:1065F0000101CA05CA050101CB06CB060101CC0782
:1066000008070101CD090A090101CE0B0C0B01019C
:10661000CFCFCFCF0100D0D0D0D00100D1D1D1D1B8
:106620000100D2D2D2D20100D38AD38A0101D40E82
:10663000D40E0101D50FD50F0101D61AD61A0101CA
:10664000D7D7D7D70000D8D8D8D80101D9D9D9D928
:106650000101DA1BF1F00101DBF57FF60101DCDC61
:10666000DCDC0101DD80DD800101DE83DE830101F0
:10667000DF8CDF8C0101E0E0E0E00000E1F3E1F31A
:106680000101E2E2E2E20000E3F8E3F80101E4F2F2
:10669000E4F20101E5FEE7950101E6E6E6E6010028
:1066A000E7E7E7E70000E8E8E8E80000E9E9E9E90A
:1066B000000081FD81FD01018D9D9E9D0101ECC0C9
:1066C000A0C00101EDC09CC001018E8E8E8E010024
:1066D00090FA90FA0101F0F0F0F00000F1F1F1F120
:1066E0000000F2F2F2F20000F3F3F3F30000F4F42E
:1066F000F4F40000F5F5F5F50000F6F6F6F6000006
:10670000F7F7F7F70000F8F8F8F80000F9F9F9F9E9
:106710000000FAFAFAFA0000A5A59F9F0100FCFC10
:10672000FCFC0000FDFDFDFD0000FEFEFEFE000085
:10673000FFFFFFFF0000000030B4002512E050F81A
:10674000042BD30744BF4A44521E091F042942F8B0
:10675000045BFAD213468C0744BF15809B1CC90703
:1067600048BF1D7050F8041B0029E8D130BC7047A9
:1067700010B5074979441831064C7C44163404E0BE
:106780000A68081D114488470146A142F8D110BD8E
:106790000800000024000000A1FFFFFFB00000007F
:1067A0004800002000000000C3EAFFFFA80100002D
:1067B000480000000000002000F00DF8002801D083
:1067C000FFF7D6FFAFF300800020AFF30080FFF7A4
:1067D00049FD00F002F80120704700F001B8000008
:1067E0000746384600F002F8FBE7000080B5AFF33B
:1067F0000080024A11001820ABBEFBE72600020011
:106800000548014603B4684680F30988AFF3008069
:10681000AFF30080FFF7D0FFA5EDF5FEFEE7FEE742
:10682000FEE7FEE7FEE770477047704700F000B8EC
:1068300002494A68087882184A6070473000002090
:106840007047000000000000000000000102030487
:1068500006070809014880470148004741680008C9
:1068600001680008FFF7FEBFFFF7FEBFFFF7FEBF9E
:10687000FFF7FEBFFFF7FEBFFFF7FEBFFFF7FEBF4C
:10688000FFF7FEBFFFF7FEBFFFF7FEBFFFF7FEBF3C
:10689000FFF7FEBFFFF7FEBFFFF7FEBFFFF7FEBF2C
:1068A000FFF7FEBFFFF7FEBFFFF7FEBFFFF7FEBF1C
:1068B000FFF7FEBFFFF7FEBFFFF7FEBFFFF7FEBF0C
:1068C000FFF7FEBFFFF7FEBFFFF7FEBFFFF7FEBFFC
:1068D000FFF7FEBFFFF7FEBFFFF7FEBFFFF7FEBFEC
:1068E000FFF7FEBFFFF7FEBFFFF7FEBFFFF7FEBFDC
:1068F000FFF7FEBFFFF7FEBFFFF7FEBFFFF7FEBFCC
:10690000FFF7FEBFFFF7FEBFFFF7FEBFFFF7FEBFBB
:10691000FFF7FEBFFFF7FEBFFFF7FEBFFFF7FEBFAB
:10692000FFF7FEBFFFF7FEBFFFF7FEBFFFF7FEBF9B
:10693000FFF7FEBFFFF7FEBFFFF7FEBFFFF7FEBF8B
:10694000FFF7FEBFFFF7FEBFFFF7FEBFFFF7FEBF7B
:10695000FFF7FEBFFC000001FB00FE01FD00FEFF93
:10696000F500FEFFEE000001F9000010FC0001122E
:086970007AFD0003E001400183
:040000050800680186
:00000001FF
