:020000040800F2
:1000000098070020D501000867180008E9120008C9
:100010006518000809050008811B000800000000A1
:100020000000000000000000000000005919000856
:100030000B05000800000000691800085B190008A3
:10004000EF010008EF010008EF010008EF010008D0
:10005000EF010008EF010008EF010008EF010008C0
:10006000EF010008EF010008EF010008EF010008B0
:10007000EF010008EF010008EF010008EF010008A0
:10008000EF010008EF010008EF010008EF01000890
:10009000EF010008EF010008EF010008EF01000880
:1000A000EF010008EF010008EF010008EF01000870
:1000B000EF010008EF010008EF010008EF01000860
:1000C000EF010008EF010008EF010008EF01000850
:1000D000EF010008EF010008EF010008EF01000840
:1000E000EF010008EF010008EF010008EF01000830
:1000F000EF010008EF010008EF010008EF01000820
:10010000EF010008EF010008EF010008EF0100080F
:10011000EF010008EF010008EF010008EF010008FF
:10012000EF010008EF010008EF010008EF010008EF
:1001300000F002F800F03EF80AA090E8000C8244BB
:100140008344AAF10107DA4501D100F033F8AFF298
:10015000090EBAE80F0013F0010F18BFFB1A43F0A5
:1001600001031847C41A0000E41A0000103A24BF23
:1001700078C878C1FAD8520724BF30C830C144BF0C
:1001800004680C607047000000230024002500264E
:10019000103A28BF78C1FBD8520728BF30C148BFEA
:1001A0000B6070471FB59DE8030000F0CFF81FBD3E
:1001B00010B510BD00F026F91146FFF7F3FF01F06E
:1001C000F1FC00F044F903B4FFF7F2FF03BC00F0C8
:1001D00075F900000948804709480047FEE7FEE737
:1001E000FEE7FEE7FEE7FEE7FEE7FEE7FEE7FEE7E7
:1001F00004480549054A064B70470000BD19000830
:100200003101000898010020980700209803002081
:100210009803002070B5064600F07CF8056806F1EA
:100220000B0020F00704B4429CBF002070BD2B4699
:100230006A68BAB11068A04210D304F1080188427C
:100240003CBF5068586007D351681019416011686D
:10025000091B016058601460101D70BD1346526880
:10026000002AE7D12146284600F05CF80028DED1BC
:1002700070BD70B50446051F00F04CF80068002CF6
:1002800014BF446870BD002C18BFAC423CBF204670
:100290006468F8D301680A18AA4218BF456003D100
:1002A0002A6805461144016028684119A1421CBF13
:1002B0006C6070BD6168696021680844286070BD29
:1002C0004FF0000200B5134694469646203922BFEF
:1002D000A0E80C50A0E80C50B1F12001BFF4F7AF3A
:1002E000090728BFA0E80C5048BF0CC05DF804EB1C
:1002F000890028BF40F8042B08BF704748BF20F88A
:10030000022B11F0804F18BF00F8012B7047704787
:1003100070477047004870473C01002070477047A5
:100320007047704738B504460A4600206946AFF367
:100330000080002808BF38BD02460099204600F022
:100340003FF8012038BD012000F054B8F8B5AFF3F4
:100350000080054600200C46102000BF0646A81964
:10036000A0420DD9324669460020AFF30080070055
:1003700008BF00F03FF80098A04218BF0546C41916
:10038000FFF7C8FF05600746F01D20F0070046197B
:10039000284600F00AF8B44208BFF8BDA21B314657
:1003A0003868BDE8F84000F00BB800210160C0E9F2
:1003B000011070471020704700487047340100203A
:1003C000034640688C46002818BF88423CBF03465D
:1003D0004068F8D318681844884207D00CF103002D
:1003E00020F00700001D411A521A0146081D0A603C
:1003F000FFF73FBF10B500F039F8BDE8104000F03E
:100400002FB870477546FFF7D7FFAE46050069461F
:10041000534620F00700854618B020B5FFF7E8FEE8
:10042000BDE820404FF000064FF000074FF00008F5
:100430004FF0000B21F00701AC46ACE8C009ACE876
:10044000C009ACE8C009ACE8C0098D46704710B5DA
:100450000446AFF300802046BDE81040FFF7B3BE6E
:10046000002801D000F02AB87047000010B501281C
:1004700005D0002103A000F027F8012010BD09A13C
:10048000F8E7000053494752544D454D3A204F7507
:1004900074206F662068656170206D656D6F72797C
:1004A000000000003A2048656170206D656D6F7234
:1004B0007920636F72727570746564000149182049
:1004C000ABBEFEE72600020070B505460C460A20CA
:1004D00000E06D1C00F011F835B128780028F8D143
:1004E00002E0641C00F009F814B120780028F8D16B
:1004F000BDE870400A20AFF3008008B569468DF86A
:1005000000000320ABBE08BDFEE7704770B504468F
:1005100000F010F90546601C02D00448007804443D
:1005200000F008F9401BA042FAD370BD0000002083
:100530002DE9F84FDFF8C8910024A9F1040B2346F8
:100540000F2709F1040AABF1040ED1E00125A54003
:1005500006EA0502AA4276D1DFF8A8C14E68A6EBEA
:100560000C0866452BD00DDC032E34D005DC36B3E9
:10057000012E19D0022E2FD11BE0112E16D0122ED3
:100580002AD119E0B8F5881F19D006DCB8F5803FEC
:1005900015D0B8F5801F1FD111E0B8F5001F0ED09F
:1005A000B8F5041F18D10AE0CB6815E0CB681B1D15
:1005B00012E0CB6808330FE0CB680C330CE08B689B
:1005C0002BB1012B4FF0080303D0456104E0042355
:1005D00002E0056100E00023FF2A01D8064601E0A1
:1005E00000F104064FEA840501D9A5F12005D6F8EB
:1005F000008007FA05FC28EA0C0803FA05F548EA2A
:100600000508C6F800804D68ED0070D53E4DAE6916
:1006100046F00106AE61AD6924F0030605F0010560
:1006200000953A4D06EB050CDCF80850A607360F8E
:1006300007FA06F825EA0805DFF8D480404503D11B
:100640004FF0000825E052E0DFF8C880404502D1B5
:100650004FF001081DE0DFF8C080404502D14FF0A7
:10066000020816E0DFF8B480404502D14FF00308DD
:100670000FE0DFF8AC80404502D14FF0040808E0FD
:10068000DFF8A080404502D14FF0050801E04FF0AF
:10069000060808FA06F848EA0508CCF808804D680C
:1006A000D9F80060ED024D4601D5164300E09643AF
:1006B0002E604D68DAF80060AD02554601D516434C
:1006C00000E096432E604D68DBF80060AD035D46A8
:1006D00001D5164300E096432E604D68DEF80060B9
:1006E000ED03754601D5164300E096432E60641C69
:1006F0000A681646E2407FF429AFBDE8F88F000093
:1007000008040140000011100010024000000140E8
:1007100000080140000C014000100140001401409D
:1007200000180140001C01400AB101617047090432
:10073000FBE70000014880687047000000000020CF
:1007400002488168027811448160704700000020EF
:10075000074810B5016841F010010160032000F066
:1007600067F80F2000F006F800F024F8002010BD14
:100770000020024070B50D4D04464FF47A71287880
:10078000B1FBF0F00A490968B1FBF0F000F009FC98
:1007900048B9102C07D200222146501E00F028F83C
:1007A00000206C6070BD012070BD000000000020C2
:1007B0000C0000200C4808B5816941F001018161FD
:1007C000816901F001010091C16941F08051C1616D
:1007D000C06900F0805000900448416821F0E06159
:1007E00041F00071416008BD00100240000001406E
:1007F000F0B40E4B1B680C46C3F30223C3F107058C
:10080000042D00D90425191D072901D2002300E079
:10081000DB1E012606FA05F1491E214099409E4043
:10082000761E16403143F0BC01F0ABB90CED00E090
:10083000064900F0070208684FF6FF03184040EA37
:100840000220034A10430860704700000CED00E0EE
:100850000000FA052DE9F0470F46050061D0434E30
:10086000306800F00700B84209D2306820F0070075
:1008700038433060306800F00700B84251D1286832
:100880003B4C810712D5400703D5606840F4E06017
:1008900060602878000703D5606840F460506060AD
:1008A0006068A96820F0F000084360602878C007FD
:1008B00028D06868012810D02168022810D0890744
:1008C00000292EDA616821F0030101436160FFF71E
:1008D00031FF804641F288390DE021688903EFE756
:1008E0008901EDE7FFF726FFA0EB0801494502D992
:1008F0000320BDE8F0876068696800F00C00B0EB89
:10090000810FEFD1306800F00700B8420BD9306892
:1009100020F0070038433060306800F00700B8422C
:1009200001D00120E5E72878400705D56068E9682F
:1009300020F4E060084360602878000706D560680E
:10094000296920F4605040EAC100606000F038F886
:100950006168084AC1F30311515CC8400649086048
:1009600006480068FFF706FF0020C2E700200240AB
:10097000001002400E1C00080C00002004000020A3
:100980000448054900684968044AC1F30221515CE2
:10099000C84070470C000020001002401E1C0008D8
:1009A0000448054900684968044AC1F3C221515C02
:1009B000C84070470C000020001002401E1C0008B8
:1009C0000E4A51680E4801F00C03042B11D0082B7D
:1009D0000FD10C48C1F38343C903C05C0AD55168E9
:1009E000084AC1F34041921E515C054A5043B0FB96
:1009F000F1F070470449484370470000001002407E
:100A000000127A00FE1B000800093D002DE9F84F96
:100A1000040070D02078C04DC00749D06868C0F38A
:100A20008100012807D06868C0F38100022809D13D
:100A30006868C00306D52868800339D56068002837
:100A4000E7D035E06068B0F5803F0BD010B1B0F56D
:100A5000A02F11D0286820F480302860286820F466
:100A6000802002E0286840F480302860606890B1FF
:100A7000FFF760FE06460AE0286840F48020286000
:100A8000F0E700BFFFF756FE801B642873D8286884
:100A90008003F7D50CE0FFF74DFE064605E000BFEA
:100AA000FFF748FE801B6428F0D828688003F7D43D
:100AB00020789A4E80074FF001094FF0000839D591
:100AC000686810F00C0F07D06868C0F38100022836
:100AD00009D16868C00306D42868800714D5206946
:100AE000012808D110E02069B0B1C6F80090FFF7E6
:100AF00021FE074605E00AE1FFF71CFEC01B0228A5
:100B0000C4D828688007F7D52868616920F0F80004
:100B100040EAC10028600DE0C6F80080FFF70AFE39
:100B2000074604E0FFF706FEC01B022823D828680A
:100B30008007F7D4207800072CD57948A169D9B16E
:100B4000C0F80090FFF7F6FD074604E0FFF7F2FD5E
:100B5000C01B02280FD8686A8007F7D571484FF488
:100B6000FA510068B0FBF1F0009000BF0098411E00
:100B70000091FAD20EE080E0C0F80080FFF7DAFDC5
:100B8000074604E0FFF7D6FDC01B022875D8686A47
:100B90008007F7D42078400760D5E8690027C000B7
:100BA00008D4E86940F08050E861E869012700F066
:100BB000805000905C480168C90513D401688346E1
:100BC00041F480710160FFF7B5FD824606E000BF89
:100BD000FFF7B0FDA0EB0A0064284ED8DBF8000058
:100BE000C005F5D5E06801280AD008B1052813D062
:100BF000286A20F001002862286A20F0040002E040
:100C0000286A40F001002862E06841F2883B98B110
:100C1000FFF790FD82460BE0286A40F0040028624E
:100C2000EEE700BFFFF786FDA0EB0A0159455AD851
:100C3000286A8007F6D50CE0FFF77CFD824605E0C8
:100C4000FFF778FDA0EB0A0159454CD8286A8007C8
:100C5000F6D41FB1E86920F08050E861E06988B3FC
:100C60006968C1F38101022944D00228C6F8608076
:100C700004D0FFF75FFD044638E034E0FFF75AFD8B
:100C8000074604E0FFF756FDC01B02282BD8286852
:100C90008001F7D4206AB0F5803F05D16868A1686B
:100CA00020F4003008436860D4E90801084369680B
:100CB00021F4741108436860C6F86090FFF73AFDAC
:100CC000044606E025E000BFFFF734FD001B0228C4
:100CD00009D828688001F7D51BE000BFFFF72AFD7F
:100CE000001B022802D90320BDE8F88F2868800184
:100CF000F4D40EE00128F7D06868226A00F480314D
:100D0000914204D1616A00F47010884201D0012040
:100D1000EAE70020E8E7000000100240000042423D
:100D2000800442420C0000200070004070B50400B6
:100D300009D0606A002540B125616561A56294F81B
:100D4000510040B10CE0012070BD6068B0F5827FB9
:100D5000F4D0E561F2E784F85050204600F040F806
:100D6000022084F851002068016821F040010160F0
:100D7000A088218900F4827001F404410843A1890C
:100D800001F400610843217C01F002010843217D48
:100D900001F001010843218B01F400710843217F18
:100DA00001F03801084394F8201001F08001084355
:100DB000218D01F40051084321680860A0690421D5
:100DC00001EA1040216848602068C16921F400618F
:100DD000C1616565012084F85100002070BD0000EC
:100DE00000B585B000210091019102910391006846
:100DF0000F4988421AD10F48816941F480518161BD
:100E0000816901F480510491816941F0040181619B
:100E10008069694600F004000490A0200090022040
:100E20000190032003900448FFF782FB05B000BD4A
:100E30000030014000100240000801402DE9F84F49
:100E4000984616468A460446FFF774FC814694F895
:100E5000510001281ED1BAF1000F73D0002E71D0BD
:100E600094F85000012815D0012784F85070032011
:100E700084F8510000256565C4F830A0A686E68692
:100E8000A563A587E58765642564A068B0F5004F74
:100E900003D00CE00220BDE8F88F2068016821F043
:100EA000400101602068016841F4804101602068D0
:100EB0000168490603D4016841F040010160E0681F
:100EC000B0F5006F606803D048B3012E27D047E02B
:100ED00008B1012E1FD1206B21680088C86006E090
:100EE00020688168890709D5216B0988C160206B5A
:100EF000801C2063E08E401EE0860CE0FFF71AFCA9
:100F0000A0EB0901414503D3B8F1FF3F03D035E021
:100F1000B8F1000F32D0E08E0028E1D123E0206B41
:100F200021680078087306E02068816889070AD57F
:100F3000216B09780173206B401C2063E08E401EFA
:100F4000E0860DE02BE0FFF7F5FBA0EB0901414542
:100F500003D3B8F1FF3F03D010E0B8F1000F0DD07C
:100F6000E08E0028E0D14A464146204600F07DFC54
:100F700008B120206065A06830B109E084F85170A4
:100F800084F85050032086E72068C168806800908C
:100F900084F8517004F8505F60680028F3D0012095
:100FA00079E710B5401EB0F1807F01D3012010BD5C
:100FB0004FF0E02460610F21601700F0E2FD002097
:100FC000A06107202061002010BD000070B590F8DE
:100FD0003C20012A2CD0012480F83C40022280F8D9
:100FE0003D2003685A689D6822F070060A68324303
:100FF0005A60104B02689A420ED00F4B9A420BD0A7
:10100000B2F1804F08D00D4B9A4205D00C4B9A425A
:1010100002D00C4B9A4204D1496825F08003194351
:10102000916080F83D40002180F83C10084670BD7A
:10103000022070BD002C014000340140000400403B
:1010400000080040000C004010B5040003D094F8E4
:101050003D0010B107E0012010BD002084F83C00E5
:10106000204600F01FF8022084F83D00211D206872
:1010700000F0A6FC012084F8460084F83E0084F8C5
:101080003F0084F8400084F8410084F8420084F86E
:10109000430084F8440084F8450084F83D000020B3
:1010A00010BD000008B500680649884208D106480E
:1010B000816941F400618161806900F40060009001
:1010C00008BD0000002C01400010024090F83D10C7
:1010D000012901D001207047022180F83D100168EC
:1010E000CA6842F00102CA6000680E4988420ED008
:1010F0000D4988420BD0B0F1804F08D00B4988428F
:1011000005D00B49884202D00A49884204D181683F
:1011100001F00701062903D0016841F001010160D7
:1011200000207047002C01400034014000040040C2
:1011300000080040000C004070B5044690F83C00E8
:101140000025012817D0012684F83C60022084F88D
:101150003D002068826822F0770222F47F4282609C
:101160000868502838D00DDC20284FD005DC90B31B
:10117000102811D14AE0022070BD302846D0402806
:101180000AD13BE060282FD070280DD0B0F5805FE9
:1011900003D0B0F5005F12D0012584F83D60002037
:1011A00084F83C00284670BDCB68D1E90121206855
:1011B00000F054FC2068816841F0770109E0CB68B9
:1011C000D1E90121206800F049FC2068816841F4E0
:1011D00080418160E1E719E0CA684968206800F051
:1011E0004FFC5021206806E0CA684968206800F07A
:1011F00058FC6021206800F03BFCCEE7CA684968D3
:10120000206800F03DFC40212068F4E72268014698
:101210001046F0E770B5040004D094F841000025B2
:1012200010B106E0012070BD84F84050204600F067
:1012300023F8242084F841002068C16821F400517B
:10124000C160204600F040FC2068016921F4904113
:1012500001612068416921F02A0141612068C1686B
:1012600041F40051C1606564202084F8410084F895
:1012700042006563002070BD30B585B00024009445
:1012800001940294039400681449884224D11448BC
:10129000816941F480418161816901F48041049157
:1012A000816941F00401816180690E4D00F0040004
:1012B00004904FF4007000900220019003200390EE
:1012C00069462846FFF734F92815CDE90004694638
:1012D00028460294FFF72CF905B030BD00380140D4
:1012E0000010024000080140FEE700002DE9F04731
:1012F00001EB41064FF416740546A64200D20C4697
:10130000DFF88CA00122042157465046FFF70CFA63
:10131000002208213846FFF707FAF82000EA1529CD
:10132000FC2000EAD508E806070E2046FEF772FF0B
:101330000546002007E000BF05F800902918C01CF2
:1013400081F801808F70A042F6D3B6FBF4F0B6FBB3
:10135000F4F704FB106857B1002606E0A2B20A2396
:1013600029460C48FFF76AFD761CBE42F6D31FFAE9
:1013700088F20A2329460748FFF760FD0122082169
:101380005046FFF7D1F92846BDE8F047FEF771BF98
:10139000000801404C00002070B50A4C05466088EA
:1013A000401E83B2A0880021401E82B2084600F091
:1013B0000FF9A188608841432846BDE87040FFF7D7
:1013C00095BF00004400002010B500F0D7F80120C0
:1013D00000F054F96420FFF799F8F72000F04EF977
:1013E000A92000F065F9512000F062F92C2000F0EE
:1013F0005FF9822000F05CF9C02000F03FF9112075
:1014000000F056F9092000F053F9C12000F036F938
:10141000412000F04DF9C52000F030F9002000F027
:1014200047F90A2000F044F9802000F041F9B1208A
:1014300000F024F9B02000F03BF9112000F038F959
:10144000B42000F01BF9022000F032F9B62000F0C1
:1014500015F9022000F02CF9422000F029F9B720FC
:1014600000F00CF9C62000F023F9BE2000F006F9C8
:10147000002000F01DF9042000F01AF9E92000F026
:10148000FDF8002000F014F9362000F0F7F868208D
:1014900000F00EF93A2000F0F1F8662000F008F9AB
:1014A000E02000F0EBF8002000F002F9072000F047
:1014B000FFF80F2000F0FCF80D2000F0F9F81B20D9
:1014C00000F0F6F80A2000F0F3F83C2000F0F0F805
:1014D000782000F0EDF84A2000F0EAF8072000F04C
:1014E000E7F80E2000F0E4F8092000F0E1F81B20F6
:1014F00000F0DEF81E2000F0DBF80F2000F0D8F836
:10150000E12000F0BBF8002000F0D2F8222000F02B
:10151000CFF8242000F0CCF8062000F0C9F8122003
:1015200000F0C6F8072000F0C3F8362000F0C0F83D
:10153000472000F0BDF8472000F0BAF8062000F080
:10154000B7F80A2000F0B4F8072000F0B1F8302016
:1015500000F0AEF8372000F0ABF80F2000F0A8F84C
:10156000112000F08BF87820FEF7D0FF292000F042
:1015700085F8BDE81040012000F054B870B5012294
:101580000D4D140221462846FFF7CEF81420FEF731
:10159000BDFF002221462846FFF7C6F86420FEF76B
:1015A000B5FF012221462846FFF7BEF8BDE870408E
:1015B0006420FEF7ABBF00000008014001B5012325
:1015C0001A4669460148FFF739FC08BD4C00002067
:1015D0002DE9F04107461C4615460E462A2000F02C
:1015E0004DF8380A00F064F8F8B200F061F8280A03
:1015F00000F05EF8E8B200F05BF82B2000F03EF857
:10160000300A00F055F8F0B200F052F8200A00F06D
:101610004FF8E0B200F04CF8BDE8F0412C2000F0AB
:101620002DB8000070B5134C134920700870362097
:1016300000F024F80120FEF769FF20784FF4A07530
:101640004FF4F07658B101280BD002280BD00328B4
:1016500004D1A82000F02CF8A680658070BD082079
:1016600002E07820F6E7C82000F022F8A580668026
:1016700070BD0000440000201100002070B50B4C2C
:101680000546002208212046FFF74EF800220421DB
:101690002046FFF749F82846FFF790FF2046BDE8AF
:1016A000704001220821FFF73FB800000008014008
:1016B00070B50B4C0546012204212046FFF734F893
:1016C000002208212046FFF72FF82846FFF776FF73
:1016D0002046BDE8704001220821FFF725B8000030
:1016E000000801402DE9F04385B000242D48009406
:1016F000019402940394816941F020018161816920
:1017000001F020010491816941F004018161816946
:1017100001F004010491816941F00801816181694E
:1017200001F008010491816941F010018161806933
:10173000DFF8748000F010004FF4867504900022EA
:1017400029464046FEF7F0FFDFF860904FF4E0478F
:10175000002239464846FEF7E7FF0095022601259C
:101760000396CDE9015469464046FEF7E1FE009735
:101770000396CDE9015469464846FEF7D9FEE803D1
:10178000CDE90004694648460294FEF7D1FE4020A8
:10179000CDE90004694606480294FEF7C9FE05B08B
:1017A000BDE8F0830010024000080140000C014039
:1017B00000100140104810B50E4901604FF48271CD
:1017C00041604FF4004181600021C1604FF400721C
:1017D0000161C0E905120822C0E907214162816266
:1017E0000A21C162FFF7A2FA002801D072B6FEE713
:1017F00010BD0000003001404C00002010B586B044
:10180000002417480094019402940394049413490B
:10181000059401604721C0E901144FF6FF71C0E94A
:10182000031444618461FFF70FFC08B172B6FEE750
:101830004FF48050009069460948FFF77DFC08B1DD
:1018400072B6FEE7049404A905480594FFF7BEFBB1
:10185000002801D072B6FEE706B010BD002C014092
:10186000A4000020FEE7FEE77047F8B515460E46D7
:101870000B46009204460122022100F011F840B903
:101880003346002280212046009500F009F8002808
:1018900004D0606D40F0200060650320F8BD0000BA
:1018A0002DE9F8431E46914688460446089DFEF7FA
:1018B00041FF401B351AFEF73DFF074625480068EB
:1018C000C0F3CB30684338E0701C37D0FEF732FFEE
:1018D000C01BA84203D215B1009860B32CE0206869
:1018E000416821F0E00141606068B0F5827F0BD172
:1018F000A068B0F5004F02D0B0F5806F04D1206829
:10190000016821F040010160A06AB0F5005F09D1D3
:101910002068016821F4005101602068016841F4E9
:1019200000510160012084F85100002084F850002B
:101930000320BDE8F8830025401E009020688168E0
:1019400038EA010004D000214945BDD10020F0E76C
:101950000121F9E70C0000207047FEF7F1BE30B519
:101960008FB028216846FEF7ABFC14210AA8FEF7C9
:10197000A7FC01210804CDE90010002402940225EF
:101980000491CDE907504FF4E01009906846FFF745
:101990003DF808B172B6FEE70F20CDE90A054FF415
:1019A0008060CDE90C4002210AA80E94FEF752FF98
:1019B000002801D072B6FEE70FB030BD70470000BE
:1019C000F0B50268204C214D214E224F224B4FF0A2
:1019D000804CA04209D0984207D0604505D0A8426B
:1019E00003D0B04201D0B84204D122F0700E4A6850
:1019F00042EA0E02A04209D0984207D0604505D0C5
:101A0000A84203D0B04201D0B84203D122F44075BD
:101A1000CA682A434D6922F080022A4302608A681C
:101A2000C2620A688262A04201D0984201D109696B
:101A30000163012141610169C90703D0016921F0F6
:101A400001010161F0BD0000002C014000040040D4
:101A500000080040000C00400034014010B58468CC
:101A600042EA032224F47F440A432243826010BDE9
:101A7000826822F070020A4342F0070181607047D9
:101A800010B5036A046A24F001040462846924F036
:101A9000F00444EA021423F00A020A438461026259
:101AA00010BD10B5036A046A24F01004046284694E
:101AB00023F0A00324F4704444EA023243EA011103
:101AC0008261016210BD000070B5044600680169C2
:101AD000E26821F44051114301612169A068084383
:101AE000616908432168CA6841F20C639A43024362
:101AF000CA6020684169A26921F4407111434161C3
:101B00001E492068884202D1FEF74AFF01E0FEF735
:101B100037FF00EBC00101EB001260686421800018
:101B2000B2FBF0F3B3FBF1F36FF018067343B2FBB3
:101B3000F0F5B2FBF0F605EB8305322303EB051558
:101B4000B5FBF1F5B6FBF1F605F0F00505EB061572
:101B5000B2FBF0F6B2FBF0F0B0FBF1F06FF0180260
:101B6000504306EB800003EB0010B0FBF1F021685E
:101B700000F00F002844886070BD0000003801406C
:101B8000FEE70907090E002804DB00F1E02080F8D9
:101B90000014704700F00F0000F1E02080F8141DE1
:101BA00070470000FEF7D4FDFFF7D9FEFFF79AFD5E
:101BB000FFF700FE10480F490C2201604FF4E1319D
:101BC000416000218160C160C0E904128161C1618E
:101BD000FFF720FB08B172B6FEE7FFF70FFE0648DD
:101BE0004838FFF773FAFFF7EFFB1F20FFF7D4FB2E
:101BF000FEE7000000380140EC0000200102020373
:101C00000405060708090A0B0C0D0E0F1010000042
:101C1000000000000000010203040607080900009C
:101C20000000010203040000481C0008000000201E
:101C30004C0000006C010008941C00084C000020BF
:101C40004C0700008801000801000000100000009F
:101C50000000000000127A000000000100000101F5
:101C600001000000FFFF0000000000000000000075
:101C700000000000FFFF0000000000000000000066
:101C80000000000000000000000000000000E00173
:041C9000400100000F
:0400000508000131BD
:00000001FF
