:020000040800F2
:10000000C02500208DF6040871F5040873F5040876
:1000100075F5040877F5040879F504080000000078
:100020000000000000000000000000007BF5040854
:100030007DF50408000000007FF5040881F5040840
:10004000A5F60408A9F60408ADF60408B1F60408FC
:10005000B5F60408B9F60408BDF60408C1F60408AC
:1000600085F50408C5F60408C9F60408CDF60408A9
:10007000D1F60408D5F60408D9F60408DDF604081C
:10008000E1F60408E5F60408E9F60408EDF60408CC
:10009000F1F60408F5F60408F9F60408FDF604087C
:1000A00001F7040805F7040809F704080DF7040828
:1000B00011F7040815F7040819F704081DF70408D8
:1000C00021F7040825F7040829F704088BF504082C
:1000D0002DF7040831F7040835F7040839F7040848
:1000E0003DF7040841F7040845F7040849F70408F8
:1000F0004DF7040851F7040855F7040859F70408A8
:100100005DF7040861F7040865F7040869F7040857
:100110006DF7040871F7040875F7040879F7040807
:100120007DF7040881F7040885F7040891F50408B1
:1001300089F704088DF7040891F7040895F7040877
:1001400099F704089DF70408A1F70408A5F7040827
:10015000A9F70408ADF70408B1F70408B5F70408D7
:10016000B9F70408BDF70408C1F70408C5F7040887
:10017000C9F70408CDF70408D1F70408000000000F
:10018000D5F70408D9F704080000000000000000BB
:10019000000000000000000000000000000000005F
:1001A000000000000000000000000000000000004F
:1001B000000000000000000000000000000000003F
:1001C000000000000000000000000000000000002F
:100A300000000000002052AAA534DEFBFFDFFFFF0C
:100A4000FFFFFFFFFFFFFFFFFFFFFFFFFFFFFFFFB6
:100A5000FFFFFFFFFFFFFFFFFFFFFFFFFFFFFFFFA6
:100A6000FFFFFFFFFFFFFFFFFFFFFFFFFFFFFFFF96
:100A7000FFFFFFFFFFFFFFFFFFFFFFFFFFFFFFFF86
:100A8000FFFFFFFFFFFFFFFFFFFFFFFFFFFFFFFF76
:100A9000FFFFFFFFFFFFFFFFFFFFFFFFFFFFFFFF66
:100AA000FFFFFFFFFFFFFFFFFFFFFFFFFFFFFFFF56
:100AB000FFFFFFFFFFFFFFFFFFFFFFFFFFFFFFFF46
:100AC000FFFFFFFFFFFFFFFFFFFFFFFFFFFFFFFF36
:100AD000FFFFFFFFFFFFFFFFFFFFFFFFFFFFFFFF26
:100AE000FFFFFFFFFFFFFFFFFFFFFFFFFFFFFFFF16
:100AF000FFFFFFFFFFFFFFFFFFFFFFFFFFFFFFFF06
:100B0000FFFFFFFFFFFFFFFFFFFFFFFFFFFFFFFFF5
:100B1000FFFFFFFFFFFFFFFFFFFFFFFFFFFFFFFFE5
:100B2000FFFFFFFFFFFFFFFFFFFFFFFFFFFFFFFFD5
:100B3000FFFFFFFFFFFFFFFFFFFFFFFFFFFFFFFFC5
:100B4000FFFFFFFFFFFFFFFFFFFFFFFFFFFFFFFFB5
:100B5000FFFFFFFFFFFFFFFFFFFFFFFFFFFFFFFFA5
:100B6000FFFFFFFFFFFFFFFFFFFFFFFFFFFFFFFF95
:100B7000FFFFFFFFFFFFFFFFFFFFFFFFFFFFFFFF85
:100B8000FFFFFFFFFFFFFFFFFFFFFFFFFFFFFFFF75
:100B9000FFFFFFFFFFFFFFFFFFFFFFFFFFFFFFFF65
:100BA000FFFFFFFFFFFFFFFFFFFFFFFFFFFFFFFF55
:100BB000FFFFFFFFF79ED6BAA53452AA002000001F
:100BC0000000000000000000000000000000000025
:100BD0000000000000000000000000000000000015
:100BE0000000000000000000000000000000000005
:100BF00000000000000000000000000000000000F5
:100DF0000000528ADEDBFFFFFFFFFFFFFFFFFFFF68
:100E0000FFFFFFFFFFFFFFFFFFFFFFFFFFFFFFFFF2
:100E1000FFFFFFFFFFFFFFFFFFFFFFFFFFFFFFFFE2
:100E2000FFFFFFFFFFFFFFFFFFFFFFFFFFFFFFFFD2
:100E3000FFFFFFFFFFFFFFFFFFFFFFFFFFFFFFFFC2
:100E4000FFFFFFFFFFFFFFFFFFFFFFFFFFFFFFFFB2
:100E5000FFFFFFFFFFFFFFFFFFFFFFFFFFFFFFFFA2
:100E6000FFFFFFFFFFFFFFFFFFFFFFFFFFFFFFFF92
:100E7000FFFFFFFFFFFFFFFFFFFFFFFFFFFFFFFF82
:100E8000FFFFFFFFFFFFFFFFFFFFFFFFFFFFFFFF72
:100E9000FFFFFFFFFFFFFFFFFFFFFFFFFFFFFFFF62
:100EA000FFFFFFFFFFFFFFFFFFFFFFFFFFFFFFFF52
:100EB000FFFFFFFFFFFFFFFFFFFFFFFFFFFFFFFF42
:100EC000FFFFFFFFFFFFFFFFFFFFFFFFFFFFFFFF32
:100ED000FFFFFFFFFFFFFFFFFFFFFFFFFFFFFFFF22
:100EE000FFFFFFFFFFFFFFFFFFFFFFFFFFFFFFFF12
:100EF000FFFFFFFFFFFFFFFFFFFFFFFFFFFFFFFF02
:100F0000FFFFFFFFFFFFFFFFFFFFFFFFFFFFFFFFF1
:100F1000FFFFFFFFFFFFFFFFFFFFFFFFFFFFFFFFE1
:100F2000FFFFFFFFFFFFFFFFFFFFFFFFFFFFFFFFD1
:100F3000FFFFFFFFFFFFFFFFFFFFFFFFFFFFFFFFC1
:100F4000FFFFFFFFFFFFFFFFFFFFFFFFFFFFFFFFB1
:100F5000FFFFFFFFFFFFFFFFFFFFFFFFFFFFFFFFA1
:100F6000FFFFFFFFFFFFFFFFFFFFFFFFFFFFFFFF91
:100F7000FFFFFFFFFFFFFFFFFFFFFFFFDEDB528AE8
:100F80000000000000000000000000000000000061
:100F90000000000000000000000000000000000051
:100FA0000000000000000000000000000000000041
:100FB0000000000000000000000000000000000031
:1011B0008C51FFFFFFFFFFFFFFFFF79ED6BACE79EE
:1011C000CE59CE59CE79CE79CE79CE79CE79CE7927
:1011D000CE79CE79CE79CE79CE79CE79CE79CE79D7
:1011E000CE79CE79CE79CE79CE79CE79CE79CE79C7
:1011F000CE79CE79CE79CE79CE79CE79CE79CE79B7
:10120000CE79CE79CE79CE79CE79CE79CE79CE79A6
:10121000CE79CE79CE79CE79CE79CE79CE79CE7996
:10122000CE79CE79CE79CE79CE79CE79CE79CE7986
:10123000CE79CE79CE79CE79CE79CE79CE79CE7976
:10124000CE79CE79CE79CE79CE79CE79CE79CE7966
:10125000CE79CE79CE79CE79CE79CE79CE79CE7956
:10126000CE79CE79CE79CE79CE79CE79CE79CE7946
:10127000CE79CE79CE79CE79CE79CE79CE79CE7936
:10128000CE79CE79CE79CE79CE79CE79CE79CE7926
:10129000CE79CE79CE79CE79CE79CE79CE79CE7916
:1012A000CE79CE79CE79CE79CE79CE79CE79CE7906
:1012B000CE79CE79CE79CE79CE79CE79CE79CE79F6
:1012C000CE79CE79CE79CE79CE79CE79CE79CE79E6
:1012D000CE79CE79CE79CE79CE79CE79CE79CE79D6
:1012E000CE79CE79CE79CE79CE79CE79CE79CE79C6
:1012F000CE79CE79CE79CE79CE79CE79CE79CE79B6
:10130000CE79CE79CE79CE79CE79CE79CE79CE79A5
:10131000CE79CE79CE79CE79CE79CE79CE79CE7995
:10132000CE79CE79CE79CE79CE79CE59CE79CE59C5
:10133000CE79CE79D6BAF79EFFFFFFFFFFFFFFFF02
:101340008C510020000000000000000000000000A0
:10135000000000000000000000000000000000008D
:10136000000000000000000000000000000000007D
:10137000000000000000000000000000000000006D
:10138000000000000000000000000000000000005D
:1015600000000000000000000000000000008C519E
:10157000FFFFFFFFFFFFB5964208000000000000DC
:10158000000000000000000000000000000000005B
:10159000000000000000000000000000000000004B
:1015A000000000000000000000000000000000003B
:1015B000000000000000000000000000000000002B
:1015C000000000000000000000000000000000001B
:1015D000000000000000000000000000000000000B
:1015E00000000000000000000000000000000000FB
:1015F00000000000000000000000000000000000EB
:1016000000000000000000000000000000000000DA
:1016100000000000000000000000000000000000CA
:1016200000000000000000000000000000000000BA
:1016300000000000000000000000000000000000AA
:10164000000000000000000000000000000000009A
:10165000000000000000000000000000000000008A
:10166000000000000000000000000000000000007A
:10167000000000000000000000000000000000006A
:10168000000000000000000000000000000000005A
:10169000000000000000000000000000000000004A
:1016A000000000000000000000000000000000003A
:1016B000000000000000000000000000000000002A
:1016C000000000000000000000000000000000001A
:1016D000000000000000000000000000000000000A
:1016E00000000000000000000000000000000000FA
:1016F00000000000000000004208B596FFFFFFFF59
:10170000FFFF8C51000000000000000000000000FE
:1017100000000000000000000000000000000000C9
:1017200000000000000000000000000000000000B9
:1017300000000000000000000000000000000000A9
:101740000000000000000000000000000000000099
:1019200000000000000000000000000052AAFFFFBD
:10193000FFFFFFDF5AEB0000000000000000000086
:101940000000000000000000000000000000000097
:101950000000000000000000000000000000000087
:101960000000000000000000000000000000000077
:101970000000000000000000000000000000000067
:101980000000000000000000000000000000000057
:101990000000000000000000000000000000000047
:1019A0000000000000000000000000000000000037
:1019B0000000000000000000000000000000000027
:1019C0000000000000000000000000000000000017
:1019D0000000000000000000000000000000000007
:1019E00000000000000000000000000000000000F7
:1019F00000000000000000000000000000000000E7
:101A000000000000000000000000000000000000D6
:101A100000000000000000000000000000000000C6
:101A200000000000000000000000000000000000B6
:101A300000000000000000000000000000000000A6
:101A40000000000000000000000000000000000096
:101A50000000000000000000000000000000000086
:101A60000000000000000000000000000000000076
:101A70000000000000000000000000000000000066
:101A80000000000000000000000000000000000056
:101A90000000000000000000000000000000000046
:101AA0000000000000000000000000000000000036
:101AB0000000000000000000000000005AEBFFDF03
:101AC000FFFFFFFF52AA000000000000000000001E
:101AD0000000000000000000000000000000000006
:101AE00000000000000000000000000000000000F6
:101AF00000000000000000000000000000000000E6
:101B000000000000000000000000000000000000D5
:101CE000000000000000000000000020E71CFFFFD3
:101CF000FFFF5AEB000000000000000000000000A1
:101D000000000000000000000000000000000000D3
:101D100000000000000000000000000000000000C3
:101D200000000000000000000000000000000000B3
:101D300000000000000000000000000000000000A3
:101D40000000000000000000000000000000000093
:101D50000000000000000000000000000000000083
:101D60000000000000000000000000000000000073
:101D70000000000000000000000000000000000063
:101D80000000000000000000000000000000000053
:101D90000000000000000000000000000000000043
:101DA0000000000000000000000000000000000033
:101DB0000000000000000000000000000000000023
:101DC0000000000000000000000000000000000013
:101DD0000000000000000000000000000000000003
:101DE00000000000000000000000000000000000F3
:101DF00000000000000000000000000000000000E3
:101E000000000000000000000000000000000000D2
:101E100000000000000000000000000000000000C2
:101E200000000000000000000000000000000000B2
:101E300000000000000000000000000000000000A2
:101E40000000000000000000000000000000000092
:101E50000000000000000000000000000000000082
:101E60000000000000000000000000000000000072
:101E700000000000000000000000000000005AEB1D
:101E8000FFFFFFFFE73C0020000000000000000013
:101E90000000000000000000000000000000000042
:101EA0000000000000000000000000000000000032
:101EB0000000000000000000000000000000000022
:101EC0000000000000000000000000000000000012
:1020A000000000000000000000005AEBFFFFFFFFEF
:1020B000BDD700000000000000000000000000008C
:1020C0000000000000000000000000000000000010
:1020D0000000000000000000000000000000000000
:1020E00000000000000000000000000000000000F0
:1020F00000000000000000000000000000000000E0
:1021000000000000000000000000000000000000CF
:1021100000000000000000000000000000000000BF
:1021200000000000000000000000000000000000AF
:10213000000000000000000000000000000000009F
:10214000000000000000000000000000000000008F
:10215000000000000000000000000000000000007F
:10216000000000000000000000000000000000006F
:10217000000000000000000000000000000000005F
:10218000000000000000000000000000000000004F
:10219000000000000000000000000000000000003F
:1021A000000000000000000000000000000000002F
:1021B000000000000000000000000000000000001F
:1021C000000000000000000000000000000000000F
:1021D00000000000000000000000000000000000FF
:1021E00000000000000000000000000000000000EF
:1021F00000000000000000000000000000000000DF
:1022000000000000000000000000000000000000CE
:1022100000000000000000000000000000000000BE
:102220000000FFFFFFFFFFFF0000000000000000B4
:10223000000000000000000000000000000000009E
:10224000BDD7FFFFFFFF5AEB0000000000000000B9
:10225000000000000000000000000000000000007E
:10226000000000000000000000000000000000006E
:10227000000000000000000000000000000000005E
:10228000000000000000000000000000000000004E
:1024600000000000000000000000AD55FFFFFFFF6E
:102470004208000000000000000000000000000012
:10248000000000000000000000000000000000004C
:10249000000000000000000000000000000000003C
:1024A000000000000000000000000000000000002C
:1024B000000000000000000000000000000000001C
:1024C000000000000000000000000000000000000C
:1024D00000000000000000000000000000000000FC
:1024E00000000000000000000000000000000000EC
:1024F00000000000000000000000000000000000DC
:1025000000000000000000000000000000000000CB
:1025100000000000000000000000000000000000BB
:1025200000000000000000000000000000000000AB
:10253000000000000000000000000000000000009B
:10254000000000000000000000000000000000008B
:10255000000000000000000000000000000000007B
:10256000000000000000000000000000000000006B
:10257000000000000000000000000000000000005B
:10258000000000000000000000000000000000004B
:10259000000000000000000000000000000000003B
:1025A000000000000000000000000000000000002B
:1025B000000000000000000000000000000000001B
:1025C000000000000000000000000000000000000B
:1025D00000000000000000000000000000000000FB
:1025E0000000FFFFFFFFFFFF0000000000000000F1
:1025F00000000000000000000000000000000000DB
:102600004208FFFFFFFFAD75000000000000000062
:1026100000000000000000000000000000000000BA
:1026200000000000000000000000000000000000AA
:10263000000000000000000000000000000000009A
:10264000000000000000000000000000000000008A
:1028200000000000000000000000E71CFFFFF79E12
:102830000000000000000000000000000000000098
:102840000000000000000000000000000000000088
:102850000000000000000000000000000000000078
:102860000000000000000000000000000000000068
:102870000000000000000000000000000000000058
:102880000000000000000000000000000000000048
:102890000000000000000000000000000000000038
:1028A0000000000000000000000000000000000028
:1028B0000000000000000000000000000000000018
:1028C0000000000000000000000000000000000008
:1028D00000000000000000000000000000000000F8
:1028E00000000000000000000000000000000000E8
:1028F00000000000000000000000000000000000D8
:1029000000000000000000000000000000000000C7
:1029100000000000000000000000000000000000B7
:1029200000000000000000000000000000000000A7
:102930000000000000000000000000000000000097
:102940000000000000000000000000000000000087
:102950000000000000000000000000000000000077
:102960000000000000000000000000000000000067
:102970000000000000000000000000000000000057
:102980000000000000000000000000000000000047
:102990000000000000000000000000000000000037
:1029A0000000FFFFFFFFFFFF00000000000000002D
:1029B0000000000000000000000000000000000017
:1029C0000000F79EFFFFE71C000000000000000071
:1029D00000000000000000000000000000000000F7
:1029E00000000000000000000000000000000000E7
:1029F00000000000000000000000000000000000D7
:102A000000000000000000000000000000000000C6
:102BE00000000000000000000000FFDFFFFFD6BA79
:102BF00000000000000000000000000000000000D5
:102C000000000000000000000000000000000000C4
:102C1000FFFFFFFFFFFFFFFF00000000FFFFFFFFC0
:102C2000FFFFFFFF000000000000000000000000A8
:102C30000000000000000000000000000000000094
:102C40000000000000000000000000000000000084
:102C50000000000000000000000000000000000074
:102C60000000000000000000000000000000000064
:102C70000000000000000000000000000000000054
:102C80000000000000000000000000000000000044
:102C90000000000000000000000000000000000034
:102CA0000000000000000000000000000000000024
:102CB0000000000000000000000000000000000014
:102CC0000000000000000000000000000000000004
:102CD00000000000000000000000000000000000F4
:102CE000FFFFFFFFFFFFFFFF0000000000000000EC
:102CF00000000000000000000000000000000000D4
:102D000000000000000000000000000000000000C3
:102D100000000000000000000000000000000000B3
:102D200000000000000000000000000000000000A3
:102D30000000000000000000000000000000000093
:102D40000000000000000000000000000000000083
:102D50000000000000000000000000000000000073
:102D60000000FFFFFFFFFFFF000000000000000069
:102D70000000000000000000000000000000000053
:102D80000000D6BAFFFFFFDF0000000000000000D7
:102D90000000000000000000000000000000000033
:102DA0000000000000000000000000000000000023
:102DB0000000000000000000000000000000000013
:102DC0000000000000000000000000000000000003
:102FA00000000000000000000000FFFFFFFFC61847
:102FB0000000000000000000000000000000000011
:102FC0000000000000000000000000000000000001
:102FD000FFFFFFFFFFFFFFFF00000000FFFFFFFFFD
:102FE000FFFFFFFF000000000000000000000000E5
:102FF00000000000000000000000000000000000D1
:1030000000000000000000000000000000000000C0
:1030100000000000000000000000000000000000B0
:1030200000000000000000000000000000000000A0
:103030000000000000000000000000000000000090
:103040000000000000000000000000000000000080
:103050000000000000000000000000000000000070
:10306000000000000000000000000000FFFFFFFF64
:10307000FFFF0000FFFFFFFFFFFFFFFF000000005A
:103080000000000000000000000000000000000040
:103090000000000000000000000000000000000030
:1030A000FFFFFFFFFFFFFFFF000000000000000028
:1030B0000000000000000000000000000000000010
:1030C0000000000000000000000000000000000000
:1030D00000000000000000000000000000000000F0
:1030E00000000000000000000000000000000000E0
:1030F00000000000000000000000000000000000D0
:1031000000000000000000000000000000000000BF
:1031100000000000000000000000000000000000AF
:10312000000000000000000000000000000000009F
:10313000000000000000000000000000000000008F
:103140000000C618FFFFFFFF0000000000000000A5
:10315000000000000000000000000000000000006F
:10316000000000000000000000000000000000005F
:10317000000000000000000000000000000000004F
:10318000000000000000000000000000000000003F
:1033600000000000000000000000FFFFFFFFC61883
:10337000000000000000000000000000000000004D
:10338000000000000000000000000000000000003D
:10339000FFFFFFFFFFFFFFFF00000000FFFFFFFF39
:1033A000FFFFFFFF00000000000000000000000021
:1033B000000000000000000000000000000000000D
:1033C00000000000000000000000000000000000FD
:1033D00000000000000000000000000000000000ED
:1033E00000000000000000000000000000000000DD
:1033F00000000000000000000000000000000000CD
:1034000000000000000000000000000000000000BC
:1034100000000000000000000000000000000000AC
:10342000000000000000000000000000FFFFFFFFA0
:10343000FFFF0000FFFFFFFFFFFFFFFF0000000096
:10344000000000000000000000000000000000007C
:1034500000000000FFFFFFFFFFFF00000000000072
:10346000FFFFFFFFFFFFFFFF000000000000000064
:10347000000000000000000000000000000000004C
:10348000000000000000000000000000000000003C
:10349000000000000000000000000000000000002C
:1034A000000000000000000000000000000000001C
:1034B000000000000000000000000000000000000C
:1034C00000000000000000000000000000000000FC
:1034D000000000000000000000000000FFFFFFFFF0
:1034E000FFFFFFFF0000FFFFFFFFFFFF00000000E6
:1034F00000000000000000000000000000000000CC
:103500000000C618FFFFFFFF0000000000000000E1
:1035100000000000000000000000000000000000AB
:10352000000000000000000000000000000000009B
:10353000000000000000000000000000000000008B
:10354000000000000000000000000000000000007B
:1037200000000000000000000000FFFFFFFFC618BF
:103730000000000000000000000000000000000089
:103740000000000000000000000000000000000079
:10375000FFFFFFFFFFFFFFFF00000000FFFFFFFF75
:10376000FFFFFFFF0000000000000000000000005D
:10377000000000000000FFFF00000000000000004B
:103780000000000000000000000000000000000039
:103790000000000000000000000000000000000029
:1037A0000000000000000000000000000000000019
:1037B0000000000000000000000000000000000009
:1037C00000000000000000000000000000000000F9
:1037D00000000000000000000000000000000000E9
:1037E000000000000000000000000000FFFFFFFFDD
:1037F000FFFF0000FFFFFFFFFFFFFFFF00000000D3
:1038000000000000000000000000000000000000B8
:1038100000000000FFFFFFFFFFFF000000000000AE
:10382000FFFFFFFFFFFFFFFF0000000000000000A0
:103830000000000000000000000000000000000088
:103840000000000000000000000000000000000078
:103850000000000000000000000000000000000068
:103860000000000000000000FFFFFFFFFFFFFFFF60
:103870000000000000000000000000000000000048
:103880000000000000000000000000000000000038
:10389000000000000000000000000000FFFFFFFF2C
:1038A000FFFFFFFF0000FFFFFFFFFFFF0000000022
:1038B0000000000000000000000000000000000008
:1038C0000000C618FFFFFFFF00000000000000001E
:1038D00000000000000000000000000000000000E8
:1038E00000000000000000000000000000000000D8
:1038F00000000000000000000000000000000000C8
:1039000000000000000000000000000000000000B7
:103AE00000000000000000000000FFFFFFFFC618FC
:103AF00000000000000000000000000000000000C6
:103B000000000000000000000000000000000000B5
:103B1000FFFFFFFFFFFFFFFF00000000FFFFFFFFB1
:103B2000FFFFFFFF00000000000000000000000099
:103B3000FFFFFFFFFFFFFFFFFFFF0000000000008F
:103B40000000000000000000000000000000000075
:103B50000000000000000000000000000000000065
:103B6000000000000000FFFFFFFFFFFFFFFF00005D
:103B7000FFFFFFFFFFFFFFFF00000000000000004D
:103B80000000000000000000000000000000000035
:103B90000000000000000000000000000000000025
:103BA0000000000000000000000000000000000015
:103BB0000000000000000000000000000000000005
:103BC00000000000000000000000000000000000F5
:103BD00000000000FFFFFFFFFFFF000000000000EB
:103BE000FFFFFFFFFFFFFFFF0000000000000000DD
:103BF00000000000000000000000000000000000C5
:103C000000000000000000000000000000000000B4
:103C100000000000000000000000000000000000A4
:103C20000000000000000000FFFFFFFFFFFFFFFF9C
:103C30000000000000000000000000000000000084
:103C40000000000000000000000000000000000074
:103C5000000000000000000000000000FFFFFFFF68
:103C6000FFFFFFFF0000FFFFFFFFFFFF000000005E
:103C70000000000000000000000000000000000044
:103C80000000C618FFFFFFFF00000000000000005A
:103C90000000000000000000000000000000000024
:103CA0000000000000000000000000000000000014
:103CB0000000000000000000000000000000000004
:103CC00000000000000000000000000000000000F4
:103EA00000000000000000000000FFFFFFFFC61838
:103EB0000000000000000000000000000000000002
:103EC00000000000000000000000000000000000F2
:103ED000FFFFFFFFFFFFFFFF00000000FFFFFFFFEE
:103EE000FFFFFFFF000000000000000000000000D6
:103EF0000000FFFFFFFFFFFFFFFF000000000000CA
:103F000000000000000000000000000000000000B1
:103F100000000000000000000000000000000000A1
:103F2000000000000000FFFFFFFFFFFFFFFF000099
:103F3000FFFFFFFFFFFFFFFF000000000000000089
:103F40000000000000000000000000000000000071
:103F50000000000000000000000000000000000061
:103F60000000000000000000000000000000000051
:103F70000000000000000000000000000000000041
:103F80000000000000000000000000000000000031
:103F90000000000000000000000000000000000021
:103FA000FFFFFFFFFFFFFFFF000000000000000019
:103FB0000000000000000000000000000000000001
:103FC00000000000000000000000000000000000F1
:103FD00000000000000000000000000000000000E1
:103FE000FFFFFFFFFFFFFFFFFFFFFFFFFFFFFFFFE1
:103FF00000000000000000000000000000000000C1
:1040000000000000000000000000000000000000B0
:1040100000000000000000000000000000000000A0
:104020000000000000000000000000000000000090
:104030000000000000000000000000000000000080
:104040000000C618FFFFFFFF000000000000000096
:104050000000000000000000000000000000000060
:104060000000000000000000000000000000000050
:104070000000000000000000000000000000000040
:104080000000000000000000000000000000000030
:1042600000000000000000000000FFFFFFFFC61874
:10427000000000000000000000000000000000003E
:10428000000000000000000000000000000000002E
:10429000FFFFFFFFFFFFFFFF00000000FFFFFFFF2A
:1042A000FFFFFFFF00000000000000000000000012
:1042B0000000FFFFFFFFFFFFFFFF00000000000006
:1042C0000000000000000000FFFFFFFFFFFFFFFFF6
:1042D00000000000000000000000000000000000DE
:1042E000000000000000FFFFFFFFFFFFFFFF0000D6
:1042F000FFFFFFFFFFFFFFFF0000000000000000C6
:1043000000000000000000000000000000000000AD
:10431000000000000000000000000000000000009D
:10432000FFFFFFFFFFFFFFFF000000000000000095
:1043300000000000FFFFFFFFFFFFFFFF0000000085
:10434000000000000000000000000000000000006D
:10435000000000000000000000000000000000005D
:10436000FFFFFFFFFFFFFFFF000000000000000055
:10437000000000000000000000000000000000003D
:10438000000000000000FFFFFFFFFFFFFFFF000035
:10439000000000000000000000000000FFFFFFFF21
:1043A000FFFFFFFFFFFFFFFFFFFFFFFFFFFFFFFF1D
:1043B00000000000000000000000000000000000FD
:1043C00000000000000000000000000000000000ED
:1043D00000000000000000000000000000000000DD
:1043E000000000000000000000000000FFFFFFFFD1
:1043F000FFFFFFFF000000000000000000000000C1
:104400000000C618FFFFFFFF0000000000000000D2
:10441000000000000000000000000000000000009C
:10442000000000000000000000000000000000008C
:10443000000000000000000000000000000000007C
:10444000000000000000000000000000000000006C
:1046200000000000000000000000FFFFFFFFC618B0
:10463000000000000000000000000000000000007A
:10464000000000000000000000000000000000006A
:10465000FFFFFFFFFFFFFFFF00000000FFFFFFFF66
:10466000FFFFFFFF0000000000000000000000004E
:104670000000FFFFFFFFFFFFFFFFFFFF0000000044
:104680000000000000000000FFFFFFFFFFFFFFFF32
:10469000000000000000000000000000FFFFFFFF1E
:1046A000FFFFFFFF0000000000000000000000000E
:1046B00000000000000000000000FFFFFFFFFFFF00
:1046C000FFFF0000000000000000FFFFFFFFFFFFF2
:1046D000FFFF0000FFFFFFFFFFFFFFFF00000000E4
:1046E000FFFFFFFFFFFFFFFF0000000000000000D2
:1046F00000000000FFFFFFFFFFFFFFFF00000000C2
:1047000000000000000000000000000000000000A9
:104710000000FFFFFFFFFFFFFFFF000000000000A1
:10472000FFFFFFFFFFFFFFFF000000000000000091
:10473000FFFFFFFFFFFFFFFF0000FFFFFFFFFFFF87
:10474000FFFF00000000FFFFFFFFFFFFFFFF000073
:10475000000000000000000000000000FFFFFFFF5D
:10476000FFFFFFFFFFFFFFFFFFFFFFFFFFFFFFFF59
:10477000000000000000FFFFFFFFFFFFFFFF000041
:104780000000000000000000FFFFFFFFFFFFFFFF31
:10479000000000000000FFFFFFFFFFFFFFFF000021
:1047A000FFFFFFFFFFFFFFFF00000000FFFFFFFF15
:1047B000FFFFFFFF000000000000000000000000FD
:1047C0000000C618FFFFFFFF00000000000000000F
:1047D00000000000000000000000000000000000D9
:1047E00000000000000000000000000000000000C9
:1047F00000000000000000000000000000000000B9
:1048000000000000000000000000000000000000A8
:1049E00000000000000000000000FFFFFFFFC618ED
:1049F0000000000000000000FFFFFFFFFFFFFFFFBF
:104A000000000000000000000000000000000000A6
:104A1000FFFFFFFFFFFFFFFF00000000FFFFFFFFA2
:104A2000FFFFFFFF0000000000000000000000008A
:104A300000000000FFFFFFFFFFFFFFFF000000007E
:104A40000000000000000000FFFFFFFFFFFFFFFF6E
:104A5000000000000000000000000000FFFFFFFF5A
:104A6000FFFFFFFF0000000000000000000000004A
:104A700000000000000000000000FFFFFFFFFFFF3C
:104A8000FFFF0000000000000000FFFFFFFFFFFF2E
:104A9000FFFF0000FFFFFFFFFFFFFFFF0000000020
:104AA000FFFFFFFFFFFFFFFF00000000000000000E
:104AB00000000000FFFFFFFFFFFFFFFF00000000FE
:104AC00000000000000000000000000000000000E6
:104AD0000000FFFFFFFFFFFFFFFF000000000000DE
:104AE000FFFFFFFFFFFFFFFF0000000000000000CE
:104AF000FFFFFFFFFFFFFFFF0000FFFFFFFFFFFFC4
:104B0000FFFF00000000FFFFFFFFFFFFFFFF0000AF
:104B100000000000000000000000FFFFFFFFFFFF9B
:104B2000FFFFFFFFFFFFFFFFFFFFFFFFFFFFFFFF95
:104B3000000000000000FFFFFFFFFFFFFFFF00007D
:104B40000000000000000000FFFFFFFFFFFFFFFF6D
:104B5000000000000000FFFFFFFFFFFFFFFF00005D
:104B6000FFFFFFFFFFFFFFFF00000000FFFFFFFF51
:104B7000FFFFFFFF00000000000000000000000039
:104B80000000C618FFFFFFFF00000000000000004B
:104B90000000000000000000000000000000000015
:104BA0000000000000000000000000000000000005
:104BB00000000000000000000000000000000000F5
:104BC00000000000000000000000000000000000E5
:104DA00000000000000000000000FFFFFFFFC61829
:104DB0000000000000000000FFFFFFFFFFFFFFFFFB
:104DC00000000000000000000000000000000000E3
:104DD000FFFFFFFFFFFFFFFF00000000FFFFFFFFDF
:104DE000FFFFFFFF000000000000000000000000C7
:104DF00000000000FFFFFFFFFFFFFFFF00000000BB
:104E00000000000000000000FFFFFFFFFFFFFFFFAA
:104E1000000000000000000000000000FFFFFFFF96
:104E2000FFFFFFFF00000000000000000000000086
:104E300000000000000000000000FFFFFFFFFFFF78
:104E4000FFFF0000000000000000FFFFFFFFFFFF6A
:104E5000FFFF0000FFFFFFFFFFFFFFFF000000005C
:104E6000FFFFFFFFFFFFFFFF00000000000000004A
:104E700000000000FFFFFFFFFFFFFFFF000000003A
:104E80000000000000000000000000000000000022
:104E90000000FFFFFFFFFFFFFFFF0000000000001A
:104EA000FFFFFFFFFFFFFFFF00000000000000000A
:104EB000FFFFFFFFFFFFFFFF0000FFFFFFFFFFFF00
:104EC000FFFF00000000FFFFFFFFFFFFFFFF0000EC
:104ED00000000000000000000000FFFFFFFFFFFFD8
:104EE000FFFF000000000000FFFFFFFFFFFFFFFFCC
:104EF000000000000000FFFFFFFFFFFFFFFF0000BA
:104F00000000000000000000FFFFFFFFFFFFFFFFA9
:104F1000000000000000FFFFFFFFFFFFFFFF000099
:104F2000FFFFFFFFFFFFFFFF00000000FFFFFFFF8D
:104F3000FFFFFFFF00000000000000000000000075
:104F40000000C618FFFFFFFF000000000000000087
:104F50000000000000000000000000000000000051
:104F60000000000000000000000000000000000041
:104F70000000000000000000000000000000000031
:104F80000000000000000000000000000000000021
:1051600000000000000000000000FFFFFFFFC61865
:105170000000000000000000FFFFFFFFFFFFFFFF37
:10518000000000000000000000000000000000001F
:10519000FFFFFFFFFFFFFFFF00000000FFFFFFFF1B
:1051A000FFFFFFFF00000000000000000000000003
:1051B000000000000000FFFFFFFFFFFFFFFF0000F7
:1051C0000000000000000000FFFFFFFFFFFFFFFFE7
:1051D000000000000000000000000000FFFFFFFFD3
:1051E000FFFFFFFF000000000000000000000000C3
:1051F00000000000000000000000FFFFFFFFFFFFB5
:10520000FFFF0000000000000000FFFFFFFFFFFFA6
:10521000FFFF0000FFFFFFFFFFFFFFFF0000000098
:10522000FFFFFFFFFFFFFFFF000000000000000086
:1052300000000000FFFFFFFFFFFFFFFF0000000076
:10524000000000000000000000000000000000005E
:105250000000FFFFFFFFFFFFFFFF00000000000056
:10526000FFFFFFFFFFFFFFFF000000000000000046
:10527000FFFFFFFFFFFFFFFF0000FFFFFFFFFFFF3C
:10528000FFFF00000000FFFFFFFFFFFFFFFF000028
:1052900000000000000000000000FFFFFFFFFFFF14
:1052A000FFFF000000000000FFFFFFFFFFFFFFFF08
:1052B000000000000000FFFFFFFFFFFFFFFF0000F6
:1052C0000000000000000000FFFFFFFFFFFFFFFFE6
:1052D000000000000000FFFFFFFFFFFFFFFF0000D6
:1052E000FFFFFFFFFFFFFFFF00000000FFFFFFFFCA
:1052F000FFFFFFFF000000000000000000000000B2
:105300000000C618FFFFFFFF0000000000000000C3
:10531000000000000000000000000000000000008D
:10532000000000000000000000000000000000007D
:10533000000000000000000000000000000000006D
:10534000000000000000000000000000000000005D
:1055200000000000000000000000FFFFFFFFC618A1
:105530000000000000000000FFFFFFFFFFFFFFFF73
:10554000000000000000000000000000000000005B
:10555000FFFFFFFFFFFFFFFF00000000FFFFFFFF57
:10556000FFFFFFFF0000000000000000000000003F
:10557000000000000000FFFFFFFFFFFFFFFF000033
:105580000000000000000000FFFFFFFFFFFFFFFF23
:10559000000000000000000000000000FFFFFFFF0F
:1055A000FFFFFFFFFFFF0000000000000000000001
:1055B00000000000000000000000FFFFFFFFFFFFF1
:1055C000FFFF0000000000000000FFFFFFFFFFFFE3
:1055D000FFFF0000FFFFFFFFFFFFFFFF00000000D5
:1055E000FFFFFFFFFFFFFFFF0000000000000000C3
:1055F00000000000FFFFFFFFFFFFFFFF00000000B3
:10560000000000000000000000000000000000009A
:105610000000FFFFFFFFFFFFFFFF00000000000092
:10562000FFFFFFFFFFFFFFFF000000000000000082
:10563000FFFFFFFFFFFFFFFF0000FFFFFFFFFFFF78
:10564000FFFF00000000FFFFFFFFFFFFFFFF000064
:1056500000000000000000000000FFFFFFFFFFFF50
:10566000FFFFFFFFFFFFFFFFFFFFFFFFFFFFFFFF4A
:10567000000000000000FFFFFFFFFFFFFFFF000032
:105680000000000000000000FFFFFFFFFFFFFFFF22
:10569000000000000000FFFFFFFFFFFFFFFF000012
:1056A000FFFFFFFFFFFFFFFF00000000FFFFFFFF06
:1056B000FFFFFFFF000000000000000000000000EE
:1056C0000000C618FFFFFFFF000000000000000000
:1056D00000000000000000000000000000000000CA
:1056E00000000000000000000000000000000000BA
:1056F00000000000000000000000000000000000AA
:105700000000000000000000000000000000000099
:1058E00000000000000000000000FFFFFFFFC618DE
:1058F0000000000000000000FFFFFFFFFFFFFFFFB0
:105900000000000000000000000000000000000097
:10591000FFFFFFFFFFFFFFFF00000000FFFFFFFF93
:10592000FFFFFFFF00000000FFFFFFFFFFFFFFFF83
:10593000FFFFFFFFFFFFFFFFFFFFFFFFFFFFFFFF77
:10594000FFFFFFFFFFFFFFFFFFFFFFFFFFFFFFFF67
:105950000000000000000000000000000000FFFF49
:10596000FFFFFFFFFFFFFFFFFFFFFFFFFFFFFFFF47
:10597000FFFFFFFFFFFFFFFFFFFFFFFFFFFFFFFF37
:10598000FFFFFFFFFFFFFFFFFFFFFFFFFFFFFFFF27
:10599000FFFFFFFFFFFFFFFFFFFFFFFFFFFFFFFF17
:1059A000FFFFFFFFFFFFFFFFFFFFFFFFFFFFFFFF07
:1059B000FFFFFFFFFFFFFFFFFFFFFFFF00000000F3
:1059C00000000000000000000000000000000000D7
:1059D0000000FFFFFFFFFFFFFFFF000000000000CF
:1059E000FFFFFFFFFFFFFFFFFFFFFFFFFFFFFFFFC7
:1059F000FFFFFFFFFFFFFFFFFFFFFFFFFFFFFFFFB7
:105A0000FFFFFFFFFFFFFFFFFFFFFFFFFFFF0000A4
:105A100000000000000000000000FFFFFFFFFFFF8C
:105A2000FFFFFFFFFFFFFFFFFFFFFFFFFFFFFFFF86
:105A3000FFFFFFFFFFFFFFFFFFFFFFFFFFFFFFFF76
:105A4000FFFFFFFFFFFFFFFFFFFFFFFFFFFFFFFF66
:105A5000FFFFFFFFFFFFFFFFFFFFFFFFFFFFFFFF56
:105A6000FFFFFFFFFFFFFFFFFFFFFFFFFFFFFFFF46
:105A7000FFFFFFFF0000000000000000000000002A
:105A80000000C618FFFFFFFF00000000000000003C
:105A90000000000000000000000000000000000006
:105AA00000000000000000000000000000000000F6
:105AB00000000000000000000000000000000000E6
:105AC00000000000000000000000000000000000D6
:105CA00000000000000000000000FFFFFFFFC6181A
:105CB0000000000000000000FFFFFFFFFFFFFFFFEC
:105CC00000000000000000000000000000000000D4
:105CD000FFFFFFFFFFFFFFFF00000000FFFFFFFFD0
:105CE000FFFFFFFF00000000FFFFFFFFFFFFFFFFC0
:105CF000FFFFFFFFFFFFFFFFFFFFFFFFFFFFFFFFB4
:105D0000FFFFFFFFFFFFFFFFFFFFFFFFFFFF0000A1
:105D10000000000000000000000000000000FFFF85
:105D2000FFFFFFFFFFFFFFFFFFFFFFFFFFFFFFFF83
:105D3000FFFFFFFFFFFFFFFFFFFFFFFFFFFFFFFF73
:105D4000FFFFFFFFFFFFFFFFFFFFFFFFFFFFFFFF63
:105D5000FFFFFFFFFFFFFFFFFFFFFFFFFFFFFFFF53
:105D6000FFFFFFFFFFFFFFFFFFFFFFFFFFFFFFFF43
:105D7000FFFFFFFFFFFFFFFFFFFF0000000000002D
:105D80000000000000000000000000000000000013
:105D90000000FFFFFFFFFFFFFFFF0000000000000B
:105DA000FFFFFFFFFFFFFFFFFFFFFFFFFFFFFFFF03
:105DB000FFFFFFFFFFFFFFFFFFFFFFFFFFFFFFFFF3
:105DC000FFFFFFFFFFFFFFFFFFFFFFFFFFFF0000E1
:105DD000000000000000000000000000FFFFFFFFC7
:105DE000FFFFFFFFFFFFFFFFFFFFFFFFFFFFFFFFC3
:105DF000FFFFFFFFFFFFFFFFFFFFFFFFFFFFFFFFB3
:105E0000FFFFFFFFFFFFFFFFFFFFFFFFFFFFFFFFA2
:105E1000FFFFFFFFFFFFFFFFFFFFFFFFFFFFFFFF92
:105E2000FFFFFFFFFFFFFFFFFFFFFFFFFFFFFFFF82
:105E3000FFFFFFFF00000000000000000000000066
:105E40000000C618FFFFFFFF000000000000000078
:105E50000000000000000000000000000000000042
:105E60000000000000000000000000000000000032
:105E70000000000000000000000000000000000022
:105E80000000000000000000000000000000000012
:1060600000000000000000000000FFFFFFFFC61856
:106070000000000000000000FFFFFFFFFFFFFFFF28
:10608000FFFF000000000000000000000000FFFF14
:10609000FFFFFFFFFFFFFFFF00000000FFFFFFFF0C
:1060A000FFFFFFFF00000000FFFFFFFFFFFFFFFFFC
:1060B000FFFFFFFFFFFFFFFFFFFFFFFFFFFFFFFFF0
:1060C000FFFFFFFFFFFFFFFFFFFFFFFF00000000DC
:1060D00000000000000000000000000000000000C0
:1060E000FFFFFFFFFFFFFFFFFFFFFFFFFFFFFFFFC0
:1060F000FFFFFFFFFFFFFFFFFFFFFFFFFFFFFFFFB0
:10610000FFFFFFFFFFFFFFFFFFFFFFFFFFFFFFFF9F
:10611000FFFFFFFFFFFFFFFFFFFFFFFFFFFFFFFF8F
:10612000FFFFFFFFFFFFFFFFFFFFFFFFFFFFFFFF7F
:10613000FFFFFFFFFFFFFFFF000000000000000067
:10614000000000000000000000000000000000004F
:106150000000FFFFFFFFFFFFFFFF00000000000047
:106160000000FFFFFFFFFFFFFFFFFFFFFFFFFFFF3D
:10617000FFFFFFFFFFFFFFFFFFFFFFFFFFFFFFFF2F
:10618000FFFFFFFFFFFFFFFFFFFFFFFFFFFF00001D
:106190000000000000000000000000000000FFFF01
:1061A000FFFFFFFFFFFFFFFFFFFFFFFFFFFFFFFFFF
:1061B000FFFFFFFFFFFFFFFFFFFFFFFFFFFFFFFFEF
:1061C000FFFFFFFFFFFFFFFFFFFFFFFFFFFFFFFFDF
:1061D000FFFFFFFFFFFFFFFFFFFFFFFFFFFFFFFFCF
:1061E000FFFFFFFFFFFFFFFFFFFFFFFFFFFFFFFFBF
:1061F000FFFFFFFF000000000000000000000000A3
:106200000000C618FFFFFFFF0000000000000000B4
:10621000000000000000000000000000000000007E
:10622000000000000000000000000000000000006E
:10623000000000000000000000000000000000005E
:10624000000000000000000000000000000000004E
:1064200000000000000000000000FFFFFFFFC61892
:1064300000000000000000000000FFFFFFFFFFFF62
:10644000FFFFFFFF0000000000000000FFFFFFFF54
:10645000FFFFFFFFFFFF000000000000FFFFFFFF46
:10646000FFFFFFFF00000000FFFFFFFFFFFFFFFF38
:10647000FFFFFFFFFFFFFFFF00000000FFFFFFFF28
:10648000FFFFFFFFFFFFFFFFFFFF00000000000016
:1064900000000000000000000000000000000000FC
:1064A00000000000FFFFFFFFFFFFFFFFFFFFFFFFF8
:1064B000FFFFFFFFFFFFFFFFFFFFFFFF00000000E8
:1064C000FFFFFFFFFFFFFFFFFFFFFFFF0000FFFFDA
:1064D000FFFFFFFFFFFFFFFF0000FFFFFFFFFFFFCA
:1064E000FFFF00000000FFFFFFFFFFFFFFFFFFFFB8
:1064F000FFFFFFFFFFFF00000000000000000000A2
:10650000000000000000000000000000000000008B
:106510000000FFFFFFFFFFFFFFFF00000000000083
:1065200000000000FFFFFFFFFFFFFFFFFFFFFFFF77
:10653000FFFF0000FFFFFFFFFFFFFFFFFFFF000067
:10654000FFFFFFFFFFFFFFFFFFFFFFFFFFFF000059
:10655000000000000000000000000000000000003B
:10656000000000000000000000000000FFFFFFFF2F
:10657000FFFFFFFFFFFFFFFFFFFF0000FFFFFFFF29
:10658000FFFFFFFFFFFFFFFFFFFF0000FFFFFFFF19
:10659000FFFFFFFFFFFFFFFF0000FFFFFFFFFFFF09
:1065A000FFFFFFFF0000FFFFFFFFFFFFFFFFFFFFF9
:1065B000FFFFFFFF000000000000000000000000DF
:1065C0000000C618FFFFFFFF0000000000000000F1
:1065D00000000000000000000000000000000000BB
:1065E00000000000000000000000000000000000AB
:1065F000000000000000000000000000000000009B
:10660000000000000000000000000000000000008A
:1067E00000000000000000000000FFFFFFFFC618CF
:1067F00000000000000000000000FFFFFFFFFFFF9F
:10680000FFFFFFFFFFFFFFFFFFFFFFFFFFFFFFFF98
:10681000FFFFFFFFFFFF000000000000000000007E
:106820000000000000000000000000000000000068
:106830000000000000000000000000000000000058
:106840000000000000000000000000000000000048
:106850000000000000000000000000000000000038
:106860000000000000000000000000000000000028
:106870000000000000000000000000000000000018
:106880000000000000000000000000000000000008
:1068900000000000000000000000000000000000F8
:1068A00000000000000000000000000000000000E8
:1068B00000000000000000000000000000000000D8
:1068C00000000000000000000000000000000000C8
:1068D0000000FFFFFFFFFFFFFFFF000000000000C0
:1068E00000000000000000000000000000000000A8
:1068F0000000000000000000000000000000000098
:106900000000000000000000000000000000000087
:106910000000000000000000000000000000000077
:106920000000000000000000000000000000000067
:106930000000000000000000000000000000000057
:106940000000000000000000000000000000000047
:106950000000000000000000000000000000000037
:106960000000000000000000000000000000000027
:106970000000000000000000000000000000000017
:106980000000C618FFFFFFFF00000000000000002D
:1069900000000000000000000000000000000000F7
:1069A00000000000000000000000000000000000E7
:1069B00000000000000000000000000000000000D7
:1069C00000000000000000000000000000000000C7
:106BA00000000000000000000000FFFFFFFFC6180B
:106BB000000000000000000000000000FFFFFFFFD9
:106BC000FFFFFFFFFFFFFFFFFFFFFFFFFFFFFFFFD5
:106BD000FFFFFFFF000000000000000000000000B9
:106BE00000000000000000000000000000000000A5
:106BF0000000000000000000000000000000000095
:106C00000000000000000000000000000000000084
:106C10000000000000000000000000000000000074
:106C20000000000000000000000000000000000064
:106C30000000000000000000000000000000000054
:106C40000000000000000000000000000000000044
:106C50000000000000000000000000000000000034
:106C60000000000000000000000000000000000024
:106C70000000000000000000000000000000000014
:106C80000000000000000000000000000000000004
:106C90000000FFFFFFFFFFFFFFFF000000000000FC
:106CA00000000000000000000000000000000000E4
:106CB00000000000000000000000000000000000D4
:106CC00000000000000000000000000000000000C4
:106CD00000000000000000000000000000000000B4
:106CE00000000000000000000000000000000000A4
:106CF0000000000000000000000000000000000094
:106D00000000000000000000000000000000000083
:106D10000000000000000000000000000000000073
:106D20000000000000000000000000000000000063
:106D30000000000000000000000000000000000053
:106D40000000C618FFFFFFFF000000000000000069
:106D50000000000000000000000000000000000033
:106D60000000000000000000000000000000000023
:106D70000000000000000000000000000000000013
:106D80000000000000000000000000000000000003
:106F600000000000000000000000FFFFFFFFC61847
:106F70000000000000000000000000000000FFFF13
:106F8000FFFFFFFFFFFFFFFFFFFFFFFFFFFFFFFF11
:106F9000FFFF0000000000000000000000000000F3
:106FA00000000000000000000000000000000000E1
:106FB00000000000000000000000000000000000D1
:106FC000FFFFFFFFFFFF00000000FFFFFFFFFFFFCD
:106FD00000000000000000000000000000000000B1
:106FE00000000000000000000000000000000000A1
:106FF0000000000000000000000000000000000091
:107000000000000000000000000000000000000080
:107010000000000000000000000000000000000070
:107020000000000000000000000000000000000060
:107030000000000000000000000000000000000050
:107040000000000000000000000000000000000040
:10705000FFFFFFFFFFFFFFFFFFFF0000000000003A
:107060000000000000000000000000000000000020
:107070000000000000000000000000000000000010
:107080000000000000000000000000000000000000
:1070900000000000000000000000000000000000F0
:1070A00000000000000000000000000000000000E0
:1070B0000000FFFFFFFFFFFFFFFF0000FFFFFFFFDC
:1070C000FFFF000000000000FFFFFFFFFFFFFFFFCA
:1070D00000000000000000000000000000000000B0
:1070E00000000000000000000000000000000000A0
:1070F0000000000000000000000000000000000090
:107100000000C618FFFFFFFF0000000000000000A5
:10711000000000000000000000000000000000006F
:10712000000000000000000000000000000000005F
:10713000000000000000000000000000000000004F
:10714000000000000000000000000000000000003F
:1073200000000000000000000000FFFFFFFFC61883
:10733000000000000000000000000000000000004D
:107340000000FFFFFFFFFFFFFFFFFFFFFFFF000049
:10735000000000000000000000000000000000002D
:10736000000000000000000000000000000000001D
:10737000000000000000000000000000000000000D
:10738000FFFFFFFFFFFF00000000FFFFFFFFFFFF09
:1073900000000000000000000000000000000000ED
:1073A00000000000000000000000000000000000DD
:1073B00000000000000000000000000000000000CD
:1073C00000000000000000000000000000000000BD
:1073D00000000000000000000000000000000000AD
:1073E000000000000000000000000000000000009D
:1073F000000000000000000000000000000000008D
:10740000000000000000000000000000FFFFFFFF80
:10741000FFFFFFFFFFFFFFFF000000000000000074
:10742000000000000000000000000000000000005C
:10743000000000000000000000000000000000004C
:10744000000000000000000000000000000000003C
:10745000000000000000000000000000000000002C
:10746000000000000000000000000000000000001C
:107470000000FFFFFFFFFFFFFFFF0000FFFFFFFF18
:10748000FFFF000000000000FFFFFFFFFFFFFFFF06
:1074900000000000000000000000000000000000EC
:1074A00000000000000000000000000000000000DC
:1074B00000000000000000000000000000000000CC
:1074C0000000C618FFFFFFFF0000000000000000E2
:1074D00000000000000000000000000000000000AC
:1074E000000000000000000000000000000000009C
:1074F000000000000000000000000000000000008C
:10750000000000000000000000000000000000007B
:1076E00000000000000000000000FFFFFFFFC618C0
:1076F000000000000000000000000000000000008A
:107700000000000000000000000000000000000079
:107710000000000000000000000000000000000069
:107720000000000000000000000000000000000059
:107730000000000000000000000000000000000049
:10774000FFFFFFFFFFFF00000000FFFFFFFFFFFF45
:107750000000000000000000000000000000000029
:107760000000000000000000000000000000000019
:107770000000000000000000000000000000000009
:1077800000000000000000000000000000000000F9
:1077900000000000000000000000000000000000E9
:1077A00000000000000000000000000000000000D9
:1077B00000000000000000000000000000000000C9
:1077C000000000000000000000000000FFFFFFFFBD
:1077D000FFFFFFFFFFFF00000000000000000000AF
:1077E0000000000000000000000000000000000099
:1077F0000000000000000000000000000000000089
:107800000000000000000000000000000000000078
:107810000000000000000000000000000000000068
:107820000000000000000000000000000000000058
:107830000000FFFFFFFFFFFFFFFF0000FFFFFFFF54
:10784000FFFF000000000000FFFFFFFFFFFFFFFF42
:107850000000000000000000000000000000000028
:107860000000000000000000000000000000000018
:107870000000000000000000000000000000000008
:107880000000C618FFFFFFFF00000000000000001E
:1078900000000000000000000000000000000000E8
:1078A00000000000000000000000000000000000D8
:1078B00000000000000000000000000000000000C8
:1078C00000000000000000000000000000000000B8
:107AA00000000000000000000000FFFFFFFFC618FC
:107AB00000000000000000000000000000000000C6
:107AC00000000000000000000000000000000000B6
:107AD00000000000000000000000000000000000A6
:107AE0000000000000000000000000000000000096
:107AF0000000000000000000000000000000000086
:107B00000000000000000000000000000000000075
:107B10000000000000000000000000000000000065
:107B20000000000000000000000000000000000055
:107B30000000000000000000000000000000000045
:107B40000000000000000000000000000000000035
:107B50000000000000000000000000000000000025
:107B60000000000000000000000000000000000015
:107B70000000000000000000000000000000000005
:107B80000000000000000000000000000000FFFFF7
:107B9000FFFFFFFF000000000000000000000000E9
:107BA00000000000000000000000000000000000D5
:107BB00000000000000000000000000000000000C5
:107BC00000000000000000000000000000000000B5
:107BD00000000000000000000000000000000000A5
:107BE0000000000000000000000000000000000095
:107BF0000000000000000000000000000000000085
:107C00000000000000000000000000000000000074
:107C10000000000000000000000000000000000064
:107C20000000000000000000000000000000000054
:107C30000000000000000000000000000000000044
:107C40000000C638FFFFFFFF00000000000000003A
:107C50000000000000000000000000000000000024
:107C60000000000000000000000000000000000014
:107C70000000000000000000000000000000000004
:107C800000000000000000000000000000000000F4
:107E600000000000000000000000FFFFFFFFC63818
:107E70000000000000000000000000000000000002
:107E800000000000000000000000000000000000F2
:107E900000000000000000000000000000000000E2
:107EA00000000000000000000000000000000000D2
:107EB00000000000000000000000000000000000C2
:107EC00000000000FFFFFFFFFFFFFFFF00000000BA
:107ED00000000000000000000000000000000000A2
:107EE0000000000000000000000000000000000092
:107EF0000000000000000000000000000000000082
:107F00000000000000000000000000000000000071
:107F10000000000000000000000000000000000061
:107F20000000000000000000000000000000000051
:107F30000000000000000000000000000000000041
:107F40000000000000000000000000000000FFFF33
:107F50000000000000000000000000000000000021
:107F60000000000000000000000000000000000011
:107F70000000000000000000000000000000000001
:107F800000000000000000000000000000000000F1
:107F900000000000000000000000000000000000E1
:107FA00000000000000000000000000000000000D1
:107FB00000000000000000000000000000000000C1
:107FC00000000000000000000000000000000000B1
:107FD00000000000000000000000000000000000A1
:107FE0000000000000000000000000000000000091
:107FF0000000000000000000000000000000000081
:108000000000C618FFFFFFFF000000000000000096
:108010000000000000000000000000000000000060
:108020000000000000000000000000000000000050
:108030000000000000000000000000000000000040
:108040000000000000000000000000000000000030
:1082200000000000000000000000FFFFFFFFC61874
:10823000000000000000000000000000000000003E
:10824000000000000000000000000000000000002E
:10825000000000000000000000000000000000001E
:10826000000000000000000000000000000000000E
:1082700000000000000000000000000000000000FE
:1082800000000000FFFFFFFFFFFFFFFF00000000F6
:1082900000000000000000000000000000000000DE
:1082A00000000000000000000000000000000000CE
:1082B00000000000000000000000000000000000BE
:1082C00000000000000000000000000000000000AE
:1082D000000000000000000000000000000000009E
:1082E000000000000000000000000000000000008E
:1082F000000000000000000000000000000000007E
:10830000000000000000000000000000000000006D
:10831000000000000000000000000000000000005D
:10832000000000000000000000000000000000004D
:10833000000000000000000000000000000000003D
:10834000000000000000000000000000000000002D
:10835000000000000000000000000000000000001D
:10836000000000000000000000000000000000000D
:1083700000000000000000000000000000000000FD
:1083800000000000000000000000000000000000ED
:1083900000000000000000000000000000000000DD
:1083A00000000000000000000000000000000000CD
:1083B00000000000000000000000000000000000BD
:1083C0000000C618FFFFFFFF0000000000000000D3
:1083D000000000000000000000000000000000009D
:1083E000000000000000000000000000000000008D
:1083F000000000000000000000000000000000007D
:10840000000000000000000000000000000000006C
:1085E00000000000000000000000F79EFFFFD69A88
:1085F000000000000000000000000000000000007B
:10860000000000000000000000000000000000006A
:10861000000000000000000000000000000000005A
:10862000000000000000000000000000000000004A
:10863000000000000000000000000000000000003A
:1086400000000000FFFFFFFFFFFFFFFF0000000032
:10865000000000000000000000000000000000001A
:10866000000000000000000000000000000000000A
:1086700000000000000000000000000000000000FA
:1086800000000000000000000000000000000000EA
:1086900000000000000000000000000000000000DA
:1086A00000000000000000000000000000000000CA
:1086B00000000000000000000000000000000000BA
:1086C00000000000000000000000000000000000AA
:1086D000000000000000000000000000000000009A
:1086E000000000000000000000000000000000008A
:1086F000000000000000000000000000000000007A
:108700000000000000000000000000000000000069
:108710000000000000000000000000000000000059
:108720000000000000000000000000000000000049
:108730000000000000000000000000000000000039
:108740000000000000000000000000000000000029
:108750000000000000000000000000000000000019
:108760000000000000000000000000000000000009
:1087700000000000000000000000000000000000F9
:108780000000D6BAFFFFFFDF00000000000000007D
:1087900000000000000000000000000000000000D9
:1087A00000000000000000000000000000000000C9
:1087B00000000000000000000000000000000000B9
:1087C00000000000000000000000000000000000A9
:1089A00000000000000000000000DEDBFFFFF79E7B
:1089B0000020000000000000000000000000000097
:1089C00000000000000000000000000000000000A7
:1089D0000000000000000000000000000000000097
:1089E0000000000000000000000000000000000087
:1089F0000000000000000000000000000000000077
:108A000000000000FFFFFFFFFFFFFFFF000000006E
:108A10000000000000000000000000000000000056
:108A20000000000000000000000000000000000046
:108A30000000000000000000000000000000000036
:108A40000000000000000000000000000000000026
:108A50000000000000000000000000000000000016
:108A60000000000000000000000000000000000006
:108A700000000000000000000000000000000000F6
:108A800000000000000000000000000000000000E6
:108A900000000000000000000000000000000000D6
:108AA00000000000000000000000000000000000C6
:108AB00000000000000000000000000000000000B6
:108AC00000000000000000000000000000000000A6
:108AD0000000000000000000000000000000000096
:108AE0000000000000000000000000000000000086
:108AF0000000000000000000000000000000000076
:108B00000000000000000000000000000000000065
:108B10000000000000000000000000000000000055
:108B20000000000000000000000000000000000045
:108B30000000000000000000000000000000000035
:108B40000020F79EFFFFE71C00000000000000006F
:108B50000000000000000000000000000000000015
:108B60000000000000000000000000000000000005
:108B700000000000000000000000000000000000F5
:108B800000000000000000000000000000000000E5
:108D600000000000000000000000AD55FFFFFFFF05
:108D700042080000000000000000000000000000A9
:108D800000000000000000000000000000000000E3
:108D900000000000000000000000000000000000D3
:108DA00000000000000000000000000000000000C3
:108DB00000000000000000000000000000000000B3
:108DC00000000000000000000000000000000000A3
:108DD0000000000000000000000000000000000093
:108DE0000000000000000000000000000000000083
:108DF0000000000000000000000000000000000073
:108E00000000000000000000000000000000000062
:108E10000000000000000000000000000000000052
:108E20000000000000000000000000000000000042
:108E30000000000000000000000000000000000032
:108E40000000000000000000000000000000000022
:108E50000000000000000000000000000000000012
:108E60000000000000000000000000000000000002
:108E700000000000000000000000000000000000F2
:108E800000000000000000000000000000000000E2
:108E900000000000000000000000000000000000D2
:108EA00000000000000000000000000000000000C2
:108EB00000000000000000000000000000000000B2
:108EC00000000000000000000000000000000000A2
:108ED0000000000000000000000000000000000092
:108EE0000000000000000000000000000000000082
:108EF0000000000000000000000000000000000072
:108F00004208FFFFFFFFAD750000000000000000F9
:108F10000000000000000000000000000000000051
:108F20000000000000000000000000000000000041
:108F30000000000000000000000000000000000031
:108F40000000000000000000000000000000000021
:10912000000000000000000000005ACBFFFFFFFF1E
:10913000BDD700000000000000000000000000009B
:10914000000000000000000000000000000000001F
:10915000000000000000000000000000000000000F
:1091600000000000000000000000000000000000FF
:1091700000000000000000000000000000000000EF
:1091800000000000000000000000000000000000DF
:1091900000000000000000000000000000000000CF
:1091A00000000000000000000000000000000000BF
:1091B00000000000000000000000000000000000AF
:1091C000000000000000000000000000000000009F
:1091D000000000000000000000000000000000008F
:1091E000000000000000000000000000000000007F
:1091F000000000000000000000000000000000006F
:10920000000000000000000000000000000000005E
:10921000000000000000000000000000000000004E
:10922000000000000000000000000000000000003E
:10923000000000000000000000000000000000002E
:10924000000000000000000000000000000000001E
:10925000000000000000000000000000000000000E
:1092600000000000000000000000000000000000FE
:1092700000000000000000000000000000000000EE
:1092800000000000000000000000000000000000DE
:1092900000000000000000000000000000000000CE
:1092A00000000000000000000000000000000000BE
:1092B00000000000000000000000000000000000AE
:1092C000BDD7FFFFFFFF5AEB0000000000000000C9
:1092D000000000000000000000000000000000008E
:1092E000000000000000000000000000000000007E
:1092F000000000000000000000000000000000006E
:10930000000000000000000000000000000000005D
:1094E000000000000000000000000020E71CFFFF5B
:1094F000FFFF5AEB00000000000000000000000029
:10950000000000000000000000000000000000005B
:10951000000000000000000000000000000000004B
:10952000000000000000000000000000000000003B
:10953000000000000000000000000000000000002B
:10954000000000000000000000000000000000001B
:10955000000000000000000000000000000000000B
:1095600000000000000000000000000000000000FB
:1095700000000000000000000000000000000000EB
:1095800000000000000000000000000000000000DB
:1095900000000000000000000000000000000000CB
:1095A00000000000000000000000000000000000BB
:1095B00000000000000000000000000000000000AB
:1095C000000000000000000000000000000000009B
:1095D000000000000000000000000000000000008B
:1095E000000000000000000000000000000000007B
:1095F000000000000000000000000000000000006B
:10960000000000000000000000000000000000005A
:10961000000000000000000000000000000000004A
:10962000000000000000000000000000000000003A
:10963000000000000000000000000000000000002A
:10964000000000000000000000000000000000001A
:10965000000000000000000000000000000000000A
:1096600000000000000000000000000000000000FA
:109670000000000000000000000000000000630C7B
:10968000FFFFFFFFE73C002000000000000000009B
:1096900000000000000000000000000000000000CA
:1096A00000000000000000000000000000000000BA
:1096B00000000000000000000000000000000000AA
:1096C000000000000000000000000000000000009A
:1098A00000000000000000000000000052AAFFFFBE
:1098B000FFFFFFDF5AEB0000000000000000000087
:1098C0000000000000000000000000000000000098
:1098D0000000000000000000000000000000000088
:1098E0000000000000000000000000000000000078
:1098F0000000000000000000000000000000000068
:109900000000000000000000000000000000000057
:109910000000000000000000000000000000000047
:109920000000000000000000000000000000000037
:109930000000000000000000000000000000000027
:109940000000000000000000000000000000000017
:109950000000000000000000000000000000000007
:1099600000000000000000000000000000000000F7
:1099700000000000000000000000000000000000E7
:1099800000000000000000000000000000000000D7
:1099900000000000000000000000000000000000C7
:1099A00000000000000000000000000000000000B7
:1099B00000000000000000000000000000000000A7
:1099C0000000000000000000000000000000000097
:1099D0000000000000000000000000000000000087
:1099E0000000000000000000000000000000000077
:1099F0000000000000000000000000000000000067
:109A00000000000000000000000000000000000056
:109A10000000000000000000000000000000000046
:109A20000000000000000000000000000000000036
:109A30000000000000000000000000005AEBFFDF03
:109A4000FFFFFFFF52AA000000000000000000001E
:109A50000000000000000000000000000000000006
:109A600000000000000000000000000000000000F6
:109A700000000000000000000000000000000000E6
:109A800000000000000000000000000000000000D6
:109C600000000000000000000000000000008C5117
:109C7000FFFFFFFFFFFFB596420800000000000055
:109C800000000000000000000000000000000000D4
:109C900000000000000000000000000000000000C4
:109CA00000000000000000000000000000000000B4
:109CB00000000000000000000000000000000000A4
:109CC0000000000000000000000000000000000094
:109CD0000000000000000000000000000000000084
:109CE0000000000000000000000000000000000074
:109CF0000000000000000000000000000000000064
:109D00000000000000000000000000000000000053
:109D10000000000000000000000000000000000043
:109D20000000000000000000000000000000000033
:109D30000000000000000000000000000000000023
:109D40000000000000000000000000000000000013
:109D50000000000000000000000000000000000003
:109D600000000000000000000000000000000000F3
:109D700000000000000000000000000000000000E3
:109D800000000000000000000000000000000000D3
:109D900000000000000000000000000000000000C3
:109DA00000000000000000000000000000000000B3
:109DB00000000000000000000000000000000000A3
:109DC0000000000000000000000000000000000093
:109DD0000000000000000000000000000000000083
:109DE0000000000000000000000000000000000073
:109DF00000000000000000004208B596FFFFFFFFD2
:109E0000FFFF8C5100000000000000000000000077
:109E10000000000000000000000000000000000042
:109E20000000000000000000000000000000000032
:109E30000000000000000000000000000000000022
:109E40000000000000000000000000000000000012
:10A020000000000000000000000000000000002010
:10A030009492FFFFFFFFFFFFFFFFF79ED69ACE59D6
:10A04000CE79CE79CE79CE79CE79CE79CE79CE79D8
:10A05000CE79CE79CE79CE79CE79CE79CE79CE79C8
:10A06000CE79CE79CE79CE79CE79CE79CE79CE79B8
:10A07000CE79CE79CE79CE79CE79CE79CE79CE79A8
:10A08000CE79CE79CE79CE79CE79CE79CE79CE7998
:10A09000CE79CE79CE79CE79CE79CE79CE79CE7988
:10A0A000CE79CE79CE79CE79CE79CE79CE79CE7978
:10A0B000CE79CE79CE79CE79CE79CE79CE79CE7968
:10A0C000CE79CE79CE79CE79CE79CE79CE79CE7958
:10A0D000CE79CE79CE79CE79CE79CE79CE79CE7948
:10A0E000CE79CE79CE79CE79CE79CE79CE79CE7938
:10A0F000CE79CE79CE79CE79CE79CE79CE79CE7928
:10A10000CE79CE79CE79CE79CE79CE79CE79CE7917
:10A11000CE79CE79CE79CE79CE79CE79CE79CE7907
:10A12000CE79CE79CE79CE79CE79CE79CE79CE79F7
:10A13000CE79CE79CE79CE79CE79CE79CE79CE79E7
:10A14000CE79CE79CE79CE79CE79CE79CE79CE79D7
:10A15000CE79CE79CE79CE79CE79CE79CE79CE79C7
:10A16000CE79CE79CE79CE79CE79CE79CE79CE79B7
:10A17000CE79CE79CE79CE79CE79CE79CE79CE79A7
:10A18000CE79CE79CE79CE79CE79CE79CE79CE7997
:10A19000CE79CE79CE79CE79CE79CE79CE79CE7987
:10A1A000CE79CE79CE79CE79CE79CE59CE79CE7997
:10A1B000CE79CE79D69AF79EFFFFFFFFFFFFFFFF14
:10A1C00094B2002000000000000000000000000029
:10A1D000000000000000000000000000000000007F
:10A1E000000000000000000000000000000000006F
:10A1F000000000000000000000000000000000005F
:10A20000000000000000000000000000000000004E
:10A3F0000000528ADEDBFFFFFFFFFFFFFFFFFFFFD2
:10A40000FFFFFFFFFFFFFFFFFFFFFFFFFFFFFFFF5C
:10A41000FFFFFFFFFFFFFFFFFFFFFFFFFFFFFFFF4C
:10A42000FFFFFFFFFFFFFFFFFFFFFFFFFFFFFFFF3C
:10A43000FFFFFFFFFFFFFFFFFFFFFFFFFFFFFFFF2C
:10A44000FFFFFFFFFFFFFFFFFFFFFFFFFFFFFFFF1C
:10A45000FFFFFFFFFFFFFFFFFFFFFFFFFFFFFFFF0C
:10A46000FFFFFFFFFFFFFFFFFFFFFFFFFFFFFFFFFC
:10A47000FFFFFFFFFFFFFFFFFFFFFFFFFFFFFFFFEC
:10A48000FFFFFFFFFFFFFFFFFFFFFFFFFFFFFFFFDC
:10A49000FFFFFFFFFFFFFFFFFFFFFFFFFFFFFFFFCC
:10A4A000FFFFFFFFFFFFFFFFFFFFFFFFFFFFFFFFBC
:10A4B000FFFFFFFFFFFFFFFFFFFFFFFFFFFFFFFFAC
:10A4C000FFFFFFFFFFFFFFFFFFFFFFFFFFFFFFFF9C
:10A4D000FFFFFFFFFFFFFFFFFFFFFFFFFFFFFFFF8C
:10A4E000FFFFFFFFFFFFFFFFFFFFFFFFFFFFFFFF7C
:10A4F000FFFFFFFFFFFFFFFFFFFFFFFFFFFFFFFF6C
:10A50000FFFFFFFFFFFFFFFFFFFFFFFFFFFFFFFF5B
:10A51000FFFFFFFFFFFFFFFFFFFFFFFFFFFFFFFF4B
:10A52000FFFFFFFFFFFFFFFFFFFFFFFFFFFFFFFF3B
:10A53000FFFFFFFFFFFFFFFFFFFFFFFFFFFFFFFF2B
:10A54000FFFFFFFFFFFFFFFFFFFFFFFFFFFFFFFF1B
:10A55000FFFFFFFFFFFFFFFFFFFFFFFFFFFFFFFF0B
:10A56000FFFFFFFFFFFFFFFFFFFFFFFFFFFFFFFFFB
:10A57000FFFFFFFFFFFFFFFFFFFFFFFFDEDB52AA32
:10A5800000000000000000000000000000000000CB
:10A5900000000000000000000000000000000000BB
:10A5A00000000000000000000000000000000000AB
:10A5B000000000000000000000000000000000009B
:10A7B0000000000000205ACBAD75DEFBFFDFFFFF7D
:10A7C000FFFFFFFFFFFFFFFFFFFFFFFFFFFFFFFF99
:10A7D000FFFFFFFFFFFFFFFFFFFFFFFFFFFFFFFF89
:10A7E000FFFFFFFFFFFFFFFFFFFFFFFFFFFFFFFF79
:10A7F000FFFFFFFFFFFFFFFFFFFFFFFFFFFFFFFF69
:10A80000FFFFFFFFFFFFFFFFFFFFFFFFFFFFFFFF58
:10A81000FFFFFFFFFFFFFFFFFFFFFFFFFFFFFFFF48
:10A82000FFFFFFFFFFFFFFFFFFFFFFFFFFFFFFFF38
:10A83000FFFFFFFFFFFFFFFFFFFFFFFFFFFFFFFF28
:10A84000FFFFFFFFFFFFFFFFFFFFFFFFFFFFFFFF18
:10A85000FFFFFFFFFFFFFFFFFFFFFFFFFFFFFFFF08
:10A86000FFFFFFFFFFFFFFFFFFFFFFFFFFFFFFFFF8
:10A87000FFFFFFFFFFFFFFFFFFFFFFFFFFFFFFFFE8
:10A88000FFFFFFFFFFFFFFFFFFFFFFFFFFFFFFFFD8
:10A89000FFFFFFFFFFFFFFFFFFFFFFFFFFFFFFFFC8
:10A8A000FFFFFFFFFFFFFFFFFFFFFFFFFFFFFFFFB8
:10A8B000FFFFFFFFFFFFFFFFFFFFFFFFFFFFFFFFA8
:10A8C000FFFFFFFFFFFFFFFFFFFFFFFFFFFFFFFF98
:10A8D000FFFFFFFFFFFFFFFFFFFFFFFFFFFFFFFF88
:10A8E000FFFFFFFFFFFFFFFFFFFFFFFFFFFFFFFF78
:10A8F000FFFFFFFFFFFFFFFFFFFFFFFFFFFFFFFF68
:10A90000FFFFFFFFFFFFFFFFFFFFFFFFFFFFFFFF57
:10A91000FFFFFFFFFFFFFFFFFFFFFFFFFFFFFFFF47
:10A92000FFFFFFFFFFFFFFFFFFFFFFFFFFFFFFFF37
:10A93000FFFFFFFFFFDFE71CAD755ACB00200000D3
:10A940000000000000000000000000000000000007
:10A9500000000000000000000000000000000000F7
:10A9600000000000000000000000000000000000E7
:10A9700000000000000000000000000000000000D7
:020000040801F1
:100C40000000000000000000000000000000F800AC
:100C5000F800F8010000F800F800F800F8000000C3
:100C60000000000000000000000000000000000084
:100C70000000000000000000000000000000000074
:100C80000000000000000000000000000000000064
:100C90000000000000000000000000000000000054
:101000000000000000000000000000000000F801E7
:10101000F800F8000000F800F800F800F800000000
:1010200000000000000000000000000000000000C0
:1010300000000000000000000000000000000000B0
:1010400000000000000000000000000000000000A0
:101050000000000000000000000000000000000090
:1013C0000000000000000000000000000000F80124
:1013D000F800F8010000F800F800F801F80000003B
:1013E00000000000000000000000000000000000FD
:1013F00000000000000000000000000000000000ED
:1014000000000000000000000000000000000000DC
:1014100000000000000000000000000000000000CC
:101740000000000000000000F800F800F800F800B9
:101750000000F801F801F800F800000000000000A7
:101760000000000000000000000000000000000079
:101770000000000000000000000000000000000069
:101780000000000000000000000000000000000059
:101790000000000000000000000000000000000049
:1017A0000000000000000000000000000000000039
:1017B0000000000000000000000000000000000029
:1017C0000000000000000000000000000000000019
:1017D0000000000000000000000000000000000009
:1017E00000000000000000000000000000000000F9
:1017F00000000000000000000000000000000000E9
:101800000000F800F800F800F800F8000000000000
:1018100000000000000000000000000000000000C8
:1018200000000000000000000000000000000000B8
:1018300000000000000000000000000000000000A8
:101840000000000000000000000000000000000098
:101850000000000000000000000000000000000088
:101860000000000000000000000000000000000078
:101870000000000000000000000000000000000068
:101880000000000000000000000000000000000058
:101890000000000000000000000000000000000048
:1018A0000000000000000000000000000000000038
:1018B0000000000000000000000000000000000028
:1018C0000000000000000000000000000000000018
:1018D0000000000000000000000000000000000008
:1018E00000000000000000000000000000000000F8
:1018F00000000000000000000000000000000000E8
:1019000000000000000000000000000000000000D7
:1019100000000000000000000000000000000000C7
:1019200000000000000000000000000000000000B7
:1019300000000000000000000000000000000000A7
:101940000000000000000000000000000000000097
:101950000000000000000000000000000000000087
:101960000000000000000000000000000000000077
:101970000000000000000000000000000000000067
:101980000000000000000000000000000000000057
:101990000000000000000000000000000000000047
:1019A0000000000000000000000000000000000037
:1019B0000000000000000000000000000000000027
:1019C0000000000000000000000000000000000017
:1019D0000000000000000000000000000000000007
:1019E00000000000000000000000000000000000F7
:1019F00000000000000000000000000000000000E7
:101A00000000000000000000000000000000FFFFD8
:101A1000FFFFFFFF0000FFFFFFFFFFFFFFFF0000D2
:101A200000000000000000000000000000000000B6
:101A300000000000000000000000000000000000A6
:101A40000000000000000000000000000000000096
:101A50000000000000000000000000000000000086
:101A60000000000000000000000000000000000076
:101A70000000000000000000000000000000000066
:101A80000000000000000000000000000000000056
:101A90000000000000000000000000000000000046
:101AA0000000000000000000000000000000000036
:101AB0000000000000000000000000000000000026
:101AC0000000000000000000000000000000000016
:101AD0000000000000000000000000000000000006
:101AE00000000000000000000000000000000000F6
:101AF00000000000000000000000000000000000E6
:101B00000000000000000000F800F801F801F801F2
:101B10000000F800F800F800F800000000000000E5
:101B200000000000000000000000000000000000B5
:101B300000000000000000000000000000000000A5
:101B40000000000000000000000000000000000095
:101B50000000000000000000000000000000000085
:101B60000000000000000000000000000000000075
:101B7000000000000000F800F800F800F800F8008D
:101B80000000000000000000000000000000000055
:101B90000000000000000000000000000000000045
:101BA0000000000000000000000000000000000035
:101BB0000000000000000000000000000000000025
:101BC000F800F800F800F800F800F800F800F80055
:101BD000F80000000000000000000000000000000D
:101BE00000000000000000000000000000000000F5
:101BF00000000000000000000000000000000000E5
:101C000000000000000000000000000000000000D4
:101C100000000000000000000000000000000000C4
:101C200000000000000000000000000000000000B4
:101C300000000000000000000000000000000000A4
:101C40000000000000000000000000000000000094
:101C50000000000000000000000000000000000084
