:020000040800F2
:10000000C02500208DF6040871F5040873F5040876
:1000100075F5040877F5040879F504080000000078
:100020000000000000000000000000007BF5040854
:100030007DF50408000000007FF5040881F5040840
:10004000A5F60408A9F60408ADF60408B1F60408FC
:10005000B5F60408B9F60408BDF60408C1F60408AC
:1000600085F50408C5F60408C9F60408CDF60408A9
:10007000D1F60408D5F60408D9F60408DDF604081C
:10008000E1F60408E5F60408E9F60408EDF60408CC
:10009000F1F60408F5F60408F9F60408FDF604087C
:1000A00001F7040805F7040809F704080DF7040828
:1000B00011F7040815F7040819F704081DF70408D8
:1000C00021F7040825F7040829F704088BF504082C
:1000D0002DF7040831F7040835F7040839F7040848
:1000E0003DF7040841F7040845F7040849F70408F8
:1000F0004DF7040851F7040855F7040859F70408A8
:100100005DF7040861F7040865F7040869F7040857
:100110006DF7040871F7040875F7040879F7040807
:100120007DF7040881F7040885F7040891F50408B1
:1001300089F704088DF7040891F7040895F7040877
:1001400099F704089DF70408A1F70408A5F7040827
:10015000A9F70408ADF70408B1F70408B5F70408D7
:10016000B9F70408BDF70408C1F70408C5F7040887
:10017000C9F70408CDF70408D1F70408000000000F
:10018000D5F70408D9F70408FFFFFFFFFFFFFFFFC3
:10019000FFFFFFFFFFFFFFFFFFFFFFFFFFFFFFFF6F
:1001A000FFFFFFFFFFFFFFFFFFFFFFFFFFFFFFFF5F
:1001B000FFFFFFFFFFFFFFFFFFFFFFFFFFFFFFFF4F
:1001C000FFFFFFFFF7FF9D99959A959A9D9B9DBB19
:1001D0009DBB9DBB9DBB959B959B959B959B959B27
:1001E000959B959B957B957B959B959B9D9B9D9BBF
:1001F0009D9B9DBBA5BCA5DCA5DCA5BBA5BBA5BBEC
:10020000A5BBA5BBA5DBA5DCA5FBADDCADDBADDBF4
:10021000ADDBADFBB61BB61CBE3CBE3CBE3CBE3C23
:10022000BE5CBE5CBE5DBE7DC69DC67DBE5CBE5C6A
:10023000BE3CBE3CBE3CBE3CBE3CBE3CC65CC67C7E
:10024000C67CC69CCE9CCE9DCEDDCEDDCEBDD6BDC1
:10025000D6DDD6DECEDDCEBDCEBDCEBDC67DBE5C8E
:10026000C67DC69DC67DC69DC69DC69DC69DC69DB6
:10027000C69DC69DC69DC6BDCEDED6FED6FED6FEAA
:10028000D6FED6FEDEFEDEFEDF3EDF3EDF3EDF3E9A
:10029000DF1EDF1EDF1EDF1EDF3FE75FE77FEF9F12
:1002A000EF9FEF9FEFBFEFBFEF9FEFBFF7DFF7DFEE
:1002B000FFFFFFFFFFFFFFFFFFFFFFFFFFFFFFFF4E
:1002C000FFFFFFFFFFFFFFFFFFFFFFFFFFFFFFFF3E
:1002D000FFFFFFFFFFFFFFFFFFFFFFFFFFFFFFFF2E
:1002E000FFFFFFFFFFFFFFFFFFFFFFFFFFFFFFFF1E
:1002F000FFFFFFFFFFFFFFFFFFFFFFFFFFFFFFFF0E
:10030000FFFFFFFFFFFFFFFFFFFFFFFFFFFFFFFFFD
:10031000FFFFFFFFFFFFFFFFFFFFFFFFFFFFFFFFED
:10032000FFFFFFFFFFFFFFFFFFFFFFFFFFFFFFFFDD
:10033000FFFFFFFFFFFFFFFFFFFFFFFFFFFFFFFFCD
:10034000FFFFFFFFFFFFFFFFFFFFFFFFFFFFFFFFBD
:10035000FFFFFFFFFFFFFFFFFFFFFFFFFFFFFFFFAD
:10036000FFFFFFFFFFFFFFFFFFFFFFFFFFFFFFFF9D
:10037000FFFFFFFFFFFFFFFFFFFFFFFFFFFFFFFF8D
:10038000FFFFFFFFFFFFFFFFFFFFFFFFFFFFFFFF7D
:10039000FFFFFFFFFFFFFFFFFFFFFFFFFFFFFFFF6D
:1003A000FFFFFFFFFFFFFFFFFFFFFFFFFFFFFFFF5D
:1003B000FFFFFFFFFFFFFFFFFFFFFFFFFFFFFFFF4D
:1003C000FFFFFFFFFFFFFFFFFFFFFFFFFFFFFFFF3D
:1003D000FFFFFFFFFFFFFFFFFFFFFFFFFFFFFFFF2D
:1003E000FFFFFFFFFFFFFFFFFFFFFFFFFFFFFFFF1D
:1003F000FFFFFFFFFFFFFFFFFFFFFFFFFFFFFFFF0D
:10040000FFDFFFDFFFDFFFDFFFDFFFDFFFDFFFDFFC
:10041000FFDFFFDFFFDFFFDFF7BFF7BFF7BFF7BF8C
:10042000F7BFF7BFF7BFF7BFF7BFF7BFF7BFF7BF1C
:10043000F7BFF7BFF7BFF7BFF7BFF7BFF7BFF79F2C
:10044000F79FF79FEF9FEF9FEF9FEF9FEF9FEF9F2C
:10045000EF9FEF9FEF7FEF7FEF7FEF7FEF7FEF7FEC
:10046000EF7FEF7FEF5FEF5FEF5FEF5EEF5EEF5EDF
:10047000EF5EEF5EE75EE75EE75EE75EE75EE75E44
:10048000EF5EEF5EE75EE75EE75EE75FE75EE75E33
:10049000E73EE73EE73EE73EE73EE73EE73EE73E34
:1004A000E73EE73EE73EE73EE71EE71EE71EE71EA4
:1004B000E71DE71DE71DE71DE71DE71DE71DE71D1C
:1004C000E71DE71DE71DE71DDEFDDEFDDEFDDEFDB0
:1004D000DEFDDEFDDEFDDEFDDEDCDEDDDEDDDEDDC5
:1004E000DEDCD6DCD6DCD6DCD6DCD6DCD6DCD6DC74
:1004F000D6DCD6BCD6BCD6BCD6BCD6BCD6BCD69C6C
:10050000D69CCE9CD69CCE9CD6BCCE9CCE9CCE9C63
:10051000CE9CCE9CCE9CCE7CCE7CCE7CFFFFFFFFC3
:10052000FFFFFFFFFFFFFFFFFFFFFFFFFFFFFFFFDB
:10053000FFFFFFFFFFFFFFFFFFFFFFFFFFFFFFFFCB
:10054000FFFFFFFFFFFFFFFFFFFFFFFFFFFFFFFFBB
:10055000FFFFFFFFFFFFFFFFFFFFFFFFFFFFFFFFAB
:10056000FFFFFFFFFFFFFFFFFFFFFFFFFFFFFFFF9B
:10057000FFFFFFFFFFFFFFFFFFFFFFFFFFFFFFFF8B
:10058000FFFFFFFFF7FF9D589559957A957A959A49
:100590009D9A959A959A957A8D5A8D5A8D5A8D5A1B
:1005A0008D5A8D5A853A8D3A8D5A8D5A955A957A2B
:1005B0009D7B9D9B9DBBA5BBA59B9D9B9D7A9D7A8D
:1005C0009D7A957A9D7A9D9BA5BAA5BBA5BBADDB0F
:1005D000ADFBB5FBB5FBB5FBB61BB61BB61BB61B1F
:1005E000B61BB61BB63CBE3CBE5CBE3CB63CB63B86
:1005F000B61BB61BB61BB5FBB61BBE1BBE5CC67CD2
:10060000C67CC67CCE9CCE9CC69CC69CCE9CCE9CFA
:10061000CE9DCEBDCEBDC69CC65CC67CC67CBE5C37
:10062000BE5CBE5CBE5CBE5CBE5CBE7CBE7CBE5CBA
:10063000BE5CBE5CBE3CBE5CC69DCEBDCEDDCEDE2D
:10064000D6DDD6FED6FED6FEDEFEDF1EDF1EDF1EA8
:10065000DF1ED6FDD6FDD6DDDF1EDF3EE75FE77F7E
:10066000E77FE77FE77FE77FEF7FEF9FEFBFF7DF72
:10067000FFFFFFFFFFFFFFFFFFFFFFFFFFFFFFFF8A
:10068000FFFFFFFFFFFFFFFFFFFFFFFFFFFFFFFF7A
:10069000FFFFFFFFFFFFFFFFFFFFFFFFFFFFFFFF6A
:1006A000FFFFFFFFFFFFFFFFFFFFFFFFFFFFFFFF5A
:1006B000FFFFFFFFFFFFFFFFFFFFFFFFFFFFFFFF4A
:1006C000FFFFFFFFFFFFFFFFFFFFFFFFFFFFFFFF3A
:1006D000FFFFFFFFFFFFFFFFFFFFFFFFFFFFFFFF2A
:1006E000FFFFFFFFFFFFFFFFFFFFFFFFFFFFFFFF1A
:1006F000FFFFFFFFFFFFFFFFFFFFFFFFFFFFFFFF0A
:10070000FFFFFFFFFFFFFFFFFFFFFFFFFFFFFFFFF9
:10071000FFFFFFFFFFFFFFFFFFFFFFFFFFFFFFFFE9
:10072000FFFFFFFFFFFFFFFFFFFFFFFFFFFFFFFFD9
:10073000FFFFFFFFFFFFFFFFFFFFFFFFFFFFFFFFC9
:10074000FFFFFFFFFFFFFFFFFFFFFFFFFFFFFFFFB9
:10075000FFFFFFFFFFFFFFFFFFFFFFFFFFFFFFFFA9
:10076000FFFFFFFFFFFFFFFFFFFFFFFFFFFFFFFF99
:10077000FFFFFFFFFFFFFFFFFFFFFFFFFFFFFFFF89
:10078000FFFFFFFFFFFFFFFFFFFFFFFFFFFFFFFF79
:10079000FFFFFFFFFFFFFFFFFFFFFFFFFFFFFFFF69
:1007A000FFFFFFFFFFFFFFFFFFFFFFFFFFFFFFFF59
:1007B000FFFFFFFFFFFFFFFFFFFFFFFFFFFFFFFF49
:1007C000FFDFFFDFFFDFFFDFFFDFFFDFFFDFFFDF39
:1007D000FFDFFFDFFFDFFFDFF7BFF7BFF7BFF7BFC9
:1007E000F7BFF7BFF7BFF7BFF7BFF7BFF7BFF7BF59
:1007F000F7BFF7BFF7BFF7BFF7BFF7BFF7BFF79F69
:10080000F79FF79FEF9FEF9FEF9FEF9FEF9FEF9F68
:10081000EF7FEF7FEF7FEF7FEF7FEF7FEF7FEF7F68
:10082000EF5FEF5FEF5FEF5FEF5FEF5EEF5EEF5E5B
:10083000EF5EEF5EE75EE75EE75EE75EE75EE75E80
:10084000E75EE75EE75EE75EE75EE75EE75EE73EA0
:10085000E73EE73EE73EE73EE71EE73EE73EE73E90
:10086000E73EE71EE71EE71DE71DE71EE71EE71E42
:10087000E71DE71DE71DE71DE71DE71DE71DE71D58
:10088000E71DE71DDEFDDEFDDEFDDEFDDEFDDEFD3E
:10089000DEFDDEDCDEDCDEDCD6DCD6DCD6DCD6DC87
:1008A000D6DCD6DCD6DCD6DCD6BCD6BCD6BCD6BC38
:1008B000D6BCD6BCD6BCD6BCD69CD69CD69CCE9C30
:1008C000CE9CCE9CCE9CCE9CCE9CCE7CCE7CCE7C38
:1008D000CE9CCE7CCE7CCE7CCE7CCE7CFFFFFFFF40
:1008E000FFFFFFFFFFFFFFFFFFFFFFFFFFFFFFFF18
:1008F000FFFFFFFFFFFFFFFFFFFFFFFFFFFFFFFF08
:10090000FFFFFFFFFFFFFFFFFFFFFFFFFFFFFFFFF7
:10091000FFFFFFFFFFFFFFFFFFFFFFFFFFFFFFFFE7
:10092000FFFFFFFFFFFFFFFFFFFFFFFFFFFFFFFFD7
:10093000FFFFFFFFFFFFFFFFFFFFFFFFFFFFFFFFC7
:10094000FFFFFFFFF7FF95588D398D5A957A957AFD
:10095000957A957A957A957A8D5A8D398D398D3A21
:100960008D3A853A853A853A85398D398D5A957A09
:10097000957A959B9D9B9D9B9D9B9D9A9D7A9D7A2B
:10098000957A957A957A9D7B9D9AA59AA59AA5BB0D
:10099000ADDBADDBADFBB5FBB5FBB5FBB5FBB5FB2F
:1009A000B5FBB5FBB5FBB61BB61BB5FBB5FBB61B64
:1009B000B61BB61BB5FBB5FBADFAB61BBE5CC67C61
:1009C000C67CC67CC67CC69CC67CC67CC67CC67CF7
:1009D000C67CC69DC69DC67CBE3CBE5CBE5CBE5C85
:1009E000B63CB63BB61BB63CB63BBE3CBE3CBE5C62
:1009F000BE3CB61BB61BB63BBE5CC67CC69DCEBD20
:100A0000CEBDD6DDD6FDD6FEDEFEDF1EDF1EDF1E2E
:100A1000DF1ED6FED6DDD6DDDEFEDF1EE75FE75F3A
:100A2000E77FE77FE75FE73EE73EE75FEF9FF7BFE0
:100A3000F7DFFFFFFFFFFFFFFFFFFFFFFFFFFFFFEE
:100A4000FFFFFFFFFFFFFFFFFFFFFFFFFFFFFFFFB6
:100A5000FFFFFFFFFFFFFFFFFFFFFFFFFFFFFFFFA6
:100A6000FFFFFFFFFFFFFFFFFFFFFFFFFFFFFFFF96
:100A7000FFFFFFFFFFFFFFFFFFFFFFFFFFFFFFFF86
:100A8000FFFFFFFFFFFFFFFFFFFFFFFFFFFFFFFF76
:100A9000FFFFFFFFFFFFFFFFFFFFFFFFFFFFFFFF66
:100AA000FFFFFFFFFFFFFFFFFFFFFFFFFFFFFFFF56
:100AB000FFFFFFFFFFFFFFFFFFFFFFFFFFFFFFFF46
:100AC000FFFFFFFFFFFFFFFFFFFFFFFFFFFFFFFF36
:100AD000FFFFFFFFFFFFFFFFFFFFFFFFFFFFFFFF26
:100AE000FFFFFFFFFFFFFFFFFFFFFFFFFFFFFFFF16
:100AF000FFFFFFFFFFFFFFFFFFFFFFFFFFFFFFFF06
:100B0000FFFFFFFFFFFFFFFFFFFFFFFFFFFFFFFFF5
:100B1000FFFFFFFFFFFFFFFFFFFFFFFFFFFFFFFFE5
:100B2000FFFFFFFFFFFFFFFFFFFFFFFFFFFFFFFFD5
:100B3000FFFFFFFFFFFFFFFFFFFFFFFFFFFFFFFFC5
:100B4000FFFFFFFFFFFFFFFFFFFFFFFFFFFFFFFFB5
:100B5000FFFFFFFFFFFFFFFFFFFFFFFFFFFFFFFFA5
:100B6000FFFFFFFFFFFFFFFFFFFFFFFFFFFFFFFF95
:100B7000FFFFFFFFFFFFFFFFFFFFFFFFFFFFFFFF85
:100B8000FFDFFFDFFFDFFFDFFFDFFFDFFFDFFFDF75
:100B9000FFDFFFDFFFDFFFDFF7DFF7DFF7BFF7BFC5
:100BA000F7BFF7BFF7BFF7BFF7BFF7BFF7BFF7BF95
:100BB000F7BFF7BFF7BFF7BFF7BFF7BFF79FF79FC5
:100BC000F79FEF9FEF9FEF9FEF7FEF7FEF7FEF7F2D
:100BD000EF7FEF7FEF7FEF7FEF7FEF7FEF5FEF5EE6
:100BE000EF5EEF5EEF5EEF5FEF5EE75EE75EE75EB4
:100BF000E75EE75EE75EE75EE75EE75EE75EE75ECD
:100C0000E75EE75EE75EE75EE73EE73EE73EE73E3C
:100C1000E73EE73EE73EE73EE73EE73EE73EE73EAC
:100C2000E73EE71EE71EE71EE71EE71EE71EE71E7C
:100C3000E71DE71DE71DE71DE71DE71DE71DE71D94
:100C4000DEFDDEFDDEFDDEFCDEFDDEFDDEFDDEFDCD
:100C5000DEDCDEDCDEDCDEDCDEDCD6DCD6DCD6DCDC
:100C6000D6DCD6DCD6DCD6DCD6BCD6BCD6BCD6BC74
:100C7000D6BCD69CD69CD69CCE9CCE9CCE9CCE9CE4
:100C8000CE9CCE9CCE9CCE9CCE9CCE7CCE7CCE7C74
:100C9000CE9CCE7CCE7CCE7CCE7CCE7CFFFFFFFF7C
:100CA000FFFFFFFFFFFFFFFFFFFFFFFFFFFFFFFF54
:100CB000FFFFFFFFFFFFFFFFFFFFFFFFFFFFFFFF44
:100CC000FFFFFFFFFFFFFFFFFFFFFFFFFFFFFFFF34
:100CD000FFFFFFFFFFFFFFFFFFFFFFFFFFFFFFFF24
:100CE000FFFFFFFFFFFFFFFFFFFFFFFFFFFFFFFF14
:100CF000FFFFFFFFFFFFFFFFFFFFFFFFFFFFFFFF04
:100D0000FFFFFFFFF7FF9D588D398D598D5A957A5A
:100D1000957A957A957A957A8D5A8D3985398D3A65
:100D20008D3A85198519853A8D398D5A8D5A955A7E
:100D3000957A957A957A957A957A955A955A955A9B
:100D4000957A957A957A957A957A9D7AA5BAA5BB82
:100D5000A5DBADDBADDBB5DBB61BB61BB61BB5FB50
:100D6000ADFBADFBB5FBB5FBB5FBB5FBADFBB61BFA
:100D7000B61BB61BB61BB5FBB5FAB61BBE3CC67C94
:100D8000C67CC67CC67CC67CC67CBE5CBE5BBE5CCC
:100D9000C67CC67CC67CBE5CBE5CBE3CB63CB63B7C
:100DA000B61BADFBADFBB61BB61BB61BB61BB63CEC
:100DB000BE3CB61BB61BB61BBE5CC67CC67CC69CC6
:100DC000CE9CCEBDD6DDD6FEDF1EDF1EDF1EDF3E93
:100DD000DF1EDF1EDEFED6FED6FEDF1EDF3FE75F34
:100DE000E75FE75FDF3EDF1EDF3EE75EEF9FF7BFB7
:100DF000F7DFFFDFFFFFFFFFFFFFFFFFFFFFFFFF4B
:100E0000FFFFFFFFFFFFFFFFFFFFFFFFFFFFFFFFF2
:100E1000FFFFFFFFFFFFFFFFFFFFFFFFFFFFFFFFE2
:100E2000FFFFFFFFFFFFFFFFFFFFFFFFFFFFFFFFD2
:100E3000FFFFFFFFFFFFFFFFFFFFFFFFFFFFFFFFC2
:100E4000FFFFFFFFFFFFFFFFFFFFFFFFFFFFFFFFB2
:100E5000FFFFFFFFFFFFFFFFFFFFFFFFFFFFFFFFA2
:100E6000FFFFFFFFFFFFFFFFFFFFFFFFFFFFFFFF92
:100E7000FFFFFFFFFFFFFFFFFFFFFFFFFFFFFFFF82
:100E8000FFFFFFFFFFFFFFFFFFFFFFFFFFFFFFFF72
:100E9000FFFFFFFFFFFFFFFFFFFFFFFFFFFFFFFF62
:100EA000FFFFFFFFFFFFFFFFFFFFFFFFFFFFFFFF52
:100EB000FFFFFFFFFFFFFFFFFFFFFFFFFFFFFFFF42
:100EC000FFFFFFFFFFFFFFFFFFFFFFFFFFFFFFFF32
:100ED000FFFFFFFFFFFFFFFFFFFFFFFFFFFFFFFF22
:100EE000FFFFFFFFFFFFFFFFFFFFFFFFFFFFFFFF12
:100EF000FFFFFFFFFFFFFFFFFFFFFFFFFFFFFFFF02
:100F0000FFFFFFFFFFFFFFFFFFFFFFFFFFFFFFFFF1
:100F1000FFFFFFFFFFFFFFFFFFFFFFFFFFFFFFFFE1
:100F2000FFFFFFFFFFFFFFFFFFFFFFFFFFFFFFFFD1
:100F3000FFFFFFFFFFFFFFFFFFFFFFFFFFFFFFFFC1
:100F4000FFFFFFFFFFDFFFDFFFDFFFDFFFDFFFDF71
:100F5000FFDFFFDFFFDFFFDFF7DFF7DFF7DFF7DFC1
:100F6000F7BFF7BFF7BFF7DFF7BFF7BFF7BFF7BFB1
:100F7000F7BFF7BFF7BFF7BFF79FF79FF79FEF9F49
:100F8000EF9FEF9FEF9FEF9FEF7FEF7FEF7FEF7F71
:100F9000EF7FEF7FEF7FEF7FEF7FEF7FEF5FEF5E22
:100FA000EF5EEF5EEF5EEF5EE75EE75EE75EE75EF9
:100FB000E75EE75EE73EE73EE73EE73EE73EE75EA9
:100FC000E75EE75EE73EE73EE73EE73EE73EE73EB9
:100FD000E73EE73EE73EE73EE73EE73EE73EE73EE9
:100FE000E73EE73EE73EE73EE71DE71DE71DE71D5D
:100FF000E71DE71DE71DE71DE71DE71DE71DE71DD1
:10100000DEFDDEFDDEFDDEFCDEFDDEFDDEFDDEDC2A
:10101000DEDCDEDCDEDCDEDCDEDCDEDCD6DCD6DC10
:10102000D6DCD6DCD6BCD6BCD6BCD6BCD6BCD6BCF0
:10103000D69CD69CD69CD6BCCE9CCE9CCE9CCE9C20
:10104000CE9CCE9CCE9CCE9CCE9CCE9CCE9CCE9C50
:10105000CE9CCE9CCE7CCE7CCE7CCE7CFFFFFFFF98
:10106000FFFFFFFFFFFFFFFFFFFFFFFFFFFFFFFF90
:10107000FFFFFFFFFFFFFFFFFFFFFFFFFFFFFFFF80
:10108000FFFFFFFFFFFFFFFFFFFFFFFFFFFFFFFF70
:10109000FFFFFFFFFFFFFFFFFFFFFFFFFFFFFFFF60
:1010A000FFFFFFFFFFFFFFFFFFFFFFFFFFFFFFFF50
:1010B000FFFFFFFFFFFFFFFFFFFFFFFFFFFFFFFF40
:1010C000FFFFFFFFF7FF9D588D3A8D398D398D5AFF
:1010D0008D5A8D7A8D7A8D7A957A8D5A8D3A8D3A90
:1010E000853A85398519853A85398D5A8D5A8D5AB3
:1010F0008D5A957A957A957A955A955A8D3A955A48
:10110000957A957A957A957A957A9D7A9D9A9DBBEE
:101110009DBBA5BBA5DBADDBB61BB61BB61BB5FBEC
:10112000ADFBADFBADFBB5FBB5FBB5FBB5FBB5FB57
:10113000B61BB61BB5FBB5FBB5FBB61BB63BBE5C21
:10114000C67CC67CC67CC67CBE7CBE5CBE5CBE5C0F
:10115000BE5CBE5CBE5CBE5CBE7CB63BB61BADFB83
:10116000ADFBADFAADFAADFAB61BB61BB61BB63B7E
:10117000BE3CB63BB63BB63BC67CC67CC69CC69C5A
:10118000C67CCEBDD6DDD6FEDF1EDF1EDF1EDF3EF7
:10119000DF3EDF1EDF1ED6FED6FEDF1EDF3EDF3E59
:1011A000DF3EDF3EDF3EDF3EE75FE77FEF9FF7BFDB
:1011B000F7DFFFDFFFDFFFFFFFFFFFFFFFFFFFFFA7
:1011C000FFFFFFFFFFFFFFFFFFFFFFFFFFFFFFFF2F
:1011D000FFFFFFFFFFFFFFFFFFFFFFFFFFFFFFFF1F
:1011E000FFFFFFFFFFFFFFFFFFFFFFFFFFFFFFFF0F
:1011F000FFFFFFFFFFFFFFFFFFFFFFFFFFFFFFFFFF
:10120000FFFFFFFFFFFFFFFFFFFFFFFFFFFFFFFFEE
:10121000FFFFFFFFFFFFFFFFFFFFFFFFFFFFFFFFDE
:10122000FFFFFFFFFFFFFFFFFFFFFFFFFFFFFFFFCE
:10123000FFFFFFFFFFFFFFFFFFFFFFFFFFFFFFFFBE
:10124000FFFFFFFFFFFFFFFFFFFFFFFFFFFFFFFFAE
:10125000FFFFFFFFFFFFFFFFFFFFFFFFFFFFFFFF9E
:10126000FFFFFFFFFFFFFFFFFFFFFFFFFFFFFFFF8E
:10127000FFFFFFFFFFFFFFFFFFFFFFFFFFFFFFFF7E
:10128000FFFFFFFFFFFFFFFFFFFFFFFFFFFFFFFF6E
:10129000FFFFFFFFFFFFFFFFFFFFFFFFFFFFFFFF5E
:1012A000FFFFFFFFFFFFFFFFFFFFFFFFFFFFFFFF4E
:1012B000FFFFFFFFFFFFFFFFFFFFFFFFFFFFFFFF3E
:1012C000FFFFFFFFFFFFFFFFFFFFFFFFFFFFFFFF2E
:1012D000FFFFFFFFFFFFFFFFFFFFFFFFFFFFFFFF1E
:1012E000FFFFFFFFFFFFFFFFFFFFFFFFFFFFFFFF0E
:1012F000FFFFFFFFFFFFFFFFFFFFFFFFFFFFFFFFFE
:10130000FFFFFFFFFFDFFFDFFFFFFFFFFFDFFFDF6D
:10131000FFDFFFDFFFDFFFDFF7DFF7DFFFDFF7DFF5
:10132000F7DFF7BFF7BFF7BFF7BFF7BFF7BFF7BFED
:10133000F7BFF7BFF7BFF7BFF79FF79FEF9FEF9F8D
:10134000EF9FEF9FEF9FEF9FEF7FEF7FEF7FEF7FAD
:10135000EF7FEF7FEF7FEF5FEF5FEF5FEF5FEF5FBD
:10136000EF5EEF5EE75EE75EE75EE75EE75EE75E45
:10137000E75EE75EE75EE75EE75EE75EE75EE75E45
:10138000E75EE75EE75EE75EE73EE73EE73EE73EB5
:10139000E73EE73EE73EE73EE73EE73EE73EE71E45
:1013A000E71EE71DE71EE71DE71DE71DE71DE71D1B
:1013B000E71DE71DE71DE71DE71DE71DE71DDEFD36
:1013C000DEFDDEFDDEFDDEFCDEFCDEFCDEFCDEDC6A
:1013D000DEDCDEDCDEDCDEDCDEDCDEDCDEDCD6DC45
:1013E000D6BCD6BCD6BCD6BCD6BCD6BCD6BCD6BC6D
:1013F000D6BCD69CD69CD6BCCE9CCE9CCE9CCE9C3D
:10140000CE9CCE9CCE9CCE9CCE7CCE9CCE9CCE9CAC
:10141000CE9CCE7CCE7CCE7CCE7CCE7CFFFFFFFFF4
:10142000FFFFFFFFFFFFFFFFFFFFFFFFFFFFFFFFCC
:10143000FFFFFFFFFFFFFFFFFFFFFFFFFFFFFFFFBC
:10144000FFFFFFFFFFFFFFFFFFFFFFFFFFFFFFFFAC
:10145000FFFFFFFFFFFFFFFFFFFFFFFFFFFFFFFF9C
:10146000FFFFFFFFFFFFFFFFFFFFFFFFFFFFFFFF8C
:10147000FFFFFFFFFFFFFFFFFFFFFFFFFFFFFFFF7C
:10148000FFFFFFFFF7FF95388D398D398D398D5A64
:101490008D5A8D7A957A957A8D7A8D5A8D5A8D5A84
:1014A0008D5A8D5A853A853A85398D5A8D5A8D5A7D
:1014B0008D5A8D5A955A957A957A955A955A955A84
:1014C000957A957A957A957A955A957A9D9A9D9B73
:1014D0009D9AA59AA5BAADDBADFBB5FBB61BB61BB5
:1014E000B5FBADFBADFBB5FBADFBADFBADFBADFBAC
:1014F000B5FBB61BB61BB61BB61BB61BB61BBE3C5C
:10150000BE5CBE5CBE5CBE5CBE5CBE5CBE3CBE3C4B
:10151000BE3CB63BBE3CBE5CBE5CB61BADFAADFA93
:10152000ADFBADFBADFBADFAB61BB61BB61BB63BB8
:10153000BE5CBE5CBE5CBE5CC67CC69DCEBDCEBD88
:10154000CEBDCEBDD6DDD6FEDF1EDF1EDF3EDF3ECA
:10155000DF3EDF3EDF1EDF1EDF1EDF3EDF3EDF3E03
:10156000DF3EDF3EE75FE75FE75FE77FEF9FEFBFCD
:10157000F7BFFFDFFFFFFFFFFFFFFFFFFFFFFFFFE3
:10158000FFFFFFFFFFFFFFFFFFFFFFFFFFFFFFFF6B
:10159000FFFFFFFFFFFFFFFFFFFFFFFFFFFFFFFF5B
:1015A000FFFFFFFFFFFFFFFFFFFFFFFFFFFFFFFF4B
:1015B000FFFFFFFFFFFFFFFFFFFFFFFFFFFFFFFF3B
:1015C000FFFFFFFFFFFFFFFFFFFFFFFFFFFFFFFF2B
:1015D000FFFFFFFFFFFFFFFFFFFFFFFFFFFFFFFF1B
:1015E000FFFFFFFFFFFFFFFFFFFFFFFFFFFFFFFF0B
:1015F000FFFFFFFFFFFFFFFFFFFFFFFFFFFFFFFFFB
:10160000FFFFFFFFFFFFFFFFFFFFFFFFFFFFFFFFEA
:10161000FFFFFFFFFFFFFFFFFFFFFFFFFFFFFFFFDA
:10162000FFFFFFFFFFFFFFFFFFFFFFFFFFFFFFFFCA
:10163000FFFFFFFFFFFFFFFFFFFFFFFFFFFFFFFFBA
:10164000FFFFFFFFFFFFFFFFFFFFFFFFFFFFFFFFAA
:10165000FFFFFFFFFFFFFFFFFFFFFFFFFFFFFFFF9A
:10166000FFFFFFFFFFFFFFFFFFFFFFFFFFFFFFFF8A
:10167000FFFFFFFFFFFFFFFFFFFFFFFFFFFFFFFF7A
:10168000FFFFFFFFFFFFFFFFFFFFFFFFFFFFFFFF6A
:10169000FFFFFFFFFFFFFFFFFFFFFFFFFFFFFFFF5A
:1016A000FFFFFFFFFFFFFFFFFFFFFFFFFFFFFFFF4A
:1016B000FFFFFFFFFFFFFFFFFFFFFFFFFFFFFFFF3A
:1016C000FFFFFFFFFFFFFFFFFFFFFFFFFFFFFFDF4A
:1016D000FFDFFFDFFFDFFFDFFFDFFFDFFFDFFFDF1A
:1016E000F7DFF7DFF7BFF7BFF7DFF7BFF7BFF7BFEA
:1016F000F7BFF7BFF7BFF7BFF79FEF9FEF9FEF9FD2
:10170000EF9FEF9FEF7FEF7FEF7FEF7FEF7FEF7F29
:10171000EF7FEF7FEF7FEF7FEF5EEF5EEF5EEF5FDC
:10172000EF5EE75EE75EE75EE75EE75EE75EE75E89
:10173000E75EE75EE75EE75EE73EE75EE75EE75EA1
:10174000E73EE73EE73EE75EE73EE73EE73EE73E51
:10175000E73EE73EE73EE73EE73EE73EE71EE71DA2
:10176000E71DE71DE71DE71DE73EE71DE71DE73E17
:10177000E71DE71DE71DE71DE71DE71DE71DDEFD72
:10178000DEFDDEFDDEFCDEFCDEFCDEFCDEFCDEDCA7
:10179000DEDCDEDCDEDCDEDCD6BCD6DCD6DCD6DCB9
:1017A000D6BCD6BCD6BCD6BCD6BCD6BCD6BCD6BCA9
:1017B000D6BCD69BD69CD69CCE9BCE9CCE9CCE9B9C
:1017C000CE9CCE9CCE9CCE9CCE7CCE9CCE9CCE7C09
:1017D000CE7CCE7CCE7CCE7CCE7CCE7CFFFFFFFF51
:1017E000FFFFFFFFFFFFFFFFFFFFFFFFFFFFFFFF09
:1017F000FFFFFFFFFFFFFFFFFFFFFFFFFFFFFFFFF9
:10180000FFFFFFFFFFFFFFFFFFFFFFFFFFFFFFFFE8
:10181000FFFFFFFFFFFFFFFFFFFFFFFFFFFFFFFFD8
:10182000FFFFFFFFFFFFFFFFFFFFFFFFFFFFFFFFC8
:10183000FFFFFFFFFFFFFFFFFFFFFFFFFFFFFFFFB8
:10184000FFFFFFFFF7FF9538853A853A855A8D5A95
:101850008D5A8D5A8D5A8D5A8D398D5A8D5A8D5A71
:101860008D5A8D5A8D5A853A855A8D5A8D5A8D5A70
:101870008D5A8D5A8D5A8D5A8D5A8D5A8D5A8D5A30
:101880008D7A957A8D5A8D5A8D5A957A959A9D9B17
:101890009DBA9D9BA5BBA5BBADDBADFBADFBB61C4F
:1018A000B61BB5FBADFBB5FBADFBADDBADDBADDB1F
:1018B000ADFBB61BB61BB61CB63CB63CB63CB63C44
:1018C000BE3CBE3CBE3CBE3CBE5CB63CB63CBE5C18
:1018D000BE3CB63BBE3CBE5CBE5CBE3BB63BBE5BEC
:1018E000BE3BBE3BB63BB61BB61BBE3BBE3BBE3B88
:1018F000BE5CC67CC67CBE7CC69CCEBDCEDDD6FEA4
:10190000D6FDD6FED6FDD6FDDF1EDF1EDF3FE75F2C
:10191000E75FDF5FDF3FDF3FDF3EDF5FE75FE75F20
:10192000E75FE77FE77FE77FE77FE77FEF9FEF9F57
:10193000F7BFF7DFFFDFFFDFFFFFFFFFFFFFFFFF67
:10194000FFFFFFFFFFFFFFFFFFFFFFFFFFFFFFFFA7
:10195000FFFFFFFFFFFFFFFFFFFFFFFFFFFFFFFF97
:10196000FFFFFFFFFFFFFFFFFFFFFFFFFFFFFFFF87
:10197000FFFFFFFFFFFFFFFFFFFFFFFFFFFFFFFF77
:10198000FFFFFFFFFFFFFFFFFFFFFFFFFFFFFFFF67
:10199000FFFFFFFFFFFFFFFFFFFFFFFFFFFFFFFF57
:1019A000FFFFFFFFFFFFFFFFFFFFFFFFFFFFFFFF47
:1019B000FFFFFFFFFFFFFFFFFFFFFFFFFFFFFFFF37
:1019C000FFFFFFFFFFFFFFFFFFFFFFFFFFFFFFFF27
:1019D000FFFFFFFFFFFFFFFFFFFFFFFFFFFFFFFF17
:1019E000FFFFFFFFFFFFFFFFFFFFFFFFFFFFFFFF07
:1019F000FFFFFFFFFFFFFFFFFFFFFFFFFFFFFFFFF7
:101A0000FFFFFFFFFFFFFFFFFFFFFFFFFFFFFFFFE6
:101A1000FFFFFFFFFFFFFFFFFFFFFFFFFFFFFFFFD6
:101A2000FFFFFFFFFFFFFFFFFFFFFFFFFFFFFFFFC6
:101A3000FFFFFFFFFFFFFFFFFFFFFFFFFFFFFFFFB6
:101A4000FFFFFFFFFFFFFFFFFFFFFFFFFFFFFFFFA6
:101A5000FFFFFFFFFFFFFFFFFFFFFFFFFFFFFFFF96
:101A6000FFFFFFFFFFFFFFFFFFFFFFFFFFFFFFFF86
:101A7000FFFFFFFFFFFFFFFFFFFFFFFFFFFFFFFF76
:101A8000FFFFFFFFFFFFFFFFFFFFFFFFFFFFFFDF86
:101A9000FFDFFFDFFFDFFFDFFFFFFFDFFFDFFFDF36
:101AA000F7DFF7DFF7BFF7BFF7DFF7BFF7BFF7BF26
:101AB000F7BFF7BFF79FF79FEF9FEF9FEF9FEF9F56
:101AC000EF7FEF7FEF7FEF7FEF7FEF7FEF7FEF7FA6
:101AD000EF7FEF7FEF7FEF7FEF5EEF5EEF5EEF5E1A
:101AE000E75EE75EE75EE75EE75EE75EE75EE75ECE
:101AF000E75EE75EE75EE75EE73EE73EE75EE75EFE
:101B0000E73EE73EE73EE73EE73EE73EE73EE73EAD
:101B1000E73EE73EE73EE73EE73EE73EE71EE71DDE
:101B2000E71DE71DE71DE71DE71DE71DE71DE71D95
:101B3000E71DE71DE71DE71DE71DE71DE71DDEFDAE
:101B4000DEFCDEFCDEFCDEFCDEFCDEFCDEFCDEDCE5
:101B5000DEDCDEDCDEDCDEDCD6DCD6DCD6DCD6DCD5
:101B6000D6DCD6DCD6DCD6BCD6BCD6BCD6BCD6BC85
:101B7000D6BCD6BCD69CD69BD6BCCE9BCE9CCE9C8F
:101B8000CE9CCE9BCE9BCE9BCE7CCE9CCE9CCE9C28
:101B9000CE7CCE7CCE7CCE7CCE7CCE7CFFFFFFFF8D
:101BA000FFFFFFFFFFFFFFFFFFFFFFFFFFFFFFFF45
:101BB000FFFFFFFFFFFFFFFFFFFFFFFFFFFFFFFF35
:101BC000FFFFFFFFFFFFFFFFFFFFFFFFFFFFFFFF25
:101BD000FFFFFFFFFFFFFFFFFFFFFFFFFFFFFFFF15
:101BE000FFFFFFFFFFFFFFFFFFFFFFFFFFFFFFFF05
:101BF000FFFFFFFFFFFFFFFFFFFFFFFFFFFFFFFFF5
:101C0000FFFFFFFFF7FF9538851A85398539855A1B
:101C1000855A855A8539853985398D5A8D7A8D5AF7
:101C20008D5A8D7A8D7A8D5A855A855A855A855A5C
:101C30008D5A8D5A8D5A8D5A8D5A8D5A8D5A8D5A6C
:101C40008D7A8D7A8D5A8D5A8D5A8D5A957A957ACC
:101C50009D9A9D9A9DBAA59AA5BAADDBADFBB5FB41
:101C6000B5FBB5FBADFBADFBADFBADFBADDBADDA65
:101C7000ADDBADFBB61BB61BBE5CBE5CBE5CB63C52
:101C8000B63BB61BB61BB61BB63CB61BB61BBE3C62
:101C9000BE3CBE3CBE3BBE5CC67CC67CC6BDCEDE8A
:101CA000C6BDC69DC69CBE5CBE3BC67CC69CC67CF3
:101CB000C69DCEBDCEBDCEBDC69DCEBDD6DDD6FEAB
:101CC000DEFED6FED6FDD6DDD6FDD71EDF3EDF3EDC
:101CD000DF3FDF5FE75FE75FE75FE75FE75FE77FE4
:101CE000EF7FEF9FEF9FEF9FEF9FEF9FEF9FEF9FA4
:101CF000F7BFF7DFFFDFFFFFFFFFFFFFFFFFFFFF84
:101D0000FFFFFFFFFFFFFFFFFFFFFFFFFFFFFFFFE3
:101D1000FFFFFFFFFFFFFFFFFFFFFFFFFFFFFFFFD3
:101D2000FFFFFFFFFFFFFFFFFFFFFFFFFFFFFFFFC3
:101D3000FFFFFFFFFFFFFFFFFFFFFFFFFFFFFFFFB3
:101D4000FFFFFFFFFFFFFFFFFFFFFFFFFFFFFFFFA3
:101D5000FFFFFFFFFFFFFFFFFFFFFFFFFFFFFFFF93
:101D6000FFFFFFFFFFFFFFFFFFFFFFFFFFFFFFFF83
:101D7000FFFFFFFFFFFFFFFFFFFFFFFFFFFFFFFF73
:101D8000FFFFFFFFFFFFFFFFFFFFFFFFFFFFFFFF63
:101D9000FFFFFFFFFFFFFFFFFFFFFFFFFFFFFFFF53
:101DA000FFFFFFFFFFFFFFFFFFFFFFFFFFFFFFFF43
:101DB000FFFFFFFFFFFFFFFFFFFFFFFFFFFFFFFF33
:101DC000FFFFFFFFFFFFFFFFFFFFFFFFFFFFFFFF23
:101DD000FFFFFFFFFFFFFFFFFFFFFFFFFFFFFFFF13
:101DE000FFFFFFFFFFFFFFFFFFFFFFFFFFFFFFFF03
:101DF000FFFFFFFFFFFFFFFFFFFFFFFFFFFFFFFFF3
:101E0000FFFFFFFFFFFFFFFFFFFFFFFFFFFFFFFFE2
:101E1000FFFFFFFFFFFFFFFFFFFFFFFFFFFFFFFFD2
:101E2000FFFFFFFFFFFFFFFFFFFFFFFFFFFFFFFFC2
:101E3000FFFFFFFFFFFFFFFFFFFFFFFFFFFFFFFFB2
:101E4000FFFFFFFFFFFFFFFFFFDFFFFFFFFFFFFFC2
:101E5000FFFFFFDFFFDFFFDFFFFFFFFFFFDFFFDF32
:101E6000F7DFF7DFF7BFF7BFF7BFF7BFF7BFF7BF82
:101E7000F7BFF7BFF79FF79FEF9FEF9FEF9FEF9F92
:101E8000EF7FEF7FEF7FEF7FEF7FEF7FEF7FEF7EE3
:101E9000EF7FEF7FEF7FEF5EEF5EEF5EE75EE75E87
:101EA000E75EE73EE75EE75EE75EE75EE75EE75E2A
:101EB000E75EE75EE75EE75EE75EE73EE73EE73E5A
:101EC000E73EE73EE73EE73EE73EE73EE73EE73EEA
:101ED000E73EE73EE73EE73EE73EE71EE71DDF1D44
:101EE000DF1DDF1DE71DE71DE71DE71DE71DE71DE2
:101EF000E71DE71DE71DE71DE71DE71DE71DDEFDEB
:101F0000DEFCDEFCDEFCDEFCDEFCDEFCDEFCDEDC21
:101F1000DEDCDEDCDEDCDEDCDEDCD6DCD6DCD6DC09
:101F2000D6DCD6DCD6BCD6BBD6BCD6BCD6BCD6BCE2
:101F3000D6BCD6BCD69CD69BD6BBCE9BCE9BCE9CCD
:101F4000CE9CCE9CCE9CCE9BCE9CCE9CCE9CCE9C42
:101F5000CE7CCE7CCE7CCE7CCE7CCE7CFFFFFFFFC9
:101F6000FFFFFFFFFFFFFFFFFFFFFFFFFFFFFFFF81
:101F7000FFFFFFFFFFFFFFFFFFFFFFFFFFFFFFFF71
:101F8000FFFFFFFFFFFFFFFFFFFFFFFFFFFFFFFF61
:101F9000FFFFFFFFFFFFFFFFFFFFFFFFFFFFFFFF51
:101FA000FFFFFFFFFFFFFFFFFFFFFFFFFFFFFFFF41
:101FB000FFFFFFFFFFFFFFFFFFFFFFFFFFFFFFFF31
:101FC000FFFFFFFFF7FF9538853A853A8539853A57
:101FD000853A853A853985398D5A8D5A8D7A8D7A2B
:101FE0008D7A8D7A8D7A8D5A855A855A853A8D5A91
:101FF0008D5B8D5A8D5A8D5B8D5A8D5A8D5B8D5BA5
:102000008D5B8D5A8D5A8D5A8D5A8D7B8D7B957B2C
:10201000959B959B9DBB9DBB9D9AA5BBA5DBADFCF0
:10202000ADFBADFBADDBADDBA5DBA5DBA5DBA5DB50
:10203000A5DBADDBADFBADFBB63CB63CBE5CB63C58
:10204000B61BB5FBB5FBB61BB61BB61BB61BBE3B22
:10205000BE5BBE5CBE5BBE3BC65BCEBDD6FDD6FDE9
:10206000D6FDD6FDD6DDD6BDCE9CCEBDCEDDCEDD39
:10207000CEDDCEBDCEDDCEDDCEBDCEDDCEDDD6FD20
:10208000D6FDD6FDD6FED6FED71ED6FED6FEDF1E68
:10209000DF3EDF3FE73FE75FE75FE75FE77FEF7F39
:1020A000EF9FEF9FEF9FEF9FEF9FEF9FEFBFF7BF78
:1020B000F7DFFFDFFFFFFFFFFFFFFFFFFFFFFFFF78
:1020C000FFFFFFFFFFFFFFFFFFFFFFFFFFFFFFFF20
:1020D000FFFFFFFFFFFFFFFFFFFFFFFFFFFFFFFF10
:1020E000FFFFFFFFFFFFFFFFFFFFFFFFFFFFFFFF00
:1020F000FFFFFFFFFFFFFFFFFFFFFFFFFFFFFFFFF0
:10210000FFFFFFFFFFFFFFFFFFFFFFFFFFFFFFFFDF
:10211000FFFFFFFFFFFFFFFFFFFFFFFFFFFFFFFFCF
:10212000FFFFFFFFFFFFFFFFFFFFFFFFFFFFFFFFBF
:10213000FFFFFFFFFFFFFFFFFFFFFFFFFFFFFFFFAF
:10214000FFFFFFFFFFFFFFFFFFFFFFFFFFFFFFFF9F
:10215000FFFFFFFFFFFFFFFFFFFFFFFFFFFFFFFF8F
:10216000FFFFFFFFFFFFFFFFFFFFFFFFFFFFFFFF7F
:10217000FFFFFFFFFFFFFFFFFFFFFFFFFFFFFFFF6F
:10218000FFFFFFFFFFFFFFFFFFFFFFFFFFFFFFFF5F
:10219000FFFFFFFFFFFFFFFFFFFFFFFFFFFFFFFF4F
:1021A000FFFFFFFFFFFFFFFFFFFFFFFFFFFFFFFF3F
:1021B000FFFFFFFFFFFFFFFFFFFFFFFFFFFFFFFF2F
:1021C000FFFFFFFFFFFFFFFFFFFFFFFFFFFFFFFF1F
:1021D000FFFFFFFFFFFFFFFFFFFFFFFFFFFFFFFF0F
:1021E000FFFFFFFFFFFFFFFFFFFFFFFFFFFFFFFFFF
:1021F000FFFFFFFFFFFFFFFFFFFFFFFFFFFFFFFFEF
:10220000FFFFFFFFFFFFFFFFFFFFFFFFFFFFFFFFDE
:10221000FFDFFFDFFFDFFFDFFFDFFFDFFFDFFFDFCE
:10222000F7DFF7DFF7DFF7DFF7BFF7BFF7BFF7BF7E
:10223000F7BFF7BFF79FF79FF79FEF9FEF9FEF9FC6
:10224000EF9FEF7FEF7FEF9FEF7FEF7FEF7EEF7EE0
:10225000EF7FEF5EEF5EEF5EEF5EEF5EE75EE75E05
:10226000E75EE75EE75EE75EE75EE75EE75EE75E46
:10227000E75EE75EE75EE75EE73EE73EE73EE73EB6
:10228000E73EE73EE73EE73EE73EE73EE73EE73E26
:10229000E73EE73EE73EE73EE73EE71DE71DE71D79
:1022A000E71DE71DE71DE71DE71DE71DE71DE71D0E
:1022B000E71DE71DE71DE71DE71DE71DDEFDDEFD50
:1022C000DEFCDEFCDEFCDEFCDEFCDEFCDEFCDEDC5E
:1022D000DEDCDEDCDEDCDEDCDEDCD6DCD6DCD6DC46
:1022E000D6DCD6DCD6DCD6BCD6BCD6BCD6BCD6BCFE
:1022F000D6BCD6BCD6BCD6BCD6BCD6BCD6BCD6BB4F
:10230000D6BCCE9BCE9CCE9CCE9CCE9CCE9CCE9C56
:10231000CE9CCE9CCE9CCE7CCE7CCE9CFFFFFFFF85
:10232000FFFFFFFFFFFFFFFFFFFFFFFFFFFFFFFFBD
:10233000FFFFFFFFFFFFFFFFFFFFFFFFFFFFFFFFAD
:10234000FFFFFFFFFFFFFFFFFFFFFFFFFFFFFFFF9D
:10235000FFFFFFFFFFFFFFFFFFFFFFFFFFFFFFFF8D
:10236000FFFFFFFFFFFFFFFFFFFFFFFFFFFFFFFF7D
:10237000FFFFFFFFFFFFFFFFFFFFFFFFFFFFFFFF6D
:10238000FFFFFFFFF7FF9538851A851A851A853AF2
:10239000853A853A853A853A8539855A8D5A8D5AD6
:1023A0008D7A8D7A8D7B8D7B855A855A855A8D5A8B
:1023B0008D5A855A855A8D5A855A855A8D5A8D5A05
:1023C0008D5A8D5A8D3A8D5A853A8D5A8D7A957AD5
:1023D000957A959B9D9B9D9A9D9A9D9BA5BBA5DB00
:1023E000A5DBA5DBA5DBADDBA5DBA5DBA5DBA5DBE5
:1023F000A5DBADDBADFBAE1BB61CB61CB63CB61BFD
:10240000B5FBADFBB61BB61BB63BB63BBE3BBE3CFD
:10241000BE5CC69CC69CC67CCE9CD6DDDEFEDF1EA6
:10242000DF1EDF1EDEFEDEFED6FEDF1EDF1ED71E37
:10243000D71ED6FED6FED6FED6DDD6DDCEDDD6DD67
:10244000D6DDD6DDD6DDD6FDDF1EDF1EDF1EDF1EAC
:10245000DF1EDF1EDF1EDF3EE75FE77FEF9FEF9FA0
:10246000EF9FEF9FEF9FEF9FEFBFEFBFF7BFF7DF4C
:10247000F7DFF7DFFFFFFFFFFFFFFFFFFFFFFFFFBC
:10248000FFFFFFFFFFFFFFFFFFFFFFFFFFFFFFFF5C
:10249000FFFFFFFFFFFFFFFFFFFFFFFFFFFFFFFF4C
:1024A000FFFFFFFFFFFFFFFFFFFFFFFFFFFFFFFF3C
:1024B000FFFFFFFFFFFFFFFFFFFFFFFFFFFFFFFF2C
:1024C000FFFFFFFFFFFFFFFFFFFFFFFFFFFFFFFF1C
:1024D000FFFFFFFFFFFFFFFFFFFFFFFFFFFFFFFF0C
:1024E000FFFFFFFFFFFFFFFFFFFFFFFFFFFFFFFFFC
:1024F000FFFFFFFFFFFFFFFFFFFFFFFFFFFFFFFFEC
:10250000FFFFFFFFFFFFFFFFFFFFFFFFFFFFFFFFDB
:10251000FFFFFFFFFFFFFFFFFFFFFFFFFFFFFFFFCB
:10252000FFFFFFFFFFFFFFFFFFFFFFFFFFFFFFFFBB
:10253000FFFFFFFFFFFFFFFFFFFFFFFFFFFFFFFFAB
:10254000FFFFFFFFFFFFFFFFFFFFFFFFFFFFFFFF9B
:10255000FFFFFFFFFFFFFFFFFFFFFFFFFFFFFFFF8B
:10256000FFFFFFFFFFFFFFFFFFFFFFFFFFFFFFFF7B
:10257000FFFFFFFFFFFFFFFFFFFFFFFFFFFFFFFF6B
:10258000FFFFFFFFFFFFFFFFFFFFFFFFFFFFFFFF5B
:10259000FFFFFFFFFFFFFFFFFFFFFFFFFFFFFFFF4B
:1025A000FFFFFFFFFFFFFFFFFFFFFFFFFFFFFFFF3B
:1025B000FFFFFFFFFFFFFFFFFFFFFFFFFFFFFFFF2B
:1025C000FFFFFFFFFFFFFFFFFFFFFFFFFFFFFFFF1B
:1025D000FFFFFFDFFFDFFFDFFFDFFFDFFFDFFFDFEB
:1025E000F7DFF7DFF7DFF7DFF7BFF7BFF7BFF7BFBB
:1025F000F7BFF7BFF79FF79FF79FEF9FEF9FEF9F03
:10260000EF9FEF7FEF7FEF9FEF7FEF7FEF7FEF7F1A
:10261000EF7FEF7FEF5EEF5FEF5EE75EE75EE75E27
:10262000E75EE75EE75EE75EE75EE75EE75EE75E82
:10263000E75EE75EE75EE73EE73EE73EE73EE73E12
:10264000E73EE73EE73EE73EE73EE73EE73EE73E62
:10265000E73EE73EE73EE73EE73EE71DE71DE71DB5
:10266000E71DE71DE71DE71DE71DE71DE71DE71D4A
:10267000E71DE71DE71DE71DE71DE71DDEFDDEFD8C
:10268000DEFDDEFCDEFCDEFCDEFCDEFCDEFCDEDC99
:10269000DEDCDEDCDEDCDEDCDEDCD6DCD6DCD6DC82
:1026A000D6DCD6DCD6DCD6BCD6BCD6BCD6BCD6BC3A
:1026B000D6BCD6BCD6BCD6BCD6BCD6BCD6BCD6BB8B
:1026C000D6BCCE9BCE9CCE9CCE9CCE9CCE9CCE9C93
:1026D000CE9CCE9CCE9CCE9CCE9CD69CFFFFFFFF7A
:1026E000FFFFFFFFFFFFFFFFFFFFFFFFFFFFFFFFFA
:1026F000FFFFFFFFFFFFFFFFFFFFFFFFFFFFFFFFEA
:10270000FFFFFFFFFFFFFFFFFFFFFFFFFFFFFFFFD9
:10271000FFFFFFFFFFFFFFFFFFFFFFFFFFFFFFFFC9
:10272000FFFFFFFFFFFFFFFFFFFFFFFFFFFFFFFFB9
:10273000FFFFFFFFFFFFFFFFFFFFFFFFFFFFFFFFA9
:10274000FFFFFFFFF7FF9538851A851A853A853A0E
:10275000853A853A853A853A8539855A8D5A8D5A12
:102760008D5A8D5A8D5A8D5A855A855A855A855A51
:10277000853A853A853A853A853A853A853A853A61
:102780008D5A8D3A853A853A853A855A8D5A8D5BB0
:102790008D7B8D7B957B957A957A959B9D9B9DBB3B
:1027A0009DBBA5DBA5BBA5BBA5BBA5BBA5DBA5DBD1
:1027B000A5DBA5DBADFBAE1CAE1CAE1CAE1BAE1B81
:1027C000ADFBAE1BB61CB63CBE5CBE5CC67CC67D1B
:1027D000C69DCEBDD6DDD6DDD6FDDF1EDF1EDF3EBB
:1027E000DF3EDF3EDF3EE75EE75EE75EE75FE73E58
:1027F000E73EDF3EDF3ED71ED71ED6FED6FDD6DD36
:10280000D6DDD6DDD6DDD6FDDF1EDF3EDF3EDF3E88
:10281000DF3EDF1EDF1EE73EE77FEF7FEF9FEF9F8C
:10282000EF9FEF9FEF9FEF9FF7BFF7BFF7BFF7DF78
:10283000F7DFF7DFFFDFFFFFFFFFFFFFFFFFFFFF18
:10284000FFFFFFFFFFFFFFFFFFFFFFFFFFFFFFFF98
:10285000FFFFFFFFFFFFFFFFFFFFFFFFFFFFFFFF88
:10286000FFFFFFFFFFFFFFFFFFFFFFFFFFFFFFFF78
:10287000FFFFFFFFFFFFFFFFFFFFFFFFFFFFFFFF68
:10288000FFFFFFFFFFFFFFFFFFFFFFFFFFFFFFFF58
:10289000FFFFFFFFFFFFFFFFFFFFFFFFFFFFFFFF48
:1028A000FFFFFFFFFFFFFFFFFFFFFFFFFFFFFFFF38
:1028B000FFFFFFFFFFFFFFFFFFFFFFFFFFFFFFFF28
:1028C000FFFFFFFFFFFFFFFFFFFFFFFFFFFFFFFF18
:1028D000FFFFFFFFFFFFFFFFFFFFFFFFFFFFFFFF08
:1028E000FFFFFFFFFFFFFFFFFFFFFFFFFFFFFFFFF8
:1028F000FFFFFFFFFFFFFFFFFFFFFFFFFFFFFFFFE8
:10290000FFFFFFFFFFFFFFFFFFFFFFFFFFFFFFFFD7
:10291000FFFFFFFFFFFFFFFFFFFFFFFFFFFFFFFFC7
:10292000FFFFFFFFFFFFFFFFFFFFFFFFFFFFFFFFB7
:10293000FFFFFFFFFFFFFFFFFFFFFFFFFFFFFFFFA7
:10294000FFFFFFFFFFFFFFFFFFFFFFFFFFFFFFFF97
:10295000FFFFFFFFFFFFFFFFFFFFFFFFFFFFFFFF87
:10296000FFFFFFFFFFFFFFFFFFFFFFFFFFFFFFFF77
:10297000FFFFFFFFFFFFFFFFFFFFFFFFFFFFFFFF67
:10298000FFFFFFFFFFFFFFFFFFFFFFFFFFFFFFFF57
:10299000FFFFFFDFFFDFFFDFFFDFFFDFFFDFF7DF2F
:1029A000F7DFF7DFF7DFF7DFF7BFF7BFF7BFF7BFF7
:1029B000F7BFF7BFF79FF79FF79FEF9FEF9FEF9F3F
:1029C000EF7FEF7FEF7FEF9FEF7FEF7FEF7FEF7F77
:1029D000EF7FEF5FEF5FEF5FE75EE75EE75EE75E8B
:1029E000E75EE75EE73EE73EE75EE75EE75EE73E1F
:1029F000E73EE73EE73EE73EE73EE73EE73EE73EAF
:102A0000E73EE73EE73EE73EE73EE73EE73EE73E9E
:102A1000E73EE73EE73EE73EE73EE71DE71DE71DF1
:102A2000E71DE71DE71DE71DE71DE71DE71DE71D86
:102A3000E71DE71DE71DE71DE71DE71DDEFDDEFDC8
:102A4000DEFDDEFDDEFCDEFCDEFCDEFCDEFCDEDCD4
:102A5000DEDCDEDCDEDCDEDCDEDCD6DCD6DCD6DCBE
:102A6000D6DCD6DCD6BCD6BBD6BCD6BCD6BCD6BC97
:102A7000D6BCD6BCD6BCD6BCD6BCD6BCD6BCD6BCC6
:102A8000D6BCCE9BCE9BCE9BCE9CCE9CCEBCCEBC91
:102A9000CE9CCE9CCE9CCE9CCE9CD69CFFFFFFFFB6
:102AA000FFFFFFFFFFFFFFFFFFFFFFFFFFFFFFFF36
:102AB000FFFFFFFFFFFFFFFFFFFFFFFFFFFFFFFF26
:102AC000FFFFFFFFFFFFFFFFFFFFFFFFFFFFFFFF16
:102AD000FFFFFFFFFFFFFFFFFFFFFFFFFFFFFFFF06
:102AE000FFFFFFFFFFFFFFFFFFFFFFFFFFFFFFFFF6
:102AF000FFFFFFFFFFFFFFFFFFFFFFFFFFFFFFFFE6
:102B0000FFFFFFFFF7FF9538853A853A853A855AEA
:102B1000853A853A853A853A855A8D5A8D5A8D5A25
:102B2000855A8D3A8D5A8D5A8D5A8D5A8D5A855A9D
:102B3000853A853A853A853A853A851A851A853ADD
:102B4000853A853A853A853A853A855A8D5A8D5A1D
:102B50008D5A8D5A8D5A8D7A8D7A957A957A9D7B7C
:102B60009D9B9D9B9DBB9D9B9D9B9D9B9D9BA5BB5D
:102B7000A5DBA5DBADFBAE1CADFBADFBADFBADFB43
:102B8000ADFBAE1BB61CB63CBE5CC67DCEBDCEDE7C
:102B9000D6FED6FED6FED6FDDF1EDF3EDF3EE73E8A
:102BA000E75FE75FE75FEF7FE77FE77FE77FE77F4D
:102BB000E77FE75FDF5FDF3EDF1EDF1EDF1EDEFE3B
:102BC000DEFEDEFEDEFEDF1EDF1EDF3EE75FE75FCE
:102BD000E75FDF3EE75EE77FEF7FEF9FEF9FEF9FCF
:102BE000EF9FEF9FEF9FEF9FF7BFF7BFF7DFF7DF95
:102BF000F7DFFFDFFFDFFFFFFFFFFFFFFFFFFFFF4D
:102C0000FFFFFFFFFFFFFFFFFFFFFFFFFFFFFFFFD4
:102C1000FFFFFFFFFFFFFFFFFFFFFFFFFFFFFFFFC4
:102C2000FFFFFFFFFFFFFFFFFFFFFFFFFFFFFFFFB4
:102C3000FFFFFFFFFFFFFFFFFFFFFFFFFFFFFFFFA4
:102C4000FFFFFFFFFFFFFFFFFFFFFFFFFFFFFFFF94
:102C5000FFFFFFFFFFFFFFFFFFFFFFFFFFFFFFFF84
:102C6000FFFFFFFFFFFFFFFFFFFFFFFFFFFFFFFF74
:102C7000FFFFFFFFFFFFFFFFFFFFFFFFFFFFFFFF64
:102C8000FFFFFFFFFFFFFFFFFFFFFFFFFFFFFFFF54
:102C9000FFFFFFFFFFFFFFFFFFFFFFFFFFFFFFFF44
:102CA000FFFFFFFFFFFFFFFFFFFFFFFFFFFFFFFF34
:102CB000FFFFFFFFFFFFFFFFFFFFFFFFFFFFFFFF24
:102CC000FFFFFFFFFFFFFFFFFFFFFFFFFFFFFFFF14
:102CD000FFFFFFFFFFFFFFFFFFFFFFFFFFFFFFFF04
:102CE000FFFFFFFFFFFFFFFFFFFFFFFFFFFFFFFFF4
:102CF000FFFFFFFFFFFFFFFFFFFFFFFFFFFFFFFFE4
:102D0000FFFFFFFFFFFFFFFFFFFFFFFFFFFFFFFFD3
:102D1000FFFFFFFFFFFFFFFFFFFFFFFFFFFFFFFFC3
:102D2000FFFFFFFFFFFFFFFFFFFFFFFFFFFFFFFFB3
:102D3000FFFFFFFFFFFFFFFFFFFFFFFFFFFFFFFFA3
:102D4000FFFFFFFFFFFFFFFFFFFFFFFFFFFFFFFF93
:102D5000FFFFFFFFFFDFFFDFFFDFFFDFF7DFF7DF53
:102D6000F7DFF7DFF7DFF7DFF7BFF7BFF7BFF7BF33
:102D7000F7BFF7BFF79FEF9FEF9FEF9FEF9FEF7FAB
:102D8000EF7FEF7FEF7FEF7FEF7FEF7FEF7FEF7FD3
:102D9000EF5EEF5FEF5EEF5EE75EE75EE75EE75EEA
:102DA000E73EE73EE73EE73EE73EE73EE73EE73EFB
:102DB000E73EE73EE73EE73EE75EE75EE73EE73EAB
:102DC000E73EE73EE73EE73EE73EE73EE73EE73EDB
:102DD000E73EE73EE73EE73EE73EE73EE71EE71E0B
:102DE000E71DE71DE71DE71DE71DE71DE71DE71DC3
:102DF000E71DE71DE71DE71DE71DE71DDEFDDEFD05
:102E0000DEFDDEFDDEFDDEFCDEFCDEFCDEFCDEFCEF
:102E1000DEDCDEDCDEDCDEDCD6DCD6DCD6DCD6BC22
:102E2000D6BCD6BCD6BCD6BBD6BCD6BCD6BCD6BC13
:102E3000D6BCD6BCD6BCD6BCD6BCD6BCD6BCD6BC02
:102E4000D6BCD6BCD6BCD6BCCE9CCE9CCEBCCEBC52
:102E5000CEBCCEBCCEBCCE9CCE9CD6BCFFFFFFFF72
:102E6000FFFFFFFFFFFFFFFFFFFFFFFFFFFFFFFF72
:102E7000FFFFFFFFFFFFFFFFFFFFFFFFFFFFFFFF62
:102E8000FFFFFFFFFFFFFFFFFFFFFFFFFFFFFFFF52
:102E9000FFFFFFFFFFFFFFFFFFFFFFFFFFFFFFFF42
:102EA000FFFFFFFFFFFFFFFFFFFFFFFFFFFFFFFF32
:102EB000FFFFFFFFFFFFFFFFFFFFFFFFFFFFFFFF22
:102EC000FFFFFFFFF7FF9538851A853A853A855A47
:102ED000853A853A853A853A853A853A855A853ADA
:102EE000853A855A8D5A8D5A8D5B8D5B8D5B855ADF
:102EF000853A851A851A853A853A851A851A853A5A
:102F0000853A853A853A853A853B853B855B855B85
:102F10008D5B8D5B8D5B8D7B8D7A8D7A8D5A8D7AF5
:102F2000957B957B959B959B9D9B9D7B9D9B9DBB41
:102F30009DBB9DBBA5DBA5DBA5DBA5DBADDBADFBB1
:102F4000ADFBADFCB61CB61CB61BBE5CC69DCEDE92
:102F5000D6FED6FED6FEDF1EDF1EDF1EE73EE75E94
:102F6000E77FE75EE77FEF9FEF9FEF9FEF9FEF9F8A
:102F7000EF7FE77FE75FE75EDF3EDF3EDF3EDF3E7E
:102F8000DF3EDF3EDF3FDF3FE73EE73EE75FE75FF5
:102F9000E75FE77FEF7FEF9FEF9FEF9FF7BFF7BF01
:102FA000F7BFF79FF7BFF7BFF7BFF7DFF7DFFFDF29
:102FB000FFDFFFDFFFFFFFFFFFFFFFFFFFFFFFFF61
:102FC000FFFFFFFFFFFFFFFFFFFFFFFFFFFFFFFF11
:102FD000FFFFFFFFFFFFFFFFFFFFFFFFFFFFFFFF01
:102FE000FFFFFFFFFFFFFFFFFFFFFFFFFFFFFFFFF1
:102FF000FFFFFFFFFFFFFFFFFFFFFFFFFFFFFFFFE1
:10300000FFFFFFFFFFFFFFFFFFFFFFFFFFFFFFFFD0
:10301000FFFFFFFFFFFFFFFFFFFFFFFFFFFFFFFFC0
:10302000FFFFFFFFFFFFFFFFFFFFFFFFFFFFFFFFB0
:10303000FFFFFFFFFFFFFFFFFFFFFFFFFFFFFFFFA0
:10304000FFFFFFFFFFFFFFFFFFFFFFFFFFFFFFFF90
:10305000FFFFFFFFFFFFFFFFFFFFFFFFFFFFFFFF80
:10306000FFFFFFFFFFFFFFFFFFFFFFFFFFFFFFFF70
:10307000FFFFFFFFFFFFFFFFFFFFFFFFFFFFFFFF60
:10308000FFFFFFFFFFFFFFFFFFFFFFFFFFFFFFFF50
:10309000FFFFFFFFFFFFFFFFFFFFFFFFFFFFFFFF40
:1030A000FFFFFFFFFFFFFFFFFFFFFFFFFFFFFFFF30
:1030B000FFFFFFFFFFFFFFFFFFFFFFFFFFFFFFFF20
:1030C000FFFFFFFFFFFFFFFFFFFFFFFFFFFFFFFF10
:1030D000FFFFFFFFFFFFFFFFFFFFFFFFFFFFFFFF00
:1030E000FFFFFFFFFFFFFFFFFFFFFFFFFFFFFFFFF0
:1030F000FFFFFFFFFFFFFFFFFFFFFFFFFFFFFFFFE0
:10310000FFFFFFFFFFFFFFFFFFFFFFFFFFFFFFFFCF
:10311000FFFFFFFFFFDFFFDFFFDFFFDFF7DFF7DF8F
:10312000F7BFF7BFF7BFF7BFF7BFF7BFF7BFF7BFEF
:10313000F7BFF79FF79FEF9FEF9FEF9FEF9FEF7F07
:10314000EF7FEF7FEF7FEF7FEF7FEF7FEF7FEF7F0F
:10315000EF5EEF5EEF5EEF5EE75EE75EE75EE75E27
:10316000E73EE73EE73EE73EE73EE73EE73EE73E37
:10317000E73EE73EE73EE73EE73EE73EE73EE73E27
:10318000E73EE73EE73EE73EE73EE73EE73EE73E17
:10319000E73EE73EE73EE73EE73EE73EE71EE71E47
:1031A000E71DE71DE71DE71DE71DE71DE71DE71DFF
:1031B000E71DE71DE71DE71DE71DE71DDEFDDEFD41
:1031C000DEFDDEFDDEFDDEFDDEFDDEFCDEFCDEFC2A
:1031D000DEDCDEDCDEDCDEDCDEDCD6DCD6DCD6BC57
:1031E000D6BCD6BCD6BCD6BCD6BCD6BCD6BCD6BC4F
:1031F000D6BCD6BCD6BCD6BCD6BCD6BCD6BCD6BC3F
:10320000D6BCD6BCD6BBD6BBCE9CCE9CCE9CCEBCB0
:10321000CEBCCEBCCEBCCE9CCEBDD6BDFFFFFFFF8C
:10322000FFFFFFFFFFFFFFFFFFFFFFFFFFFFFFFFAE
:10323000FFFFFFFFFFFFFFFFFFFFFFFFFFFFFFFF9E
:10324000FFFFFFFFFFFFFFFFFFFFFFFFFFFFFFFF8E
:10325000FFFFFFFFFFFFFFFFFFFFFFFFFFFFFFFF7E
:10326000FFFFFFFFFFFFFFFFFFFFFFFFFFFFFFFF6E
:10327000FFFFFFFFFFFFFFFFFFFFFFFFFFFFFFFF5E
:10328000FFFFFFFFF7FF95378519851A853A853AC5
:10329000853A853A853A853A853A853A855A853A16
:1032A000855A8D5A8D5A855A855A8D5A853A853A4E
:1032B000853A851A853A853A851A851A851A853A96
:1032C000853A853A853A853A853A853B853A855BE4
:1032D000855A8D5A8D5A8D5B8D5A8D5A8D5A8D5ABD
:1032E0008D5A957A957B959B9D9B9D9B9D9B9DBBA8
:1032F0009DBB9D9BA5BAA5BBA5BAA5BBA5DBADDBB8
:10330000ADFBADFBADFBADFBB5FBB61BBE5CC69D1F
:10331000CEBDCEDDD6FDDF1ED6FDDF1EE73EE75F6C
:10332000E77FEF7FEF7FEF9FEF9FEF9FEFBFEF9F75
:10333000EF9FEF9FE77FE77FE75FE75FE75FE75F8D
:10334000E75FE75FE75FE77FE77FE75FE75FE77FED
:10335000EF7FEF7FEF9FEF9FEF9FF7BFF7BFF7BFC5
:10336000F7BFF7BFF7BFF7BFF7DFF7DFF7DFFFDF25
:10337000FFFFFFFFFFFFFFFFFFFFFFFFFFFFFFFF5D
:10338000FFFFFFFFFFFFFFFFFFFFFFFFFFFFFFFF4D
:10339000FFFFFFFFFFFFFFFFFFFFFFFFFFFFFFFF3D
:1033A000FFFFFFFFFFFFFFFFFFFFFFFFFFFFFFFF2D
:1033B000FFFFFFFFFFFFFFFFFFFFFFFFFFFFFFFF1D
:1033C000FFFFFFFFFFFFFFFFFFFFFFFFFFFFFFFF0D
:1033D000FFFFFFFFFFFFFFFFFFFFFFFFFFFFFFFFFD
:1033E000FFFFFFFFFFFFFFFFFFFFFFFFFFFFFFFFED
:1033F000FFFFFFFFFFFFFFFFFFFFFFFFFFFFFFFFDD
:10340000FFFFFFFFFFFFFFFFFFFFFFFFFFFFFFFFCC
:10341000FFFFFFFFFFFFFFFFFFFFFFFFFFFFFFFFBC
:10342000FFFFFFFFFFFFFFFFFFFFFFFFFFFFFFFFAC
:10343000FFFFFFFFFFFFFFFFFFFFFFFFFFFFFFFF9C
:10344000FFFFFFFFFFFFFFFFFFFFFFFFFFFFFFFF8C
:10345000FFFFFFFFFFFFFFFFFFFFFFFFFFFFFFFF7C
:10346000FFFFFFFFFFFFFFFFFFFFFFFFFFFFFFFF6C
:10347000FFFFFFFFFFFFFFFFFFFFFFFFFFFFFFFF5C
:10348000FFFFFFFFFFFFFFFFFFFFFFFFFFFFFFFF4C
:10349000FFFFFFFFFFFFFFFFFFFFFFFFFFFFFFFF3C
:1034A000FFFFFFFFFFFFFFFFFFFFFFFFFFFFFFFF2C
:1034B000FFFFFFFFFFFFFFFFFFFFFFFFFFFFFFFF1C
:1034C000FFFFFFFFFFFFFFFFFFFFFFFFFFFFFFFF0C
:1034D000FFDFFFDFFFDFFFDFF7DFF7DFF7DFF7BF3C
:1034E000F7BFF7BFF7BFF7BFF7BFF7BFF7BFF7BF2C
:1034F000F7BFF79FF79FEF9FEF9FEF9FEF7FEF7F64
:10350000EF7FEF7FEF7FEF7FEF7FEF7FEF5EEF5E8D
:10351000EF5EEF5EEF5EEF5EE75EE75EE75EE75E63
:10352000E73EE73EE73EE73EE73EE73EE73EE73E73
:10353000E73EE73EE73EE73EE73EE73EE73EE73E63
:10354000E73EE73EE73EE73EE73EE73EE73EE73E53
:10355000E73EE73EE73EE73EE73EE73EE71EE71E83
:10356000E71DE71DE71DE71DE71DE71DE71DE71D3B
:10357000E71DE71DE71DE71DE71DE71DDEFDDEFD7D
:10358000E71DDEFDDEFDDEFDDEFDDEFCDEFCDEFC3D
:10359000DEDCDEDCDEDCDEDCD6DCD6DCD6DCD6BC9B
:1035A000D6BCD6BCD6BCD6BCD6BCD6BCD6BCD6BC8B
:1035B000D6BCD6BCD6BCD6BCD6BCD6BCD6BCD6BC7B
:1035C000D6BCD6BCD6BCD6BCCE9CCE9CCEBCCEBCCB
:1035D000CEBCCEBCCEBCCEBCD6BDD6BDFFFFFFFFA1
:1035E000FFFFFFFFFFFFFFFFFFFFFFFFFFFFFFFFEB
:1035F000FFFFFFFFFFFFFFFFFFFFFFFFFFFFFFFFDB
:10360000FFFFFFFFFFFFFFFFFFFFFFFFFFFFFFFFCA
:10361000FFFFFFFFFFFFFFFFFFFFFFFFFFFFFFFFBA
:10362000FFFFFFFFFFFFFFFFFFFFFFFFFFFFFFFFAA
:10363000FFFFFFFFFFFFFFFFFFFFFFFFFFFFFFFF9A
:10364000FFFFFFFFF7FF95377CF97CF98519853A75
:10365000853A853A853A853A855A855A855A855AF2
:103660008D5A8D5A853A853A853A853A853A853A12
:10367000851A7D1A7D1A7D1A853B7D1A853B853A10
:10368000853A853A853A853B853B853B853B853B3D
:10369000855B853A855A8D5B8D5A8D5B8D7B8D7BE5
:1036A0008D5B8D5B8D7B957B957B9D9B9DBB9DBC39
:1036B0009DBB9DBB9DBB9D9BA5BBA5BBA5DBADDB02
:1036C000ADFBADDBADFBADFBB5FBB5FBB63CC67DE5
:1036D000CEBDCEBDCEBDD6DDD6FDDF1EE75EE75F3B
:1036E000EF7FEF9FEF9FEF9FF7BFF7BFF7BFEF9F12
:1036F000EF9FEF9FEF9FEF7FE77FE77FE77FE77F1A
:10370000E77FE77FE77FEF7FEF7FEF7FEF9FEF9F21
:10371000EF9FEF9FEF9FF79FF7BFF7BFF7BFF7BF91
:10372000F7BFF7BFF7DFFFDFFFBFFFBFFFDFFFDF41
:10373000FFFEFFFFFFFFFFFFFFFFFFFFFFFFFFFF9A
:10374000FFFFFFFFFFFFFFFFFFFFFFFFFFFFFFFF89
:10375000FFFFFFFFFFFFFFFFFFFFFFFFFFFFFFFF79
:10376000FFFFFFFFFFFFFFFFFFFFFFFFFFFFFFFF69
:10377000FFFFFFFFFFFFFFFFFFFFFFFFFFFFFFFF59
:10378000FFFFFFFFFFFFFFFFFFFFFFFFFFFFFFFF49
:10379000FFFFFFFFFFFFFFFFFFFFFFFFFFFFFFFF39
:1037A000FFFFFFFFFFFFFFFFFFFFFFFFFFFFFFFF29
:1037B000FFFFFFFFFFFFFFFFFFFFFFFFFFFFFFFF19
:1037C000FFFFFFFFFFFFFFFFFFFFFFFFFFFFFFFF09
:1037D000FFFFFFFFFFFFFFFFFFFFFFFFFFFFFFFFF9
:1037E000FFFFFFFFFFFFFFFFFFFFFFFFFFFFFFFFE9
:1037F000FFFFFFFFFFFFFFFFFFFFFFFFFFFFFFFFD9
:10380000FFFFFFFFFFFFFFFFFFFFFFFFFFFFFFFFC8
:10381000FFFFFFFFFFFFFFFFFFFFFFFFFFFFFFFFB8
:10382000FFFFFFFFFFFFFFFFFFFFFFFFFFFFFFFFA8
:10383000FFFFFFFFFFFFFFFFFFFFFFFFFFFFFFFF98
:10384000FFFFFFFFFFFFFFFFFFFFFFFFFFFFFFFF88
:10385000FFFFFFFFFFFFFFFFFFFFFFFFFFFFFFFF78
:10386000FFFFFFFFFFFFFFFFFFFFFFFFFFFFFFFF68
:10387000FFFFFFFFFFFFFFFFFFFFFFFFFFFFFFFF58
:10388000FFFFFFFFFFFFFFFFFFFFFFFFFFFFFFFF48
:10389000FFDFFFDFFFDFFFDFF7DFF7DFF7BFF7BF98
:1038A000F7BFF7BFF7BFF7BFF7BFF7BFF7BFF7BF68
:1038B000F7BFF79FEF9FEF9FEF7FEF9FEF7FEF7FC8
:1038C000EF7FEF7FEF7FEF7FEF7FEF7FEF5EEF5ECA
:1038D000EF5EEF5EE75EE75EE75EE75EE75EE75EB0
:1038E000E73EE73EE73EE73EE73EE73EE73EE73EB0
:1038F000E73EE73EE73EE73EE73EE73EE73EE73EA0
:10390000E73EE73EE73EE73EE73EE73EE73EE73E8F
:10391000E73EE73EE73EE73EE73EE73EE71EE71EBF
:10392000E71DE71EE71EE71EE71DE71DE71DE71D74
:10393000E71DE71DE71DE71DE71DE71DDEFDDEFDB9
:10394000E71DDEFDDEFDDEFDDEFDDEFCDEFCDEFC79
:10395000DEDCDEDCDEDCDEDCD6DCD6DCD6DCD6DCB7
:10396000D6BCD6BCD6BCD6BCD6BCD6BCD6BCD6BCC7
:10397000D6BCD6BCD6BCD6BCD6BCD6BCD6BCD6BCB7
:10398000D6BCD6BCD6BCD6BCD69CD6BCD6BCD6BCC7
:10399000D6BCD6BCD6BCD6BDD6BDD6DDFFFFFFFF9C
:1039A000FFFFFFFFFFFFFFFFFFFFFFFFFFFFFFFF27
:1039B000FFFFFFFFFFFFFFFFFFFFFFFFFFFFFFFF17
:1039C000FFFFFFFFFFFFFFFFFFFFFFFFFFFFFFFF07
:1039D000FFFFFFFFFFFFFFFFFFFFFFFFFFFFFFFFF7
:1039E000FFFFFFFFFFFFFFFFFFFFFFFFFFFFFFFFE7
:1039F000FFFFFFFFFFFFFFFFFFFFFFFFFFFFFFFFD7
:103A0000FFFFFFFFF7FF95377CF97CF98519853AB1
:103A1000853A853A853A853A855A855A855A855A2E
:103A20008D5A8D5A853A853A853A853A853A851A6E
:103A30007D1A7D1A7D1A7D1A7D3A7D1A853A853A5E
:103A4000851A851A853A853B853B853B853B853BB9
:103A5000853A853A853A855A8D5A8D7B8D7B8D7B4B
:103A60008D7B8D5B8D5B8D7B955A957B9D9B9D9B07
:103A70009D9B9DBB9D9B9D9AA5BBA5DBA5DBADFB3F
:103A8000ADFBADFBADDBADDBB5FBADFBB61BC67D6A
:103A9000CEBDCEBDCE9CCEBCD6DDDF3EE75EE77FA1
:103AA000EF7FEF9FEF9FEFBFF7BFF7BFF7BFF7BF06
:103AB000EFBFEFBFEF9FEF9FEF9FEF9FEF9FEF9F56
:103AC000EF9FEF9FEF7FEF7FEF7FEF9FEF9FF7BFBE
:103AD000F7BFF7BFF7BFF7BFF7BFF7BFF7DFF7BF16
:103AE000F7BFF7DFFFDFFFFFFFDFFFDFFFDFFFDFF6
:103AF000FFDFFFFFFFFFFFFFFFFFFFFFFFFFFFFFF6
:103B0000FFFFFFFFFFFFFFFFFFFFFFFFFFFFFFFFC5
:103B1000FFFFFFFFFFFFFFFFFFFFFFFFFFFFFFFFB5
:103B2000FFFFFFFFFFFFFFFFFFFFFFFFFFFFFFFFA5
:103B3000FFFFFFFFFFFFFFFFFFFFFFFFFFFFFFFF95
:103B4000FFFFFFFFFFFFFFFFFFFFFFFFFFFFFFFF85
:103B5000FFFFFFFFFFFFFFFFFFFFFFFFFFFFFFFF75
:103B6000FFFFFFFFFFFFFFFFFFFFFFFFFFFFFFFF65
:103B7000FFFFFFFFFFFFFFFFFFFFFFFFFFFFFFFF55
:103B8000FFFFFFFFFFFFFFFFFFFFFFFFFFFFFFFF45
:103B9000FFFFFFFFFFFFFFFFFFFFFFFFFFFFFFFF35
:103BA000FFFFFFFFFFFFFFFFFFFFFFFFFFFFFFFF25
:103BB000FFFFFFFFFFFFFFFFFFFFFFFFFFFFFFFF15
:103BC000FFFFFFFFFFFFFFFFFFFFFFFFFFFFFFFF05
:103BD000FFFFFFFFFFFFFFFFFFFFFFFFFFFFFFFFF5
:103BE000FFFFFFFFFFFFFFFFFFFFFFFFFFFFFFFFE5
:103BF000FFFFFFFFFFFFFFFFFFFFFFFFFFFFFFFFD5
:103C0000FFFFFFFFFFFFFFFFFFFFFFFFFFFFFFFFC4
:103C1000FFFFFFFFFFFFFFFFFFFFFFFFFFFFFFFFB4
:103C2000FFFFFFFFFFFFFFFFFFFFFFFFFFFFFFFFA4
:103C3000FFFFFFFFFFFFFFFFFFFFFFFFFFFFFFFF94
:103C4000FFFFFFFFFFFFFFDFFFDFFFDFFFDFFFDF24
:103C5000FFDFFFDFFFDFFFDFF7DFF7DFF7BFF7BFD4
:103C6000F7BFF7BFF7BFF7BFF7BFF7BFF7BFF7BFA4
:103C7000F7BFF79FEF9FEF9FEF7FEF9FEF7FEF7F04
:103C8000EF7FEF7FEF7FEF7FEF7FEF7FEF5EEF5E06
:103C9000EF5EEF5EE75EE75EE75EE75EE75EE75EEC
:103CA000E73EE73EE73EE73EE73EE73EE73EE73EEC
:103CB000E73EE73EE73EE73EE73EE73EE73EE73EDC
:103CC000E73EE73EE73EE73EE73EE73EE73EE73ECC
:103CD000E73EE73EE73EE73EE73EE73EE71DE71EFD
:103CE000E71EE71EE71EE71EE71DE71DE71DE71DB0
:103CF000E71DE71DE71DE71DE71DE71DDEFDDEFDF6
:103D0000E71DDEFDDEFDDEFDDEFDDEFCDEFCDEFCB5
:103D1000DEDCDEDCDEDCDEDCD6DCD6DCD6DCD6BC13
:103D2000D6BCD6BCD6BCD6BCD6BCD6BCD6BCD6BC03
:103D3000D6BCD6BCD6BCD6BCD6BCD6BCD6BCD6BCF3
:103D4000D6BCD6BCD6BCD6BCD6BCD6BCD6BCD6BCE3
:103D5000D6BCD6DCD6DDD6BDD6DDD6DDFFFFFFFF77
:103D6000FFFFFFFFFFFFFFFFFFFFFFFFFFFFFFFF63
:103D7000FFFFFFFFFFFFFFFFFFFFFFFFFFFFFFFF53
:103D8000FFFFFFFFFFFFFFFFFFFFFFFFFFFFFFFF43
:103D9000FFFFFFFFFFFFFFFFFFFFFFFFFFFFFFFF33
:103DA000FFFFFFFFFFFFFFFFFFFFFFFFFFFFFFFF23
:103DB000FFFFFFFFFFFFFFFFFFFFFFFFFFFFFFFF13
:103DC000FFFFFFFFF7FF95187D197D19851A853ACA
:103DD000853A853A853A853A855A8D5A8D5A8D5A53
:103DE000853A853A853A853A853A853A853A853ADB
:103DF0007D1A7D1A7D1A7D1A7D1A7D1A7D1A7D1A0B
:103E00007D1A853A853A853B853B853B853B853BDD
:103E1000853B853B855B855B855B855B855B8D7BBA
:103E20008D7B8D7B8D7B8D7B8D7B8D7B8D7B8D7B52
:103E3000959B959B959B9D9B9DBBA5DBADFBADFC91
:103E4000AE1CAE1CADFCA5DBADFAB61BB63CBE7D10
:103E5000C69DCEBDC69DCE9DD6BDDEFEE75FEF7F83
:103E6000EF7FEF9FEFBFF7BFF7BFF7BFF7DFF7DFDA
:103E7000F7DFF7BFF7BFEF9FF7BFEF9FEF9FEF9F12
:103E8000EF9FEF9FEF9FEF9FEF7FEF9FF7BFF7BF92
:103E9000F7BFF7BFF7BFF7DFF7DFF7DFF7DFF7BFF2
:103EA000FFDFFFDFFFDFFFDFFFDFFFDFFFFFFFFFE2
:103EB000FFFFFFFFFFFFFFFFFFFFFFFFFFFFFFFF12
:103EC000FFFFFFFFFFFFFFFFFFFFFFFFFFFFFFFF02
:103ED000FFFFFFFFFFFFFFFFFFFFFFFFFFFFFFFFF2
:103EE000FFFFFFFFFFFFFFFFFFFFFFFFFFFFFFFFE2
:103EF000FFFFFFFFFFFFFFFFFFFFFFFFFFFFFFFFD2
:103F0000FFFFFFFFFFFFFFFFFFFFFFFFFFFFFFFFC1
:103F1000FFFFFFFFFFFFFFFFFFFFFFFFFFFFFFFFB1
:103F2000FFFFFFFFFFFFFFFFFFFFFFFFFFFFFFFFA1
:103F3000FFFFFFFFFFFFFFFFFFFFFFFFFFFFFFFF91
:103F4000FFFFFFFFFFFFFFFFFFFFFFFFFFFFFFFF81
:103F5000FFFFFFFFFFFFFFFFFFFFFFFFFFFFFFFF71
:103F6000FFFFFFFFFFFFFFFFFFFFFFFFFFFFFFFF61
:103F7000FFFFFFFFFFFFFFFFFFFFFFFFFFFFFFFF51
:103F8000FFFFFFFFFFFFFFFFFFFFFFFFFFFFFFFF41
:103F9000FFFFFFFFFFFFFFFFFFFFFFFFFFFFFFFF31
:103FA000FFFFFFFFFFFFFFFFFFFFFFFFFFFFFFFF21
:103FB000FFFFFFFFFFFFFFFFFFFFFFFFFFFFFFFF11
:103FC000FFFFFFFFFFFFFFFFFFFFFFFFFFFFFFFF01
:103FD000FFFFFFFFFFFFFFFFFFFFFFFFFFFFFFFFF1
:103FE000FFFFFFFFFFFFFFFFFFFFFFFFFFFFFFFFE1
:103FF000FFFFFFDFFFFFFFFFFFFFFFFFFFFFFFDF11
:10400000FFDFFFDFFFDFFFDFFFDFFFDFFFDFFFDFC0
:10401000FFDFF7DFF7BFF7BFF7BFF7BFF7BFF7BFA8
:10402000F7BFF7BFF7BFF7BFF7BFF7BFF7BFF79F00
:10403000F79FEF9FEF9FEF9FEF7FEF7FEF7FEF7F88
:10404000EF7FEF7FEF7FEF7FEF7FEF7FEF7FEF7F00
:10405000EF7FE75EE75EE75EE75EE75EE75EE75E0F
:10406000E75EE75EE75EE75EE75EE75EE75EE75E28
:10407000E73EE73EE73EE73EE73EE73EE73EE73E18
:10408000E73EE73EE73EE73EE73EE73EE73EE73E08
:10409000E73EE73EE73EE73EE73EE71DE71DE71D5B
:1040A000E71DE71DE71DDF1DE71DDF1DDF1DDF1D10
:1040B000DF1DDF1DDF1DDF1DDF1DDF1DDF1DDEFD41
:1040C000DEFDDEFDDEFDDEFDDEFCDEFCDEFCDEFC1C
:1040D000DEFCDEFCDEDCDEDCDEDCD6DCD6DCD6DCE8
:1040E000D6DCD6DCD6BCD6BCD6BBD6BBD6BCD6BC02
:1040F000D6BCD6BCD6BCD6BCD6BCD6BCD6BCD6BC30
:10410000D6BCD6BCD6BCD6BCD6BCD6BCD6BCD6BC1F
:10411000D6DDD6DDD6DDD6DDDEDDDEFEFFFFFFFF40
:10412000FFFFFFFFFFFFFFFFFFFFFFFFFFFFFFFF9F
:10413000FFFFFFFFFFFFFFFFFFFFFFFFFFFFFFFF8F
:10414000FFFFFFFFFFFFFFFFFFFFFFFFFFFFFFFF7F
:10415000FFFFFFFFFFFFFFFFFFFFFFFFFFFFFFFF6F
:10416000FFFFFFFFFFFFFFFFFFFFFFFFFFFFFFFF5F
:10417000FFFFFFFFFFFFFFFFFFFFFFFFFFFFFFFF4F
:10418000FFFFFFFFF7FF95387CF97CF97D19853A31
:10419000853A853A855A853A855A8D5A8D5A8D5A6F
:1041A000855A853A853A851A7D1A7D1A853A853B66
:1041B0007D1A7D1A7D1A7D1A7D1A7D1A7D1A853B1E
:1041C000853B853B853B853B853B853B853B853BEF
:1041D000853B853B853B855B855B855B855B855B3F
:1041E0008D5B8D7B8D5B8D5B8D7B8D7B8D5B8D7B0F
:1041F0008D7B959B959B9D9B9DBBA5BBA5DBA5DB67
:10420000A5FBADFCADFCADFCADDAB5FBB63CBE7DAF
:10421000C69DCE9DCEBDCEBDD6BDD6FEE73EE77FC8
:10422000EF7FEF9FEFBFEFBFF7BFF7DFF7DFF7DFFE
:10423000F7DFF7DFF7BFF7BFF7BFF7BFEF9FEF9FDE
:10424000EF9FEF9FEF9FEF9FEF9FF79FF7BFF7BFA6
:10425000F7BFF7BFF7DFF7DFF7DFF7DFFFDFFFDFDE
:10426000FFDFFFFFFFFFFFFFFFFFFFFFFFFFFFFF7E
:10427000FFFFFFFFFFFFFFFFFFFFFFFFFFFFFFFF4E
:10428000FFFFFFFFFFFFFFFFFFFFFFFFFFFFFFFF3E
:10429000FFFFFFFFFFFFFFFFFFFFFFFFFFFFFFFF2E
:1042A000FFFFFFFFFFFFFFFFFFFFFFFFFFFFFFFF1E
:1042B000FFFFFFFFFFFFFFFFFFFFFFFFFFFFFFFF0E
:1042C000FFFFFFFFFFFFFFFFFFFFFFFFFFFFFFFFFE
:1042D000FFFFFFFFFFFFFFFFFFFFFFFFFFFFFFFFEE
:1042E000FFFFFFFFFFFFFFFFFFFFFFFFFFFFFFFFDE
:1042F000FFFFFFFFFFFFFFFFFFFFFFFFFFFFFFFFCE
:10430000FFFFFFFFFFFFFFFFFFFFFFFFFFFFFFFFBD
:10431000FFFFFFFFFFFFFFFFFFFFFFFFFFFFFFFFAD
:10432000FFFFFFFFFFFFFFFFFFFFFFFFFFFFFFFF9D
:10433000FFFFFFFFFFFFFFFFFFFFFFFFFFFFFFFF8D
:10434000FFFFFFFFFFFFFFFFFFFFFFFFFFFFFFFF7D
:10435000FFFFFFFFFFFFFFFFFFFFFFFFFFFFFFFF6D
:10436000FFFFFFFFFFFFFFFFFFFFFFFFFFFFFFFF5D
:10437000FFFFFFFFFFFFFFFFFFFFFFFFFFFFFFFF4D
:10438000FFFFFFFFFFFFFFFFFFFFFFFFFFFFFFFF3D
:10439000FFFFFFFFFFFFFFFFFFFFFFFFFFFFFFFF2D
:1043A000FFFFFFFFFFFFFFFFFFDFFFFFFFFFFFDF5D
:1043B000FFDFFFDFFFFFFFFFFFFFFFFFFFDFFFDF8D
:1043C000FFDFFFDFFFDFFFDFFFDFFFDFFFDFFFDFFD
:1043D000F7DFF7DFF7BFF7BFF7BFF7BFF7BFF7BFED
:1043E000F7BFF7BFF7BFF7BFF7BFF7BFF79FF79F5D
:1043F000EF9FEF9FEF9FEF9FEF9FEF7FEF7FEF7FAD
:10440000EF7FEF7FEF7FEF7FEF7FEF7FEF7FEF7F3C
:10441000EF7FE75EE75EE75EE75EE75EE75EE75E4B
:10442000E75EE75EE75EE75EE75EE75EE75EE75E64
:10443000E73EE73EE73EE73EE73EE73EE73EE73E54
:10444000E73EE73EE73EE73EE73EE73EE73EE73E44
:10445000E73EE73EE73EE73EE71DE71DE71DE71DB8
:10446000E71DE71DE71DDF1DE71DDF1DDF1DDF1D4C
:10447000DF1DDF1DDF1DDF1DDF1DDF1DDF1DDF1D5C
:10448000DEFDDEFDDEFDDEFDDEFCDEFCDEFCDEFC58
:10449000DEFCDEFCDEDCDEDCDEDCD6DCD6DCD6DC24
:1044A000D6DCD6BCD6BCD6BCD6BCD6BCD6BCD6BC5C
:1044B000D6BCD6BCD6BCD6BCD6BCD6BCD6BCD6BC6C
:1044C000D6BCD6BCD6BCD6BCD6BCD6BCD6DCD6DC1C
:1044D000D6DDD6DDD6DDD6DDDEDDDEFEFFFFFFFF7D
:1044E000FFFFFFFFFFFFFFFFFFFFFFFFFFFFFFFFDC
:1044F000FFFFFFFFFFFFFFFFFFFFFFFFFFFFFFFFCC
:10450000FFFFFFFFFFFFFFFFFFFFFFFFFFFFFFFFBB
:10451000FFFFFFFFFFFFFFFFFFFFFFFFFFFFFFFFAB
:10452000FFFFFFFFFFFFFFFFFFFFFFFFFFFFFFFF9B
:10453000FFFFFFFFFFFFFFFFFFFFFFFFFFFFFFFF8B
:10454000FFFFFFFFF7FF95387D197CF97D19853A4C
:10455000853A853A8D5A855A855A8D5A8D5B855A8A
:10456000855A853A851A7D1A7D1A7D1A7D1A7D1A1B
:104570007D1A7D1A7D1A7D1A7D1A7D1A7D1A7D1A83
:10458000853B853B853B853B853B853B853B853B2B
:10459000853B853B853B853B855B855B855B855B9B
:1045A0008D5B8D7B8D5B8D5B8D7B8D7B8D5B8D5B6B
:1045B0008D7B957B959B9D9B9DBBA5DBA5DCA5DBA2
:1045C000A5DBADDBADFBADFCADFBB61BB63BBE5C0E
:1045D000C69DC69DCEBDCEBDD6BDD6FEDF3EE75F35
:1045E000EF7FEF9FEFBFEFBFF7BFF7BFF7DFF7DF5B
:1045F000F7DFF7BFF7BFF7BFF7BFF7BFF7BFF7BFEB
:10460000F7BFEF9FEF9FEF9FF7BFF79FF79FF7BFB2
:10461000F7BFF7DFF7DFF7DFF7DFF7DFFFFFFFFFBA
:10462000FFFFFFFFFFFFFFFFFFFFFFFFFFFFFFFF9A
:10463000FFFFFFFFFFFFFFFFFFFFFFFFFFFFFFFF8A
:10464000FFFFFFFFFFFFFFFFFFFFFFFFFFFFFFFF7A
:10465000FFFFFFFFFFFFFFFFFFFFFFFFFFFFFFFF6A
:10466000FFFFFFFFFFFFFFFFFFFFFFFFFFFFFFFF5A
:10467000FFFFFFFFFFFFFFFFFFFFFFFFFFFFFFFF4A
:10468000FFFFFFFFFFFFFFFFFFFFFFFFFFFFFFFF3A
:10469000FFFFFFFFFFFFFFFFFFFFFFFFFFFFFFFF2A
:1046A000FFFFFFFFFFFFFFFFFFFFFFFFFFFFFFFF1A
:1046B000FFFFFFFFFFFFFFFFFFFFFFFFFFFFFFFF0A
:1046C000FFFFFFFFFFFFFFFFFFFFFFFFFFFFFFFFFA
:1046D000FFFFFFFFFFFFFFFFFFFFFFFFFFFFFFFFEA
:1046E000FFFFFFFFFFFFFFFFFFFFFFFFFFFFFFFFDA
:1046F000FFFFFFFFFFFFFFFFFFFFFFFFFFFFFFFFCA
:10470000FFFFFFFFFFFFFFFFFFFFFFFFFFFFFFFFB9
:10471000FFFFFFFFFFFFFFFFFFFFFFFFFFFFFFFFA9
:10472000FFFFFFFFFFFFFFFFFFFFFFFFFFFFFFFF99
:10473000FFFFFFFFFFFFFFFFFFFFFFFFFFFFFFFF89
:10474000FFFFFFFFFFFFFFFFFFFFFFFFFFFFFFFF79
:10475000FFFFFFFFFFFFFFFFFFFFFFFFFFFFFFFF69
:10476000FFFFFFFFFFFFFFFFFFFFFFDFFFDFFFDFB9
:10477000FFDFFFFFFFFFFFDFFFDFFFDFFFDFFFDF09
:10478000FFDFFFDFFFDFFFDFF7DFF7DFFFDFF7DF51
:10479000F7DFF7DFF7BFF7BFF7BFF7BFF7BFF7BF29
:1047A000F7BFF7BFF7BFF7BFEF9EF79FF79FF79FE2
:1047B000EF9FEF9FEF9FEF9FEF9FEF7FEF7FEF7FE9
:1047C000EF7FEF7FEF7FEF5FEF7FEF7FEF7FEF7F99
:1047D000E75EE75EE75EE75EE75EE75EE75EE75EB1
:1047E000E75EE75EE75EE75EE75EE75EE75EE75EA1
:1047F000E73EE73EE73EE73EE73EE73EE73EE73E91
:10480000E73EE73EE73EE73EE73EE73EE73EE73E80
:10481000E73EE73EE73EE73EE71DE71DE71DE71DF4
:10482000E71DE71DE71DDF1DE71DDF1DDF1DDF1D88
:10483000DF1DDF1DDF1DDF1DDF1DDF1DDEFDDEFDDA
:10484000DEFDDEFDDEFDDEFDDEFCDEFCDEFCDEFC94
:10485000DEFCDEFCDEDCDEDCDEDCD6DCD6DCD6DC60
:10486000D6DCD6BCD6BCD6BCD6BCD6BCD6BCD6BC98
:10487000D6BCD6BCD6BCD6BCD6BCD6BCD6BCD6BCA8
:10488000D6BCD6BCD6BCD6DCD6DDD6DDD6DDD6DDF4
:10489000D6DDD6DDDEDDDEDDDEFDDEFEFFFFFFFF89
:1048A000FFFFFFFFFFFFFFFFFFFFFFFFFFFFFFFF18
:1048B000FFFFFFFFFFFFFFFFFFFFFFFFFFFFFFFF08
:1048C000FFFFFFFFFFFFFFFFFFFFFFFFFFFFFFFFF8
:1048D000FFFFFFFFFFFFFFFFFFFFFFFFFFFFFFFFE8
:1048E000FFFFFFFFFFFFFFFFFFFFFFFFFFFFFFFFD8
:1048F000FFFFFFFFFFFFFFFFFFFFFFFFFFFFFFFFC8
:10490000FFFFFFFFF7FF9538853A7D19851A853A35
:10491000853A853A853A853A855A8D5A855A855A17
:10492000853A853A851A7D1A7D1A7D1A7D1A7D1A77
:104930007D1A7D1A7D1A7D1A7D1A7D1A7D1A7D1ABF
:10494000853B853B853B853B853B853B853B853B67
:10495000853B853B853B853B855B855B855B855BD7
:10496000855B8D5B8D5B8D5B8D7B8D5B8D5B8D5BEF
:104970008D5B957B959B9D9B9DBBA5DBA5FCADFCB5
:10498000ADFBA5DBADDBADFBB63CB63CB63CBE5CDF
:10499000BE7CC69DCEBDCEBDD6DDD6FEDF3EE75F7A
:1049A000E77FEF9FEF9FEF9FF7BFF7BFF7BFF7BF1F
:1049B000F7BFF7BFF7BFF7BFF7BFF7BFF7BFEF9F6F
:1049C000EF9FEF9FEF9FEF9FF7BFF7BFF79FF7BFF7
:1049D000F7BFF7DFF7DFF7DFF7DFFFDFFFFFFFFFEF
:1049E000FFFFFFFFFFFFFFFFFFFFFFFFFFFFFFFFD7
:1049F000FFFFFFFFFFFFFFFFFFFFFFFFFFFFFFFFC7
:104A0000FFFFFFFFFFFFFFFFFFFFFFFFFFFFFFFFB6
:104A1000FFFFFFFFFFFFFFFFFFFFFFFFFFFFFFFFA6
:104A2000FFFFFFFFFFFFFFFFFFFFFFFFFFFFFFFF96
:104A3000FFFFFFFFFFFFFFFFFFFFFFFFFFFFFFFF86
:104A4000FFFFFFFFFFFFFFFFFFFFFFFFFFFFFFFF76
:104A5000FFFFFFFFFFFFFFFFFFFFFFFFFFFFFFFF66
:104A6000FFFFFFFFFFFFFFFFFFFFFFFFFFFFFFFF56
:104A7000FFFFFFFFFFFFFFFFFFFFFFFFFFFFFFFF46
:104A8000FFFFFFFFFFFFFFFFFFFFFFFFFFFFFFFF36
:104A9000FFFFFFFFFFFFFFFFFFFFFFFFFFFFFFFF26
:104AA000FFFFFFFFFFFFFFFFFFFFFFFFFFFFFFFF16
:104AB000FFFFFFFFFFFFFFFFFFFFFFFFFFFFFFFF06
:104AC000FFFFFFFFFFFFFFFFFFFFFFFFFFFFFFFFF6
:104AD000FFFFFFFFFFFFFFFFFFFFFFFFFFFFFFFFE6
:104AE000FFFFFFFFFFFFFFFFFFFFFFFFFFFFFFFFD6
:104AF000FFFFFFFFFFFFFFFFFFFFFFFFFFFFFFFFC6
:104B0000FFFFFFFFFFFFFFFFFFFFFFFFFFFFFFFFB5
:104B1000FFFFFFFFFFFFFFFFFFFFFFFFFFFFFFFFA5
:104B2000FFFFFFFFFFFFFFFFFFFFFFFFFFDFFFFFB5
:104B3000FFFFFFFFFFFFFFDFFFDFFFDFFFDFFFDF25
:104B4000FFDFFFDFFFDFFFDFF7DFF7DFF7DFF7DF95
:104B5000F7DFF7BFF7BFF7BFF7BFF7BFF7BFF7BF85
:104B6000F7BFF7BFF7BFF7BFF79FF79FEF9FEF9F25
:104B7000EF9FEF7FEF7FEF7FEF7FEF7FEF7FEF7FA5
:104B8000EF7FEF7FEF7FEF7FE75EE75EE75EEF7F30
:104B9000E75EE75EE75EE75EE75EE75EE75EE75EED
:104BA000E75EE75EE75EE75EE75EE75EE75EE75EDD
:104BB000E73EE73EE73EE73EE73EE73EE73EE73ECD
:104BC000E73EE73EE73EE73EE73EE73EE73EE73EBD
:104BD000E73EE71EE73EE73EE71DE71DE71DE71D51
:104BE000E71DE71DDF1DDF1DE71DDF1DDF1DDF1DCD
:104BF000DF1DDF1DDF1DDF1DDF1DDF1DDEFDDEFD17
:104C0000DEFDDEFCDEFDDEFDDEFCDEFCDEFCDEFCD1
:104C1000DEFCDEDCDEDCDEDCD6DCD6DCD6DCD6DCC4
:104C2000D6DCD6BCD6BCD6BCD6BCD6BCD6BCD6BCD4
:104C3000D6BCD6BCD6BCD6BCD6BCD6BCD6BCD6BCE4
:104C4000D6BCD6DCD6DCD6DCDEDDD6DDDEDDDEDDD8
:104C5000DEDDDEFDDEFDDEFDDEFDDEFEFFFFFFFF55
:104C6000FFFFFFFFFFFFFFFFFFFFFFFFFFFFFFFF54
:104C7000FFFFFFFFFFFFFFFFFFFFFFFFFFFFFFFF44
:104C8000FFFFFFFFFFFFFFFFFFFFFFFFFFFFFFFF34
:104C9000FFFFFFFFFFFFFFFFFFFFFFFFFFFFFFFF24
:104CA000FFFFFFFFFFFFFFFFFFFFFFFFFFFFFFFF14
:104CB000FFFFFFFFFFFFFFFFFFFFFFFFFFFFFFFF04
:104CC000FFFFFFFFF7FF9538853A851A851A851A89
:104CD0008519851A851A853A853A853A855A853A1D
:104CE000853A853A851A7D1A7D1A7D1A7D1A7D1AB4
:104CF0007D1A7D1A7D1A7D1A7D1A7D1A7D1B7D3BDA
:104D0000853B853B853B855B853B853B853B853B83
:104D1000853B853B853B853B853B853B855B855B53
:104D2000855B855B8D5A8D5A8D5A8D5B8D5B8D5B56
:104D30008D7B957B957B957B959B9DBBA5DCADFC89
:104D4000AE1CB61BB61CB61CBE5CBE7CBE7CBE7D5B
:104D5000C69DC6BDCEBDCEBDD6DDD6FEDF3EE73F8D
:104D6000E75FE77FEF7FEF9FF7BFF7BFF7BFF7BFC3
:104D7000F7BFF7BFF7BFF7BFF7BFF7BFEF9FEF9FD3
:104D8000EF7FEF7FEF9FEF9FEFBFF7BFF7BFF7DF3B
:104D9000F7DFF7DFF7DFF7DFF7DFFFDEFFFFFFFF0C
:104DA000FFFFFFFFFFFFFFFFFFFFFFFFFFFFFFFF13
:104DB000FFFFFFFFFFFFFFFFFFFFFFFFFFFFFFFF03
:104DC000FFFFFFFFFFFFFFFFFFFFFFFFFFFFFFFFF3
:104DD000FFFFFFFFFFFFFFFFFFFFFFFFFFFFFFFFE3
:104DE000FFFFFFFFFFFFFFFFFFFFFFFFFFFFFFFFD3
:104DF000FFFFFFFFFFFFFFFFFFFFFFFFFFFFFFFFC3
:104E0000FFFFFFFFFFFFFFFFFFFFFFFFFFFFFFFFB2
:104E1000FFFFFFFFFFFFFFFFFFFFFFFFFFFFFFFFA2
:104E2000FFFFFFFFFFFFFFFFFFFFFFFFFFFFFFFF92
:104E3000FFFFFFFFFFFFFFFFFFFFFFFFFFFFFFFF82
:104E4000FFFFFFFFFFFFFFFFFFFFFFFFFFFFFFFF72
:104E5000FFFFFFFFFFFFFFFFFFFFFFFFFFFFFFFF62
:104E6000FFFFFFFFFFFFFFFFFFFFFFFFFFFFFFFF52
:104E7000FFFFFFFFFFFFFFFFFFFFFFFFFFFFFFFF42
:104E8000FFFFFFFFFFFFFFFFFFFFFFFFFFFFFFFF32
:104E9000FFFFFFFFFFFFFFFFFFFFFFFFFFFFFFFF22
:104EA000FFFFFFFFFFFFFFFFFFFFFFFFFFFFFFFF12
:104EB000FFFFFFFFFFFFFFFFFFFFFFFFFFFFFFFF02
:104EC000FFFFFFFFFFFFFFFFFFFFFFFFFFFFFFFFF2
:104ED000FFFFFFFFFFFFFFFFFFFFFFFFFFFFFFFFE2
:104EE000FFFFFFFFFFFFFFFFFFFFFFFFFFFFFFFFD2
:104EF000FFFFFFFFFFFFFFDFFFDFFFDFFFDFFFDF62
:104F0000FFDFFFDFF7DFF7DFF7BFF7BFF7BFF7BF61
:104F1000F7BFF7BFF7BFF7BFF7BFF7BFF7BFF7BFE1
:104F2000F7BFF79FF79FF79FEF9EEF9FEF9FEF9FD2
:104F3000EF9FEF7FEF7FEF7FEF7FEF7FEF7FEF7FE1
:104F4000EF7FEF7FEF7FEF7FE75EE75EE75EE75E95
:104F5000E75EE75EE75EE75EE75EE75EE75EE75E29
:104F6000E75EE75EE75EE75EE75EE73EE73EE73E79
:104F7000E73EE73EE73EE73EE73EE73EE73EE73E09
:104F8000E73EE73EE73EE73EE73EE73EE73EE73EF9
:104F9000E71EE71EE71EE71EE71DE71DDF1DDF1DFD
:104FA000E71DE71DDF1DDF1DDF1DDF1DDF1DDF1D11
:104FB000DF1DDF1DDF1DDF1DDF1DDEFDDEFDDEFD74
:104FC000DEFCDEFCDEFCDEFDDEFCDEFCDEFCDEFC10
:104FD000DEFCDEDCDEDCDEDCD6DCD6DCD6DCD6DC01
:104FE000D6DCD6BCD6DCD6DCD6DCD6DCD6BCD6BC91
:104FF000D6BCD6BCD6BCD6BCD6DCD6DCD6DCD6DCA1
:10500000D6DCDEDCDEDCDEDDDEFDDEFDDEFDDEFD53
:10501000DEFDDEFDDEFDDEFDDEFDDEFEFFFFFFFF71
:10502000FFFFFFFFFFFFFFFFFFFFFFFFFFFFFFFF90
:10503000FFFFFFFFFFFFFFFFFFFFFFFFFFFFFFFF80
:10504000FFFFFFFFFFFFFFFFFFFFFFFFFFFFFFFF70
:10505000FFFFFFFFFFFFFFFFFFFFFFFFFFFFFFFF60
:10506000FFFFFFFFFFFFFFFFFFFFFFFFFFFFFFFF50
:10507000FFFFFFFFFFFFFFFFFFFFFFFFFFFFFFFF40
:10508000FFFFFFFFF7FF9558853A853A853A851A65
:105090008519851A853A853A853A853A853A853A59
:1050A000853A853A851A851A7D1A7D1A7D1A7D1AE8
:1050B0007D1A7D1A7D1A7D1A7D1A7D1A7D1B7D3B16
:1050C000853B853B853B853B853B853B853B853BE0
:1050D000853B853B853B853B853B855B855B8D5B68
:1050E0008D5B8D5B8D5B8D5B8D5B8D5B8D7B8D7B40
:1050F0008D7B959B959B959B959B9DBBA5DBA5DB90
:10510000AE1CB63CBE5DBE7DBE7DC69DC69DC6BD09
:10511000CEDECEDECEBDCEDDD6FEDF1EDF3EDF3FF5
:10512000E75FE75FE77FE77FEF7FEF7FEF9FEF9F2F
:10513000EF9FEF9FEF9FEF9FEF9FEF9FEF7FE77F47
:10514000E77FEF7FEF7FEF9FEFBFF7BFF7DFF7DF7F
:10515000F7DFF7DFF7DFF7DFF7DFF7DFFFFFFFFF4F
:10516000FFFFFFFFFFFFFFFFFFFFFFFFFFFFFFFF4F
:10517000FFFFFFFFFFFFFFFFFFFFFFFFFFFFFFFF3F
:10518000FFFFFFFFFFFFFFFFFFFFFFFFFFFFFFFF2F
:10519000FFFFFFFFFFFFFFFFFFFFFFFFFFFFFFFF1F
:1051A000FFFFFFFFFFFFFFFFFFFFFFFFFFFFFFFF0F
:1051B000FFFFFFFFFFFFFFFFFFFFFFFFFFFFFFFFFF
:1051C000FFFFFFFFFFFFFFFFFFFFFFFFFFFFFFFFEF
:1051D000FFFFFFFFFFFFFFFFFFFFFFFFFFFFFFFFDF
:1051E000FFFFFFFFFFFFFFFFFFFFFFFFFFFFFFFFCF
:1051F000FFFFFFFFFFFFFFFFFFFFFFFFFFFFFFFFBF
:10520000FFFFFFFFFFFFFFFFFFFFFFFFFFFFFFFFAE
:10521000FFFFFFFFFFFFFFFFFFFFFFFFFFFFFFFF9E
:10522000FFFFFFFFFFFFFFFFFFFFFFFFFFFFFFFF8E
:10523000FFFFFFFFFFFFFFFFFFFFFFFFFFFFFFFF7E
:10524000FFFFFFFFFFFFFFFFFFFFFFFFFFFFFFFF6E
:10525000FFFFFFFFFFFFFFFFFFFFFFFFFFFFFFFF5E
:10526000FFFFFFFFFFFFFFFFFFFFFFFFFFFFFFFF4E
:10527000FFFFFFFFFFFFFFFFFFFFFFFFFFFFFFFF3E
:10528000FFFFFFFFFFFFFFFFFFFFFFFFFFFFFFFF2E
:10529000FFFFFFFFFFFFFFFFFFFFFFFFFFFFFFFF1E
:1052A000FFFFFFFFFFFFFFFFFFFFFFFFFFFFFFFF0E
:1052B000FFFFFFFFFFDFFFDFFFDFFFDFFFDFFFDFBE
:1052C000F7DFF7DFF7BFF7BFF7BFF7BFF7BFF7BFEE
:1052D000F7BFF7BFF7BFF7BFF7BFF7BFF7BFF7BF1E
:1052E000F79FF79FF79FF79FEF9FEF9FEF9FEF9F2E
:1052F000EF7FEF7FEF7FEF7FEF7FEF7FEF7FEF7F3E
:10530000EF7FEF5EEF5EEF5EE75EEF7FEF7FE75EE2
:10531000E75EE75EE75EE75EE75EE75EE75EE75E65
:10532000E75EE75EE75EE75EE75EE73EE73EE73EB5
:10533000E73EE73EE73EE73EE73EE73EE73EE73E45
:10534000E73EE73EE73EE73EE73EE73EE73EE71E55
:10535000E71EE71EE71EE71EE71DDF1DDF1DDF1D41
:10536000E71DDF1DDF1DDF1DDF1DDF1DDF1DDF1D55
:10537000DF1DDF1DDF1DDF1DDF1DDEFDDEFDDEFDB0
:10538000DEFCDEFCDEFCDEFCDEFCDEFCDEFCDEFC4D
:10539000DEDCDEDCDEDCDEDCD6DCD6DCD6DCD6DC5D
:1053A000D6DCD6DCD6DCD6DCD6DCD6DCD6DCD6DC6D
:1053B000D6DCD6DCD6DCD6DCD6DCDEDCD6DCDEDC4D
:1053C000DEDDDEFDDEFDDEFDDEFDDEFDDEFDDEFD25
:1053D000DEFDDEFDDEFDDEFDDEFEDEFEFFFFFFFFAD
:1053E000FFFFFFFFFFFFFFFFFFFFFFFFFFFFFFFFCD
:1053F000FFFFFFFFFFFFFFFFFFFFFFFFFFFFFFFFBD
:10540000FFFFFFFFFFFFFFFFFFFFFFFFFFFFFFFFAC
:10541000FFFFFFFFFFFFFFFFFFFFFFFFFFFFFFFF9C
:10542000FFFFFFFFFFFFFFFFFFFFFFFFFFFFFFFF8C
:10543000FFFFFFFFFFFFFFFFFFFFFFFFFFFFFFFF7C
:10544000FFFFFFFFF7FF9559855A853A853A853A60
:10545000853A853A853A853A853A853A853A855A34
:10546000853A853A851A7D1A7D1A7D1A7D1A7D1A2C
:105470007D1A7D1B7D1A7D1A7D1A7D1A7D1B7D1B71
:10548000851B853B853B853B7D3B7D3B853B853B4C
:10549000853B853B853B853B853B855B855B8D5BA4
:1054A0008D5B8D5B8D7B8D7B8D7B8D7B8D7B957BF4
:1054B000959C959C959C959B959B9DBCA5DCA5DB9F
:1054C000ADFBB63CBE5DC67DBE7CC69DC69DC6BD61
:1054D000CEDECEDECEDDCEDED6FEDF1EDF1EDF1E52
:1054E000DF3EDF3FE73FE75FE75EE75EE75FE75E00
:1054F000E77FEF7FEF7FEF9FEF7FE77FE75EE75F7D
:10550000EF7FEF9FEF9FEF9FEF9FF7BFF7BFF7BFD3
:10551000F7BFF7BFF7DFF7DFF7DFF7DFF7DFFFFFF3
:10552000FFFFFFFFFFFFFFFFFFFFFFFFFFFFFFFF8B
:10553000FFFFFFFFFFFFFFFFFFFFFFFFFFFFFFFF7B
:10554000FFFFFFFFFFFFFFFFFFFFFFFFFFFFFFFF6B
:10555000FFFFFFFFFFFFFFFFFFFFFFFFFFFFFFFF5B
:10556000FFFFFFFFFFFFFFFFFFFFFFFFFFFFFFFF4B
:10557000FFFFFFFFFFFFFFFFFFFFFFFFFFFFFFFF3B
:10558000FFFFFFFFFFFFFFFFFFFFFFFFFFFFFFFF2B
:10559000FFFFFFFFFFFFFFFFFFFFFFFFFFFFFFFF1B
:1055A000FFFFFFFFFFFFFFFFFFFFFFFFFFFFFFFF0B
:1055B000FFFFFFFFFFFFFFFFFFFFFFFFFFFFFFFFFB
:1055C000FFFFFFFFFFFFFFFFFFFFFFFFFFFFFFFFEB
:1055D000FFFFFFFFFFFFFFFFFFFFFFFFFFFFFFFFDB
:1055E000FFFFFFFFFFFFFFFFFFFFFFFFFFFFFFFFCB
:1055F000FFFFFFFFFFFFFFFFFFFFFFFFFFFFFFFFBB
:10560000FFFFFFFFFFFFFFFFFFFFFFFFFFFFFFFFAA
:10561000FFFFFFFFFFFFFFFFFFFFFFFFFFFFFFFF9A
:10562000FFFFFFFFFFFFFFFFFFFFFFFFFFFFFFFF8A
:10563000FFFFFFFFFFFFFFFFFFFFFFFFFFFFFFFF7A
:10564000FFFFFFFFFFFFFFFFFFFFFFFFFFFFFFFF6A
:10565000FFFFFFFFFFFFFFFFFFFFFFFFFFFFFFFF5A
:10566000FFFFFFFFFFFFFFFFFFFFFFFFFFFFFFFF4A
:10567000FFFFFFDFFFDFFFDFFFDFFFDFFFDFFFDF1A
:10568000F7DFF7DFF7BFF7BFF7BFF7BFF7BFF7BF2A
:10569000F7BFF7BFF7BFF7BFF7BFF7BFF7BFF79F7A
:1056A000F79FEF9FEF9FEF9FEF9FEF9FEF9FEF7FA2
:1056B000EF7FEF7FEF7FEF7FEF7FEF7FEF7FEF7F7A
:1056C000EF5EEF5EEF5EEF5EEF7FEF7FEF7FE75E17
:1056D000E75EE75EE75EE75EE75EE75EE75EE75EA2
:1056E000E75EE75EE75EE75EE75EE73EE73EE73EF2
:1056F000E73EE73EE73EE73EE73EE73EE73EE73E82
:10570000E73EE73EE73EE73EE73EE73EE71EE71EB1
:10571000E71EE71EE71EE71EE71DDF1DDF1DDF1D7D
:10572000DF1DDF1DDF1DDF1DDF1DDF1DDF1DDF1D99
:10573000DF1DDF1DDF1DDF1DDF1CDF1CDEFDDEFDCD
:10574000DEFDDEFCDEFCDEFCDEFCDEFCDEFCDEFC88
:10575000DEDCDEDCD6DCD6DCD6DCD6DCD6DCD6DCA9
:10576000D6DCD6DCD6DCDEDCDEDCDEDCDEDCDEDC81
:10577000DEDCDEDCDEDCDEDCDEDDDEDDDEDDDEFD35
:10578000DEFDDEFDDEFDDEFDDEFDDEFDDEFDDEFD41
:10579000DEFDDEFDDEFDDEFDDEFEDEFEFFFFFFFFE9
:1057A000FFFFFFFFFFFFFFFFFFFFFFFFFFFFFFFF09
:1057B000FFFFFFFFFFFFFFFFFFFFFFFFFFFFFFFFF9
:1057C000FFFFFFFFFFFFFFFFFFFFFFFFFFFFFFFFE9
:1057D000FFFFFFFFFFFFFFFFFFFFFFFFFFFFFFFFD9
:1057E000FFFFFFFFFFFFFFFFFFFFFFFFFFFFFFFFC9
:1057F000FFFFFFFFFFFFFFFFFFFFFFFFFFFFFFFFB9
:10580000FFFFFFFFF7FF9559855A853A853A853A9C
:10581000853A853A853A853A853A853A853A855B6F
:10582000855B853A7D1A7D1A7D1A7D1A7D1A7D1A4F
:105830007D1A7D1B7D1A7D1A7D3B7D3B7D1B7D3B4B
:10584000853B853B853B7D3B7D3A7D3B853B853B71
:10585000853B853B853B853A853B853B853A8D5B22
:105860008D5B8D7B8D7B8D7B8D7B8D7B8D7B959BF0
:10587000959C959C959C959C959B9DDCA5FCA5FC79
:10588000ADFBB61CBE5CBE7DBE7CBE7CC67CC67D50
:10589000C69DC6BDCEBDCEDED6FED6FEDF1EDF1E49
:1058A000DF1EDF1EDF1EDF1EDF3EDF3EE75EE75F3F
:1058B000E77FEF7FEF7FEF9FE75EE75EE75EE75F03
:1058C000EF7FEF9FEF9FEF9FEF9FEF9FEF9FEF9F88
:1058D000F7BFF7BFF7BFF7BFF7BFF7BFF7DFFFFFB0
:1058E000FFFFFFFFFFFFFFFFFFFFFFFFFFFFFFFFC8
:1058F000FFFFFFFFFFFFFFFFFFFFFFFFFFFFFFFFB8
:10590000FFFFFFFFFFFFFFFFFFFFFFFFFFFFFFFFA7
:10591000FFFFFFFFFFFFFFFFFFFFFFFFFFFFFFFF97
:10592000FFFFFFFFFFFFFFFFFFFFFFFFFFFFFFFF87
:10593000FFFFFFFFFFFFFFFFFFFFFFFFFFFFFFFF77
:10594000FFFFFFFFFFFFFFFFFFFFFFFFFFFFFFFF67
:10595000FFFFFFFFFFFFFFFFFFFFFFFFFFFFFFFF57
:10596000FFFFFFFFFFFFFFFFFFFFFFFFFFFFFFFF47
:10597000FFFFFFFFFFFFFFFFFFFFFFFFFFFFFFFF37
:10598000FFFFFFFFFFFFFFFFFFFFFFFFFFFFFFFF27
:10599000FFFFFFFFFFFFFFFFFFFFFFFFFFFFFFFF17
:1059A000FFFFFFFFFFFFFFFFFFFFFFFFFFFFFFFF07
:1059B000FFFFFFFFFFFFFFFFFFFFFFFFFFFFFFFFF7
:1059C000FFFFFFFFFFFFFFFFFFFFFFFFFFFFFFFFE7
:1059D000FFFFFFFFFFFFFFFFFFFFFFFFFFFFFFFFD7
:1059E000FFFFFFFFFFFFFFFFFFFFFFFFFFFFFFFFC7
:1059F000FFFFFFFFFFFFFFFFFFFFFFFFFFFFFFFFB7
:105A0000FFFFFFFFFFFFFFFFFFFFFFFFFFFFFFFFA6
:105A1000FFFFFFFFFFFFFFFFFFFFFFFFFFFFFFFF96
:105A2000FFFFFFFFFFFFFFFFFFFFFFFFFFFFFFFF86
:105A3000FFDFFFDFFFDFFFDFFFDFFFDFFFDFF7DF7E
:105A4000F7DFF7DFF7BFF7BFF7BFF7BFF7BFF7BF66
:105A5000F7BFF7BFF7BFF7BFF7BFF7BFF79FF79FD6
:105A6000F79FEF9FEF9FEF9FEF7FEF7FEF7FEF7F3E
:105A7000EF7FEF7FEF7FEF7FEF7FEF7FEF5FEF5FF6
:105A8000EF5EEF5EEF5EEF5EE75EEF7FEF7FE75E7C
:105A9000EF7FEF7FEF7FE75EE75EE75EE75EE75E63
:105AA000E75EE75EE75EE75EE75EE73EE73EE73E2E
:105AB000E73EE73EE73EE73EE73EE73EE73EE73EBE
:105AC000E73EE73EE73EE73EE71EE71EE71EE71E2E
:105AD000E71EE71EE71DE71DE71DDF1DDF1DDF1DBC
