:020000040800F2
:100000003805002089190008511900085319000803
:100010005519000857190008591900080000000078
:100020000000000000000000000000005B19000854
:100030005D190008000000005F1900086119000840
:10004000A1190008A5190008A9190008AD19000890
:10005000B1190008B5190008B9190008BD19000840
:10006000C1190008C5190008C9190008CD190008F0
:10007000D1190008D5190008D9190008DD190008A0
:10008000E1190008E5190008E9190008ED19000850
:10009000F1190008F5190008F9190008FD19000800
:1000A000011A0008051A0008091A00080D1A0008AC
:1000B000111A0008151A0008191A00081D1A00085C
:1000C000211A0008251A0008291A00082D1A00080C
:1000D000311A0008351A0008391A00083D1A0008BC
:1000E000411A0008451A0008491A00084D1A00086C
:1000F000511A0008551A0008591A00085D1A00081C
:10010000611A0008651A0008691A00086D1A0008CB
:10011000711A0008751A0008791A00087D1A00087B
:10012000811A0008851A0008891A00088D1A00082B
:100130002DE9F843040016D02078DFF85464C10795
:1001400013D5706800F00C00042807D0706800F028
:100150000C00082840D17068C1033DD53068810388
:1001600003D56068002800F058812078DFF83094CB
:10017000810719D5706810F00C0F07D0706800F077
:100180000C00082860D17068C1035DD43068810715
:1001900003D52269012A40F040813068616920F06E
:1001A000F80040EAC1003060207801077BD5A069E3
:1001B000DFF8F013002800F09D8001220A6000F0B3
:1001C00025FA0546706A81075ED400F01FFA401BCD
:1001D0000228F7D9032023E16068B0F5803F04D1FD
:1001E000306840F48030306014E008B930680AE0CC
:1001F000B0F5A02F306806D140F48020306031681F
:1002000041F4803105E020F480303060316821F421
:1002100080213160606858B100F0F8F90546306817
:100220008103A2D400F0F2F9401B6528F7D3D1E78F
:1002300000F0ECF905463068810396D500F0E6F948
:10024000401B6528F7D3C5E7206970B10121C9F8C3
:10025000001000F0DBF90546306881079DD400F0FE
:10026000D5F9401B0228F7D9B4E70022C9F80020CD
:1002700000F0CCF905463068810795D500F0C6F945
:10028000401B0228F7D9A5E7DFF808231068C0084B
:100290004FF47A71B0FBF1F1009100BF0098411E5C
:1002A00000280091F9D12078410768D5F069002530
:1002B000C10009D4F06940F08050F0610125F06977
:1002C00000F0805000900098DFF8DC723868C105BB
:1002D0001DD4386840F48070386000F097F980468B
:1002E0003868C10513D400F091F9A0EB0800652827
:1002F000F6D36FE7086000F089F90546706A810758
:10030000D1D500F083F9401B0228F7D962E7E068F5
:10031000012808D008B9306A09E00528306A06D1FA
:1003200040F004003062306A40F0010005E040080F
:1003300040003062306A20F00400306241F28938B7
:10034000E06858B100F062F90746306A810711D4BD
:1003500000F05CF9C01B4045F7D33BE700F056F9CD
:100360000746306A810705D500F050F9C01B4045AB
:10037000F7D32FE71DB1F06920F08050F061E069FC
:1003800000284CD0716801F00C01082938D00228EF
:100390002AD100F047F805463068810105D500F004
:1003A00035F9401B0228F7D914E7206AB0F5803FE1
:1003B00005D17168A06821F4003101437160726851
:1003C000206A616A22F4741202430A4372600120B7
:1003D00000F029F804463068810120D400F016F9B5
:1003E000001B0228F7D9F5E600F01CF80446306837
:1003F000810114D500F00AF9001B0228F7D9E9E6BB
:1004000001280AD07068226A00F48031914202BF4C
:1004100000F47010616A884201D0012000E00020E1
:10042000BDE8F2830020C9F8600000F0EFB82DE9C4
:10043000F041040088464ED05C4F00F077F802D2BD
:1004400000F06FF847D12068514D810712D5400761
:1004500003D5696841F4E06169602078010703D53C
:10046000686840F4605068606968A06821F0F00135
:10047000014369602178C80725D56068012802D149
:1004800029688A0303E00228296802D18A0102D47C
:1004900021E08A071FD56968890840EA8100686001
:1004A00000F0B4F806466868616800F00C00B0EB34
:1004B000810F08D000F0AAF8801B41F289318842F0
:1004C000F1D303202BE0386800F00700804504D208
:1004D00000F027F801D0012021E02078420705D55F
:1004E0006968E06821F4E0610143696021780807E8
:1004F00006D56968206921F4605141EAC00169604C
:1005000000F01AF86A682A49224BC2F30312895C88
:10051000C84018602148006800F07EF80020BDE85F
:10052000F0813968C90848EAC1013960386800F0CB
:10053000070040457047000010B51E4916480A687C
:1005400002F00C04082C10D11DA3C2F38344D20383
:100550001B5D08D5096858431DA3C1F34041595C90
:10056000B0FBF1F010BD1448584310BD0948114AC2
:10057000006813681149C3F3022206E005480D4ADA
:10058000006813680D49C3F3C222895CC8407047F4
:10059000001002403C00002000127A0038000020C9
:1005A00000004242800442420070004000200240AD
:1005B000781900080410024000093D00981900084D
:1005C00002030405060708090A0B0C0D0E0F101094
:1005D000010230B5016884684218416802EB51039A
:1005E000C90703D54C4401E0491C08D19A4218BF01
:1005F00012F9011B01D10C3030BD12F8015B00294A
:1006000004F8015BF0D4491EF7D5EFE701484068D4
:10061000704700BF3000002038B50D4D0D4B2A78D3
:1006200004464FF47A711868B1FBF2F2B0FBF2F0B5
:1006300000F046F850B9102C08D2002221464FF0A5
:10064000FF3000F020F8AC60002032BD012032BD48
:10065000300000203C0000200901020002D42148A3
:1006600081547047204B02F00F021A4402F8041C18
:1006700070471E490A6860F30A2240F2FA5060F39C
:100680001F420A60704770B5184B1C68C4F3022300
:100690000124C3F10705052D2EBF0F2504FA05F52A
:1006A0006D1E1E1D072E34BF0023DB1E29409940FE
:1006B00004FA03F3BDE870405B1E1A401143CBE718
:1006C000401EB0F1807F01D3012070470849094ADC
:1006D00048600023F02010708B6007200860002025
:1006E0007047000000E400E018ED00E00CED00E0D1
:1006F00010E000E023ED00E001B50123012200F04D
:1007000001F801BD6946DFF89C0300F026BA38B550
:100710000446DFF8945300F003F8002204210AE0B5
:1007200000220821284600F044BC38B5044600F0F9
:100730000FF800220821284600F03BFC2046FFF776
:10074000DBFF2846BDE838400122082100F031BC1B
:10075000DFF8545301220421284600F02ABCF8B5E2
:1007600004460D4616461F462A20FFF7D0FF200AF2
:10077000FFF7DBFFE0B2FFF7D8FF300AFFF7D5FF46
:10078000F0B2FFF7D2FF2B20FFF7C1FF280AFFF7D7
:10079000CCFFE8B2FFF7C9FF380AFFF7C6FFF8B28F
:1007A000FFF7C3FFBDE8F2402C20B0E710B5DFF83B
:1007B000F84200F012F8142000F01EFC00224FF462
:1007C000807100F00EF9642000F016FC00F005F8CE
:1007D000BDE81040642000F00FBC01224FF480718E
:1007E000204600F0E6BB000070B5DFF8B442DFF849
:1007F000BC12207008704FF4A0753620FFF787FFF9
:10080000012000F0F9FB207803284FF4F07612D88D
:10081000DFE800F00204060C082002E0782006E081
:10082000C820FFF782FFA580668070BDA820FFF773
:100830007CFFA680658070BD80B5FFF7B7FF012003
:10084000FFF765FF642000F0D7FBF720FFF75FFF9D
:10085000A920FFF76AFF5120FFF767FF2C20FFF761
:1008600064FF8220FFF761FFC020FFF750FF1120D7
:10087000FFF75BFF0920FFF758FFC120FFF747FF95
:100880004120FFF752FFC520FFF741FF00F0A6F817
:100890000A20FFF74AFF8020FFF747FFB120FFF74C
:1008A00036FFB020FFF741FF1120FFF73EFFB420D5
:1008B000FFF72DFF0220FFF738FFB620FFF727FFD5
:1008C0000220FFF732FF4220FFF72FFFB720FFF78C
:1008D0001EFFC620FFF729FFBE20FFF718FF00F01C
:1008E0007DF80420FFF721FFE920FFF710FF00F05B
:1008F00075F83620FFF70BFF6820FFF716FF3A2048
:10090000FFF705FF6620FFF710FFE020FFF7FFFE6F
:1009100000F064F800F060F80F20FFF706FF0D20EC
:10092000FFF703FF1B20FFF700FF0A20FFF7FDFE84
:100930003C20FFF7FAFE7820FFF7F7FE4A20FFF78A
:10094000F4FE00F049F80E20FFF7EFFE0920FFF754
:10095000ECFE1B20FFF7E9FE1E20FFF7E6FE0F204E
:10096000FFF7E3FEE120FFF7D2FE00F037F8222088
:10097000FFF7DBFE2420FFF7D8FE0620FFF7D5FEA9
:100980001220FFF7D2FE00F027F83620FFF7CDFE49
:100990004720FFF7CAFE4720FFF7C7FE0620FFF7F4
:1009A000C4FE0A20FFF7C1FE00F016F83020FFF762
:1009B000BCFE3720FFF7B9FE0F20FFF7B6FE11206F
:1009C000FFF7A5FE782000F017FB2920FFF79FFE18
:1009D000BDE80240012007E70720A6E60020A4E6C4
:1009E0000821204600F0E5BA2DE9F843884608EBD7
:1009F00048040746B4F5167F28BF4FF41678DFF891
:100A0000A89001220421484600F0D3FA00220821D0
:100A1000484600F0CEFA404600F002FB3D0AFE08D0
:100A200005F0F80506F0FC06FF00002104E042187E
:100A3000C91C1570567097704145F8D32646B6FB11
:100A4000F8F408FB1466DFF85C7054B105460A231D
:100A50001FFA88F22946384600F07FF8641EF6D166
:100A6000284601460A23B2B2384600F076F84846D6
:100A7000BDE8F84368E670B5DFF82450044668889E
:100A8000AE88431E721E9BB292B200210020FFF777
:100A900066FEA988688841432046BDE87040A3E708
:100AA0004000002048000020000801400100002014
:100AB00038B5040001D1012032BD606A28B900F0C8
:100AC0001CF905D00021E16102E000202061606195
:100AD0000020A06204F15005687820B90021297037
:100AE000204600F0E1FA0220687000F00AF9606820
:100AF000A168E26800F4827001F404410843217C9B
:100B000002F400621043227D01F002010843A16952
:100B100002F001021043227F01F40071084394F8AF
:100B2000201002F038021043A26A01F0800108434D
:100B3000216802F4005210430860A0692168000C8B
:100B400000F0040048602068C16921F40061C161BF
:100B5000002068600121697032BD2DE9FC41064624
:100B60000C4615469846FFF751FD06F15007797877
:100B7000012907D1002C14BF002D012077D039782E
:100B8000012901D1022072E00121397003237B7019
:100B90004FF0000CC7F804C03463B586F586002119
:100BA000B163B187F18771643164B368B3F5004F05
:100BB00009D131680B6823F040030B6031680C6881
:100BC00044F480440C6031680B685C0600F062F805
:100BD0004446F168B1F5006F71681FD1002918BF54
:100BE000012D00F06AF804E0316B0A88C26000F061
:100BF0004AF8F08E002830D0306881688A07F3D434
:100C0000FFF704FD00F035F805D314F1010FF0D023
:100C100000F033F82BE0002CEBD1F9E7002918BFE6
:100C2000012D00F03DF806E0316B0A780273306B5D
:100C3000411C00F02AF8F08E78B1306881688A078C
:100C4000F2D4FFF7E3FC00F014F803D314F1010F22
:100C5000F1D0DDE7002CEED1DAE7424621463046FE
:100C600000F0B0F808B12020786000F033F8BDE85B
:100C7000F681A0EB0800A0427047012078700021A7
:100C8000397003207047306B811C3163F08E411E38
:100C9000F186704703D40B6843F040030B60704744
:100CA00009D1336B326819781173316B4A1C326386
:100CB000F18E4A1EF2868046704709D1336B326846
:100CC0001988D160316B8A1C3263F18E4A1EF2861C
:100CD00080467047B06838B9002100913068C1681B
:100CE000009182680092009901207870002139708B
:100CF000786800B10120C0B270476068B0F5827FAB
:100D000070472068016821F04001016070472DE9BB
:100D1000F843089C06460F4690469946FFF776FC36
:100D2000A9EB00002418FFF771FC344A116849014F
:100D3000090D61430091054605E0009800B90024C3
:100D40000098401E0090306881683940B9420CBF5D
:100D500001200020404532D019F1010FF3D0FFF7F8
:100D600055FC401BA04201D2002CE6D130684168FE
:100D700021F0E00141607068B0F5827F09D1B06870
:100D8000B0F5004F18BFB0F5806F02D13068FFF7A3
:100D9000B9FFB06AB0F5005F09D13068016821F48D
:100DA000005101603068026842F40052026006F1AE
:100DB00050000121417000220270032000E0002059
:100DC000BDE8F2837CB50D461646044600962B46D8
:100DD00001220221FFF79BFF38B900962B46002223
:100DE00080212046FFF793FF08B100F001F876BD9F
:100DF000606D40F020006065032070473C000020DB
:100E00002DE9F84F00239E466C4CDFF8B4816D4EFF
:100E1000DFF8B4B14FF00F0902460CE02568284016
:100E2000206007E0C4F804C04F68FF03F6D52068CF
:100E3000054325605B1C0D6835FA03F000F0B780B0
:100E4000012000FA03FC0CEA05056545F2D148686B
:100E500058B301281AD002281FD0032833D01128F4
:100E600017D012281DD0594FB8421CBF584FB84256
:100E70001BD0584FB8421CBF574FB84215D0574FE0
:100E8000B8421CBF564FB8420FD01EE0D1F80CE05C
:100E90001BE0C86800F1040E17E0C86800F1080EF6
:100EA00013E0C86800F10C0E0FE0886810B94FF02D
:100EB000040E0AE001284FF0080E14BFC2F814C057
:100EC000C2F810C001E04FF0000EB5F5807F03D2EC
:100ED00010464FEA830C04E0A3F10807101D4FEA07
:100EE000870CD0F800A009FA0CF72AEA07070EFAD7
:100EF0000CFC4CEA070CC0F800C04868C00099D54B
:100F0000376847F0010737609F00306800F0010044
:100F1000009007F00C0C0098980858F820A009FAE7
:100F20000CF72AEA070A5A4508BF002718D02D4FA8
:100F3000BA4208BF012713D02B4FBA4208BF02277D
:100F40000ED02A4FBA4208BF032709D0284FBA4211
:100F500008BF042704D0274FBA420CBF0527062735
:100F600007FA0CF747EA0A0C48F820C0E8434F6834
:100F7000D4F808C0FF024CBF45EA0C0C00EA0C0C88
:100F8000C4F808C04F68D4F80CC0BF024CBF45EA93
:100F90000C0C00EA0C0CC4F80CC04F68D4F804C068
:100FA000BF034CBF45EA0C0C00EA0C0C3AE7BDE865
:100FB000F18F02B90904016170470000000401408B
:100FC0000800014018100240000801400000111004
:100FD000000012100000211000002210000031104B
:100FE00000003210000C01400010014000140140CC
:100FF00000180140001C014038B50446FFF706FB0D
:1010000014F1010F054602D0044908780419FFF7CE
:10101000FDFA401BA042FAD331BD00BF30000020D2
:1010200070B50446E51DED08AFF30080ED00072D17
:1010300098BF0825A5420D4E13D334682CB900F093
:10104000AFF800283060F8D10BE02068A84208D340
:101050006119451B316004D00D60AFF3008020465C
:1010600070BDAFF30080002070BD00003001002093
:10107000454881B0026842F001020260016801F057
:10108000010100910099426842F0805242600222C0
:10109000406800F08050009000983C48016862F37E
:1010A0001A61016001B0704718B585B0044610217F
:1010B000002201A800F08AF82168354A914216D131
:1010C0003148036843F480530360016801F48051A0
:1010D0000091009900F04FF80090A020009A019034
:1010E00002910322049201A92A48FFF789FE06B063
:1010F00010BD81B000682849884209D122480268A1
:1011000042F400620260006800F400600090009801
:1011100001B0704718B585B004461021002268461A
:1011200000F054F821681D4A914222D11648194C0A
:10113000036843F480430360016801F48041049133
:10114000049900F018F804904FF40070049A00908D
:1011500001910322039269462046FFF751FE4FF4A6
:101160008060002100900191029120466946FFF7BE
:1011700047FE06B010BD026842F004020260022180
:10118000006800F00400704718100240040001409D
:101190000030014000080140002C014000380140AF
:1011A0000749086808B1002070470648C008C00019
:1011B00008600549C908C900091A0160704700BFE5
:1011C000340100203F050020380700204018491C4A
:1011D0001CBFB1F1010100F8012DF9D170470000E9
:1011E00038B5040001D1012032BD00F051F818B922
:1011F00000F04AF8FFF77DFF32E090F83D1001293A
:1012000001D001207047022180F83D100168CA68B2
:1012100042F00102CA600168DFF87C2091421CBFE5
:10122000DFF8783099420ED0B1F1804F1CBFDFF863
:101230007020914207D0DFF86C3099421CBFDFF874
:101240006820914205D1896801F00701062905D07F
:1012500001680A68084642F00102026000207047F7
:1012600002206870211D206800F07FF80120A8721C
:101270000121A970E87029716871A971E87129725A
:1012800068726970002032BD0021297020467047C5
:1012900004F13C0568787047002C0140003401409F
:1012A0000004004000080040000C004070B50446F7
:1012B00004F13C0600253078012801D1022070BDE0
:1012C0000120307002227270DFF8200122689368DA
:1012D000034093600868020018BF102830D020280F
:1012E00018BF30282CD0402826D0502819D060288C
:1012F0001BD0702806D0B0F5805F27D0B0F5005F16
:1013000007D022E000F02CF82068816841F07701D6
:1013100005E000F025F82068816841F48041816093
:1013200014E000F019F850210BE0CA684968206801
:1013300000F077F8602104E000F00EF8402100E0B2
:101340000146206800F07FF800E001250120707060
:1013500000213170284670BDCA684968206851E094
:10136000CB684A688968206875E0F0B50368204D4D
:10137000204A214E214F224CA84218BFA04208D03B
:10138000B0F1804F18BFB84203D0B04218BF9042AE
:101390000ED123F0700C4B6843EA0C03A84218BF2F
:1013A000A04207D0B0F1804F1CBFB842B04201D07C
:1013B000904203D123F44072CB6813434A6923F06F
:1013C000800313430360A8428B68C3620A68826289
:1013D00012BFA04209690163012242610169CA0783
:1013E00003D50169490849000161F0BD8800FFFF8C
:1013F000002C0140000C00400008004000040040A8
:101400000034014010B5036A046A64086400046291
:1014100023F00A03846924F0F00444EA021484618E
:1014200023E010B5036A046A24F01004046223F078
:10143000A003846924F4704444EA0234846143EADA
:101440000113036210BD826822F07002114341F063
:1014500007018160704710B5846824F47F442143FC
:10146000114341EA0321816010BD1943016210BD9F
:1014700038B586B000F012F900F0DDF868460021BA
:1014800000220023002480E81E005F485F4D0268B0
:101490005F4C42F020020260016801F020010491DB
:1014A000049A036843F004030360016801F0040137
:1014B0000491049A036843F008030360016801F093
:1014C000080104910499026842F0100202600022AF
:1014D000006800F0100004904FF4867104982846CC
:1014E000FFF767FD00224FF4E0412046FFF761FD62
:1014F000012101914FF4867000F096F82846FFF71D
:101500007FFC012101914FF4E04000F08DF820466E
:10151000FFF776FC0021019102914FF40045009500
:1015200069462046FFF76CFC4020002100900191A5
:10153000029169463748384CFFF762FC3748206013
:101540004FF482710020E0602061606161600820DA
:101550004FF40071E061A1610A200021E062216284
:101560006162A162A5602046FFF7A2FA08B100F00F
:1015700093F82B48A0654FF4E131E1650020206627
:101580006066A0660C2120676067E16604F1580080
:1015900000F096F808B100F07FF802A800210022C0
:1015A0000023002580E82E00CDE9001247201D49C8
:1015B00044F8A01F6060A2604FF6FF70E0602261F7
:1015C0006261A2612046FFF70BFE08B100F064F8EB
:1015D0004FF48050029002A92046FFF767FE08B141
:1015E00000F05AF8009501956946204600F0E4F8AD
:1015F00008B100F051F82046FFF7FFFDFFF71CF996
:101600001F20FFF738FAFEE71810024000080140DB
:10161000000C014000100140480000200030014053
:1016200000380140002C014002210090002203916B
:1016300002926946704700B58FB0282105A800F0D6
:10164000F7F81421684600F0F3F84FF480310022D7
:10165000069107920D9101200590099002224FF406
:10166000E0110C920E9105A8FEF762FD08B100F0A2
:1016700013F8022101910F204FF4806100900022A5
:1016800003910292049202216846FEF7D0FE08B14F
:1016900000F002F80FB000BD72B6FEE780B5074853
:1016A000016841F0100101600320FEF7E2FF0F2006
:1016B000FEF7B2FFFFF7DCFC002002BD0020024075
:1016C00038B5040001D1012032BD04F1400568782D
:1016D00008B900F011F800F014F800F023F8FFE763
:1016E000416100F018F86860202169702020A8701E
:1016F00000216163002032BD002129702046FFF7E0
:1017000009BD242068702068C16821F40051C160BF
:10171000204600F011B82068C16841F40051C16052
:10172000002070472068016921F490410161206820
:10173000416921F02A01704710B5044622681169F9
:10174000E06821F4405101431161D3681848A16851
:10175000034020690B43616903430B43D360154980
:101760005369A06923F4407303438A42536102D151
:10177000FEF704FF01E0FEF7F9FE62681921484315
:101780009200B0FBF2F16423B1FBF3F26FF063005F
:1017900000FB021109013231B1FBF3F000F0F0015E
:1017A00001EB0211226800F00F004018906010BD9C
:1017B000F3E9FFFF0038014070B500F13C031A78EF
:1017C000012A01D1022070BD01221A7002245C702E
:1017D00005686E68AC680A6826F0700616436E608D
:1017E00002680E4882421CBF0E4DAA420BD0B2F1D5
:1017F000804F1CBF0C48824205D0094DAA421CBF35
:101800000A48824204D1486824F08004044394606A
:10181000012159700020187070BD0000002C01409B
:10182000000800400034014000040040000C00406B
:10183000002200F001B8000000B500BF130096467A
:101840009446103928BFA0E80C50FAD85FEA417CD2
:1018500028BF0CC048BF40F8042BC90728BF20F898
:10186000022B48BF00F8012B00BD30B4002512E068
:1018700050F8042BD30744BF4A44521E091F0429C1
:1018800042F8045BFAD213468C0744BF15809B1CB8
:10189000C90748BF1D7050F8041B0029E8D130BCAF
:1018A0007047000010B5074979441831064C7C4454
:1018B000163404E00A68081D114488470146A14215
:1018C000F8D110BD08000000240000009FFFFFFFBA
:1018D000F00000004800002000000000F7ECFFFFCF
:1018E000B0010000480000000000002000F00DF8EA
:1018F000002801D0FFF7D6FFAFF300800020AFF340
:101900000080FFF7B5FD00F002F80120704700F0FD
:1019100001B800000746384600F002F8FBE7000077
:1019200080B5AFF30080024A11001820ABBEFBE780
:10193000260002000548014603B4684680F3098882
:10194000AFF30080AFF30080FFF7D0FFA5EDF5FE09
:10195000FEE7FEE7FEE7FEE7FEE7704770477047E9
:1019600000F000B802494A68087882184A60704757
:101970003000002070470000000000000000000060
:10198000010203040607080901488047014800478F
:101990007519000835190008000000000102030451
:1019A000FFF7FEBFFFF7FEBFFFF7FEBFFFF7FEBF6B
:1019B000FFF7FEBFFFF7FEBFFFF7FEBFFFF7FEBF5B
:1019C000FFF7FEBFFFF7FEBFFFF7FEBFFFF7FEBF4B
:1019D000FFF7FEBFFFF7FEBFFFF7FEBFFFF7FEBF3B
:1019E000FFF7FEBFFFF7FEBFFFF7FEBFFFF7FEBF2B
:1019F000FFF7FEBFFFF7FEBFFFF7FEBFFFF7FEBF1B
:101A0000FFF7FEBFFFF7FEBFFFF7FEBFFFF7FEBF0A
:101A1000FFF7FEBFFFF7FEBFFFF7FEBFFFF7FEBFFA
:101A2000FFF7FEBFFFF7FEBFFFF7FEBFFFF7FEBFEA
:101A3000FFF7FEBFFFF7FEBFFFF7FEBFFFF7FEBFDA
:101A4000FFF7FEBFFFF7FEBFFFF7FEBFFFF7FEBFCA
:101A5000FFF7FEBFFFF7FEBFFFF7FEBFFFF7FEBFBA
:101A6000FFF7FEBFFFF7FEBFFFF7FEBFFFF7FEBFAA
:101A7000FFF7FEBFFFF7FEBFFFF7FEBFFFF7FEBF9A
:101A8000FFF7FEBFFFF7FEBFFFF7FEBFFFF7FEBF8A
:101A9000FC000001FB00FE01FD00FEFFF500FEFF63
:101AA000EE000001F9000010FC0001127AFD0003B5
:041AB000E001400110
:0400000508001935A1
:00000001FF
